:020000040800F2
:10000000B0330020E10100083B320008072F000850
:1000100037320008AD0A00088939000800000000E6
:10002000000000000000000000000000490100087E
:10003000F10A0008000000008D010008B135000839
:10004000FB010008FB010008FB010008FB010008A0
:10005000FB010008FB010008FB010008FB01000890
:10006000FB010008FB010008FB010008FB01000880
:10007000FB010008FB010008FB010008FB01000870
:10008000FB010008FB010008FB010008FB01000860
:10009000FB010008FB010008FB010008FB01000850
:1000A000FB010008FB010008FB010008FB01000840
:1000B000FB010008FB010008FB010008FB01000830
:1000C000FB010008FB010008FB010008FB01000820
:1000D000FB01000879390008FB010008FB0100085A
:1000E000FB010008FB010008FB010008FB01000800
:1000F000FB010008FB010008FB010008FB010008F0
:10010000FB010008FB010008FB010008FB010008DF
:10011000FB010008FB010008FB010008FB010008CF
:10012000FB010008FB010008FB010008FB010008BF
:10013000DFF810D000F0BCFB0048004795460008EF
:10014000AFF30080B0330020224B19680868B0E894
:10015000F00F80F30988BFF36F8F4FF0000080F33A
:1001600011884EF00D0E7047000000000648006830
:10017000006880F3088862B661B6BFF34F8FBFF3A3
:100180006F8F00DF00BF00BF08ED00E0EFF30980D4
:10019000BFF36F8F0F4B1A6820E9F00F106008B59E
:1001A0004FF0500080F31188BFF34F8FBFF36F8F74
:1001B00005F0C2FE4FF0000080F31188BDE8084052
:1001C00019680868B0E8F00F80F30988BFF36F8FF3
:1001D000704700BF68000020EFF305807047000003
:1001E0000648804706480047FEE7FEE7FEE7FEE7D1
:1001F000FEE7FEE7FEE7FEE7FEE7FEE7C53500089F
:100200003101000840EA01039B0703D009E008C957
:10021000121F08C0042AFAD203E011F8013B00F8CB
:10022000013B521EF9D27047D2B201E000F8012B17
:10023000491EFBD270470022F6E710B513460A4666
:1002400004461946FFF7F0FF204610BD80EA010280
:1002500010B502F00043400022D04A001FD0010E2A
:1002600001EB1261C0F35600C2F3560240F40000E5
:1002700042F40002A0FB022000047F39140400D0E5
:10028000401C50EA124001D44000491EC2B20C0684
:1002900004EBD010401C4008802A02D003E000206C
:1002A00010BD20F00100002900DA0020184310BD25
:1002B0002DE9FE4F804681EA0300C00F0C460090F6
:1002C00021F0004123F00045B8EB0200A94105D21E
:1002D0004046214690461C460B46024623F000400D
:1002E000104347D0270DC7F30A00C3F30A51029009
:1002F000401A019040286BDAC3F3130040F4801BCE
:100300000098924620B10023D2EB030A63EB0B0B5B
:1003100001985946C0F14002504600F090F9064657
:100320000D4650465946019A00F0A8F910EB080016
:100330006141002487EA115284EAE7731A4340D0EE
:10034000009A62B3019A012A4FEA075215DC001B9A
:1003500061EB02014FF0004202EA0752CDE9004290
:10036000001C41F5801132462B4600F0DFF903B046
:10037000BDE8F08F40462146F9E7001B61EB020122
:10038000001C41F5801300185B412018A2F50017EE
:1003900047EB030140EAD570B6196D4111E06D08D5
:1003A0004FEA360645EAC0754FEA0752001B61EB7B
:1003B0000201001C41F5801149084FEA3000001984
:1003C000514132462B4603B0BDE8F04F00F09FB9D3
:1003D0000098012240000023D0EB020263EBE0739F
:1003E000009821464FEAE074B8EB000061EB04018D
:1003F000E9E783F000435BE781F0004158E72DE92E
:10040000FE4F81EA030404F0004421F0004100940F
:100410004FF0000B23F0004350EA01045ED052EA93
:1004200003045BD0C3F30A54C1F30A552C44A4F26D
:10043000F3340194A0FB0254C1F3130141F4801181
:10044000C3F3130343F4801301FB024400FB034E88
:10045000840A970A44EA815447EA8357A4FB076851
:1004600002958D0A05FB07854FEA932C04FB0C547B
:100470002705029D4FEA065847EA1637B5EB0805EF
:100480006EEB070C870E920E47EA811742EA831241
:10049000A7FB0201B6EB0B0164EB00042B0D43EA52
:1004A0000C335E1844EB1C50DA465146E7FB020160
:1004B000C5F313044FEA0B3343EA14534FEA0432F3
:1004C000019C43EA0603A4F10C040294009CCDE9CC
:1004D00000B400F02BF903B0BDE8F08F0020014616
:1004E000F9E7C10F80EAE0700844CA0796230021AB
:1004F00000F0DFB80EB5C10F80EAE0700844CA070B
:10050000002140F233438DE80E000A460B4600F00E
:100510000DF903B000BD70B5C1F30A5201F00045FA
:100520000024C1F3130140F2FF3341F480119A42D9
:1005300001DA002070BD40F233439A42A2F2334206
:1005400003DC524200F08AF800E090402C43F1D0E6
:10055000404270BD00F0004230F000400AD0C10DB2
:1005600001F56071C0F3160042EA0151C20840076C
:100570001143704700200146704701F0004330B43A
:1005800021F0004150EA010206D00A0DA2F5607286
:10059000C1F31301002A02DC30BC00207047440F75
:1005A00044EAC104C100E01830BC00EBC25000F0C6
:1005B00077B80000002801DBC0F10040002901DB12
:1005C000C1F1004181427047002801DBC0F10040C9
:1005D000002901DBC1F10041884270472DE9F05F3D
:1005E0000546002092469B468846064681464024A2
:1005F0001BE0284641464746224600F02FF8534666
:100600005A46C01A914110D311461846224600F0AE
:1006100016F82D1A67EB01084F46224601200021EB
:1006200000F00DF817EB00094E41201EA4F1010463
:10063000DFDC484631462A464346BDE8F09F202A83
:1006400004DB203A00FA02F1002070479140C2F129
:10065000200320FA03F3194390407047202A04DB5B
:10066000203A21FA02F00021704721FA02F3D0402B
:10067000C2F120029140084319467047202A06DB48
:10068000CB17203A41FA02F043EAE07306E041FA60
:1006900002F3D040C2F1200291400843194670474E
:1006A0000029A8BF7047401C490008BF20F0010086
:1006B000704710B4B0FA80FC00FA0CF050EA010464
:1006C00004BF10BC704749B1CCF1200421FA04F4F6
:1006D00011FA0CF118BF012121430843A3EB0C01CF
:1006E000CB1D4FEA00614FEA102042BF002010BC32
:1006F000704700EBC35010440029A4BF10BC7047E2
:10070000401C490008BF20F0010010BC704710B524
:10071000141E73F1000408DA401C41F10001921824
:100720005B411A4301D120F0010010BD2DE9F04DCD
:1007300092469B4611B1B1FA81F202E0B0FA80F222
:1007400020329046FFF77BFF04460F4640EA0A003E
:1007500041EA0B0153465A46084313D0114653EA67
:10076000010019D0C8F140025046FFF777FF054657
:100770000E46504659464246FFF761FF084305D0F2
:10078000012004E020463946BDE8F08D00200543F5
:1007900046EAE0762C4337430A986305E40AA0EB67
:1007A00008000022FD0A44EA47540A3002D500201E
:1007B0000146E9E7010510196941DDE9084500191D
:1007C0006941BDE8F04DA2E72DE9F041054621F071
:1007D00000400C46284309D0C4F30A5040F233418C
:1007E000884205DD28462146BDE8F0812846FBE722
:1007F00040F2FE31884210DC0CDB4FEA043040EA64
:10080000155050EA053105D0104804F0004101436D
:100810000020E9E700200146E6E7A0F23340464227
:10082000C6F1400228462146FFF709FF07468846E1
:10083000284621463246FFF711FF43463A46FFF766
:1008400066FF3246BDE8F041FFF7F9BE0000F03F19
:1008500030B5041E71F1000404DB4FF00044404247
:1008600064EB0101141E73F1000405DB1C464FF01C
:100870000043524263EB04038B4208BF824230BD07
:1008800030B5041E71F1000404DB4FF00044404217
:1008900064EB0101141E73F1000405DB1C464FF0EC
:1008A0000043524263EB0403994208BF904230BDBB
:1008B000064C074D06E0E06840F0010394E80700AD
:1008C00098471034AC42F6D3FFF736FCB88A0008DC
:1008D000D88A000870B5044600252068806800F0BA
:1008E000010018B32068806820F00100216888604A
:1008F00000F04EFF054613E000F04AFF401B0228BF
:100900000ED92068806800F0010048B1A06A40F06C
:100910001000A062E06A40F00100E062012070BDBA
:100920002068806800F001000028E5D10020F6E78B
:1009300070B505466C6AA06A00F05000E0B9A06A84
:1009400040F40070A0622068806800F46020B0F578
:10095000602F0DD1207B58B9A06A20F48070A0626E
:10096000A06A00F4805018B9A06A40F00100A062AB
:10097000204600F0FBF903E0206A016B2846884717
:1009800070BD70B505466C6AA06A40F04000A06278
:10099000E06A40F00400E062204600F0E9F970BD32
:1009A00070B50446656A284600F0E1F970BD0000A4
:1009B00038B504460025002000902068806800F0CB
:1009C000010078BB2068806840F0010021688860E1
:1009D000194800681949B0FBF1F0009002E0009856
:1009E000401E009000980028F9D100F0D1FE054685
:1009F00019E000F0CDFE401B022814D92068806861
:100A000000F0010078B9A06A40F01000A062E06A2E
:100A100040F00100E06200BF002084F8240000BF25
:100A2000012038BD05E02068806800F00100002842
:100A3000DFD00020F5E700000000002040420F005A
:100A400010B500220421174800F09CFE052216492B
:100A5000302002F0A7FC052213492A2002F0A2FC54
:100A60000121212002F0C2FC0121222002F0BEFC63
:100A70001A21242002F0BAFC1E21252002F0B6FC27
:100A80000F21262002F0B2FC0E21202002F0AEFC45
:100A900001220421034800F075FE642000F0ACFC44
:100AA00010BD0000000C01405E00002000BFFEE70A
:100AB00005E0034802F044FC032005F075F8F8E770
:100AC0004803002030B590F840500124AC40C56B7D
:100AD0006C60046863604468102C04D10468A260F0
:100AE0000468E16003E00468A1600468E26030BD6E
:100AF00070470000F8B5044600260020009000BFB3
:100B000094F82400012801D10220F8BD012084F8C6
:100B1000240000BF2046FFF7DDFE0646002E6CD104
:100B2000A06A20F4885040F00200A062022000F089
:100B300097FF35490968B1FBF0F04000009002E0F2
:100B40000098401E009000980028F9D12046FFF739
:100B50002FFF2068806840F008002168886000F05E
:100B600017FE054616E000F013FE401B0A2811D9B7
:100B70002068806800F0080060B1A06A20F00200E0
:100B800040F01000A06200BF002084F8240000BFE5
:100B90000120BAE72068806800F008000028E2D150
:100BA0002068806840F004002168886000F0F0FD53
:100BB000054616E000F0ECFD401B0A2811D920681C
:100BC000806800F0040060B1A06A20F0020040F0EC
:100BD0001000A06200BF002084F8240000BF0120A4
:100BE00093E72068806800F004000028E2D1A06A42
:100BF00020F0020040F00100A06200BF002084F855
:100C0000240000BF304680E70000002038B50246CF
:100C100000230020009000BF92F82400012801D199
:100C2000022038BD012082F8240000BF4868072850
:100C300012D21068406B0C79641E04EB84051F24EB
:100C4000AC40A0430D796D1E05EB85050C68AC40EA
:100C500020431468606327E048680D2812D21068AA
:100C6000006B0C79E41F04EB84051F24AC40A04307
:100C70000D79ED1F05EB85050C68AC402043146829
:100C8000206311E01068C06A0C790D3C04EB840508
:100C90001F24AC40A0430D790D3D05EB85050C6884
:100CA000AC4020431468E06208680A2812D3106838
:100CB000C0680C780A3C04EB44050724AC40A04310
:100CC0000D780A3D05EB45058C68AC40204314685F
:100CD000E0600FE0106800690C7804EB440507241D
:100CE000AC40A0430D7805EB45058C68AC40204333
:100CF000146820610868102802D00868112827D1DC
:100D0000174C1068A0421ED11068806800F40000E3
:100D1000F0B91068806840F400001468A0600868AA
:100D2000102815D10F4800680F4CB0FBF4F000EB11
:100D300080004000009002E00098401E0090009863
:100D40000028F9D104E0906A40F02000906201236D
:100D500000BF002082F8240000BF184661E70000B1
:100D6000002401400000002040420F0070477047FF
:100D7000704700002DE9F0410446002700250026B9
:100D8000A84614B90120BDE8F081A06810B1207D0B
:100D900000B100BFA06A30B90020E06284F82400EE
:100DA000204600F097F82046FFF794FD0746A06A1A
:100DB00000F01000002873D1002F7ED1A06A20F42B
:100DC000885040F00200A0623F4AD4E900019042FE
:100DD00008D1E069B0F5402F02D14FF4002002E0C5
:100DE000E06900E0E0690143207B41EA40000643FE
:100DF000A068B0F5807F02D0A068012802D14FF42E
:100E0000807000E000200543207D012811D1207B67
:100E100038B9A069401E4FF4006141EA40300543F3
:100E200007E0A06A40F02000A062E06A40F0010004
:100E3000E0622068406820F46940284321684860E7
:100E40002068806821490840304321688860A06894
:100E5000B0F5807F02D0A068012802D14FF48070E5
:100E600000E00020B0F5807F03D1208A401E4FEAC9
:100E700000582068C06A20F4700040EA0800216829
:100E8000C8622068806812490840B04209D1002039
:100E9000E062A06A20F0020040F00100A06211E0D0
:100EA0000BE0A06A20F0020040F01000A062E06AAF
:100EB00040F00100E062012704E0A06A40F0100069
:100EC000A062012738465EE7003C0140FDF7E1FFE4
:100ED000FE0E1FFF10B58CB004461A4920688842E8
:100EE0002ED1182102A8FFF7A6F900BF1648806985
:100EF00040F40070144988610846806900F400706D
:100F0000019000BF00BF00BF0846806940F00400A8
:100F100088610846806900F00400019000BF00BFAE
:100F20000F2008900320099008A9084800F078FADB
:100F3000022002908003049002A800F02BFE00BF64
:100F40000CB010BD00240140001002400008014018
:100F50002DE9F04104460D46164600275749206802
:100F6000884203D056492068884205D15348001D65
:100F7000006800F4702000E0002000287ED100BF4F
:100F800094F82400012802D10220BDE8F08101205C
:100F900084F8240000BF2046FFF70AFD0746002F13
:100FA0006DD1A06A40F60161884340F48070A06270
:100FB00043492068884209D14048001D006800F478
:100FC000702008B9012002E0002000E0012078B183
:100FD000A06A20F48010A0622068406800F480605D
:100FE00000B3A06A20F4005040F48050A06219E0E1
:100FF000A06A40F48010A06230492068884203D083
:101000002F492068884205D12C48001D006800F453
:10101000806000E0002028B1A06A20F4005040F475
:101020008050A062A06A00F4805020B1E06A20F0F5
:101030000600E06201E00020E06200BF002084F8CA
:10104000240000BF1F48216A88621F48216AC862C5
:101050001E48216A08636FF002002168086020685A
:10106000806840F4807021688860226802F14C0139
:1010700033462A46206A00F071F901E01AE014E0D4
:101080002068806800F46020B0F5602F06D12068E9
:10109000806840F4A000216888600CE020688068C7
:1010A00040F480102168886005E000BF002084F8CB
:1010B000240000E00127384667E7000000240140D3
:1010C0000028014031090008A1090008830900082F
:1010D0000146002291F82100022808D004208863EC
:1010E00000BF002081F8200000BF01207047086881
:1010F000006820F00E000B6818600868006820F097
:1011000001000B68186091F8403001209840CB6BCB
:101110005860012081F8210000BF002081F82000E4
:1011200000BF1046E2E7000070B50446002594F8C1
:101130002100022803D00420A0630125C1E020681B
:10114000006820F00E00216808602068006820F028
:101150000100216808605C492068884252D95A49D8
:1011600078392068884201D1012047E05649643926
:101170002068884201D1102040E05349503920684E
:10118000884201D1801539E04F493C3920688842B6
:1011900001D1801432E04C4928392068884202D1BC
:1011A0004FF480302AE0484914392068884202D13F
:1011B0004FF4801022E044492068884201D1400465
:1011C0001CE042492068884201D1012016E03F49D5
:1011D00014312068884201D110200FE03B492831AA
:1011E0002068884201D1801508E038493C312068E8
:1011F000884201D1801401E04FF480303349091F47
:10120000086051E0304978392068884201D10120D6
:1012100047E02D4964392068884201D1102040E020
:10122000294950392068884201D1801539E0264982
:101230003C392068884201D1801432E022492839A3
:101240002068884202D14FF480302AE01E491439C8
:101250002068884202D14FF4801022E01A492068A9
:10126000884201D140041CE018492068884201D11D
:10127000012016E0154914312068884201D1102060
:101280000FE0124928312068884201D1801508E01A
:101290000E493C312068884201D1801401E04FF4AE
:1012A0008030094980394860012084F8210000BF5E
:1012B000002084F8200000BF606B10B12046616BF5
:1012C0008847284670BD00008000024008040240A4
:1012D0000146002209B9012070471E4B0868984258
:1012E0000BD21D4B0868C01A1423B0FBF3F080002A
:1012F000086419480838C8630AE0164B0868C01A21
:101300001423B0FBF3F08000086412480838C86367
:10131000022081F821000868026843F6F0708243D9
:10132000D1E901031843CB6818430B6918434B6993
:1013300018438B691843CB6918430243086802605D
:1013400000208863012081F82100002081F820001E
:1013500000BFC1E708040240080002402DE9F04147
:1013600004460D4616461F464FF0000800BF94F88D
:101370002000012802D10220BDE8F081012084F87C
:10138000200000BF94F8210001282CD1022084F80D
:1013900021000020A0632068006820F0010021687F
:1013A00008603B46324629462046FFF78BFBE06A41
:1013B00030B12068006840F00E00216808600BE042
:1013C0002068006820F00400216808602068006838
:1013D00040F00A00216808602068006840F00100C1
:1013E0002168086006E000BF002084F8200000BFEC
:1013F0004FF002084046BFE770B5044600F0C8F958
:1014000006462546681C10B104480078054400BF14
:1014100000F0BEF9801BA842FAD370BD180000206E
:101420002DE9F847024600239C467BE14FF0010876
:1014300008FA03F4D1F8008008EA0400A0427DD144
:10144000DFF8F4A2D1F80480A8EB0A09D0453AD01D
:1014500014DCB8F1030F50D009DCB8F1000F31D023
:10146000B8F1010F1CD0B8F1020F49D120E0B8F15A
:10147000110F18D0B8F1120F42D11EE0B9F5881F34
:1014800025D006DCB9F5803F20D0B9F5801F37D1D3
:101490001AE0B9F5001F18D0B9F5041F30D117E0D4
:1014A000D1F80CC02DE0D1F80C8008F1040C28E034
:1014B000D1F80C8008F1080C23E0D1F80C8008F179
:1014C0000C0C1EE000BF00BF00BF00BF00BF00BF8C
:1014D000D1F80880B8F1000F02D14FF0040C0BE0F6
:1014E000D1F80880B8F1010F03D14FF0080C146156
:1014F00002E04FF0080C546103E04FF0000C00E0F4
:1015000000BF00BFFF2801D8904601E002F10408A7
:101510004646FF2802D84FEA830803E0A3F10808F3
:101520004FEA88084746D6F800804FF00F0909FABD
:1015300007F928EA09080CFA07F900E07AE048EA16
:101540000908C6F80080D1F8048008F08058B8F186
:10155000805F6FD100BFDFF8E481D8F8188048F0D1
:101560000108DFF8D891C9F81880C846D8F8188063
:1015700008F00108CDF8008000BF00BF4FEAB9387D
:101580004FEA930958F829504FEA83784FEA1879BF
:101590004FF00F0808FA09F825EA0805DFF8A081DE
:1015A000424502D14FF0000824E0DFF8988142451F
:1015B00002D14FF001081DE0DFF88C81424502D1D5
:1015C0004FF0020816E0DFF88481424502D14FF067
:1015D00003080FE0DFF87881424502D14FF004089C
:1015E00008E0DFF87081424502D14FF0050801E0C4
:1015F0004FF006084FEA83794FEA197908FA09F89B
:1016000048EA0505DFF850814FEA930948F8295068
:10161000D1F8048008F48038B8F5803F0BD1DFF8AA
:101620003C81D8F8008048EA0008DFF83091C9F81A
:1016300000800AE075E0DFF82481D8F8008028EA0D
:101640000008DFF81891C9F80080D1F8048008F488
:101650000038B8F5003F0ED1DFF8008108F104082A
:10166000D8F8008048EA0008DFF8F09009F1040992
:10167000C9F800800DE0DFF8E48008F10408D8F82C
:10168000008028EA0008DFF8D49009F10409C9F8BD
:101690000080D1F8048008F48018B8F5801F0ED1BE
:1016A000DFF8B88008F10808D8F8008048EA000898
:1016B000DFF8A89009F10809C9F800800DE0DFF80B
:1016C0009C8008F10808D8F8008028EA0008DFF8B4
:1016D0008C9009F10809C9F80080D1F8048008F459
:1016E0000018B8F5001F0ED1DFF8708008F10C0863
:1016F000D8F8008048EA0008DFF8609009F10C098A
:10170000C9F800800DE0DFF8548008F10C08D8F823
:10171000008028EA0008DFF8449009F10C09C9F8B4
:1017200000805B1CD1F8008028FA03F8B8F1000FA4
:101730007FF47CAEBDE8F887000011100010024075
:1017400000080140000C014000100140001401405D
:1017500000180140001C0140080001400004014045
:10176000024693680B400BB1012000E00020704757
:1017700010B5C26821EA020302EA010443EA044305
:10178000036110BD0AB1016101E00B040361704700
:101790000148006870470000100000202DE9F84360
:1017A0000446894616461F46DDF82080FFF7F0FF05
:1017B000054694F83D0020287ED119230122514985
:1017C0002046009501F04EFC10B10220BDE8F883E0
:1017D00000BF94F83C00012801D10220F6E7012067
:1017E00084F83C0000BF2068006800F0010028B9C0
:1017F0002068006840F001002168086020680068E7
:1018000020F4006021680860212084F83D00102049
:1018100084F83E000020206466626785608D208524
:101820003948E0622B4642464946204601F08CFB8F
:1018300008B10120CAE700BF00200090206840697D
:10184000009020688069009000BF00BF44E02A46F5
:101850004146204601F0ABFC50B1206C042805D174
:101860002068006840F40070216808600120ADE73E
:10187000606A007821680861606A401C6062608D5F
:10188000401E6085208D401E208520684069C0F381
:10189000800070B1208D60B1606A007821680861B5
:1018A000606A401C6062608D401E6085208D401E15
:1018B00020852A46414600E022E0204601F0A4FBB4
:1018C00050B1206C042805D12068006840F40070F5
:1018D00021680860012079E7208D0028B7D12068B1
:1018E000006840F4007021680860202084F83D0002
:1018F000002084F83E0000BF84F83C0000BF65E78C
:10190000022063E7020010000000FFFF03480068A8
:101910000349097808440149086070471000002015
:101920001800002010B50848006840F01000064973
:101930000860032000F080F80F2000F007F800F0A6
:101940002BF8002010BD00000020024070B50446B6
:101950000E4800784FF47A71B1FBF0F00C49096839
:10196000B1FBF0F5284600F057FF08B1012070BD2B
:10197000102C07D200222146501E00F01EF8054808
:10198000046001E00120F2E70020F0E718000020E9
:10199000000000201400002070470146084600287F
:1019A00009DB00F01F0301229A4043099B0003F169
:1019B000E023C3F8002100BF70472DE9F05F8046A7
:1019C0000D461646002702F00BF8074639462A4610
:1019D000334601F00700C0F1070ABAF1040F02D93B
:1019E0004FF0040A01E0C0F1070AD14600F1040AF1
:1019F000BAF1070F02D24FF0000A01E0A0F1030A8A
:101A0000D4464FF0010A0AFA09FAAAF1010A0AEAD1
:101A1000020A0AFA0CFA4FF0010B0BFA0CFBABF1BD
:101A2000010B0BEA030B4AEA0B042146404601F086
:101A3000DFFFBDE8F09F000000BF00F00702064B8B
:101A400019684FF6FF031940044B0B4343EA022188
:101A5000014B196000BF70470CED00E00000FA0573
:101A60002DE9F04385B0064642A30FCB01AC0FC46D
:101A700044A0006800904FF00008002500270024D3
:101A8000A146042E36D004DC012E3BD0022E6BD1B1
:101A90005FE0082E32D0102E66D13B4844680068C3
:101AA00000F0807000B301A8C4F38341475C04F4E4
:101AB000803070B134484068C0F340401DF8008069
:101AC00004F4803040B13148B0FBF8F000FB07F57A
:101AD00002E02F4807FB00F52B48406800F4800027
:101AE000B0F5800F01D1A94603E068000321B0FBE7
:101AF000F1F93AE000F0D2F9814636E000F0CEF993
:101B0000814632E02048046A04F44070B0F5807FDA
:101B100005D104F0020010B14FF4004918E004F4BC
:101B20004070B0F5007F07D11748406A00F002000E
:101B300010B149F640490BE004F44070B0F5407F25
:101B400006D11148006800F4003008B14FF2244972
:101B50000BE000F093F90C494968C1F38131491C4D
:101B60004900B0FBF1F900E000BF00BF484605B0F6
:101B7000BDE8F08302030405060708090A0B0C0DF3
:101B80000E0F1010010200000010024000127A0037
:101B900000093D00F8B5044600260025207800F035
:101BA000010000286BD000274348C06900F0805036
:101BB00070B900BF4048C06940F080503E49C861DC
:101BC0000846C06900F08050009000BF00BF0127A8
:101BD0003A48006800F48070B0B93848006840F4B2
:101BE000807036490860FFF7D3FD064606E0FFF730
:101BF000CFFD801B642801D90320F8BD2F48006861
:101C000000F480700028F2D02B48006A00F4407580
:101C10002DB3A08800F44070A84220D02648006A66
:101C200020F4407501202649086000200860224801
:101C3000056205F0010090B1FFF7AAFD064608E035
:101C4000FFF7A6FD801B41F28831884201D90320AD
:101C5000D3E71948006A00F002000028F0D01648C7
:101C6000006A20F440706168084313490862012F3C
:101C700004D10846C06920F08050C86100BF2078B8
:101C800000F00200022807D10B48406820F44040D1
:101C9000A168084308494860207800F01000102827
:101CA00007D10548406820F4800061690843024973
:101CB00048600020A1E700000010024000700040D2
:101CC0004004424270B504460D460CB9012070BD77
:101CD0005A48006800F00700A8420ED25748006832
:101CE00020F007002843554908600846006800F0C6
:101CF0000700A84201D00120E9E7207800F00200A7
:101D000002281DD1207800F00400042805D14C4899
:101D1000406840F4E0604A494860207800F00800DC
:101D2000082805D14648406840F46050444948605E
:101D30004348406820F0F000A168084340494860EB
:101D4000207800F0010078B36068012806D13C4893
:101D5000006800F4003090B90120B8E760680228FC
:101D600006D13748006800F0007040B90120AEE7A6
:101D70003348006800F0020008B90120A7E73048A6
:101D8000406820F00300616808432D494860FFF770
:101D9000FFFC064609E0FFF7FBFC801B41F288319F
:101DA000884202D9032092E707E02548406800F006
:101DB0000C006168B0EB810FEDD12048006800F0A5
:101DC0000700A8420ED91D48006820F007002843EC
:101DD0001A4908600846006800F00700A84201D0D0
:101DE000012074E7207800F00400042807D114488B
:101DF000406820F4E060E1680843114948602078B9
:101E000000F00800082808D10D48406820F4605010
:101E1000216940EAC1000A49486000F03FF80849DA
:101E20004968C1F30311074A515CC840064908607C
:101E300006480068FFF78AFD002048E700200240BE
:101E400000100240386C0008000000201400002040
:101E500001480068704700000000002000B5FFF74F
:101E6000F7FF04494968C1F30221034A515CC840A5
:101E700000BD000000100240486C000800B5FFF7EC
:101E8000E7FF04494968C1F3C221034A515CC840D5
:101E900000BD000000100240486C0008F0B585B09D
:101EA0000FF26C0C9CE8E01001A8A0E8E0101CA563
:101EB0002D68009500210022002300240020194DE8
:101EC000696801F00C05F5B1042D02D0082D19D177
:101ED00001E0154819E001ADC1F38346AC5D01F4A2
:101EE000803555B10F4D6D68C5F340451DF805208F
:101EF0000D4D6543B5FBF2F302E00C4D04FB05F319
:101F0000184602E000BF084800BF00BF05B0F0BDA2
:101F100002030405060708090A0B0C0D0E0F10102A
:101F2000010200000010024000127A0000093D008A
:101F3000F8B504460CB90120F8BD207800F0010086
:101F4000002878D0F848406800F00C0004280CD035
:101F5000F548406800F00C00082811D1F2484068AC
:101F600000F48030B0F5803F0AD1EF48006800F4FB
:101F7000003000285FD0606800285CD10120DBE7DA
:101F800000BF6068B0F5803F06D1E748006840F4C4
:101F90008030E549086028E0606858B9E248006888
:101FA00020F48030E04908600846006820F4802072
:101FB00008601AE06068B0F5A02F0BD1DA4800681D
:101FC00040F48020D84908600846006840F480301A
:101FD00008600AE0D448006820F48030D2490860E4
:101FE0000846006820F48020086000BF606888B15F
:101FF000FFF7CEFB054606E0FFF7CAFB401B64284F
:1020000001D9032098E7C848006800F40030002890
:10201000F2D010E0FFF7BCFB054606E0FFF7B8FB87
:10202000401B642801D9032086E7BF48006800F4FC
:1020300000300028F2D1207800F00200022857D1A9
:10204000B948406800F00C0050B1B748406800F053
:102050000C00082818D1B448406800F4803098B9C2
:10206000B148006800F0020020B12069012801D0C9
:10207000012061E7AC48006820F0F800616940EA9F
:10208000C100A949086033E02069E8B10120A749EF
:102090000860FFF77DFB054606E0FFF779FB401B74
:1020A000022801D9032047E79F48006800F002009A
:1020B0000028F2D09C48006820F0F800616940EAEE
:1020C000C1009949086013E0002098490860FFF7B3
:1020D0005FFB054606E0FFF75BFB401B022801D9CA
:1020E000032029E79048006800F002000028F2D1A0
:1020F000207800F0080008282DD1A069B8B101208F
:102100008B490860FFF744FB054606E0FFF740FBFC
:10211000401B022801D903200EE78348406A00F0E3
:1021200002000028F2D0012001F098F913E000200D
:102130007F490860FFF72CFB054606E0FFF728FB08
:10214000401B022801D90320F6E67748406A00F0D8
:1021500002000028F2D1207800F00400042873D196
:1021600000277148C06900F0805070B900BF6E4808
:10217000C06940F080506C49C8610846C06900F0F1
:102180008050009000BF00BF01276A48006800F43B
:102190008070B0B96748006840F480706549086095
:1021A000FFF7F6FA054606E0FFF7F2FA401B64284F
:1021B00001D90320C0E65F48006800F48070002861
:1021C000F2D000BFE068012806D15748006A40F00D
:1021D00001005549086227E0E06858B95248006A92
:1021E00020F00100504908620846006A20F004000F
:1021F000086219E0E06805280BD14B48006A40F0FE
:102200000400494908620846006A40F0010008627B
:102210000AE04548006A20F0010043490862084688
:10222000006A20F00400086200BFE068A0B1FFF778
:10223000AFFA054609E0FFF7ABFA401B41F28831DF
:10224000884202D9032077E622E03748006A00F08E
:1022500002000028EFD012E0FFF79AFA054608E0E6
:10226000FFF796FA401B41F28831884201D90320DA
:1022700062E62D48006A00F002000028F0D1012F2C
:1022800005D12948C06920F080502749C86100BFA6
:10229000E069C8B32448406800F00C00082860D00A
:1022A000E069022848D1002020490866FFF770FA4B
:1022B000054606E0FFF76CFA401B022801D903200F
:1022C0003AE61948006800F000700028F2D1206A50
:1022D000B0F5803F07D11448406820F40030A16871
:1022E000084311494860D4E9080108430E49496888
:1022F00021F4741108430C49486001200B49086619
:10230000FFF746FA054607E03DE0FFF741FA401BBC
:10231000022801D903200FE60348006800F000708E
:102320000028F2D02FE000000010024000004242DE
:102330008004424200700040002014490866FFF704
:1023400027FA054606E0FFF723FA401B022801D9C9
:102350000320F1E50E48006800F000700028F2D17B
:1023600011E0E069012800D1E6E50948466806F475
:102370008031206A814204D106F47011606A814282
:1023800001D00120D8E50020D6E50000000042423F
:102390000010024010B504460CB9012010BD606A5F
:1023A00038B96068B0F5827F00D105E00021E161B5
:1023B00002E0002121616161A06AB0F5005F00D1F7
:1023C00000BF94F8510028B9002084F8500020463E
:1023D00000F04AF8022084F851002068006820F0DC
:1023E000400021680860A08800F48270218901F40F
:1023F00004410843A18901F400610843217C01F0F4
:1024000002010843217D01F001010843218B01F401
:1024100000710843217F01F0380108432021095D44
:1024200001F080010843218D01F400510843216827
:1024300008600421A06901EA104021684860A06A90
:10244000B0F5005F03D1A08D80B2216808612068DB
:10245000C06920F400602168C86100206065012027
:1024600084F85100002099E710B586B00446294948
:10247000206888424BD100BF2748806940F008009F
:10248000254988610846806900F00800019000BF76
:1024900000BF00BF0846C06940F48040C8610846DC
:1024A000C06900F48040019000BF00BF8814029012
:1024B0000120039004900320059002A91748FEF71D
:1024C000AFFF4FF4204002900220039002A913486E
:1024D000FEF7A6FF4FF4804002900020039002A96F
:1024E0000E48FEF79DFF0420029001200390049007
:1024F0000320059002A90948FEF792FF02200290EE
:102500000020039002A90548FEF78AFF00BF06B02D
:1025100010BD00000038004000100240000C0140D7
:102520002DE9F04F85B00446884691461D460E9E23
:1025300000200390012002900020019000BF94F839
:102540005000012803D1022005B0BDE8F08F012022
:1025500084F8500000BFFFF71BF9074694F851B00C
:1025600060680490AA46BBF1010F0BD00498B0F547
:10257000827F04D1A06810B9BBF1040F02D0022001
:1025800001903FE1B8F1000F03D0B9F1000F00D086
:1025900015B90120019035E194F85100042802D0CA
:1025A000052084F8510000206065C4F83890E58764
:1025B000A587C4F83080E586A58620646064A06A9B
:1025C000B0F5005F0DD100BF2068006820F4005016
:1025D000216808602068006840F4005021680860A5
:1025E00000BF2068006800F04000402805D0206847
:1025F000006840F0400021680860E068B0F5006FB6
:1026000056D1606810B1BAF1010F09D1206B008872
:102610002168C860206B801C2063E08E401EE0862D
:102620003FE02068806800F0020002281CD1E08EA4
:10263000D0B10298012817D1206B00882168C860AA
:10264000206B801C2063E08E401EE08600200290FC
:10265000E08E48B9A06AB0F5005F05D12068006837
:1026600040F48050216808602068806800F0010014
:1026700068B1E08F58B12068C068A16B0880A06B7A
:10268000801CA063E08F401EE08701200290FFF7CE
:102690007FF8C01BB04204D3701C10B1032001901E
:1026A000B0E0E08E0028BCD1E08F0028B9D156E020
:1026B000606810B1BAF1010F09D1206B0078216870
:1026C0000873206B401C2063E08E401EE08640E0D3
:1026D0002068806800F0020002281CD1E08ED0B192
:1026E0000298012817D1206B007821680873206BAD
:1026F000401C2063E08E401EE08600200290E08EA9
:1027000048B9A06AB0F5005F05D12068006840F4C0
:102710008050216808602068806800F0010068B17E
:10272000E08F58B12068C068A16B0870A06B401C96
:10273000A063E08F401EE08701200290FFF728F899
:10274000C01BB04201D3701C00B916B90320019020
:1027500058E0E08E0028BBD1E08F0028B8D1A06AF5
:10276000B0F5005F12D13346012211462046009792
:1027700000F0B2FE30B1606D40F0020060650320F1
:1027800001903FE02068C068039000BF2068806827
:10279000C0F30010E8B1204600F088FE012814D1F3
:1027A000606D40F00200606500BF2068006820F4A2
:1027B0000050216808602068006840F400502168DB
:1027C000086000BF0120019003E04FF6EF70216820
:1027D00088603A463146204600F054FE20B1012080
:1027E0000190202060650DE0A06850B900BF002076
:1027F00000902068C068009020688068009000BF4A
:1028000000BF00BF012084F8510000BF002084F801
:10281000500000BF019897E670B504462546681E33
:10282000B0F1807F01D301200FE0681E4FF0E0215E
:1028300048610F214FF0FF3001F0DAF800204FF02F
:10284000E021886107200861002070BD2DE9F0417A
:1028500004460D4614B90120BDE8F08194F83D000E
:1028600028B9002084F83C00204600F051F80220EE
:1028700084F83D002068806844F20701884321689D
:102880008860211D206800F09FFE2068D0F8088035
:10289000206886692068076A286840EA080840F2CC
:1028A00003308643A969A86840EA0120064340F640
:1028B0000C4086434FF2F0008643E969E86840EA3D
:1028C0000120064328690001296A40EA01300643D5
:1028D00027F022076969686840EA01100743206809
:1028E000C0F808802068866120680762012084F8AB
:1028F000460084F83E0001213F200155012084F864
:10290000420043200155012084F83D000020A3E748
:1029100010B586B004462D492068884227D100BFF3
:102920002B48C06940F004002949C8610846C069C5
:1029300000F00400019000BF00BF00BF084680699E
:1029400040F0080088610846806900F008000190A6
:1029500000BF00BFC020029000200390012004901F
:102960000320059002A91B48FEF75AFD00BF1A4933
:102970002068884227D100BF1548C06940F0020096
:102980001349C8610846C06900F00200019000BF09
:1029900000BF00BF0846806940F004008861084617
:1029A000806900F00400019000BF00BFC0200290C9
:1029B00000200390012004900320059002A90748FD
:1029C000FEF72EFD00BF06B010BD0000000800405D
:1029D00000100240000C01400004004000080140CB
:1029E0002DE9F04304460D4694F83E603F20075D14
:1029F00094F84280432010F804906DB9012E02D162
:102A0000B8F1010F02D00120BDE8F083022084F864
:102A10003E0084F8420025E0042D0CD1012F02D1A4
:102A2000B9F1010F01D00120EEE702213F2001554D
:102A30004320015516E0012E07D1012F05D1B8F131
:102A4000010F02D1B9F1010F01D00120DCE7022012
:102A500084F83E0002213F200155022084F8420004
:102A60004320015515B1042D0CD105E001220021B0
:102A7000206800F0F7FD10E001220421206800F03A
:102A8000F1FD0AE001220021206800F0EBFD0122A7
:102A90000421206800F0E6FD00BF00BF2068006848
:102AA00040F00100216808600020ADE770477047E2
:102AB0002DE9F84F0446206805682068C66820683C
:102AC00047694FF00009CA4605F00F09B9F1000F38
:102AD0000AD105F0200038B106F0200020B12046D0
:102AE00000F006FEBDE8F88FB9F1000F71D007F0D5
:102AF000010018B906F4907000286AD005F00100B2
:102B000030B106F4807018B1206C40F001002064F0
:102B100005F0040030B107F0010018B1206C40F05E
:102B20000200206405F0020030B107F0010018B186
:102B3000206C40F00400206405F0080048B106F065
:102B4000200010B907F0010018B1206C40F0080017
:102B50002064206C68B305F0200028B106F0200046
:102B600010B1204600F0C4FD20684069C0F3801A0F
:102B7000206C00F0080010B9BAF1000F22D02046F6
:102B800000F08BFD2068406900F04000B0B1206883
:102B9000406920F0400021684861A06B50B1564860
:102BA000A16B4863A06BFEF7BFFA10B1A06B416B3D
:102BB00088470CE02046FFF77AFF08E02046FFF741
:102BC00076FF04E02046FFF772FF0020206489E7CB
:102BD000FFE7206B012878D105F01000002874D0A1
:102BE00006F01000002870D000BF00200090206880
:102BF0000068009020684068009000BF00BF206817
:102C0000406900F04000C0B3A06B006840681FFA44
:102C100080F8B8F1000F2FD0A08D40452CDDA4F82E
:102C20002E80A06B806920281FD02068C06820F407
:102C300080702168C8602068406920F00100216828
:102C400048612068406920F04000216848612020E8
:102C500084F83E00002020632068C06820F0100047
:102C60002168C860A06BFEF733FAA08DE28D801A50
:102C700081B22046FFF71AFF34E7FFE7A08DE18D10
:102C8000401A1FFA80F8E08DE8B1B8F1000F1AD0B1
:102C90002068C06820F490702168C860206840698E
:102CA00020F0010021684861202084F83E000020C7
:102CB00020632068C06820F010002168C860414689
:102CC0002046FFF7F3FE0DE7FFE705F0800030B187
:102CD00006F0800018B1204600F01DFE02E705F066
:102CE000400030B106F0400018B1204600F0F0FC82
:102CF000F8E600BFF6E600008736000810B5044687
:102D00000CB9012010BDA06900B100E000BF94F82B
:102D10003D0028B9002084F83C00204600F028F847
:102D2000242084F83D002068C06820F40050216809
:102D3000C860204600F04EFD2068006920F49040F5
:102D4000216808612068406920F02A0021684861F4
:102D50002068C06840F400502168C86000202064EA
:102D6000202084F83D0084F83E000020CAE70000DF
:102D700010B586B004462849206888424AD100BF71
:102D800000BF2648806940F0040024498861084655
:102D9000806900F00400019000BF00BF00BF00BFC9
:102DA00000BF0846806940F00400886108468069D9
:102DB00000F00400019000BF00BF00BF00BF00BFD3
:102DC0000846806940F4804088610846806900F4C4
:102DD0008040019000BF00BF00BF48150290022054
:102DE0000390012004900320059002A90C48FEF7EF
:102DF00017FB4FF4806002900020039002A908485E
:102E0000FEF70EFB2520FEF7C8FD03221146252004
:102E1000FEF7D3FD06B010BD00380140001002409F
:102E20000008014070B504460D46164694F83E0071
:102E3000202816D105B10EB9012070BD00BF94F84D
:102E40003C00012801D10220F7E7012084F83C0072
:102E500000BF0020206332462946204600F038FD9E
:102E6000EBE70220E9E7000010B50446204920689E
:102E700088423BD11F48008800F4004088BB1D48B1
:102E8000008800F4804070B11B4800780A2803D005
:102E900000201849088024E01648008840F40040CB
:102EA000144908801DE0144800780D2806D1114807
:102EB000008840F480400F49088012E00E480078F6
:102EC0000C490988C1F30D010C4A50540948008887
:102ED000401C0849088008460088C72801DD0020FA
:102EE0000880012204490648FFF79CFF10BD00003E
:102EF000003801400C0000200E000020E8000020F7
:102F0000B0010020704700BFFEE701460868406935
:102F1000C0F38020B0B16FF480600A685061002077
:102F20000863202081F83D00002081F83E00086CF5
:102F300040F00400086400BF002081F83C0000BF9E
:102F4000012070470020FCE72DE9F84304460D46B8
:102F500017469846E66A082E04D0012E02D016F5D0
:102F6000803F06D12068006840F4807021680860C6
:102F700008E0206B122805D12068006840F48070BA
:102F8000216808603B4600224FF001112046CDF831
:102F9000008000F067F860B12068006800F480707D
:102FA000B0F5807F02D14FF4007020640320BDE8AB
:102FB000F8832069B0F5804F04D105F0FE00216848
:102FC000086112E005F44070F02141EAE010216848
:102FD000086143463A460B49204600F086F808B19E
:102FE0000120E4E7E8B22168086143463A46054912
:102FF000891F204600F079F808B10120D7E70020AA
:10300000D5E700000800010070B504460D461646DD
:1030100020E02046FFF779FF08B1012070BD681C51
:10302000C0B1FEF7B5FB801BA84200D895B90020BF
:103030002063202084F83D00002084F83E00206CAE
:1030400040F02000206400BF002084F83C0000BF56
:103050000120E3E720684069C0F380000028D8D051
:103060000020DBE72DE9F04104460D4617461E46D9
:10307000DDF818801CE0701CD0B1FEF789FBA0EBD6
:103080000800B04200D89EB900202063202084F8B8
:103090003D00002084F83E00206C40F020002064B9
:1030A00000BF002084F83C0000BF0120BDE8F08193
:1030B000C5F3074001280AD120684069A9B2084039
:1030C000A9B2884201D101200BE0002009E020686C
:1030D0008069A9B20840A9B2884201D1012000E06C
:1030E0000020B842C7D00020E0E72DE9F0410446B7
:1030F0000D4616461F463DE020684069C0F380201B
:10310000E8B12068006840F40070216808606FF43E
:1031100080602168486100202063202084F83D0001
:10312000002084F83E00206C40F00400206400BFC2
:10313000002084F83C0000BF0120BDE8F081701C35
:10314000C0B1FEF725FBC01BB04200D896B90020E5
:103150002063202084F83D00002084F83E00206C8D
:1031600040F02000206400BF002084F83C0000BF35
:103170000120E2E7C5F3074001280AD12068406931
:10318000A9B20840A9B2884201D101200BE0002079
:1031900009E020688069A9B20840A9B2884201D13B
:1031A000012000E000200028A6D00020C5E770B56F
:1031B00004460D46164620E02046FFF7A6FE08B15D
:1031C000012070BD681CC0B1FEF7E2FA801BA84266
:1031D00000D895B900202063202084F83D0000200D
:1031E00084F83E00206C40F02000206400BF0020E6
:1031F00084F83C0000BF0120E3E720684069C0F389
:10320000C0100028D8D00020DBE710B5014609B96E
:10321000FF2010BD0022002009E00B5C012B04D12F
:10322000C0F10704A3401343DAB2431CD8B2082804
:10323000F3DB1046EDE700BFFEE770471CB510A1B9
:1032400003C9CDE9000105226946302000F0AAF843
:1032500005226946102000F037F8002406E01DF82A
:103260000400A52800D003E0601CC4B2052CF6DBE6
:1032700000BF052C01D001201CBD0020FCE7000090
:10328000A5A5A5A5A500000010B50D480D4908602D
:103290004FF48270486000210A488160C16001617A
:1032A00041614FF4007181613821C16100210162E7
:1032B000416281620721C162FFF76CF810BD000016
:1032C00000380040080400202DE9F04107460D4673
:1032D000164600224FF480510C48FEF753FA384648
:1032E00000F0E8F88046002405E0FF2000F0E2F856
:1032F0002855601CC4B2B442F7DB01221103034815
:10330000FEF740FA4046BDE8F0810000000C0140A5
:1033100070B5044600224FF480510848FEF732FA97
:10332000204600F0C7F8FF2000F0C4F8054601224F
:1033300011030248FEF726FA284670BD000C014032
:1033400070B50546002204211548FEF71BFA20221D
:103350002946A02000F026F8012204211048FEF79B
:1033600011FA00BF02210E48FEF7FAF90028F9D140
:103370000720FFF7CDFF04462146272000F036F84E
:1033800004F0100028B1FF21E12000F02FF81020F8
:1033900070BD04F0200008B12020F9E7FF20F7E716
:1033A000000C01402DE9F04107460C46154600226D
:1033B0004FF480510C48FEF7E5F9384600F07AF8F2
:1033C0008046002605E014F8010B00F073F8701C2D
:1033D000C6B2AE42F7DB012211030348FEF7D2F971
:1033E0004046BDE8F0810000000C014070B5054684
:1033F0000C4600224FF480510848FEF7C3F92846D6
:1034000000F058F80646204600F054F80122110357
:103410000248FEF7B7F9304670BD0000000C0140CD
:1034200010B50AE000BF4FF480710B48FEF7A0F919
:1034300000BF4FF47A7000F0CDFEFFF7FFFE0028CA
:10344000F0D100BF00224FF480710348FEF79AF9D3
:1034500000BFFDF7F5FA10BD0008014008B50849A6
:103460000968C9084FF47A72B1FBF2F14143009147
:1034700000BF00BF00994A1E00920029F9D108BD83
:1034800000000020F8B504460D4616462B460022E3
:1034900080212046009600F01FF828B1606D40F0B2
:1034A000200060650320F8BD0020FCE701460120F4
:1034B0007047000001B582B0002001904FF47A708F
:1034C000012301AA02A900900248FFF729F89DF8FC
:1034D00004000EBD080400202DE9F84F04460D46F7
:1034E00090461E46DDF82890FEF752F9A0EB090041
:1034F000371AFEF74DF982462C480068C0F3CB30EE
:103500007843009045E0701C002842D0FEF740F957
:10351000A0EB0A00B84200D2A7BB2068406820F0A8
:10352000E000216848606068B0F5827F0DD1A06836
:10353000B0F5004F03D0A068B0F5806F05D12068CA
:10354000006820F0400021680860A06AB0F5005FC4
:103550000DD100BF2068006820F400502168086089
:103560002068006840F400502168086000BF012016
:1035700084F8510000BF002084F8500000BF0320F1
:10358000BDE8F88FFFE7009800B900270098401EBB
:103590000090206880682840A84201D1012000E006
:1035A00000204045AFD10020EAE7000000000020E5
:1035B00010B502F0F9FF012801D002F0BFFDFEF7BF
:1035C000A5F910BD7047000010B50268204B984265
:1035D0000ED0204B98420BD0B0F1804F08D01E4B3C
:1035E000984205D01D4B984202D01D4B984203D102
:1035F00022F070024B681A43154B98420ED0154BBF
:1036000098420BD0B0F1804F08D0134B984205D0B0
:10361000124B984202D0124B984203D122F44072CE
:10362000CB681A4322F080034C6943EA040202602B
:103630008B68C3620B688362054B984202D0054BCE
:10364000984201D10B6903630123436110BD00005F
:10365000002C0140003401400004004000080040FC
:10366000000C004030B501F01F05012404FA05F3F9
:10367000046A9C430462046A01F01F0502FA05F51E
:103680002C43046230BD70B505466C6A0020E085AD
:10369000E0842046FFF70BFA70BD0168C96821F489
:1036A00090710268D1600168496921F001010268E6
:1036B0005161016B012905D10168C96821F0100130
:1036C0000268D160202180F83E100021016370471C
:1036D00010B504462068C06820F040002168C8602A
:1036E000202084F83D002046FFF70CFC002010BD90
:1036F000F8B5044694F83E00222869D1A068B0F5D8
:10370000805F0CD1206950B90025A66A2068406806
:10371000C0F308003080A06A801CA06215E0A56A92
:103720000026A068B0F5805F03D0A06828B92069A2
:1037300018B920684068287004E02068406800F0EC
:103740007F002870A06A401CA062E08D401E80B2FD
:10375000E085A8BB2068C06820F020002168C86010
:103760002068C06820F480702168C86020684069C3
:1037700020F0010021684861202084F83E00206B81
:1037800001281ED1002020632068C06820F01000AE
:103790002168C8602068006800F0100010280AD175
:1037A00000BF0020009020680068009020684068FA
:1037B000009000BF00BFA18D2046FFF777F903E01E
:1037C00004E02046FFF750FB0020F8BD0020FCE796
:1037D0000220FAE770B504462168096921F44051D6
:1037E000E2681143226811612269A168114362698C
:1037F00041EA02052168C96841F20C6291432943FC
:103800002268D1602168496921F44071A26911439D
:10381000226851612D4A2168914202D1FEF72EFBA8
:1038200001E0FEF71BFB00EBC00101EB0011626839
:103830009200B1FBF2F100EBC00202EB00126368F0
:103840009B00B2FBF3F26423B2FBF3F202EBC20380
:1038500003EB0212A1EB8201322202EB011164227E
:10386000B1FBF2F101F0F00100EBC00202EB00123B
:1038700063689B00B2FBF3F26423B2FBF3F201EB4B
:10388000021200EBC00101EB001163689B00B1FB69
:10389000F3F100EBC00303EB00136668B600B3FB63
:1038A000F6F36426B3FBF6F303EBC30606EB031350
:1038B000A1EB8301322303EB01116423B1FBF3F18C
:1038C00001F00F0111442268916070BD0038014081
:1038D00010B5034699629A85DA8500201864222083
:1038E00083F83E0000BF002083F83C0000BF18684A
:1038F000C06840F480701C68E0601868406940F05F
:1039000001001C6860611868C06840F020001C68F5
:10391000E060002010BD014691F83D00212828D12B
:103920008868B0F5805F0BD1086948B90A6A1088C9
:10393000C0F308000B685860086A801C086205E044
:103940000B6A581C086218780B685860C88C401EB7
:1039500080B2C88458B90868C06820F080000B683D
:10396000D8600868C06840F040000B68D86000204C
:1039700070470220FCE7000010B50248FFF798F8F6
:1039800010BD0000B001002000BFFEE70FB4054BE2
:1039900010B503A9044A029800F04EF810BC5DF877
:1039A00014FB00007D440008080000200FB47CB523
:1039B0000C0009AD01D0611E00E00021CDE900013D
:1039C000064B6A462946089800F036F8002C02D0CB
:1039D000009A002111707CBC5DF814FB8F3E00083A
:1039E00002480068C0F30220704700000CED00E0C0
:1039F00010B5002804DB0A07130E054A135406E02D
:103A00000A07140E034A00F00F031B1FD45410BD05
:103A100000E400E018ED00E002E008C8121F08C151
:103A2000002AFAD170477047002001E001C1121F3F
:103A3000002AFBD1704700002DE9FF4F8DB00F46E3
:103A40000546002606E025280BD0DDE90F12904739
:103A50006D1C761C28780028F5D111B03046BDE8E1
:103A6000F08F0024A246A1460122E94900E0044368
:103A700015F8013F203B02FA03F00842F7D12878FD
:103A80002A2810D06FF02F022878A0F130010929E0
:103A900014D80AEB8A0102EB410144F0020400EB66
:103AA000010A6D1CF0E701CF5FEA000A03D544F478
:103AB0000054CAF1000A44F002046D1C28782E2834
:103AC00017D115F8010F44F004042A280ED06FF026
:103AD0002F022878A0F1300109290AD809EB8901C1
:103AE00002EB410100EB01096D1CF2E757F8049B62
:103AF0006D1C28786C280FD006DC4C2817D068285D
:103B00000DD06A2814D104E0742810D07A280FD17F
:103B10000DE044F400140AE044F4801401E044F49D
:103B200040146978814202D104F580146D1C6D1C2B
:103B300028786E281ED00CDC632830D004DC0028E6
:103B40008BD0582811D19FE0642867D069280CD108
:103B500064E073282DD004DC6F2872D0702804D163
:103B600094E075286ED078286DD0DDE90F1290476B
:103B7000761C4BE1C4F30250022806D0032809D07A
:103B8000042801CF09D0066040E101CFF117C0E958
:103B900000613BE101CF068038E1067036E117F89D
:103BA000040B8DF8000000208DF80100EB46012089
:103BB00003E057F804BB4FF0FF3061074FF00001FE
:103BC00002D40DE008F10101884649450FDA80452D
:103BD000F8DB1BF808100029F4D108E008F1010116
:103BE00088468142FADB1BF808100029F6D1DDE98E
:103BF0000F23AAEB08008146214600F031F930443A
:103C000000EB080604E0DDE90F121BF8010B9047FA
:103C1000B8F10108F7D221464846F2E00A21C4F380
:103C200002524FF0000B0891022A04D001CFC117B5
:103C3000032A09D00AE0FF1D27F00707F7E8020171
:103C400008E02CE01EE01FE000B2C117042A01D1F9
:103C500040B2C117021E71F1000206DA0023D0EB58
:103C6000030063EB01012D2202E0220504D52B2283
:103C70008DF82420012203E0E20701D02022F7E79B
:103C8000904653E00A210BE0102109E010214FF08B
:103C9000000B44F004044FF00809089103E00821E8
:103CA0004FF0000B0891C4F30252022A04D001CF56
:103CB0000021032A06D006E0FF1D27F00707F7E8DA
:103CC000020103E080B2042A00D1C0B24FF0000824
:103CD00022072BD52A78702A07D0DDF820C08CF077
:103CE000100C5CEA0B0C05D00EE040228DF824206D
:103CF000012208E050EA010306D030238DF8243079
:103D00008DF8252002229046089B83F0080353EA91
:103D10000B030BD150EA010201D1620706D5302214
:103D20008DF824204FF00108A9F101092A78582ABA
:103D300004D038A20B9208AA0A920BE03AA2F9E743
:103D40005B46089AFCF74AFC0B9B9B5C0A9A521E46
:103D50000A92137050EA0102F2D10A98ADEB00000A
:103D600000F1200B600702D524F4803401E04FF00D
:103D70000109D94502DDA9EB0B0000E0002000EBB2
:103D80000B0141440890AAEB010AE00306D4DDE9E7
:103D90000F232146504600F063F806444FF0000917
:103DA00008E009A911F80900DDE90F12904709F1AF
:103DB0000109761CC145F4DBE0030CD5DDE90F23D6
:103DC0002146504600F04CF8064404E0DDE90F12AD
:103DD00030209047761C0899481E08900029F5DC91
:103DE00008E00A980A990078491C0A91DDE90F1247
:103DF0009047761CBBF10001ABF1010BF1DC2146D1
:103E00005046DDE90F2300F019F806446D1C21E649
:103E100009280100303132333435363738396162A0
:103E20006364656600000000303132333435363764
:103E30003839414243444546000000002DE9F04135
:103E4000044600251E461746880404D405E039467A
:103E50002020B0476D1C641EF9D52846BDE8F081CE
:103E60002DE9F041044600251E469046C80301D5C1
:103E7000302700E02027880404D505E04146384675
:103E8000B0476D1C641EF9D52846BDE8F0814A682C
:103E9000002A06D00A68531C0B6010704868401E48
:103EA00048607047FEB507460C4615461E46002082
:103EB0000090019002900094019502966946024894
:103EC000FCF7A4FEFEBD00004802002010B5044629
:103ED00000F020F80723012200210D48FFF7E2FF40
:103EE0000723022201210A48FFF7DCFF07230322F0
:103EF00002210748FFF7D6FF0723042203210448C5
:103F0000FFF7D0FF042221460148FDF721F810BD3C
:103F10004802002008B52248224908600020486075
:103F20004FF480711F4881600121017304210161F8
:103F30000021017581614FF46021C161FCF71AFF16
:103F40001848FCF7D7FD00BF1748406940F0010052
:103F5000154948610846406900F00100009000BF23
:103F600000BF124812490860002048604FF4806189
:103F70000F4841618021C1604900016100218160D9
:103F80004FF48051C16120218161FDF7A1F900BF8B
:103F900007480449086208460549486200BF08BD51
:103FA00000240140480200200010024008000240A6
:103FB0007802002010B50B480B49086000204860CB
:103FC000002109488160017304210161002101750C
:103FD00081614FF46021C161FCF7CCFE0248FCF71F
:103FE00089FD10BD00240140480200201CB5054891
:103FF0000A2100238022CDE9001003A1054802F028
:10400000A3FA1CBD1C00002073746172745F74619C
:10401000736B0000C15600082DE9F05F00F03CFA18
:1040200000F056F94549088000F08EF94349488070
:104030004349888800F068FB424908804049C888A5
:1040400000F062FB3F4948803D49488800F05CFB36
:104050003C4988803A49088800F056FB3949C880B5
:10406000B1F90000FCF746FA8246374A374BFCF7B5
:10407000C6F906460F4636490868FCF76BFA8046D3
:1040800032463B46FCF714F90446FCF776FA304911
:1040900008602C49B1F90200FCF72CFA06462A4ABE
:1040A0002A4BFCF7ACF904460D4629494868FCF751
:1040B00051FA804622462B46FCF7FAF88246FCF776
:1040C0005CFA23494860234A4868234900F0CAFA49
:1040D0001F494860214A0868511E00F073F91C49C5
:1040E0001E4A921C4868511E00F09AF91549B1F910
:1040F0000400FCF7F6F90446184A121D511E00F0A0
:1041000061F91049B1F90600FCF7EBF90446134ACE
:10411000921D511E00F056F955201049491F087094
:104120000F48007848700548007888700348807808
:10413000C870FF20C874BDE8F09F00005600002042
:10414000460000204E0000202D431CEBE2361A3FB3
:1041500068030020CDCCCC3FCDCCCCBF4D0300209C
:104160003000002004E0FFF757FF022001F01CFDA3
:10417000F9E7000010B5002405E00648015D06A03F
:10418000FFF704FC641C142CF7DB05A0FFF7FEFB13
:1041900010BD0000480300202532782C00000000EC
:1041A0000D0A00000A4A106001464FF47A7251432A
:1041B0004FF0E022126942F002024FF0E0231A6150
:1041C0001A465161126942F001021A6170470000FB
:1041D0000400002030B50446002505E04FF47A7055
:1041E00000F006F8681C85B2A542F7DB30BD000080
:1041F00070B5034600224FF0E02675690D4E366813
:1042000003FB06F44FF0E026B16910E04FF0E02622
:10421000B06988420BD0884202D20E1A324402E0C2
:104220002E1A0E4432440146A24200D300E0EDE7CC
:1042300000BF70BD0400002000B589B0242168468D
:10424000FBF7F9FF1E481F4908607F211D48C16028
:1042500000201C49486000211A48816001611A4809
:104260001A4908607F211948C16000201749486039
:104270000021164881600161032000900020019018
:1042800001200290002003900F2004900020059050
:1042900001200690002007900F20089069460948E9
:1042A000FEF7D4FA69460948FEF7D0FA3C210548E2
:1042B000FEF796FB3C210548FEF792FB09B000BDD6
:1042C000000800407803002000040040C0030020E4
:1042D0001A480068406AC2B219480078111A402989
:1042E00003DDA1F1800001B205E011F1400F02DA17
:1042F00001F1800001B200290CDD12480078084469
:104300007F2801DD7F2002E00E48007808440D4B35
:1043100018700DE000290BDA0A48007808440028DC
:1043200001DA002002E0074800780844054B1870C5
:10433000034802700348007870470000C003002063
:104340005C0000205D0000201B480068406AC2B28B
:104350001A480078111A402903DDA1F1800001B24A
:1043600005E011F1400F02DA01F1800001B248428C
:1043700001B200290CDD1248007808447F2801DDD5
:104380007F2002E00E48007808440D4B18700DE0C5
:1043900000290BDA0A4800780844002801DA0020D6
:1043A00002E0074800780844054B18700348027083
:1043B0000348007870470000780300205A0000206E
:1043C0005B0000202DE9F84F83468946924611494B
:1043D0005846FCF7F9F801D2DFF838B00E495846D4
:1043E000FCF7E8F801D2DFF830B00C495846FBF78B
:1043F0002DFF0090FCF7AEF8074601F017F90546CF
:10440000FCF789F804B2200A89F800008AF8004015
:10441000BDE8F88FC3D5A3430AD7A3C30000C842A1
:104420002DE9F84F83468946924611495846FCF7D4
:10443000CBF801D2DFF838B00E495846FCF7BAF88D
:1044400001D2DFF830B00C495846FBF7FFFE009070
:10445000FCF780F8074601F0E9F80546FCF75BF841
:1044600004B2200A89F800008AF80040BDE8F88FFD
:10447000681103426F1203C200007A4400BF054A6C
:10448000126802F04002002AF9D0C2B2014B1B1D93
:104490001A6070470038014010B510214248FDF7FE
:1044A0005FF9041E09D141484078012805D14048F0
:1044B000407880F001003E4948703C48447020211B
:1044C0003948FDF74DF9041E09D138488078012894
:1044D00005D13748807880F001003549887033482D
:1044E000847001213348FDF73BF9041E09D12F48A0
:1044F000C078012805D12E48C07880F001002C49F1
:10450000C8702A48C4704FF400712A48FDF728F992
:10451000041E09D125480079012805D124480079D5
:1045200080F0010022490871204804714FF4807125
:104530002048FDF715F9041E09D11C4840790128CF
:1045400005D11B48407980F001001949487117488E
:10455000447120211748FDF703F9041E09D11348BF
:104560008079012805D11248807980F00100104936
:1045700088710E48847110210E48FDF7F1F8041E71
:1045800009D10A48C079012805D10948C07980F0CD
:1045900001000749C8710548C4710548FEF735FE9A
:1045A0000549087010BD0000000801403B000020D4
:1045B00031000020000C01403000002000B585B023
:1045C0000020019002900390049000BF00BF234898
:1045D000806940F00400214988610846806900F044
:1045E0000400009000BF00BF00BF00BF00BF08462E
:1045F000806940F0040088610846806900F004008A
:10460000009000BF00BF00BF8815019001200290FC
:1046100002200390049001A91148FCF701FF4FF418
:10462000805001900120029002200390049001A983
:104630000B48FCF7F5FE00BF00224FF480710848DC
:10464000FDF7A0F800BF00BF00224FF480510448DE
:10465000FDF798F800BF05B000BD00000010024053
:104660000008014070B505460E46144631462846FE
:10467000FBF7A0FF01D2304600E028460546214660
:104680002846FBF7A1FF01D2204600E02846054658
:10469000284670BD10B5FDF745F94FF4E01001F064
:1046A00073F84820FFF77EFD4FF4E13001F0A0F8E9
:1046B000FFF784FFFFF77EFC0C48FFF707FCFFF7CE
:1046C000BBFDFEF7E1FDFEF7ABFE09A0FFF75EF9CB
:1046D00000BF012211030B48FDF754F800BFFFF79C
:1046E00085FC01F0BFFB002010BD0000460000204B
:1046F00072756E696E672E2E2E2E2E2E2E2E720A3B
:10470000000000000008014010B502461002C41766
:1047100000EB14542413A4F18001802901DD8020D2
:1047200006E011F1800F02DA6FF07F0000E008462A
:104730000146002902DA4FF0FF3000E00120034675
:104740005943082901DC002010BDA1F10800C00177
:10475000782490FBF4F101FB03F000B2F4E770B5AC
:10476000064600240EE02146002000F00EF8002549
:1047700004E0304600F0C2F8681CC5B2802DF8DBBA
:10478000601CC4B2082CEEDB70BD70B504460D464B
:1047900005F1B001C8B200F09FF804F00F0000F07E
:1047A0009BF8102141EA141000F096F870BD00004B
:1047B0002DE9F0478246884616461C46A6F12000A1
:1047C000C6B22046E11704EB5171C1F3C709E117E6
:1047D00004EB5171C910A4EBC10119B109F1010039
:1047E00000F0FF09002535E008EB0500C1B2504696
:1047F000FFF7CBFF204604EBD07149106943CFB2DD
:104800001FE00C2C08D106EB4601144A02EB810193
:10481000C85D00F073F812E0102C06D1104901EBCE
:104820000611C85D00F06AF809E0182C07D106EB04
:10483000C6010C4A02EB8101C85D00F05FF8781CEC
:10484000C7B204EBD47149106A1C5143B942D8DC99
:10485000681CC5B24D45C7DBBDE8F087F86E00089F
:104860006C7300085C7900082DE9F04106460F469C
:1048700014461D460CE022782B4639463046FFF799
:1048800097FF284605EBD07106EB6101CEB2641CA0
:1048900020780028EFD1BDE8F08100000020FFF76C
:1048A0005EFF0FE00848037808A214210948FFF7CB
:1048B0007DF80C23074A00210846FFF7D5FF642046
:1048C00001F072F9EEE70000300000206B65793AE4
:1048D000253258000C0300201CB50446002001902E
:1048E0008DF805406420022301AA78210090024837
:1048F000FCF754FF1CBD0000F40100201CB5044669
:1049000006A0006801908DF805406420022301AAEA
:10491000782100900248FCF741FF1CBD40000000D8
:10492000F401002001F050FE04E0FFF723FC0A2010
:1049300001F03AF9F9E700002DE9F04105460E468D
:104940002948076800202949096881F85900274843
:104950000068001D00F068FF50B92448006890F816
:104960002C100120884022490968814320480160B9
:10497000681CD8B9D6B11F4948681C4909688860C5
:104980001A4982680968CA6018490968091D82685D
:10499000516016490968091D8160164A1349096862
:1049A0004A6111460968491C11601AE07C190F48D8
:1049B00000684460BC4207D20C480168091D0E48DB
:1049C000006800F055FF0CE008480168091D0B481D
:1049D000006800F04DFF0A480068844201D2084890
:1049E0000460BDE8F08100007C0000206800002029
:1049F0008000002070070020700000206C00002064
:104A00009800002010B5044600F058FF31480068B7
:104A1000401C304908603048006840B92E480460A6
:104A20000846006801280DD100F016FA0AE02B486C
:104A3000006838B928480068C06AE16A884201D82D
:104A40002548046026480068401C2549086008463F
:104A50000068606494F82C1001208840214909689E
:104A6000084320490860E16A01EB81011E4A02EB1C
:104A700081014868A0608268E260211D82685160FF
:104A80008160E16A01EB8101174A02EB81026261F8
:104A9000E16A01EB8101144A52F82110491CE26AD3
:104AA00002EB8202104B43F8221000F051FF0B483A
:104AB000006868B108480068C06AE16A884207D2A5
:104AC0004FF0805009490860BFF34F8FBFF36F8FDD
:104AD00010BD000078000020680000208400002045
:104AE0009400002080000020A004002004ED00E0DD
:104AF00010B500F0E3FE10480068D0B90F4800F090
:104B0000A7FE0F4800F0A4FE0C480E4908600C48B0
:104B10000D49086000221021052001F029FB0649FB
:104B200008600846006820B108A10348006800F04A
:104B3000CFFF00F00DFF10BDB00000208407002063
:104B400098070020A8000020AC000020546D72518E
:104B50000000000010B516E000F0B0FE0C48C06880
:104B6000C468201D00F060FE0A480068401E094924
:104B7000086009480068401E0749086000F0E8FE28
:104B8000204600F05FF8044800680028E4D110BD1A
:104B90005C070020780000207400002070B50446F7
:104BA0000D46206C70B1216CE0680144E160D4E9ED
:104BB0000210884201D32168E1602846226CE16836
:104BC000FBF720FB70BD2DE9F04104460F4615466A
:104BD0004FF00008A66B206C48B9206800282CD143
:104BE000A06801F0EBFD80460020A06025E07DB9C3
:104BF0003946226C6068FBF705FB216C606808444D
:104C00006060D4E90101884217D32068606014E035
:104C10003946226CE068FBF7F5FA216CE068411A2E
:104C2000E1602168E068884203D2216CA068411AE3
:104C3000E160022D01D106B1761E701CA0634046D2
:104C4000BDE8F08110B50446206B00F0BFFE2046A1
:104C500000F0BCFE10BD00000146084A1268126850
:104C60000AB9012200E000220A600A6822B9034A58
:104C70001268D268106800E000207047A800002089
:104C800030B54FF42053174800F007042CB1C01D75
:104C900020F00700134C041B1B1B0246124C226021
:104CA0000024114D6C60D018083820F007000F4C1C
:104CB000206000240D4D2D686C600C4D2D682C601B
:104CC0001146441A4C60094C24680C60084D4C682D
:104CD0002C60084D4C682C604FF00044064D2C6051
:104CE00030BD0000AC070020BC000020C400002044
:104CF000CC000020C8000020D800002000BFFFF733
:104D000029FF064800680128F9D94FF0805004496E
:104D10000860BFF34F8FBFF36F8FF0E7A004002050
:104D200004ED00E02DE9F04106460D461746984691
:104D3000069C0DB9246000E02760E663256401212C
:104D4000204601F05DFA84F850800020A064BDE8A0
:104D5000F08100002DE9F05F82460F4690469B46A9
:104D60000A9E0C9C4FEA8801A522206BFBF75CFA97
:104D7000A8F10100216B01EB800929F0070909F076
:104D8000070008B9012000E0002028B94FF458724C
:104D900024A12DA0FEF7FAFD87B1002507E0795D7B
:104DA00004F134004155785D00B902E06D1C102D0E
:104DB000F5D300BF00214320015502E0002084F814
:104DC0003400202E01D2012000E0002028B940F25A
:104DD000973214A11CA0FEF7D9FD202E00D31F2668
:104DE000E662E66400202065201D00F03EFD04F12F
:104DF000180000F03AFD2461C6F12000A061646251
:104E00000020606584F8580084F859005A465146DD
:104E1000484600F0F9FB20600B9808B10B9804603D
:104E2000BDE8F09F2E2E5C2E2E5C4D6964646C658F
:104E300077617265735C4672656552544F535C745A
:104E400061736B732E6300004572726F723A202596
:104E5000732C2025640D0A0010B5002407E004EB34
:104E600084010F4A02EB810000F0F2FC641C202C4C
:104E7000F5D30C4800F0ECFC0B4800F0E9FC0B48C3
:104E800000F0E6FC0A4800F0E3FC0A4800F0E0FC11
:104E900004480949086004480849086010BD00003A
:104EA000A00400202007002034070020480700202D
:104EB0005C070020700700206C00002070000020BC
:104EC00010B50146164800E0006803688B42FBD32A
:104ED0000246436813448B4204D143684C68234420
:104EE000436001460A464B6813440468A34211D14B
:104EF0000C4C03682468A34208D04B6804686468BB
:104F000023444B6003681B680B6005E0054B1B687E
:104F10000B6001E003680B60884200D0016010BDA7
:104F2000BC000020C40000202DE9F04104460D46DD
:104F300016461F464FF0000865602461B5420CD844
:104F4000F01BA169884202D34FF0010811E0211D36
:104F50000948006800F08CFC0BE0BE4204D2BD4260
:104F600002D34FF0010804E0211D0448006800F05E
:104F70007FFC4046BDE8F081AC000020A800002086
:104F800070B5054600F09AFCA86B08B9012400E052
:104F9000002400F0DDFC204670BD0000F1B5009853
:104FA000846C00262CB940F6D53220A128A0FEF74B
:104FB000EDFCA06BE16B884201D2012000E00020F3
:104FC00028B940F6D63219A121A0FEF7DFFCA06B6C
:104FD000E16B884227D294F9455000226946204669
:104FE000FFF7F1FD0646681C60B9606A08B9012048
:104FF00000E00020B0B904F1240001F067FC88B1A2
:1050000001260FE07F2D01D0012000E0002028B90B
:1050100040F6F63205A10EA0FEF7B8FC681C40B2BF
:1050200084F8450000BF3046F8BD00002E2E5C2EEF
:105030002E5C4D6964646C6577617265735C467261
:10504000656552544F535C71756575652E6300003C
:105050004572726F723A2025732C2025640D0A0068
:1050600070B505460E460E480068C068C468201D2D
:1050700000F0DAFB94F8280000F0040028B1324672
:105080002946204600F0FEF805E094F8280000F0DC
:10509000FE0084F828002046216A884770BD000081
:1050A000A800002070B586B08AE0029800280CDACB
:1050B00003AE2EB940F2063247A150A0FEF766FCBF
:1050C000D6E90020B168904700BF0298002877DB3E
:1050D000049C606908B9012000E0002010B9201D7F
:1050E00000F0A2FB01A800F0F9F8054602980A2892
:1050F00064D2DFE800F06305072E365306082F3729
:1051000000BF00BF00BF94F8280040F0010084F801
:1051100028000398A269811803462A462046FFF713
:1051200003FFA8B194F8280000F0040038B10398F8
:10513000A26981182A46204600F0A4F805E094F8F8
:10514000280000F0FE0084F828002046216A8847E5
:1051500035E000BF94F8280000F0FE0084F8280035
:105160002DE000BF94F8280040F0010084F82800EA
:105170000398A061A06908B1012000E0002028B9CF
:1051800040F2593214A11DA0FEF700FCA06941199C
:105190002B462A462046FFF7C7FE10E094F8280069
:1051A00000F0020018B9204600F010FC05E094F869
:1051B000280000F0FE0084F8280000E000BF00BFD7
:1051C000002202A91148006801F098F800287FF435
:1051D0006CAF06B070BD00002E2E5C2E2E5C4D69AB
:1051E00064646C6577617265735C46726565525480
:1051F0004F535C74696D6572732E63004572726FF4
:10520000723A2025732C2025640D0A00B00000207E
:10521000F8B505460C4600F087FE684600F05EF8DB
:105220000646009820BB44B9B54206D801F0F4FB0D
:1052300031462846FFF714FF1CE03CB10E480068D9
:10524000006808B9012000E000200446A91B22469E
:105250000A48006800F082FC01F0DEFB50B94FF014
:10526000805007490860BFF34F8FBFF36F8F01E095
:1052700001F0D2FBF8BD0000AC000020B00000201F
:1052800004ED00E070B504460D46164604E0A06942
:1052900005442046216A8847A06941192B463246B9
:1052A0002046FFF741FE0028F1D170BD0948006893
:1052B000006808B9012000E0002020B14FF0FF3065
:1052C0000549086005E003480068C06800680249B5
:1052D000086070476C0000209800002070B50446FC
:1052E00001F072F9054607480068854204D200F0D3
:1052F0000BF80120206001E00020206001480560DB
:10530000284670BDB800002070B508E00D48006860
:10531000C06804684FF0FF312046FFF7A1FE09483E
:105320000068006808B9012000E000200028EDD0E6
:10533000044805680448006802490860024805609E
:1053400070BD0000A8000020AC0000200B480068E1
:10535000401C08B9012000E0002020B9CE2208A19D
:1053600015A0FEF713FB00BF502080F31188BFF398
:105370004F8FBFF36F8F00BF00BFFEE7DC00002040
:105380002E2E5C2E2E5C4D6964646C6577617265AF
:10539000735C4672656552544F535C706F727461F2
:1053A000626C655C525644535C41524D5F434D33D1
:1053B0005C706F72742E63004572726F723A2025B2
:1053C000732C2025640D0A0008B500BF6846FFF75E
:1053D00043FC044620460099FFF71AFFFFF762FEE0
:1053E000F4E770B5044600F069FA94F9455019E005
:1053F000A06C30B12046FFF7D1FD88B100F0B4FCBD
:105400000EE0606A08B9012000E0002038B904F11C
:10541000240001F05BFA18B100F0A6FC00E003E004
:10542000681E45B2002DE3DC00BFFF2084F8450074
:1054300000F08EFA00F042FA94F9445010E020692E
:1054400008B9012000E0002048B904F1100001F083
:105450003DFA08B100F088FC681E45B200E001E0AA
:10546000002DECDC00BFFF2084F8440000F070FA4F
:1054700070BD00002DE9F04104464FF0000800F037
:1054800053FD4948006808B9FFF7FAFB4748006830
:105490002040002875D1002C23D004F10800A04240
:1054A0001FD9083404F0070000281BD004F00700BF
:1054B000C0F108002044A04211D904F00700C0F157
:1054C0000800044404F0070008B9012000E00020AF
:1054D00040B99C2236A144A0FEF758FA02E000240D
:1054E00000E00024002C4CD043480068844248D897
:1054F000424E3046056801E02E462D686868A0429D
:1055000002D228680028F7D127480068854238D0A1
:10551000306800F10808286830606868001B1028AF
:1055200013D92F1907F0070008B9012000E0002067
:1055300020B9CF221EA12CA0FEF728FA6868001B14
:1055400078606C603846FFF7BBFC2B4968680968D7
:10555000081A2949086008460068294909688842EC
:1055600003D2254800682649086010496868096820
:10557000084368600020286022480068401C2149D8
:10558000086001F049FA08F0070008B9012000E0BE
:10559000002028B94FF4887205A113A0FEF7F6F990
:1055A0004046BDE8F0810000C4000020D800002083
:1055B0002E2E5C2E2E5C4D6964646C65776172657D
:1055C000735C4672656552544F535C706F727461C0
:1055D000626C655C4D656D4D616E675C68656170A0
:1055E0005F342E63000000004572726F723A20250E
:1055F000732C2025640D0A00C8000020BC00002088
:10560000CC000020D0000020001F4FF0807303600A
:10561000001F21F001030360001F034B03601438D7
:1056200002602038704700004D5300082DE9F04D0E
:1056300007460E46FBF7C8F804460D463A46334681
:10564000FAF7DAFEDFF86CA0DFF86CB01B4B074608
:10565000884616F0004F4FF000020AD0FBF7F8F82A
:105660000AD900225B4638464146FBF709F91BD2AE
:1056700012E0FBF7EDF808D20022534620462946F7
:10568000FAF7B7FE04460D460EE000225B463846A8
:105690004146FBF7F5F807D8002253462046294635
:1056A000FAF706FE04460D463146204665F31E0114
:1056B000BDE8F08D0000F03F0000E03F0000E0BFDB
:1056C0001CB5044600F0FAF8174802210023802296
:1056D000CDE9001015A1184800F036FF1748082141
:1056E00000238022CDE9001015A1194800F02CFFFD
:1056F0001848092100238022CDE9001016A11A487C
:1057000000F022FF1948032100238022CDE9001078
:1057100017A11B4800F018FF1A48006800F086FA2D
:1057200000F016F91CBD00002C0000207072696E9C
:10573000745F7461736B000025490008200000202D
:10574000646174615F6765745F7461736B0000000E
:105750006541000824000020444154415F53454EF8
:10576000445F7461736B0000B10A000828000020D8
:105770006F6C65645F73686F775F7461736B000053
:105780009D4800081C00002030B58FB0054601245C
:10579000282105A8FAF74FFD14216846FAF74BFDBA
:1057A00001200590000406900020079002200C9034
:1057B000C1030D910E9505A8FCF7BAFB04460CB188
:1057C00000BFFEE70F200090022001900020029011
:1057D0004FF4806003900020049002216846FCF79B
:1057E00071FA04460CB100BFFEE70FB030BD0000F7
:1057F00010B5044609480A4908600846446000217B
:105800008160C160016181610C214161FDF776FA1F
:10581000012204490248FDF705FB10BD0038014094
:10582000B00100200E00002001460A69D1E90130D4
:105830009860D1E9010358605068884201D18868B6
:105840005060002008611068401E106010687047AA
:1058500000F1080141604FF0FF31816000F1080163
:10586000C160016100210160704700210161704742
:1058700010B502460B685C1C0CB9106907E002F118
:10588000080000E04068446824689C42FAD94468F3
:105890004C604C68A160886041600A611468641CB7
:1058A000146010BD42684A6093688B6093685960C9
:1058B0009160086103685B1C0360704710B500BF0E
:1058C000502080F31188BFF34F8FBFF36F8F00BF5D
:1058D0000B480068401C0A49086008460068012817
:1058E0000DD108480068C0B208B9012000E00020CE
:1058F00028B940F2731204A111A0FEF747F810BDB9
:10590000DC00002004ED00E02E2E5C2E2E5C4D69A4
:1059100064646C6577617265735C46726565525448
:105920004F535C706F727461626C655C5256445385
:105930005C41524D5F434D335C706F72742E630057
:105940004572726F723A2025732C2025640D0A006F
:1059500010B50B48006828B94FF4BD7209A117A013
:10596000FEF714F806480068401E0549086008461E
:10597000006820B9002080F3118800BF00BF10BD6F
:10598000DC0000202E2E5C2E2E5C4D6964646C655C
:1059900077617265735C4672656552544F535C70F3
:1059A0006F727461626C655C525644535C41524D37
:1059B0005F434D335C706F72742E63004572726F7B
:1059C000723A2025732C2025640D0A0070B5064616
:1059D0003546002E3AD0083D2C461D4960680968BE
:1059E000084008B1012000E0002028B94FF492726D
:1059F00018A126A0FDF7CAFF206808B9012000E021
:105A0000002028B940F2251212A120A0FDF7BEFF08
:105A10000F49606809680840C0B12068B0B90C49F6
:105A2000606809688843606000F07EFA1B4960681E
:105A300009680844194908602046FFF741FA1848E8
:105A40000068401C1649086000F0E6FF70BD0000C9
:105A5000D80000202E2E5C2E2E5C4D6964646C658F
:105A600077617265735C4672656552544F535C7022
:105A70006F727461626C655C4D656D4D616E675CE3
:105A8000686561705F342E63000000004572726FBC
:105A9000723A2025732C2025640D0A00C8000020CE
:105AA000D400002000204FF0E02108618861074801
:105AB0000068C0084FF47A71B0FBF1F0401E4FF05F
:105AC000E0214861032008617047000000000020C9
:105AD0002DE9F04106460F462EB940F6C82211A125
