:020000040800F2
:10000000C010002001010008411C0008391C000834
:100010003D1C000871020008852400080000000053
:10002000000000000000000000000000451F000864
:10003000A102000800000000ED1D0008471F000895
:100040001B0100081B0100081B0100081B01000820
:100050001B0100081B0100081B0100081B01000810
:100060001B0100081B0100081B0100081B01000800
:100070001B0100081B0100081B0100081B010008F0
:100080001B0100081B0100081B0100080000000004
:100090000000000000000000000000001B0100083C
:1000A0000000000000000000000000000000000050
:1000B0001B0100081B0100081B0100081B010008B0
:1000C0001B0100081B0100081B0100081B010008A0
:1000D0001B010008F52300081B0100081B01000894
:1000E0001B0100081B010008DFF810D000F05EF8CB
:1000F000004800473D2E0008AFF30080C0100020EC
:100100000648804706480047FEE7FEE7FEE7FEE7B1
:10011000FEE7FEE7FEE7FEE7FEE7FEE74F1F00080B
:10012000E9000008D2B201E000F8012B491EFBD221
:1001300070470022F6E710B513460A4604461946F2
:10014000FFF7F0FF204610BD2DE9F05F05460020C7
:1001500092469B4688460646814640241BE0284638
:1001600041464746224600F042F853465A46C01AD6
:10017000914110D311461846224600F029F82D1A55
:1001800067EB01084F4622460120002100F020F8CD
:1001900017EB00094E41201EA4F10104DFDC4846A4
:1001A00031462A464346BDE8F09F0000064C074D05
:1001B00006E0E06840F0010394E807009847103437
:1001C000AC42F6D3FFF794FF5434000874340008AF
:1001D000202A04DB203A00FA02F100207047914007
:1001E000C2F1200320FA03F3194390407047202AFC
:1001F00004DB203A21FA02F00021704721FA02F3D1
:10020000D040C2F1200291400843194670470000D7
:1002100010B500220221144800F0C6FA0522134945
:100220002A2001F0A9FD0121212001F0C7FD0121B3
:10023000222001F0C3FD1E21252001F0BFFD202159
:10024000312001F0BBFD0F21262001F0B7FD0F2169
:10025000202001F0B3FD01220221034800F0A4FA9E
:10026000642000F0F9F810BD000801400E000020E5
:1002700000BFFEE730B590F840500124AC40C56B9C
:100280006C60046863604468102C04D10468A26048
:100290000468E16003E00468A1600468E26030BDC6
:1002A0007047000070B50446002594F8210002282C
:1002B00003D00420A063012548E02068006820F0F6
:1002C0000E00216808602068006820F001002168A5
:1002D00008601F492068884201D1012026E01C499E
:1002E00014312068884201D110201FE018492831BC
:1002F0002068884201D1801518E015493C312068FA
:10030000884201D1801411E011495031206888429F
:1003100002D14FF4803009E00D49643120688842F1
:1003200002D14FF4801001E04FF080700849083985
:100330004860012084F8210000BF002084F82000DC
:1003400000BF606B10B12046616B8847284670BDC6
:10035000080002400146002209B901207047164BEF
:100360000868C01A1423B0FBF3F080000864124838
:100370000838C863022081F821000868026843F643
:10038000F0708243D1E901031843CB6818430B692D
:1003900018434B6918438B691843CB6918430243D0
:1003A0000868026000208863012081F82100002095
:1003B00081F8200000BFD1E7080002402DE9F0419C
:1003C00004460D4616461F464FF0000800BF94F83D
:1003D0002000012802D10220BDE8F081012084F82C
:1003E000200000BF94F8210001282CD1022084F8BD
:1003F00021000020A0632068006820F0010021682F
:1004000008603B46324629462046FFF733FFE06A44
:1004100030B12068006840F00E00216808600BE0F1
:100420002068006820F004002168086020680068E7
:1004300040F00A00216808602068006840F0010070
:100440002168086006E000BF002084F8200000BF9B
:100450004FF002084046BFE710B50446204602F0C0
:1004600026FB10BD2DE9F8470346002294466EE1B5
:100470004FF0010808FA02F4D1F8008008EA0400FD
:10048000A0427DD1DFF8DCA2D1F80480A8EB0A09F4
:10049000D0453AD014DCB8F1030F50D009DCB8F1E4
:1004A000000F31D0B8F1010F1CD0B8F1020F49D1C3
:1004B00020E0B8F1110F18D0B8F1120F42D11EE0B0
:1004C000B9F5881F25D006DCB9F5803F20D0B9F5F5
:1004D000801F37D11AE0B9F5001F18D0B9F5041FF5
:1004E00030D117E0D1F80CC02DE0D1F80C8008F124
:1004F000040C28E0D1F80C8008F1080C23E0D1F8B6
:100500000C8008F10C0C1EE000BF00BF00BF00BF54
:1005100000BF00BFD1F80880B8F1000F02D14FF042
:10052000040C0BE0D1F80880B8F1010F03D14FF0B3
:10053000080C1C6102E04FF0080C5C6103E04FF016
:10054000000C00E000BF00BFFF2801D8984601E082
:1005500003F104084646FF2802D84FEA820803E068
:10056000A2F108084FEA88084746D6F800804FF005
:100570000F0909FA07F928EA09080CFA07F900E057
:1005800088E048EA0908C6F80080D1F8048008F03D
:100590008058B8F1805F7DD100BFDFF8CC81D8F8FA
:1005A000188048F00108DFF8C091C9F81880C846E3
:1005B000D8F8188008F00108CDF8008000BF00BF0F
:1005C0004FEAB9384FEA920958F829504FEA827831
:1005D0004FEA18794FF00F0808FA09F825EA0805DC
:1005E000DFF88881434502D14FF0000816E0DFF8BC
:1005F0008081434502D14FF001080FE0DFF874819C
:10060000434502D14FF0020808E0DFF86C81434512
:1006100002D14FF0030801E04FF004084FEA82795D
:100620004FEA197908FA09F848EA0505DFF84C811C
:100630004FEA920948F82950D1F8048008F480184C
:10064000B8F5801F0AD1DFF83881D8F8008048EA71
:100650000008DFF82C91C9F8008009E0DFF820815C
:10066000D8F8008028EA0008DFF81491C9F8008063
:10067000D1F8048008F40018B8F5001F10D1DFF895
:10068000008108F10408D8F8008048EA0008DFF883
:10069000F09000E05AE009F10409C9F800800DE08B
:1006A000DFF8DC8008F10408D8F8008028EA0008A8
:1006B000DFF8CC9009F10409C9F80080D1F8048072
:1006C00008F40038B8F5003F0ED1DFF8B480A8F187
:1006D0000408D8F8008048EA0008DFF8A490A9F1DF
:1006E0000409C9F800800DE0DFF89480A8F104083F
:1006F000D8F8008028EA0008DFF88490A9F10409FE
:10070000C9F80080D1F8048008F48038B8F5803F3B
:100710000ED1DFF86C80A8F10808D8F8008048EA0C
:100720000008DFF85C90A9F10809C9F800800DE025
:10073000DFF84C80A8F10808D8F8008028EA000803
:10074000DFF83C90A9F10809C9F80080521CD1F8E3
:10075000008028FA02F8B8F1000F7FF489AEBDE8F6
:10076000F88700000000111000100240000801404E
:10077000000C01400010014000140140080001403D
:1007800008040140024693680B400BB1012000E0D1
:100790000020704710B5C26821EA020302EA010492
:1007A00043EA0443036110BD0AB1016101E00B0497
:1007B0000361704701480068704700001C0000207A
:1007C00003480068034909780844014908607047F4
:1007D0001C0000202400002010B50848006840F0EC
:1007E000100006490860032000F080F80F2000F098
:1007F00007F800F02BF8002010BD00000020024098
:1008000070B504460E4800784FF47A71B1FBF0F0F1
:100810000C490968B1FBF0F5284600F02AFE08B142
:10082000012070BD102C07D200222146501E00F07E
:100830001EF80548046001E00120F2E70020F0E71F
:100840002400002004000020200000207047014602
:100850000846002809DB00F01F0301229A404309E3
:100860009B0003F1E023C3F8002100BF70472DE98E
:10087000F05F80460D461646002701F0C1FE074690
:1008800039462A46334601F00700C0F1070ABAF19B
:10089000040F02D94FF0040A01E0C0F1070AD14663
:1008A00000F1040ABAF1070F02D24FF0000A01E08A
:1008B000A0F1030AD4464FF0010A0AFA09FAAAF194
:1008C000010A0AEA020A0AFA0CFA4FF0010B0BFAC3
:1008D0000CFBABF1010B0BEA030B4AEA0B042146BC
:1008E000404601F095FEBDE8F09F000000BF00F01B
:1008F0000702064B19684FF6FF031940044B0B43E0
:1009000043EA0221014B196000BF70470CED00E083
:100910000000FA0570B504460D460CB9012070BD03
:100920005A48006800F00700A8420ED257480068F5
:1009300020F007002843554908600846006800F089
:100940000700A84201D00120E9E7207800F002006A
:1009500002281DD1207800F00400042805D14C485D
:10096000406840F4E0604A494860207800F00800A0
:10097000082805D14648406840F460504449486022
:100980004348406820F0F000A168084340494860AF
:10099000207800F0010078B36068012806D13C4857
:1009A000006800F4003090B90120B8E760680228C0
:1009B00006D13748006800F0007040B90120AEE76A
:1009C0003348006800F0020008B90120A7E730486A
:1009D000406820F00300616808432D494860FFF734
:1009E000E9FE064609E0FFF7E5FE801B41F288318B
:1009F000884202D9032092E707E02548406800F0CA
:100A00000C006168B0EB810FEDD12048006800F068
:100A10000700A8420ED91D48006820F007002843AF
:100A20001A4908600846006800F00700A84201D093
:100A3000012074E7207800F00400042807D114484E
:100A4000406820F4E060E16808431149486020787C
:100A500000F00800082808D10D48406820F46050D4
:100A6000216940EAC1000A49486000F03FF808499E
:100A70004968C1F30311074A515CC8400649086040
:100A800006480068FFF7BCFE002048E7002002404F
:100A900000100240DC330008040000202000002089
:100AA00001480068704700000400002000B5FFF70F
:100AB000F7FF04494968C1F30221034A515CC84069
:100AC00000BD000000100240EC33000800B5FFF745
:100AD000E7FF04494968C1F3C221034A515CC84099
:100AE00000BD000000100240EC33000870B500218A
:100AF0000022002400230020134D696801F00C053A
:100B0000F5B1042D02D0082D19D101E00F4819E0EC
:100B10000F4DC1F38346AB5D01F4803555B10A4DED
:100B20006D68C5F340450B4E725D084D5D43B5FBE6
:100B3000F2F402E0084D03FB05F4204602E000BF9A
:100B4000024800BF00BF70BD0010024000127A00D2
:100B5000F43300080434000800093D00F8B50446E9
:100B60000CB90120F8BD207800F00100002878D0F1
:100B7000F848406800F00C0004280CD0F5484068A4
:100B800000F00C00082811D1F248406800F48030D1
:100B9000B0F5803F0AD1EF48006800F4003000282B
:100BA0005FD0606800285CD10120DBE700BF60688F
:100BB000B0F5803F06D1E748006840F48030E54951
:100BC000086028E0606858B9E248006820F4803086
:100BD000E04908600846006820F4802008601AE0B8
:100BE0006068B0F5A02F0BD1DA48006840F480208F
:100BF000D84908600846006840F4803008600AE080
:100C0000D448006820F48030D24908600846006863
:100C100020F48020086000BF606888B1FFF7CAFD3B
:100C2000054606E0FFF7C6FD401B642801D90320F6
:100C300098E7C848006800F400300028F2D010E0BF
:100C4000FFF7B8FD054606E0FFF7B4FD401B64283A
:100C500001D9032086E7BF48006800F4003000286F
:100C6000F2D1207800F00200022857D1B94840683C
:100C700000F00C0050B1B748406800F00C000828A4
:100C800018D1B448406800F4803098B9B148006881
:100C900000F0020020B12069012801D0012061E7A5
:100CA000AC48006820F0F800616940EAC100A94939
:100CB000086033E02069E8B10120A7490860FFF728
:100CC00079FD054606E0FFF775FD401B022801D9B6
:100CD000032047E79F48006800F002000028F2D098
:100CE0009C48006820F0F800616940EAC100994919
:100CF000086013E0002098490860FFF75BFD054697
:100D000006E0FFF757FD401B022801D9032029E721
:100D10009048006800F002000028F2D1207800F02E
:100D2000080008282DD1A069B8B101208B490860BE
:100D3000FFF740FD054606E0FFF73CFD401B02289B
:100D400001D903200EE78348406A00F00200002822
:100D5000F2D0012001F04CF813E000207F49086038
:100D6000FFF728FD054606E0FFF724FD401B02289B
:100D700001D90320F6E67748406A00F00200002817
:100D8000F2D1207800F00400042873D100277148C4
:100D9000C06900F0805070B900BF6E48C06940F073
:100DA00080506C49C8610846C06900F080500090CE
:100DB00000BF00BF01276A48006800F48070B0B926
:100DC0006748006840F4807065490860FFF7F2FCEE
:100DD000054606E0FFF7EEFC401B642801D903201E
:100DE000C0E65F48006800F480700028F2D000BFC1
:100DF000E068012806D15748006A40F001005549D3
:100E0000086227E0E06858B95248006A20F0010003
:100E1000504908620846006A20F00400086219E0A0
:100E2000E06805280BD14B48006A40F004004949AE
:100E300008620846006A40F0010008620AE045487E
:100E4000006A20F00100434908620846006A20F069
:100E50000400086200BFE068A0B1FFF7ABFC0546E4
:100E600009E0FFF7A7FC401B41F28831884202D914
:100E7000032077E622E03748006A00F002000028ED
:100E8000EFD012E0FFF796FC054608E0FFF792FC72
:100E9000401B41F28831884201D9032062E62D4887
:100EA000006A00F002000028F0D1012F05D1294886
:100EB000C06920F080502749C86100BFE069C8B30D
:100EC0002448406800F00C00082860D0E06902283F
:100ED00048D1002020490866FFF76CFC054606E073
:100EE000FFF768FC401B022801D903203AE61948A5
:100EF000006800F000700028F2D1206AB0F5803F51
:100F000007D11448406820F40030A1680843114913
:100F10004860D4E9080108430E49496821F4741176
:100F200008430C49486001200B490866FFF742FC62
:100F3000054607E03DE0FFF73DFC401B022801D9D4
:100F400003200FE60348006800F000700028F2D08C
:100F50002FE00000001002400000424280044242A4
:100F600000700040002014490866FFF723FC054686
:100F700006E0FFF71FFC401B022801D90320F1E522
:100F80000E48006800F000700028F2D111E0E0691E
:100F9000012800D1E6E50948466806F48031206A58
:100FA000814204D106F47011606A814201D00120AF
:100FB000D8E50020D6E500000000424200100240C3
:100FC00010B504460CB9012010BD606A38B96068DC
:100FD000B0F5827F00D105E00021E16102E000214F
:100FE00021616161A06AB0F5005F00D100BF94F893
:100FF000510028B9002084F85000204600F04AF83B
:10100000022084F851002068006820F04000216828
:101010000860A08800F48270218901F4044108432B
:10102000A18901F400610843217C01F00201084319
:10103000217D01F001010843218B01F40071084377
:10104000217F01F0380108432021095D01F0800172
:101050000843218D01F400510843216808600421F0
:10106000A06901EA104021684860A06AB0F5005FFD
:1010700003D1A08D80B2216808612068C06920F486
:1010800000602168C86100206065012084F851007B
:10109000002099E710B586B004462F4920688842A1
:1010A00057D100BF2D48806940F004002B4988616A
:1010B0000846806900F00400019000BF00BF00BF37
:1010C0000846806940F4805088610846806900F4D1
:1010D0008050019000BF00BF1020029001200390BB
:1010E00004900320059002A91D48FFF7BBF9A0203A
:1010F00002900220039002A91948FFF7B3F940209B
:1011000002900020039002A91548FFF7ABF900BF39
:101110001248806940F004001049886108468069DF
:1011200000F00400019000BF00BF022002900120E7
:10113000039004900320059002A90948FFF792F953
:10114000012002900020039002A90548FFF78AF9C8
:1011500000BF06B010BD000000300140001002408A
:10116000000801402DE9F04F85B0044688469146BD
:101170001D460E9E00200390012002900020019049
:1011800000BF94F85000012803D1022005B0BDE84B
:10119000F08F012084F8500000BFFFF70BFB0746DB
:1011A00094F851B060680490AA46BBF1010F0BD0CF
:1011B0000498B0F5827F04D1A06810B9BBF1040F88
:1011C00002D0022001904DE1B8F1000F03D0B9F137
:1011D000000F00D015B90120019043E194F85100AF
:1011E000042802D0052084F8510000206065C4F86E
:1011F0003890E587A587C4F83080E586A586206409
:101200006064A06AB0F5005F0DD100BF206800687F
:1012100020F40050216808602068006840F4005005
:101220002168086000BF2068006800F04000402886
:1012300005D02068006840F0400021680860E06840
:10124000B0F5006F59D1606810B1BAF1010F09D142
:10125000206B00882168C860206B801C2063E08EB2
:10126000401EE08642E02068806800F0020002280C
:101270001CD1E08ED0B10298012817D1206B0088D4
:101280002168C860206B801C2063E08E401EE086D1
:1012900000200290E08E48B9A06AB0F5005F05D149
:1012A0002068006840F480502168086020688068E9
:1012B00000F0010068B1E08F58B12068C068A16BF0
:1012C0000880A06B801CA063E08F401EE087012097
:1012D0000290FFF76FFAC01BB04207D3701C28B111
:1012E00003200190012084F85100BBE0E08E00282B
:1012F000B9D1E08F0028B6D159E0606810B1BAF1D9
:10130000010F09D1206B007821680873206B401C05
:101310002063E08E401EE08643E02068806800F095
:10132000020002281CD1E08ED0B10298012817D10A
:10133000206B007821680873206B401C2063E08ECE
:10134000401EE08600200290E08E48B9A06AB0F509
:10135000005F05D12068006840F480502168086073
:101360002068806800F0010068B1E08F58B1206803
:10137000C068A16B0870A06B401CA063E08F401E8A
:10138000E08701200290FFF715FAC01BB04201D39D
:10139000701C00B92EB903200190012084F851007F
:1013A00060E0E08E0028B8D1E08F0028B5D1A06AB7
:1013B000B0F5005F12D13346012211462046009756
:1013C00000F054FD30B1606D40F002006065032014
:1013D000019047E02068C068039000BF20688068E3
:1013E000C0F30010E8B1204600F02AFD012814D116
:1013F000606D40F00200606500BF2068006820F466
:101400000050216808602068006840F4005021689E
:10141000086000BF0120019003E04FF6EF702168E3
:1014200088603A463146204600F0F6FC20B10120A3
:1014300001902020606515E0A06850B900BF002031
:1014400000902068C068009020688068009000BF0D
:1014500000BF606D10B10120019002E0012084F80E
:10146000510000BF00BF002084F8500000BF019869
:101470008CE670B504462546681EB0F1807F01D326
:1014800001200FE0681E4FF0E02148610F214FF06E
:10149000FF3001F0BDF800204FF0E0218861072007
:1014A0000861002070BD70472DE9F04104460D46EB
:1014B0001646002700BF94F83C00012802D1022004
:1014C000BDE8F081012084F83C0000BF36B1042E55
:1014D0001BD0082E31D00C2E5ED145E02946206865
:1014E00000F004FE2068806940F0080021688861EF
:1014F0002068806920F00400216888612068806984
:10150000296908432168886148E02946206800F07D
:101510001DFE2068806940F40060216888612068B1
:10152000806920F480602168886120688069296969
:1015300040EA01202168886130E02946206800F0F7
:1015400039FE2068C06940F008002168C861206841
:10155000C06920F004002168C8612068C069296959
:1015600008432168C86119E02946206800F056FE4A
:101570002068C06940F400602168C8612068C069C3
:1015800020F480602168C8612068C069296940EA48
:1015900001202168C86101E0012700BF00BF00BF32
:1015A000002084F83C0000BF384689E710B50446A7
:1015B0000CB9012010BD94F83D0028B9002084F832
:1015C0003C00204600F026F8022084F83D00211D52
:1015D000206800F0BDFC012084F8460000BF84F8BC
:1015E0003E0001213F200155402001554120015579
:1015F00000BF00BF012084F8420043200155442071
:1016000001554520015500BF012084F83D00002010
:10161000D0E7000010B586B00446434920688842F0
:1016200027D100BF4148806940F400603F4988618C
:101630000846806900F40060019000BF00BF00BF51
:101640000846806940F0040088610846806900F01F
:101650000400019000BF00BFC81402900220039054
:10166000012004900320059002A93148FEF7FAFEFC
:1016700000BF2068B0F1804F27D100BF2B48C06960
:1016800040F001002949C8610846C06900F0010026
:10169000019000BF00BF00BF0846806940F0040011
:1016A00088610846806900F00400019000BF00BF17
:1016B0000C2002900220039001200490032005904A
:1016C00002A91B48FEF7CEFE00BF1A4920688842D7
:1016D00027D100BF1548C06940F002001349C86116
:1016E0000846C06900F00200019000BF00BF00BFC3
:1016F0000846806940F0080088610846806900F06B
:101700000800019000BF00BF032002900220039058
:10171000012004900320059002A90748FEF7A2FECD
:1017200000BF06B010BD0000002C014000100240B8
:101730000008014000040040000C01407047704761
:101740002DE9F04704460D4616461F464FF00008A7
:1017500015B994F83E000BE0042D02D13F20005D46
:1017600006E0082D02D14020005D01E04120005D2F
:10177000022801D1BDE8F08715B994F83E000BE0CE
:10178000042D02D13F20005D06E0082D02D140204B
:10179000005D01E04120005D012818D106B10FB9BC
:1017A0000120E7E71DB9022084F83E0011E0042D76
:1017B00003D102213F2001550BE0082D03D1022166
:1017C0004020015505E002214120015501E00120A2
:1017D000D0E735B1042D1FD0082D38D00C2D6CD199
:1017E00050E05649606A81625549606AC162554954
:1017F000606A0163216801F134023B463146606A48
:10180000FEF7DCFD08B10120B4E72068C06840F4B1
:1018100000702168C86053E04849A06A8162484965
:10182000A06AC1624749A06A0163216801F13802D8
:101830003B463146A06AFEF7C1FD08B1012099E799
:101840002068C06840F480602168C86038E03B4987
:10185000E06A81623A49E06AC1623A49E06A01633A
:10186000216801F13C023B463146E06AFEF7A6FDE5
:1018700008B101207EE72068C06840F4006021685C
:10188000C8601DE02D49206B81622D49206BC1622B
:101890002C49206B0163216801F140023B4631462F
:1018A000206BFEF78BFD08B1012063E72068C0685C
:1018B00040F480502168C86002E04FF0010800BF8A
:1018C00000BFB8F1000F36D101222946206800F090
:1018D00079FB1D492068884201D1012000E00020E9
:1018E00028B12068406C40F40040216848641649E3
:1018F000206888420BD02068B0F1804F07D0134990
:101900002068884203D01249206888420DD120689F
:10191000806800F00709B9F1060F0CD02068006854
:1019200040F001002168086005E02068006840F090
:1019300001002168086040461CE70000E71F00081E
:101940004F2000088F200008002C014000040040B8
:101950000008004070B504460D46002635B1042D40
:101960000ED0082D16D00C2D28D11DE02068C0689F
:1019700020F400702168C860606AFEF793FC1FE0E5
:101980002068C06820F480602168C860A06AFEF703
:1019900089FC15E02068C06820F400602168C860F8
:1019A000E06AFEF77FFC0BE02068C06820F48050FE
:1019B0002168C860206BFEF775FC01E0012600BFBE
:1019C00000BF002E46D100222946206800F0FAFA16
:1019D00021492068884201D1012000E0002090B117
:1019E00000BF2068006A41F21111084050B9206818
:1019F000006A8910084028B92068406C20F4004033
:101A00002168486400BF00BF2068006A41F21111DC
:101A1000084050B92068006A8910084028B9206839
:101A2000006820F001002168086000BF1DB9012096
:101A300084F83E000EE0042D03D101213F20015522
:101A400008E0082D03D101214020015502E00121C9
:101A500041200155304670BD002C014010B50446B0
:101A60000CB9012010BDA06900B100E000BF94F8DE
:101A7000410028B9002084F84000204600F02AF8F0
:101A8000242084F841002068C06820F400502168B8
:101A9000C860204600F0E6FB2068006920F4904012
:101AA000216808612068406920F02A0021684861A7
:101AB0002068C06840F400502168C860002060645D
:101AC000202084F8410084F842000020606300BFB9
:101AD000C8E7000010B586B0044625492068884252
:101AE00043D100BF2348806940F004002149886148
:101AF0000846806900F00400019000BF00BF00BFED
:101B00000846806940F4804088610846806900F496
:101B10008040019000BF00BF481502900220039052
:101B2000012004900320059002A91348FEF79AFCB7
:101B30004FF4806002900020039002A90E48FEF747
:101B400091FC2520FEF783FE032211462520FEF797
:101B50008EFE2068C06840F020002168C8602068C0
:101B6000C06840F010002168C86006B010BD0000D9
:101B70000038014000100240000801402DE9F84FF4
:101B800004460E46174699464FF0000A94F8420064
:101B900020284FD106B117B90120BDE8F88F0020E9
:101BA0006064222084F8420000202063FEF702FED9
:101BB0008246A785E785A068B0F5805F04D12069DB
:101BC00010B90025B04602E035464FF0000829E084
:101BD0005346002220212046CDF8009000F0C0FBA3
:101BE00008B10320D9E745B920684068C0F3080070
:101BF000A8F8000008F1020811E0A068B0F5805FC5
:101C000003D0A06828B9206918B9206840682870F6
:101C100004E02068406800F07F0028706D1CE08DB3
:101C2000401EE085E08D0028D2D1202084F84200BB
:101C30000020B2E70220B0E700BFFEE700BFFEE7EA
:101C4000704700001CB510A103C9CDE900010522B1
:101C50006946302000F090F805226946102000F017
:101C600037F8002406E01DF80400A52800D003E0A2
:101C7000601CC4B2052CF6DB00BF052C01D001208E
:101C80001CBD0020FCE70000A5A5A5A5A50000003F
:101C900010B50D480D4908604FF48270486000216E
:101CA0000A488160C160016141614FF40071816146
:101CB0003821C16100210162416281620721C16254
:101CC000FFF77EF910BD000000300140A00B00209E
:101CD0002DE9F04107460D461646002210210C481A
:101CE000FEF762FD384600F0AFF88046002405E0BC
:101CF000FF2000F0A9F82855601CC4B2B442F7DBFD
:101D0000012210210248FEF74FFD4046BDE8F08158
:101D10000008014070B50446002210210848FEF773
:101D200043FD204600F090F8FF2000F08DF80546B6
:101D3000012210210248FEF737FD284670BD000041
:101D40000008014070B504460720FFF7E3FF054691
:101D50002946272000F032F805F0400050B120223B
:101D600021466120FFF7B4FFFF21E22000F026F8B2
:101D7000002070BD0120FCE72DE9F04107460C462C
:101D80001546002210210C48FEF70EFD384600F0E3
:101D90005BF88046002605E014F8010B00F054F8CB
:101DA000701CC6B2AE42F7DB012210210248FEF7DA
:101DB000FBFC4046BDE8F0810008014070B50546D7
:101DC0000C46002210210848FEF7EEFC284600F0E1
:101DD0003BF80646204600F037F801221021024861
:101DE000FEF7E2FC304670BD00080140704700007D
:101DF00008B508490968C9084FF47A72B1FBF2F1D5
:101E00004143009100BF00BF00994A1E0092002983
:101E1000F9D108BD04000020F8B504460D46164669
:101E20002B46002280212046009600F01FF828B1A2
:101E3000606D40F0200060650320F8BD0020FCE7E5
:101E4000014601207047000001B582B000200190DA
:101E50004FF47A70012301AA02A900900248FFF70B
:101E600081F99DF804000EBDA00B00202DE9F84F6C
:101E700004460D4690461E46DDF82890FEF79AFC73
:101E8000A0EB0900371AFEF795FC82462C48006843
:101E9000C0F3CB307843009045E0701C002842D05E
:101EA000FEF788FCA0EB0A00B84200D2A7BB20686E
:101EB000406820F0E000216848606068B0F5827FEB
:101EC0000DD1A068B0F5004F03D0A068B0F5806FC9
:101ED00005D12068006820F0400021680860A06AF1
:101EE000B0F5005F0DD100BF2068006820F40050FD
:101EF000216808602068006840F40050216808608C
:101F000000BF012084F8510000BF002084F8500079
:101F100000BF0320BDE8F88FFFE7009800B9002755
:101F20000098401E0090206880682840A84201D197
:101F3000012000E000204045AFD10020EAE700008A
:101F400004000020704710B5FEF73AFC10BD704742
:101F500010B50268184B984208D0B0F1804F05D0F8
:101F6000164B984202D0164B984203D122F07002D1
:101F70004B681A43104B984208D0B0F1804F05D0FF
:101F80000E4B984202D00E4B984203D122F440727D
:101F9000CB681A4322F080034C6943EA04020260D2
:101FA0008B68C3620B688362034B984201D10B6953
:101FB00003630123436110BD002C01400004004075
:101FC0000008004030B501F01F05012404FA05F3B4
:101FD000046A9C430462046A01F01F0502FA05F5D5
:101FE0002C43046230BD70B505466C6A606AA84235
:101FF00007D101202077A86918BB012084F83E0092
:102000001FE0A06AA84207D102202077A869C0B9C2
:1020100001213F20015514E0E06AA84207D10420C5
:102020002077A86968B901214020015509E0206B9B
:10203000A84206D108202077A86910B901214120C3
:1020400001552046FFF77AFB0020207770BD70B560
:1020500005466C6A606AA84202D10120207710E030
:10206000A06AA84202D1022020770AE0E06AA842D2
:1020700002D10420207704E0206BA84201D108207F
:1020800020772046FFF75BFB0020207770BD70B5FE
:1020900005466C6A606AA84204D10120207784F862
:1020A0003E001DE0A06AA84205D102202077012150
:1020B0003F20015514E0E06AA84205D104202077B2
:1020C0000121402001550BE0206BA84205D10820DA
:1020D000207701214120015502E0012084F83D00D4
:1020E0002046FFF7E0F90020207770BD30B5026A86
:1020F000056A25F0010505624368846924F07004CF
:1021000024F003040D682C4322F002028D682A4358
:102110000D4DA84206D100BF22F00802CD682A4327
:1021200022F00402084DA84207D123F4807323F45F
:1021300000734D692B438D692B43436084614D6867
:102140004563026230BD0000002C014030B5026AD8
:10215000056A25F0100505624368846924F4E044AB
:1021600024F440740D6844EA052422F020028D68AE
:1021700042EA05120E4DA84207D100BF22F08002AC
:10218000CD6842EA051222F04002094DA84209D169
:1021900023F4806323F400634D6943EA85038D696A
:1021A00043EA8503436084614D688563026230BD04
:1021B000002C014030B5026A056A25F4807505627D
:1021C0004368C46924F0700424F003040D682C43B0
:1021D00022F400728D6842EA05220F4DA84207D111
:1021E00000BF22F40062CD6842EA052222F4806238
:1021F000094DA84209D123F4805323F400534D69BB
:1022000043EA05138D6943EA05134360C4614D68D1
:10221000C563026230BD0000002C014030B5036A86
:10222000056A25F4805505624468C26922F4E042DB
:1022300022F440720D6842EA052223F400538D68AF
:1022400043EA0533064DA84204D124F480444D6985
:1022500044EA85144460C2614D680564036230BD80
:10226000002C014070B504462168096921F44051F1
:10227000E2681143226811612269A1681143626911
:1022800041EA02052168C96841F20C629143294381
:102290002268D1602168496921F44071A269114323
:1022A000226851612D4A2168914202D1FEF70EFC4D
:1022B00001E0FEF7FBFB00EBC00101EB00116268DF
:1022C0009200B1FBF2F100EBC00202EB0012636876
:1022D0009B00B2FBF3F26423B2FBF3F202EBC20306
:1022E00003EB0212A1EB8201322202EB0111642204
:1022F000B1FBF2F101F0F00100EBC00202EB0012C1
:1023000063689B00B2FBF3F26423B2FBF3F201EBD0
:10231000021200EBC00101EB001163689B00B1FBEE
:10232000F3F100EBC00303EB00136668B600B3FBE8
:10233000F6F36426B3FBF6F303EBC30606EB0313D5
:10234000A1EB8301322303EB01116423B1FBF3F111
:1023500001F00F0111442268916070BD0038014006
:102360002DE9F04104460D4617469846069E34E096
:10237000701C88B32EB1FEF71DFAA0EB0800B04226
:102380002BD900BF00BF21680C3151E8001F21F498
:10239000D07021680C3141E80002002AF3D100BF5F
:1023A00000BF00BF2168143151E8001F21F0010077
:1023B0002168143141E80002002AF3D100BF202037
:1023C00084F8410084F8420000BF002084F84000F7
:1023D00000BF0320BDE8F081FFE7206800682840C7
:1023E000A84201D1012000E00020B842C0D0002066
:1023F000F0E700001CB5002001901C480068006850
:10240000C0F34010B8B11A480088802802D30020D9
:10241000174908804FF47A73012201A91348FFF786
:10242000ADFB9DF80410124802880088401C104B38
:102430001880104881540D4800680068C0F30010EF
:1024400090B10C490CA000F0CBF800F055FF00BF94
:10245000002000900548006800680090034800686C
:102460004068009000BF00BF1CBD0000F80B0020BA
:1024700018000020400C0020726563763A20257316
:102480000D0A000000BFFEE72DE9F84180460D4629
:1024900016461F46002408E033462A462146404699
:1024A000009700F017F8601CC4B2092CF4DBBDE8FB
:1024B000F881F0B505460E461746002407E03B4676
:1024C000324629462046FFF7DFFF601CC4B2052CC8
:1024D000F5DBF0BD70B5049C052801DA092900DBA5
:1024E00070BD00EBC00505EB45050D4E354401EB15
:1024F0004106AA5500EBC00505EB4505084E3544DD
:1025000001EB410635446B7000EBC00505EB45055A
:10251000034E354401EB41063544AC7000BFDFE7A4
:102520009C02002010B500240BE0C4EB4410C0EB6B
:10253000C000234A02EB4001204600F0EBFE601C85
:10254000C4B2052CF1DB08211E48FFF703FA0C2169
:102550001C48FFF7FFF908211B48FFF7FBF90C2186
:102560001948FFF7F7F90C211848FFF7F3F9002095
:10257000164909684862134909684862124909689E
:102580004862D9230E4A08210F48FFF7D9F8D9230A
:102590000F4A0C210C48FFF7D3F8D9230D4A0C2120
:1025A0000848FFF7CDF8D9230B4A08210548FFF763
:1025B000C7F8D923094A0C210448FFF7C1F810BD18
:1025C000240300200C02002054020020C40100203B
:1025D000D6040020880600203A080020EC090020DC
:1025E0000FB4054B10B503A9044A029800F034F863
:1025F00010BC5DF814FB0000652C000828000020CA
:1026000002480068C0F30220704700000CED00E0B3
:1026100010B5002804DB0A07130E054A135406E020
:102620000A07140E034A00F00F031B1FD45410BDF9
:1026300000E400E018ED00E002E008C8121F08C145
:10264000002AFAD170477047002001E001C1121F33
:10265000002AFBD1704700002DE9FF4F8DB00F46D7
:102660000546002606E025280BD0DDE90F1290472D
:102670006D1C761C28780028F5D111B03046BDE8D5
:10268000F08F0024A246A1460122E94900E004435C
:1026900015F8013F203B02FA03F00842F7D12878F1
:1026A0002A2810D06FF02F022878A0F130010929D4
:1026B00014D80AEB8A0102EB410144F0020400EB5A
:1026C000010A6D1CF0E701CF5FEA000A03D544F46C
:1026D0000054CAF1000A44F002046D1C28782E2828
:1026E00017D115F8010F44F004042A280ED06FF01A
:1026F0002F022878A0F1300109290AD809EB8901B5
:1027000002EB410100EB01096D1CF2E757F8049B55
:102710006D1C28786C280FD006DC4C2817D0682850
:102720000DD06A2814D104E0742810D07A280FD173
:102730000DE044F400140AE044F4801401E044F491
:1027400040146978814202D104F580146D1C6D1C1F
:1027500028786E281ED00CDC632830D004DC0028DA
:102760008BD0582811D19FE0642867D069280CD1FC
:1027700064E073282DD004DC6F2872D0702804D157
:1027800094E075286ED078286DD0DDE90F1290475F
:10279000761C4BE1C4F30250022806D0032809D06E
:1027A000042801CF09D0066040E101CFF117C0E94C
:1027B00000613BE101CF068038E1067036E117F891
:1027C000040B8DF8000000208DF80100EB4601207D
:1027D00003E057F804BB4FF0FF3061074FF00001F2
:1027E00002D40DE008F10101884649450FDA804521
:1027F000F8DB1BF808100029F4D108E008F101010A
:1028000088468142FADB1BF808100029F6D1DDE981
:102810000F23AAEB08008146214600F031F930442D
:1028200000EB080604E0DDE90F121BF8010B9047EE
:10283000B8F10108F7D221464846F2E00A21C4F374
:1028400002524FF0000B0891022A04D001CFC117A9
:10285000032A09D00AE0FF1D27F00707F7E8020165
:1028600008E02CE01EE01FE000B2C117042A01D1ED
:1028700040B2C117021E71F1000206DA0023D0EB4C
:10288000030063EB01012D2202E0220504D52B2277
:102890008DF82420012203E0E20701D02022F7E78F
:1028A000904653E00A210BE0102109E010214FF07F
:1028B000000B44F004044FF00809089103E00821DC
:1028C0004FF0000B0891C4F30252022A04D001CF4A
:1028D0000021032A06D006E0FF1D27F00707F7E8CE
:1028E000020103E080B2042A00D1C0B24FF0000818
:1028F00022072BD52A78702A07D0DDF820C08CF06B
:10290000100C5CEA0B0C05D00EE040228DF8242060
:10291000012208E050EA010306D030238DF824306C
:102920008DF8252002229046089B83F0080353EA85
:102930000B030BD150EA010201D1620706D5302208
:102940008DF824204FF00108A9F101092A78582AAE
:1029500004D038A20B9208AA0A920BE03AA2F9E737
:102960005B46089AFDF7F0FB0B9B9B5C0A9A521E94
:102970000A92137050EA0102F2D10A98ADEB0000FE
:1029800000F1200B600702D524F4803401E04FF001
:102990000109D94502DDA9EB0B0000E0002000EBA6
:1029A0000B0141440890AAEB010AE00306D4DDE9DB
:1029B0000F232146504600F063F806444FF000090B
:1029C00008E009A911F80900DDE90F12904709F1A3
:1029D0000109761CC145F4DBE0030CD5DDE90F23CA
:1029E0002146504600F04CF8064404E0DDE90F12A1
:1029F00030209047761C0899481E08900029F5DC85
:102A000008E00A980A990078491C0A91DDE90F123A
:102A10009047761CBBF10001ABF1010BF1DC2146C4
:102A20005046DDE90F2300F019F806446D1C21E63D
:102A30000928010030313233343536373839616294
:102A40006364656600000000303132333435363758
:102A50003839414243444546000000002DE9F04129
:102A6000044600251E461746880404D405E039466E
:102A70002020B0476D1C641EF9D52846BDE8F081C2
:102A80002DE9F041044600251E469046C80301D5B5
:102A9000302700E02027880404D505E04146384669
:102AA000B0476D1C641EF9D52846BDE8F08110B50D
:102AB000044603E04FF47A7000F005F8201EA4F1FC
:102AC0000104F7D110BD014601EBC102D2004FF065
:102AD000E0235A6100229A611A46126942F0040208
:102AE0001A611A46126942F001021A6100BF4FF0E2
:102AF000E022106900F001021AB100F48032002ACD
:102B0000F5D04FF0E022126922F001024FF0E023ED
:102B10001A61704708B500BF4848406940F001009D
:102B2000464948610846406900F00100009000BF36
:102B300000BF4348434908601020486000214148D5
:102B400081608021C16049000161890041610021EB
:102B50008161C1613A483C383B49086010204860B7
:102B60000021394881608021C160490001618900EC
:102B7000416100218161C16131483C3033490860C5
:102B8000102048600021314881608021C1604900E7
:102B900001618900416100218161C16128482838B3
:102BA0002B4908601020486000212948816080215D
:102BB000C160490001618900416100218161C161F9
:102BC0001F4814382349086010204860002121481C
:102BD00081608021C160490001618900416100215B
:102BE0008161C1611748FDF7B5FB1748FDF7B2FBDE
:102BF0001648FDF7AFFB1648FDF7ACFB1548FDF78F
:102C0000A9FB00BF0F4914480163486200BF00BF21
:102C10000D491248C162486200BF00BF0B49016301
:102C2000486200BF00BF0A490D48C162486200BF48
:102C300000BF08490163486200BF08BD00100240A0
:102C40004400024070000020B4000020F800002082
:102C50003C01002080010020C40100200C02002063
:102C60005402002000BF054A126802F04002002A08
:102C7000F9D0C2B2014B1B1D1A60704700380140E9
:102C800038B5002500201C4908704FF480511B48BE
:102C9000FDF778FD8DF800004FF400511748FDF75F
:102CA00071FD8DF801004FF480411448FDF76AFD75
:102CB0008DF802004FF400411048FDF763FD8DF8D8
:102CC0000300002414E00E48005D58B91DF804000C
:102CD000012807D10125A040C0B20749097808435F
:102CE000054908701DF8040005490855601CC4B268
:102CF000042CE8DB284638BD09000020000C014008
:102D00000A000020014800787047000009000020F8
:102D100000B585B000BF1B48806940F00800194924
:102D200088610846806900F00800009000BF00BF7D
:102D30004FF4704001900020029002200390049014
:102D400001A91148FDF78EFB4FF480510E48FDF7A5
:102D500019FD0E4908704FF400510B48FDF712FDA4
:102D60000A4948704FF480410748FDF70BFD0749B9
:102D700088704FF400410448FDF704FD0349C87012
:102D800005B000BD00100240000C01400A00002008
:102D900010B5FFF775FF20B102480078401C0149CB
:102DA000087010BD0800002010B520210148FDF773
:102DB000F1FC10BD000C014010B501224021024879
:102DC000FDF7F2FC10BD0000000C014010B5002220
:102DD00020210748FDF7E8FC002240210448FDF7C8
:102DE000E3FC002280210248FDF7DEFC10BD00005C
:102DF000000C014000B585B000BF0E48806940F06E
:102E000008000C4988610846806900F008000090BD
:102E100000BF00BFE020019001200290039003203A
:102E2000049001A90448FDF71DFBFFF7CFFF05B093
:102E300000BD000000100240000C014008B5FDF785
:102E4000CBFC4FF4E01000F00DFAFFF7D3FFFFF7D3
:102E50005FFFFFF75FFEFEF71BFF0021592000F028
:102E600095F94FF4E13000F031FA3DA0FFF7B8FBDF
:102E700000F084F8FFF7A0FF00221146FF20FFF7C3
:102E800018FBFFF74FFB0A20FFF711FE0F20FDF79D
:102E9000B7FC63E0FFF77CFF3548FEF753FFFFF711
:102EA00031FF8146FDF786FC80463148407800F0CE
:102EB0000800082803D0FF250026002702E000258F
:102EC0000026FF2700243BE049FA04F000F001004F
:102ED00048B12848005D062805D30020254908553B
:102EE000254840F824802348005D06280ED2224859
:102EF00050F82400A8EB0000642807D31E4840F8CF
:102F000024801C48005D401C1A4908551948005D82
:102F100006280AD21748005D00F0010028B94FF0DA
:102F2000000AD3460020009002E0AA46B34600976C
:102F30005A4651462046009BFFF7A6FA601CC4B2D1
:102F4000042CC1D33B46324629460420FFF79CFAA5
:102F5000FFF7E8FA0A20FFF7AAFD00BF9AE7000092
:102F600072756E6E696E672E2E2E0D0A00000000BF
:102F700040000020000000206000002070B5002408
:102F8000002519A0FFF72CFB012413E0FEF75AFEE1
:102F900008B9012510E0FFF707FF214619A0FFF748
:102FA0001FFB22A000F0A2F84FF4C870FFF77FFDCE
:102FB000601CC4B2052CE9DD00BF75B11DA0FFF790
:102FC0000FFB23A000F092F8FDF722F922A0FFF7F3
:102FD00007FB2DA000F08AF805E02CA0FFF700FB0E
:102FE00034A0FFF7FDFA70BD4E524632344C3031FA
:102FF0002053504920636865636B20737461727459
:103000000D0A00004E524632344C303120535049A4
:1030100020636865636B204641494C2C20726574BF
:1030200072793D25752F350D0A0000006661696CC7
:10303000000000004E524632344C3031205350498B
:1030400020636865636B20504153530D0A000000F4
:1030500070617373000000004E524632344C3031C0
:10306000205258206D6F64653A20616464723D316E
:10307000313A32323A33333A34343A3535206368B0
:103080003D33300D0A000000727800004E52463287
:10309000344C3031204E4F5420464F554E44206121
:1030A00066746572203520726574726965730D0AE5
:1030B00000000000436865636B3A204E52465F3360
:1030C00056332C2053504931205041342F352F3660
:1030D0002F372C2043453D5041312C20736F6C64B9
:1030E0006572206A6F696E74730D0A002DE9F047EE
:1030F00086B005460720FEF70DFE81460020FEF74C
:1031000009FE82460520FEF705FE06460620FEF76C
:1031100001FE07461720FEF7FDFD8046052204A9A3
:103120001020FEF7D5FD53464A4629460E488DE845
:10313000C001FFF755FA29460CA0FFF751FA002409
:103140000CE0042C01D10DA000E00DA0024604A863
:10315000015D0CA0FFF744FA601CC4B2052CF0DB43
:1031600006B0BDE8F0870000083400085B25735DF9
:103170002054585F414444523D0000000D0A0000B5
:1031800020000000253032582573000030B595B07E
:1031900005460C461C210EA8FCF7CBFF1C2107A8F6
:1031A000FCF7C7FF1C216846FCF7C3FF28482949E4
:1031B000086008464460C56000218160016181614A
:1031C000FEF7F4F960200E9000200F9010901290FE
:1031D0000C220EA91F48FEF767F94FF080401E49E8
:1031E000086008464460C56000218160016181611A
:1031F000FEF7DCF9602007900020089009900B9002
:10320000082207A91448FEF74FF90C2207A9124813
:10321000FEF74AF911481249086008464460C56043
:103220000021816001618161FEF7C0F9602000909A
:103230000020019002900490082269460848FEF799
:1032400033F90C2269460648FEF72EF915B030BD59
:10325000002C0140C40100200C02002000040040AA
:103260005402002030B58FB005460124282105A85E
:10327000FCF75FFF14216846FCF75BFF0120059017
:10328000000406900020079002200C90C1030D91CD
:103290000E9505A8FDF762FC04460CB100BFFEE7E1
:1032A0000F20009002200190002002904FF48060D7
:1032B00003900020049002216846FDF72BFB044692
:1032C0000CB100BFFEE70FB030BD000010B50446E2
:1032D0000748084908600846446000218160C160D1
:1032E000016181610C214161FEF7B8FB10BD000056
:1032F00000380140F80B002010B580210348FCF78E
:1033000018FF00200249088010BD0000400C00207A
:1033100018000020F0B503460A46002155E003EBF3
:10332000C30707EB4707DFF8B0C0674401EB410C68
:1033300017F80C4003EBC30707EB4707DFF898C00B
:10334000674401EB410C67447D7803EBC30707EB4F
:103350004707DFF884C0674401EB410C6744BE783F
:1033600000202EE0802707412F400FB13C2700E0CE
:103370001E274FF0180C0CFB010C22F81C70802744
:103380000741274017B14FF03C0C01E04FF01E0CF5
:1033900001EB4107FF000837074422F817C08027D8
:1033A0000741374017B14FF03C0C01E04FF01E0CC5
:1033B00001EB4107FF001037074422F817C0471CF4
:1033C000F8B20828CEDB4C1CE1B20929A7DB0024A7
:1033D000A2F8B041F0BD00009C02002000000000F7
:1033E00000000000010203040607080900000000B5
:1033F0000102030402030405060708090A0B0C0D69
:103400000E0F1010010200005B25735D2053544124
:103410005455533D30782530325820434F4E46495D
:10342000473D3078253032582052465F43483D3082
:1034300078253032582052465F53455455503D3020
:103440007825303258204649464F3D307825303275
:10345000580D0A0074340008000000202C00000001
:1034600038260008A03400082C000020941000002A
:1034700048260008060606060024F40000000000A6
:1034800000001122334455AABBCCDDEE0000000041
:10349000000000001000000001000000000000001B
:04000005080000E906
:00000001FF
