:020000040800F2
:10000000B83D00206102000839380008DB290008EB
:1000100035380008150B00084744000800000000B0
:10002000000000000000000000000000A101000826
:100030005F0C000800000000FD010008613D0008A1
:100040008502000885020008850200088502000874
:100050008502000885020008850200088502000864
:100060008502000885020008850200088502000854
:100070008502000885020008850200088502000844
:100080008502000885020008850200088502000834
:100090008502000885020008850200088502000824
:1000A0008502000885020008850200088502000814
:1000B0008502000885020008850200088502000804
:1000C00085020008850200088502000885020008F4
:1000D00085020008850200088502000885020008E4
:1000E00085020008850200088502000885020008D4
:1000F00085020008850200088502000885020008C4
:1001000085020008850200088502000885020008B3
:1001100085020008850200088502000885020008A3
:100120008502000885020008850200088502000893
:100130008502000885020008850200088502000883
:100140008502000885020008850200088502000873
:100150008502000885020008850200088502000863
:100160008502000885020008850200088502000853
:1001700085020008850200088502000800000000D2
:100180008502000885020008DFF810D000F0B2FBFD
:100190000048004795700008AFF30080B83D00208C
:1001A0002C4B19680868B0E8F04F80F30988BFF35A
:1001B0006F8F4FF0000080F311887047000000003F
:1001C00008480068006880F308884FF0000080F35A
:1001D000148862B661B6BFF34F8FBFF36F8F00DF35
:1001E00000BF00BF08ED00E0DFF80C00016841F43B
:1001F00070010160704700BF88ED00E0EFF30980F7
:10020000BFF36F8F134B1A681EF0100F08BF20ED5D
:10021000108A20E9F04F106009B44FF0500080F3CD
:100220001188BFF34F8FBFF36F8F08F0BFFF4FF000
:10023000000080F3118809BC19680868B0E8F04F25
:100240001EF0100F08BFB0EC108A80F30988BFF3CE
:100250006F8F704710010020EFF30580704700009A
:100260000948016841F47001016008488047084866
:100270000047FEE7FEE7FEE7FEE7FEE7FEE7FEE7F4
:10028000FEE7FEE7FEE7000088ED00E0753D0008B0
:10029000890100082DE9F05F0546002092469B4643
:1002A00088460646814640241BE02846414647468C
:1002B000224600F09BF853465A46C01A914110D38B
:1002C00011461846224600F082F82D1A67EB010805
:1002D0004F4622460120002100F079F817EB000973
:1002E0004E41201EA4F10104DFDC484631462A4677
:1002F0004346BDE8F09F40EA01039B0703D009E0B5
:1003000008C9121F08C0042AFAD203E011F8013B01
:1003100000F8013B521EF9D27047D2B201E000F85A
:10032000012B491EFBD270470022F6E710B5134699
:100330000A4604461946FFF7F0FF204610BD70B587
:10034000C1F30A5201F000450024C1F3130140F249
:10035000FF3341F480119A4201DA002070BD40F26F
:1003600033439A42A2F2334203DC524200F03EF899
:1003700000E090402C43F1D0404270BD00F00042BC
:1003800030F000400AD0C10D01F56071C0F31600D5
:1003900042EA0151C208400711437047002001465C
:1003A000704730B50B46014600202022012409E0A9
:1003B00021FA02F59D4205D303FA02F5491B04FA1E
:1003C00002F52844151EA2F10102F1DC30BD202AFD
:1003D00004DB203A00FA02F1002070479140C2F19C
:1003E000200320FA03F3194390407047202A04DBCE
:1003F000203A21FA02F00021704721FA02F3D0409E
:10040000C2F1200291400843194670470029A8BF55
:100410007047401C490008BF20F00100704710B42D
:10042000B0FA80FC00FA0CF050EA010404BF10BCE2
:10043000704749B1CCF1200421FA04F411FA0CF10F
:1004400018BF012121430843A3EB0C01CB1D4FEA48
:1004500000614FEA102042BF002010BC704700EB43
:10046000C35010440029A4BF10BC7047401C490071
:1004700008BF20F0010010BC7047F0B400F000424B
:1004800021F0004120F00040CE0DC30DC1F3160154
:1004900041F40001C0F316004C42154640F4000040
:1004A000761E09E010EB440002D582F00042404283
:1004B0008842F7D840005B1EB342F9DA18B1F0BCAD
:1004C0000021FFF7ACBF2846F0BC70472DE9FE4F76
:1004D000804681EA0300C00F0C46009021F00041E5
:1004E00023F00045B8EB0200A94105D24046214661
:1004F00090461C460B46024623F00040104347D06E
:10050000270DC7F30A00C3F30A510290401A019065
:1005100040286BDAC3F3130040F4801B0098924626
:1005200020B10023D2EB030A63EB0B0B0198594671
:10053000C0F140025046FFF74AFF06460D465046BE
:100540005946019A00F0E8F910EB080061410024D7
:1005500087EA115284EAE7731A4340D0009A62B3E3
:10056000019A012A4FEA075215DC001B61EB0201D8
:100570004FF0004202EA0752CDE90042001C41F56B
:10058000801132462B4600F0E8F903B0BDE8F08F49
:1005900040462146F9E7001B61EB0201001C41F5D2
:1005A000801300185B412018A2F5001747EB0301E8
:1005B00040EAD570B6196D4111E06D084FEA360674
:1005C00045EAC0754FEA0752001B61EB0201001CAF
:1005D00041F5801149084FEA300000195141324677
:1005E0002B4603B0BDE8F04F00F0A8B900980122F7
:1005F00040000023D0EB020263EBE0730098214639
:100600004FEAE074B8EB000061EB0401E9E783F026
:1006100000435BE781F0004158E72DE9FE4F81EA96
:10062000030404F0004421F0004100944FF0000B5B
:1006300023F0004350EA01045ED052EA03045BD089
:10064000C3F30A54C1F30A552C44A4F2F3340194C1
:10065000A0FB0254C1F3130141F48011C3F313034F
:1006600043F4801301FB024400FB034E840A970A03
:1006700044EA815447EA8357A4FB076802958D0A30
:1006800005FB07854FEA932C04FB0C542705029DBC
:100690004FEA065847EA1637B5EB08056EEB070C2C
:1006A000870E920E47EA811742EA8312A7FB0201E6
:1006B000B6EB0B0164EB00042B0D43EA0C335E1820
:1006C00044EB1C50DA465146E7FB0201C5F3130424
:1006D0004FEA0B3343EA14534FEA0432019C43EAD6
:1006E0000603A4F10C040294009CCDE900B400F0D0
:1006F00034F903B0BDE8F08F00200146F9E72DE999
:10070000F04D81EA030404F0004B21F0004514464B
:100710004FF0000A23F0004150EA050220D054EACD
:1007200001021DD0C5F30A570246C5F31303C1F3F6
:100730001300C1F30A5640F4801543F48013A7EB6D
:100740000608101BD64608F2FD3873EB050002D3ED
:1007500008F1010801E092185B41B8F1000F03DADB
:1007600000200146BDE8F08D00204FF480110646C0
:1007700084460EE0171B73EB050705D3121B63EBD2
:10078000050306434CEA010C49084FEA3000921871
:100790005B4150EA0107EDD152EA030012D082EA30
:1007A000040083EA0501084305D0101BAB4106D2C3
:1007B0000122002306E000224FF0004302E06FF028
:1007C000010253101AEB06004CEB085110EB0A0023
:1007D00041EB0B01BDE8F04D00F0B0B82DE9F04160
:1007E000054621F000400C46284309D0C4F30A50C6
:1007F00040F23341884205DD28462146BDE8F081BC
:100800002846FBE740F2FE31884210DC0CDB4FEA61
:10081000043040EA155050EA053105D0104804F084
:10082000004101430020E9E700200146E6E7A0F28D
:1008300033404642C6F1400228462146FFF7C7FD35
:1008400007468846284621463246FFF7CFFD4346F5
:100850003A4600F073F83246BDE8F041FFF7B7BD05
:100860000000F03FC1F30A52C1F3130140F2FF331D
:1008700041F480119A4202DA00200146704740F2AA
:1008800033439A42A2F2334202DC5242FFF7AEBD3A
:10089000FFF79DBD30B5041E71F1000404DB4FF07D
:1008A0000044404264EB0101141E73F1000405DBB7
:1008B0001C464FF00043524263EB04038B4208BFD7
:1008C000824230BD30B5041E71F1000404DB4FF0EC
:1008D0000044404264EB0101141E73F1000405DB87
:1008E0001C464FF00043524263EB0403994208BF99
:1008F000904230BD064C074D06E0E06840F0010331
:1009000094E8070098471034AC42F6D3FFF740FC58
:1009100054C1000874C10008202A06DBCB17203A16
:1009200041FA02F043EAE07306E041FA02F3D040F4
:10093000C2F12002914008431946704710B5141EB9
:1009400073F1000408DA401C41F1000192185B4188
:100950001A4301D120F0010010BD2DE9F04D92465F
:100960009B4611B1B1FA81F202E0B0FA80F2203276
:100970009046FFF72CFD04460F4640EA0A0041EA84
:100980000B0153465A46084313D0114653EA01005F
:1009900019D0C8F140025046FFF728FD05460E4623
:1009A000504659464246FFF712FD084305D0012044
:1009B00004E020463946BDE8F08D0020054346EAB4
:1009C000E0762C4337430A986305E40AA0EB08005D
:1009D0000022FD0A44EA47540A3002D500200146AD
:1009E000E9E7010510196941DDE908450019694188
:1009F000BDE8F04DA2E730B58C1810F8012B12F0CD
:100A00000F0301D110F8013B120906D110F8012B98
:100A100003E010F8015B01F8015B5B1EF9D101E016
:100A200001F8013B521EFBD1A142E6D3002030BDAC
:100A3000B7EE000A80ED000A9FED060A80ED010A7C
:100A40009FED040A80ED020A9FED020A80ED030A81
:100A500070470000000000002DE9F0412DED028BF1
:100A60000646B0EE408A0C4615461F4695ED020A32
:100A7000B0EE403A95ED010AF0EE402A95ED000AFD
:100A8000B0EE402A94ED020AF0EE401A94ED010A0D
:100A9000B0EE401A94ED000AF0EE400AB0EE480ABB
:100AA000304602F033FDBDEC028BBDE8F081000062
:100AB00010B500BF00224FF40041144800F0A4FA22
:100AC00000BF052212492A2006F002FE0121212042
:100AD00006F026FE0121222006F022FE1E212520FE
:100AE00006F01EFE2021312006F01AFE0F212620DE
:100AF00006F016FE0F21202006F012FE00BF012294
:100B0000D103024800F080FA00BF10BD000C024083
:100B10007400002000BFFEE708B508F04FFF00900A
:100B200014E00B4806F0A0FD48B9094800785528A4
:100B300005D10748C07CFF2801D106F00FFE022036
:100B400006F0FEF90221684608F0B2FEE9E700006F
:100B5000940400200146087810381823B0FBF3F203
:100B60000848805CC865032A05D908686FF3090046
:100B7000001D886503E008686FF309008865886DCB
:100B80007047000044A00008014600208A6A8B6973
:100B9000CBB932B1012A0DD0022A03D0032A10D1D9
:100BA0000EE000BFCB6A03F08073B3F1807F00D109
:100BB000012007E0CB6AB3F1C07F00D1012001E042
:100BC00000E000BF34E08B69B3F5005F1AD132B1A9
:100BD000012A07D0022A03D0032A11D10AE000BF5C
:100BE00001200EE0CB6A03F08073B3F1807F00D167
:100BF000012006E0CB6AB3F1C07F00D1012000E004
:100C000000BF15E032B1012A05D0022A04D0032A20
:100C10000CD103E000BF00BF012008E0CB6A03F065
:100C20008073B3F1807F00D1012000E000BF00BFDE
:100C3000704730B50468246824F4802405682C606B
:100C4000046863608468402C04D10468A26004686E
:100C5000E16003E00468A1600468E26030BD7047B1
:100C60002DE9F0410446002500F0DAF9074614B9F1
:100C70000120BDE8F081606A00B100BF00BF002024
:100C800084F8340000BF022084F835002068006832
:100C900020F00100216808600AE000F0C1F9C01BE3
:100CA000052805D920206065032084F83500E0E799
:100CB0002068006800F001000028EED12068056877
:100CC00021480540D4E901010843E168084321694E
:100CD000084361690843A1690843E1690843216A3F
:100CE00008430543606A042803D1D4E90B01084393
:100CF0000543206805602068456925F00705606A9E
:100D00000543606A04280DD1A06A0543E06A48B132
:100D10002046FFF739FF28B140206065012084F8A4
:100D20003500A6E7206845612046FFF713FF064619
:100D300094F85C103F208840B0600020606501207E
:100D400084F83500002094E73F8010F02DE9F0474B
:100D500004460D4616461F464FF00008D4F858903A
:100D600000BF94F83400012802D10220BDE8F087CA
:100D7000012084F8340000BF94F83500012825D103
:100D8000022084F83500002060653B463246294643
:100D90002046FFF74EFF94F85C103F208840C9F8CA
:100DA00008002068006840F0160021680860206C88
:100DB00028B12068006840F00800216808602068B9
:100DC000006840F001002168086006E000BF0020D4
:100DD00084F8340000BF4FF002084046C6E7000028
:100DE000F8B502460B460025002400200021DEE075
:100DF000012606FA01F51E6806EA0504AC4275D123
:100E00001E7906F00306012E04D01E7906F00306B3
:100E1000022E13D190684F000326BE40B0434F000E
:100E2000DE68BE4030439060506801268E40B0437B
:100E30001E79C6F300168E40304350601E7906F0CE
:100E40000306032E09D0D0684F000326BE40B043EE
:100E50004F009E68BE403043D0601E7906F0030606
:100E6000022E13D1CF0802F1200656F827004E07B4
:100E7000F70E0F26BE40B0434F07FF0E1E69BE405F
:100E80003043CF0802F1200646F8270010684F00D3
:100E90000326BE40B0431E7906F003064F00BE4055
:100EA000304310605E6806F08056B6F1805F7DD1F9
:100EB00000BF00260096404E366846F480463E4FFE
:100EC0003E603E46366806F48046009600BF00BF8E
:100ED0003A4E8F0856F827008E07370F0F26BE4070
:100EE000B043374EB24202D1002624E05EE0354ED8
:100EF000B24201D101261EE0334EB24201D1022698
:100F000019E0324EB24201D1032614E0304EB24213
:100F100001D104260FE02F4EB24201D105260AE08E
:100F20002D4EB24201D1062605E02C4EB24201D12F
:100F3000072600E008268F073F0FBE4030431F4EB4
:100F40008F0846F82700264E3068A0435E6806F4F6
:100F50008036B6F5803F00D12043214E3060361DEB
:100F60003068A0435E6806F40036B6F5003F00D155
:100F700020431B4E361D3060361D3068A0435E682E
:100F800006F48016B6F5801F00D12043144E0836B3
:100F90003060361D3068A0435E6806F40016B6F572
:100FA000001F00D120430E4E0C363060491C102922
:100FB000FFF41EAFF8BD000044380240083801407D
:100FC000000002400004024000080240000C024001
:100FD000001002400014024000180240001C0240B1
:100FE000003C0140024613690B400BB1012000E0B8
:100FF0000020704710B5426921EA020302EA0104A9
:1010000043EA0443836110BD0AB1816101E00B042E
:101010008361704701480068000C7047002004E0BD
:1010200001480068704700004400002010B50446E5
:101030000CB9012010BD242084F83D002068006810
:1010400020F0010021680860204600F0FDFB002030
:10105000206484F83D00206384F83E0000BF84F8DB
:101060003C0000BF00BFE5E770B504460CB90120A5
:1010700070BD94F83D0028B9002084F83C0020465B
:1010800000F0E3FB242084F83D002068006820F095
:101090000100216808602068006840F40040216871
:1010A00008602068006820F400402168086000F0B3
:1010B00033FD05465C496068884206D85B48854236
:1010C00001D2012007E0002005E05948854201D205
:1010D000012000E00020012800D1C9E75548B5FBF8
:1010E000F0F62068406820F03F00304321684860F7
:1010F0004D496068884201D8701C07E04FF4967033
:1011000070434FF47A71B0FBF1F0401C2168096A1A
:1011100021F03F0108432168086243496068884222
:1011200014D8681E61684900B0FBF1F0401CC0F3A0
:101130000B00042801D204203DE0681E61684900CC
:10114000B0FBF1F0401CC0F30B0034E0A06838B9EC
:10115000681E616801EB4101B0FBF1F0401C0AE040
:10116000681E616801EBC10202EB0111B0FBF1F0F6
:10117000401C40F48040C0F30B0008B901201AE085
:10118000A06848B9681E616801EB4101B0FBF1F04D
:10119000401CC0F30B000CE0681E616801EBC1024B
:1011A00002EB0111B0FBF1F0401CC0F30B0040F466
:1011B000804040F400402168C9694CF6FF729143B9
:1011C00008432168C861D4E9070108432168096818
:1011D00021F0C001084321680860D4E903100843E6
:1011E0002168896848F2FF3291430843216888608A
:1011F000D4E9050108432168C96821F0FF010843CB
:101200002168C8602068006840F00100216808601B
:1012100000202064202084F83D000020206384F812
:101220003E0000BF24E70000A086010080841E006D
:1012300000093D0040420F002DE9F84F04460F46DB
:1012400090461E46FFF7ECFE05464FF0010994F864
:101250003D0020287ED119230122634920460095B4
:1012600001F02AFD10B10220BDE8F88F00BF94F80C
:101270003C00012801D10220F6E7012084F83C005F
:1012800000BF2068006800F0010028B920680068ED
:1012900040F00100216808602068006820F40060C8
:1012A00021680860242084F83D00002020644F4815
:1012B000E06200BF2068006840F480702168086028
:1012C000334600224FF001112046009501F0F4FC56
:1012D00058B12068006800F48070B0F5807F02D1BA
:1012E0004FF4007020640320BEE707F0FE00216881
:1012F0000861FFF795FE054620684069C0F3400A83
:1013000020684069C0F3802B10E0FFF789FE401B86
:10131000B04200D816B9A02084F83D00206840698A
:10132000C0F3400A20684069C0F3802B94F83D0068
:10133000A02805D0BAF1000F02D1BBF1000FE4D014
:10134000202084F83D0020684069C0F3400028B3A5
:10135000206800E045E0006840F400702168086003
:1013600000BF0020009020684069009020688069DC
:10137000009000BF00BF192301221B4920460095A1
:1013800001F09AFC08B101206EE7202084F83D00AE
:1013900000BF002084F83C0000BF65E720680068BB
:1013A00040F40070216808606FF480602168486133
:1013B000192301220C492046009501F07DFC08B15B
:1013C000012051E709F10109C145FFF473AF202065
:1013D00084F83D0000BF002084F83C0000BF0120DD
:1013E00042E7022040E70000020010000000FFFF7B
:1013F0002DE9FC5F04460F4690469946DDE90CABAB
:101400000E9EFFF70DFE054694F83D00202870D192
:1014100019230122B0492046009501F04DFC10B17E
:101420000220BDE8FC9F00BF94F83C00012801D1D8
:101430000220F6E7012084F83C0000BF2068006825
:1014400000F0010028B92068006840F00100216820
:1014500008602068006820F400602168086022208D
:1014600084F83D00402084F83E0000202064C4F849
:1014700024A0A4F82AB0608D20859848E0624B46ED
:10148000424639462046CDE9006501F0C7FA08B169
:101490000120C6E7208D88B900BF00200190206898
:1014A0004069019020688069019000BF00BF2068FA
:1014B000006840F400702168086040E0208D012839
:1014C00018D12068006820F480602168086000BF9F
:1014D0000020019020684069019020688069019097
:1014E00000BF00BF2068006840F4007021680860F9
:1014F00025E0EFE0208D022816D12068006820F456
:101500008060216808602068006840F400602168FD
:10151000086000BF002001902068406901902068A9
:101520008069019000BF0AE000BF002001902068A0
:101530004069019020688069019000BF00BFBAE057
:10154000208D03287ED8208D012815D12A463146CA
:10155000204601F056FC08B1012062E720680069CE
:10156000616A0870606A401C6062208D401E2085A0
:10157000608D401E60859EE0208D02282AD1334672
:10158000002257492046009501F096FB08B1012042
:1015900047E72068006840F4007021680860206810
:1015A0000069616A0870606A401C6062208D401E9C
:1015B0002085608D401E608520680069616A087022
:1015C000606A401C6062208D401E2085608D401E38
:1015D000608570E03346002241492046009501F0C5
:1015E0006BFB08B101201CE72068006820F48060D4
:1015F0002168086020680069616A0870606A401CA0
:101600006062208D401E2085608D401E60853346BF
:10161000002233492046009501F04EFB08B101201D
:10162000FFE62068006840F40070216808602068C8
:101630000069616A0870606A401C6062208D401E0B
:10164000208500E010E0608D401E60852068006904
:10165000616A0870606A401C6062208D401E2085AF
:10166000608D401E608526E02A463146204601F006
:10167000C8FB08B10120D4E620680069616A0870DF
:10168000606A401C6062208D401E2085608D401E77
:10169000608520684069C0F3800060B120680069FF
:1016A000616A0870606A401C6062208D401E20855F
:1016B000608D401E6085208D00287FF441AF202082
:1016C00084F83D00002084F83E0000BF84F83C0010
:1016D00000BFA6E60220A4E6020010000000FFFF03
:1016E000040001002DE9FC5F04460F469046994630
:1016F000DDE90CAB0E9EFFF793FC054694F83D0028
:1017000020287DD1192301224D492046009501F062
:10171000D3FA10B10220BDE8FC9F00BF94F83C0052
:10172000012801D10220F6E7012084F83C0000BF27
:101730002068006800F0010028B92068006840F0C7
:101740000100216808602068006820F400602168BA
:101750000860212084F83D00402084F83E000020ED
:101760002064C4F824A0A4F82AB0608D20853548F0
:10177000E0624B46424639462046CDE9006501F01D
:10178000FDF908B10120C6E731E02A46314620467E
:1017900001F077FB50B1206C042805D12068006867
:1017A00040F40070216808600120B4E7606A0078A6
:1017B00021680861606A401C6062208D401E20859F
:1017C000608D401E608520684069C0F3800070B164
:1017D000208D60B1606A007821680861606A401CF1
:1017E0006062208D401E2085608D401E6085208DAA
:1017F0000028CAD12A463146204601F02FFA00E0DF
:101800001CE050B1206C042805D12068006840F429
:1018100000702168086001207DE72068006840F4BE
:10182000007021680860202084F83D00002084F8C2
:101830003E0000BF84F83C0000BF6CE702206AE76E
:10184000020010000000FFFF704770470348006867
:1018500003490978084401490860704744000020A2
:101860004C00002010B50A48006840F40070084998
:1018700008600846006840F480600860032000F0BB
:101880006FF80F2000F006F800F02AF8002010BDD5
:10189000003C024070B504460E4800784FF47A715F
:1018A000B1FBF0F00C490968B1FBF0F5284600F0F7
:1018B00046FE08B1012070BD102C07D2002221463F
:1018C000501E00F00EF80548046001E00120F2E728
:1018D0000020F0E74C00002000000020480000201D
:1018E00070472DE9F05F80460D461646002702F04E
:1018F000D1FD074639462A46334601F00700C0F1BC
:10190000070ABAF1040F02D94FF0040A01E0C0F14E
:10191000070AD14600F1040ABAF1070F02D24FF0CC
:10192000000A01E0A0F1030AD4464FF0010A0AFAC6
:1019300009FAAAF1010A0AEA020A0AFA0CFA4FF0B5
:10194000010B0BFA0CFBABF1010B0BEA030B4AEAA0
:101950000B042146404602F0A5FDBDE8F09F0000C3
:1019600000BF00F00702064B19684FF6FF0319404D
:10197000044B0B4343EA0221014B196000BF70473F
:101980000CED00E00000FA0570B504460D460CB9F8
:10199000012070BD5848006800F00700A84209D235
:1019A00055490D700846006800F00700A84201D0B4
:1019B0000120EEE7207800F0020002281DD12078F7
:1019C00000F00400042805D14C48006840F4E050C1
:1019D0004A490860207800F00800082805D14748E7
:1019E000006840F46040454908604448006820F0C1
:1019F000F000A168084341490860207800F0010028
:101A0000A8B36068012807D13C4808380068C0F3D3
:101A10004040B8B90120BCE76068022802D0606885
:101A2000032807D1354808380068C0F3406048B93A
:101A30000120AEE7314808380068C0F3400008B91B
:101A40000120A6E72D48006820F0030061680843E4
:101A50002A490860FFF7E4FA064609E0FFF7E0FAD2
:101A6000801B41F28831884202D9032091E707E0C8
:101A70002248006800F00C006168B0EB810FEDD1E6
:101A80001D48006800F00700A84209D91A490D70E6
:101A90000846006800F00700A84201D0012078E75E
:101AA000207800F00400042807D11448006820F4CE
:101AB000E050E168084311490860207800F0080010
:101AC000082808D10D48006820F46040216940EAE8
:101AD000C1000A49086000F03FF808490968C1F3ED
:101AE0000311074A515CC84006490860064800686F
:101AF000FFF7D0FE00204CE7003C024008380240CF
:101B00002CA00008000000204800002001480068C8
:101B1000704700000000002000B5FFF7F7FF044900
:101B20000968C1F38221034A515CC84000BD00002E
:101B3000083802403CA0000800B5FFF7E7FF044961
:101B40000968C1F34231034A515CC84000BD00003E
:101B5000083802403CA000082DE9F0470024002589
:101B60000026A1462548006800F00C0020B104289A
:101B700005D008283AD105E0DFF8849039E0DFF895
:101B8000849036E01D48001F006800F03F041B48A9
:101B9000001F006800F4800078B11A481749091F37
:101BA0000968C1F38811A0FB017001462246002399
:101BB0003846FEF76FFB05460EE011480F49091F36
:101BC0000968C1F38811A0FB017001462246002379
:101BD0003846FEF75FFB05460848001F0068C0F363
:101BE0000140401C4600B5FBF6F902E0DFF810901A
:101BF00000BF00BF4846BDE8F0870000083802403B
:101C00000024F40000127A00F8B504460CB9012053
:101C1000F8BD207800F00100002874D0F948006871
:101C200000F00C0004280DD0F648006800F00C000D
:101C3000082813D1F348001F006800F48000B0F5B5
:101C4000800F0BD1EF4808380068C0F340400028EF
:101C500059D06068002856D10120D9E700BF6068DC
:101C6000B0F5803F08D1E7480838006840F480307C
:101C7000E449083908601EE06068B0F5A02F0DD176
:101C8000E0480838006840F48020DE4908390860E0
:101C90000846006840F4803008600CE0D9480838F5
:101CA000006820F48030D749083908600846006889
:101CB00020F48020086000BF606890B1FFF7B0F9A1
:101CC000054606E0FFF7ACF9401B642801D9032064
:101CD0009EE7CC4808380068C0F340400028F1D0A7
:101CE00011E0FFF79DF9054606E0FFF799F9401B63
:101CF000642801D903208BE7C24808380068C0F384
:101D000040400028F1D1207800F0020002285FD185
:101D1000BC48006800F00C0058B1BA48006800F0F8
:101D20000C0008281CD1B748001F006800F4800090
:101D3000B0B9B44808380068C0F3400020B1E0688A
:101D4000012801D0012063E7AE480838006820F080
:101D5000F800216940EAC100AA490839086037E063
:101D6000E06800B30120A8490860FFF759F905466B
:101D700006E0FFF755F9401B022801D9032047E789
:101D8000A04808380068C0F340000028F1D09D4802
:101D90000838006820F0F800216940EAC10099493C
:101DA0000839086014E0002097490860FFF738F907
:101DB000054606E0FFF734F9401B022801D903204D
:101DC00026E7904808380068C0F340000028F1D1A9
:101DD000207800F0080008282CD16069A8B1012003
:101DE0008A490860FFF71CF9054606E0FFF718F975
:101DF000401B022801D903200AE782486C300068A2
:101E0000C0F340000028F1D014E000207F490860B2
:101E1000FFF706F9054606E0FFF702F9401B022826
:101E200001D90320F4E677486C300068C0F3400025
:101E30000028F1D1207800F00400042870D1002798
:101E400070483830006800F0805090B900BF002022
:101E500000906C483830006840F080506949383153
:101E600008600846006800F08050009000BF00BF86
:101E700001276748006800F48070B0B964480068C2
:101E800040F4807062490860FFF7CAF8054606E032
:101E9000FFF7C6F8401B022801D90320B8E65C48CA
:101EA000006800F480700028F2D000BFA06801280C
:101EB00008D154486830006840F001005149683149
:101EC00008601DE0A06805280DD14E486830006804
:101ED00040F004004B49683108600846006840F053
:101EE000010008600CE047486830006820F00100FD
:101EF0004449683108600846006820F00400086022
:101F000000BFA068A8B1FFF78BF8054609E0FFF70E
:101F100087F8401B41F28831884202D9032077E6D6
:101F200026E0384868300068C0F340000028EED052
:101F300013E0FFF775F8054608E0FFF771F8401B5E
:101F400041F28831884201D9032061E62D4868308A
:101F50000068C0F340000028EFD1012F07D12948C5
:101F60003830006820F0805026493831086000BFC2
:101F7000A069002845D02348006800F00C0008281C
:101F80005DD0A069022845D100201F490866FFF7EF
:101F900047F8054606E0FFF743F8401B022801D941
:101FA000032035E6174808380068C0F34060002871
:101FB000F1D1D4E907010843616A40EA81110122A5
:101FC000A06AC2EB500041EA00412C20005D41EACA
:101FD00000600C49091F086001200B490866FFF7E3
:101FE0001FF8054606E0FFF71BF8401B022801D941
:101FF00003200DE6034808380068C0F3406000285D
:10200000F1D049E00838024000004742800E4742C4
:1020100000700040002021490866FFF701F80546DE
:1020200006E0FEF7FDFF401B022801D90320EFE583
:102030001B480068C0F340600028F2D12CE0A06982
:10204000012800D1E4E51648001D0668A0690128B2
:1020500020D006F48001E06981421BD106F03F01E7
:10206000206A814216D147F6C0703040616AB0EBF9
:10207000811F0FD106F440310122A06AC2EB50004B
:10208000B1EB004F06D106F070612C20005DB1EB82
:10209000006F01D00120BBE50020B9E500004742F8
:1020A0000038024010B504460CB9012010BD606A2A
:1020B00038B96068B0F5827F00D105E00021E161A8
:1020C00002E0002121616161A06AB0F5005F00D1EA
:1020D00000BF94F8510028B9002084F85000204631
:1020E00000F050F8022084F851002068006820F0C9
:1020F000400021680860A08800F48270218901F402
:1021000004410843A18901F400610843217C01F0E6
:1021100002010843217D01F001010843218B01F4F4
:1021200000710843217F01F0380108432021095D37
:1021300001F080010843218D01F40051084321681A
:1021400008600421A06901EA104094F8241001F00D
:102150001001084321684860A06AB0F5005F03D110
:10216000A08D80B2216808612068C06920F40060F9
:102170002168C86100206065012084F851000020BA
:1021800094E7000010B586B004462B4920688842C9
:1021900050D100BF00BF002000902848006840F0E8
:1021A0000200264908600846006800F0020000901E
:1021B00000BF00BF00BF00BF00BF00200090084666
:1021C000006840F0020008600846006800F0020065
:1021D000009000BF00BF00BF00BF00BF0020009004
:1021E0000846006840F0020008600846006800F0F9
:1021F0000200009000BF00BF00BF4FF400500190EC
:1022000002200290012003900220049005200590F6
:1022100001A90B48FEF7E4FD4FF48040019001A9AD
:102220000748FEF7DDFD4FF40040019001A9044886
:10223000FEF7D6FD06B010BD003800403038024031
:10224000000402402DE9F04F85B0044688469146CF
:102250001D460E9E00200490012002900020019057
:1022600000BF94F85000012803D1022005B0BDE85A
:10227000F08F012084F8500000BFFEF7D1FE074622
:1022800094F851B060680390AA46BBF1010F0BD0DF
:102290000398B0F5827F04D1A06810B9BBF1040F98
:1022A00002D0022001902CE1B8F1000F03D0B9F167
:1022B000000F00D015B90120019022E194F85100DF
:1022C000042802D0052084F8510000206065C4F87D
:1022D0003890E587A587C4F83080E586A586206418
:1022E0006064A06AB0F5005F0DD100BF206800688F
:1022F00020F40050216808602068006840F4005015
:102300002168086000BF2068006800F04000402895
:1023100005D02068006840F0400021680860E0684F
:10232000B0F5006F56D1606810B1BAF1010F09D154
:10233000206B00882168C860206B801C2063E08EC1
:10234000401EE0863FE02068806800F0020002281E
:102350001CD1E08ED0B10298012817D1206B0088E3
:102360002168C860206B801C2063E08E401EE086E0
:1023700000200290E08E48B9A06AB0F5005F05D158
:102380002068006840F480502168086020688068F8
:1023900000F0010068B1E08F58B12068C068A16BFF
:1023A0000880A06B801CA063E08F401EE0870120A6
:1023B0000290FEF735FEC01BB04204D3701C10B172
:1023C000032001909DE0E08E0028BCD1E08F002822
:1023D000B9D156E0606810B1BAF1010F09D1206B94
:1023E000007821680873206B401C2063E08E401E3B
:1023F000E08640E02068806800F0020002281CD1DE
:10240000E08ED0B10298012817D1206B00782168A6
:102410000873206B401C2063E08E401EE086002085
:102420000290E08E48B9A06AB0F5005F05D120683F
:10243000006840F48050216808602068806800F0DF
:10244000010068B1E08F58B12068C068A16B0870C6
:10245000A06B401CA063E08F401EE087012002902B
:10246000FEF7DEFDC01BB04201D3701C00B916B9E7
:102470000320019045E0E08E0028BBD1E08F0028CA
:10248000B8D1A06AB0F5005F12D1334601221146DF
:102490002046009701F0F8FB30B1606D40F002007B
:1024A0006065032001902CE02068C068049000BFA4
:1024B0002068806800F01000102809D1606D40F09D
:1024C000020060654FF6EF7021688860012001907E
:1024D0003A463146204601F0A1FB20B1012001908F
:1024E000202060650DE0A06850B900BF002000907A
:1024F0002068C068009020688068009000BF00BF1E
:1025000000BF012084F8510000BF002084F8500073
:1025100000BF0198AAE6042808D14FF0E02109691C
:1025200041F004014FF0E022116107E04FF0E0219B
:10253000096921F004014FF0E0221161704770B584
:1025400004462546681EB0F1807F01D301200FE0CC
:10255000681E4FF0E02148610F214FF0FF3001F07D
:10256000A1FF00204FF0E0218861072008610020D2
:1025700070BD70B504460D46164600BF94F83C0089
:10258000012801D1022070BD012084F83C0000BF69
:1025900036B1042E1BD0082E31D00C2E5ED145E072
:1025A0002946206801F06EFC2068806940F0080030
:1025B000216888612068806920F0040021688861B2
:1025C00020688069296908432168886147E02946B5
:1025D000206801F08FFC2068806940F40060216869
:1025E00088612068806920F48060216888612068A3
:1025F0008069296940EA0120216888612FE0294625
:10260000206801F0B5FC2068C06940F0080021682E
:10261000C8612068C06920F004002168C861206892
:10262000C069296908432168C86118E02946206803
:1026300001F0DAFC2068C06940F400602168C861DC
:102640002068C06920F480602168C8612068C06982
:10265000296940EA01202168C86100E000BF00BF8D
:1026600000BF002084F83C0000BF00BF8BE710B51E
:1026700004460CB9012010BD94F83D0028B9002093
:1026800084F83C00204600F025F8022084F83D0044
:10269000211D206801F078FB012084F8460000BF6E
:1026A00084F83E0001213F20015540200155412082
:1026B000015500BF00BF012084F8420043200155AE
:1026C000442001554520015500BF012084F83D00FC
:1026D0000020D0E710B586B004461C492068884227
:1026E00031D100BF002000901948006840F002007E
:1026F000174908600846006800F00200009000BF1B
:1027000000BF00BF0020009011481438006840F05E
:1027100004000F49143908600846006800F00400FE
:10272000009000BF00BF4FF4707001900220029033
:1027300001200390022004900320059001A9054880
:10274000FEF74EFB00BF06B010BD000000040140C4
:10275000443802400008024070B504460D4615B9E1
:1027600094F83E000BE0042D02D13F20005D06E00E
:10277000082D02D14020005D01E04120005D0128CC
:1027800001D0012070BD1DB9022084F83E000EE08A
:10279000042D03D102213F20015508E0082D03D16B
:1027A00002214020015502E0022141200155012271
:1027B0002946206801F054FB23492068884203D051
:1027C00022492068884201D1012000E0002028B180
:1027D0002068406C40F40040216848641A49206831
:1027E00088421BD02068B0F1804F17D0184920686C
:1027F000884213D01749206888420FD016492068B4
:1028000088420BD011492068884207D013492068BC
:10281000884203D01249206888420CD12068806821
:1028200000F00706062E0CD02068006840F001007A
:102830002168086005E02068006840F00100216818
:10284000086000209EE700000000014000040140F5
:102850000004004000080040000C0040004001401F
:10286000001800407047704710B504460CB90120AD
:1028700010BDA06900B100E000BF94F83D0028B988
:10288000002084F83C00204600F028F8242084F83A
:102890003D002068C06820F400502168C8602046D0
:1028A00001F05EFC2068006920F490402168086116
:1028B0002068406920F02A00216848612068C068CB
:1028C00040F400502168C86000202064202084F873
:1028D0003D0084F83E000020CAE7000010B586B035
:1028E00004462949206888424CD100BF002000904E
:1028F0002648006840F00400244908600846006843
:1029000000F00400009000BF00BF00BF0020009056
:102910001E481030006840F480201C4910310860C7
:102920000846006800F48020009000BF00BF00BF90
:10293000002000901548006840F40010134908601A
:102940000846006800F40010009000BF00BF0815A2
:1029500001900220029001200390022004900720A1
:10296000059001A90A48FEF73BFA4FF40060019078
:1029700002200290002003900720059001A904483E
:10298000FEF72EFA06B010BD004800403038024075
:102990000008024070B504460D46164694F83E0005
:1029A000202816D105B10EB9012070BD00BF94F8E2
:1029B0003C00012801D10220F7E7012084F83C0007
:1029C00000BF0020206332462946204601F0DEFC8D
:1029D000EBE70220E9E77047704700BFFEE70146DA
:1029E00008684069C0F38020B0B16FF480600A6865
:1029F000506100200863202081F83D00002081F80C
:102A00003E00086C40F00400086400BF002081F81C
:102A10003C0000BF012070470020FCE72DE9F8438F
:102A200004460F4615469946DDE908862068006889
:102A300040F48060216808602068006840F480707D
:102A400021680860434600224FF00111204600969D
:102A500000F032F960B12068006800F48070B0F5D1
:102A6000807F02D14FF4007020640320BDE8F8831A
:102A700007F0FE0021680861334642463E49204681
:102A800000F05DF908B10120F0E700BF00200090E0
:102A900020684069009020688069009000BF00BFF6
:102AA00032464146204600F0ECF950B1206C042833
:102AB00005D12068006840F400702168086001209A
:102AC000D4E7B9F1010F03D1E8B22168086117E03A
:102AD000C5F307202168086132464146204600F0D0
:102AE000D0F950B1206C042805D12068006840F46A
:102AF0000070216808600120B8E7E8B22168086129
:102B000032464146204600F0BCF950B1206C042802
:102B100005D12068006840F4007021680860012039
:102B2000A4E72068006840F480702168086043468C
:102B300000224FF001112046009600F0BDF858B178
:102B40002068006800F48070B0F5807F02D14FF4F7
:102B500000702064032089E7F8B240F0010021688A
:102B60000861334642460449204600F0E8F808B1BF
:102B700001207BE7002079E7020001002DE9F843FE
:102B80000446884615469946DDE9086720680068CE
:102B900040F4807021680860334600224FF0011134
:102BA0002046009700F088F860B12068006800F4C3
:102BB0008070B0F5807F02D14FF400702064032054
:102BC000BDE8F88308F0FE00216808613B46324604
:102BD0002149204600F0B3F808B10120F0E700BF1A
:102BE0000020009020684069009020688069009073
:102BF00000BF00BF3A463146204600F042F950B1CE
:102C0000206C042805D12068006840F40070216819
:102C100008600120D4E7B9F1010F03D1E8B22168BF
:102C2000086117E0C5F30720216808613A4631467C
:102C3000204600F026F950B1206C042805D1206808
:102C4000006840F40070216808600120B8E7E8B22D
:102C5000216808610020B3E70200010070B5044656
:102C60000D46164620E02046FFF7B9FE08B10120C8
:102C700070BD681CC0B1FEF7D3F9801BA84200D814
:102C800095B900202063202084F83D00002084F8BE
:102C90003E00206C40F02000206400BF002084F83B
:102CA0003C0000BF0120E3E720684069C0F38000DA
:102CB0000028D8D00020DBE72DE9F04104460D467E
:102CC00017461E46DDF818801CE0701CD0B1FEF7D8
:102CD000A7F9A0EB0800B04200D89EB900202063FD
:102CE000202084F83D00002084F83E00206C40F055
:102CF0002000206400BF002084F83C0000BF0120B9
:102D0000BDE8F081C5F3074001280AD12068406979
:102D1000A9B20840A9B2884201D101200BE00020ED
:102D200009E020688069A9B20840A9B2884201D1AF
:102D3000012000E00020B842C7D00020E0E72DE9E4
:102D4000F04104460D4616461F463DE020684069A6
:102D5000C0F38020E8B12068006840F4007021686A
:102D600008606FF4806021684861002020632020A3
:102D700084F83D00002084F83E00206C40F0040000
:102D8000206400BF002084F83C0000BF0120BDE8A3
:102D9000F081701CC0B1FEF743F9C01BB04200D8EF
:102DA00096B900202063202084F83D00002084F89C
:102DB0003E00206C40F02000206400BF002084F81A
:102DC0003C0000BF0120E2E7C5F3074001280AD11B
:102DD00020684069A9B20840A9B2884201D1012007
:102DE0000BE0002009E020688069A9B20840A9B280
:102DF000884201D1012000E000200028A6D0002058
:102E0000C5E770B504460D46164632E020684069B5
:102E1000C0F30010A0B16FF01000216848610020DD
:102E20002063202084F83D00002084F83E00206CC0
:102E3000206400BF002084F83C0000BF012070BD6A
:102E4000FEF7EEF8801BA84200D895B90020206359
:102E5000202084F83D00002084F83E00206C40F0E3
:102E60002000206400BF002084F83C0000BF012047
:102E7000E5E720684069C0F380100028C6D0002034
:102E8000DDE770B504460D46164620E02046FFF704
:102E9000A6FD08B1012070BD681CC0B1FEF7C0F8E6
:102EA000801BA84200D895B900202063202084F818
:102EB0003D00002084F83E00206C40F0200020649B
:102EC00000BF002084F83C0000BF0120E3E7206839
:102ED0004069C0F3C0100028D8D00020DBE7000014
:102EE00000B587B0142102A8FDF71EFA00BF00202C
:102EF00001901348006840F002001149086008463C
:102F0000006800F00200019000BF00BF08150290A9
:102F100012200390012004900320059004200690C5
:102F200002A90848FDF75CFF4FF4006002900420FE
:102F3000069002A90348FDF753FF07B000BD00004B
:102F4000303802400004024008B500BF0020009065
:102F50001148006840F480000F4908600846006886
:102F600000F48000009000BF00BF0C480C490860CE
:102F70000C48486000210A488160C1604FF48041DC
:102F80000161002141618161C1610162FEF76CF85C
:102F900008B100BFFEE708BD4038024000580040BD
:102FA000CC030020801A0600012131B101290DD087
:102FB000022914D0032924D11AE000EE100AF8EEF9
:102FC000C00A9FED111A80EE810A704700EE100AC8
:102FD000F8EEC00A9FED0D1A80EE810AF5E700EECB
:102FE000100AF8EEC00A9FED0A1A80EE810AECE79B
:102FF00000EE100AF8EEC00A9FED061A80EE810A74
:10300000E3E79FED050AE0E7000080460000004688
:1030100000008045000000450000000010B50021C0
:103020000248007802F050FF10BD00000B010020A4
:103030002DE9FE4F04460D4616461F46DDE90C9A63
:10304000DDF838803048007860B15CB155B14EB1E0
:1030500047B1B9F1000F05D0BAF1000F02D0B8F1B5
:10306000000F02D10320BDE8FE8F0C2269461046F6
:1030700003F052FB08B10320F5E79DF800009DF82E
:10308000011040EA012000B220809DF802009DF866
:10309000031040EA012000B228809DF804009DF84A
:1030A000051040EA012000B230809DF806009DF82E
:1030B000071040EA012000B238809DF808009DF812
:1030C000091040EA012000B2A9F800009DF80A00AA
:1030D0009DF80B1040EA012000B2AAF8000002227D
:1030E0006946222003F018FB48B99DF800009DF8BE
:1030F000011040EA012000B2A8F8000002E0002020
:10310000A8F800000020AEE70C010020014800787C
:10311000704700000B0100200021052931D2DFE8B3
:1031200001F0030C151E270000EE100AF8EEC00A8D
:103130009FED151A80EE810A704700EE100AF8EE36
:10314000C00A9FED121A80EE810AF5E700EE100A20
:10315000F8EEC00A9FED0E1A80EE810AECE700EE51
:10316000100AF8EEC00A9FED0B1A80EE810AE3E721
:1031700000EE100AF8EEC00A9FED071A80EE810AF1
:10318000DAE79FED060AD7E733338341333303424F
:10319000333383423333034333338343000000002C
:1031A00038B500208449087003F0E0F900BF002220
:1031B00008218248FDF728FF00BF00BF0022102130
:1031C0007E48FDF721FF00BF142002F049FC1020CB
:1031D0007B498872692003F05DFA0546784845749A
:1031E000242D05D1807C40F002007549887401E0EF
:1031F00002F0C4FD00BF242D05D1012210216F482B
:10320000FDF702FF04E0002210216C48FDF7FCFEF0
:1032100000BF11206A498872682003F03BFA044617
:1032200067480474242C05D1807C40F00100644977
:10323000887401E002F0A2FD00BF242C05D1012218
:1032400008215E48FDF7E0FE04E0002208215B480B
:10325000FDF7DAFE00BF242D01D15AA000E05AA0EC
:103260000090242C01D157A000E057A002462B4625
:10327000214657A001F0EAF8242D05D169206349C1
:1032800008704F48057313E0242C05D168205F496E
:1032900008704B4804730BE0494804735B4800789E
:1032A0004749487303F054F901204549C87238BDB5
:1032B000564800784249487303F04AF920204049B3
:1032C0008872B6217E2003F035FA98B103F040F9F8
:1032D00000BF002208213948FDF796FE00BF00BF5D
:1032E000002210213548FDF78FFE00BF022034492F
:1032F000C872DCE7022002F0B3FB2120304988725B
:10330000FFF78CFE2E49087303F022F9012002F02A
:10331000A7FB03F045F988B100BF00220821274828
:10332000FDF772FE00BF00BF002210212348FDF709
:103330006BFE00BF02202249C872B8E74020204936
:103340008872AB2103F0F6F998B90121412003F00E
:10335000F1F970B9AB21422003F0ECF948B9002132
:10336000432003F0E7F920B90E217D2003F0E2F9B4
:1033700098B103F0EDF800BF002208210F48FDF7D7
:1033800043FE00BF00BF002210210C48FDF73CFEA9
:1033900000BF02200A49C87289E7322002F060FBB0
:1033A0000120054908707F20054988720020C872F5
:1033B00003F0CEF800207AE70C010020000C024058
:1033C000580600204F4B00004641494C00000000C9
:1033D000494D5536363052412073656C662D636811
:1033E00065636B3A20307836382069643D30782543
:1033F0003032582025732C20307836392069643DCE
:103400003078253032582025730D0A000B0100203A
:1034100001480078704700000C0100202DE9F047BA
:103420008AB004460D4616461F46DDE9139ADDF8BC
:1034300048805CB155B14EB147B1B8F1000F05D02D
:10344000B9F1000F02D0BAF1000F03D103200AB086
:10345000BDE8F08703A804A905AA06ABCDE90021C1
:10346000029007AA08A909A8FFF7E2FD08B1032006
:10347000EDE7BDF92400FFF797FD84ED000ABDF9E3
:103480002000FFF791FD85ED000ABDF91C00FFF754
:103490008BFD86ED000ABDF91800FFF73DFE87EDB4
:1034A000000ABDF91400FFF737FE88ED000ABDF9E8
:1034B0001000FFF731FE89ED000ABDF90C0000EEA7
:1034C000100AF8EEC00A9FED061A80EE810AF3EEAC
:1034D000070A30EE200A8AED000A0020B7E7000054
:1034E000000000442DE9F04107460C4615461E46F3
:1034F000384603F095FE204603F0CAFE284603F046
:1035000001FF304603F038FFBDE8F08100B52DED36
:10351000068B0246F0EE403AB0EE604AF0EE414AC9
:10352000B0EE615AB0EE426AF0EE625A9FEDB90A0F
:10353000F4EEC03AF1EE10FA03D29FEDB60AF0EEC7
:10354000403A9FEDB50AF4EEC03AF1EE10FA03DD11
:103550009FEDB10AF0EE403AB5EEC06AF1EE10FA16
:1035600009D1F5EEC05AF1EE10FA04D1B5EEC03A29
:10357000F1EE10FA7DD066EE060A45EEA50A43EE9E
:10358000030AB0EE600A03F04BFCF0EE402A26EE90
:10359000220AB0EE406A25EEA20AF0EE405A23EE6F
:1035A000220AB0EE403A92ED010AD2ED030A20EE73
:1035B000200AD2ED000A92ED021AF0EE408A40EEA7
:1035C000C18A92ED000AD2ED010A20EE200AD2ED66
:1035D000020A92ED031AF0EE409A40EE819AD2ED83
:1035E000000A92ED001AB6EE000A10EE810AD2ED42
:1035F000030A92ED031AB0EE40AA00EE81AA25EE6E
:103600008A0AF0EE40AA43EE69AA23EE280AB0EE39
:10361000408A06EE4A8A26EE290AB0EE409A05EE66
:10362000E89A7E4890ED000AB5EEC00AF1EE10FA75
:103630003ADD90ED000A60EE2A0A794890ED000A22
:1036400000EEA30A80ED000A744890ED000A60EED7
:10365000080A744890ED000A00EEA30A80ED000A03
:103660006E4890ED000A60EE090A6F4890ED000A7E
:1036700000E041E000EEA30A80ED000A684890ED0A
:10368000000A34EE000AB0EE404A664890ED000AA7
:1036900034EE800AF0EE404A634890ED000A35EEC1
:1036A000000AB0EE405A0EE09FED600A5C4880EDE3
:1036B000000A9FED5E0A5B4880ED000A9FED5B0A01
:1036C000594880ED000A5A48D0ED000AB0EE440A8D
:1036D00000EEAA0AB0EE404AD0ED000AB0EE640A4D
:1036E00000EE880AF0EE404AD0ED000AB0EE450A3E
:1036F00000EE890AB0EE405AB6EE000A23EE800AC8
:1037000020EE040AB0EE404AB6EE000A23EE800A2C
:1037100020EE240AF0EE404AB6EE000A23EE800ABC
:1037200020EE050AB0EE405AD2ED006A92ED017A21
:10373000D2ED027AB1EE470A20EE040A07EEE40A5F
:10374000D2ED030A00EEC50AD2ED000A30EE200ADF
:1037500082ED000A26EE840A07EE850AD2ED030AFE
:1037600000EEE40AD2ED010A30EE200A82ED010AF1
:1037700026EEA40A07EE450AD2ED030A00EE840AFB
:10378000D2ED020A30EE200A82ED020A26EE850A08
:1037900007EE240A07EEC40AD2ED030A30EE200A2F
:1037A00082ED030AD2ED000A60EEA00A92ED011A42
:1037B000D2ED011A41EE210A92ED021AD2ED021A5F
:1037C00041EE210A92ED031AD2ED031A41EE210ACD
:1037D000B0EE600A03F024FBF0EE402A92ED000AFE
:1037E00020EE220A82ED000A92ED010A20EE220A62
:1037F00082ED010A92ED020A20EE220A82ED020A0F
:1038000092ED030A20EE220A82ED030ABDEC068B3C
:1038100000BD00006F12033A0AD7A33B64000020EA
:10382000680000206C0000207000002000000000F4
:103830006000002000BFFEE77047000010B509E0FF
:1038400000BF04210A48FDF7D5FB00BF4FF47A7092
:1038500002F006F903F02AFE0028F1D1FDF728F95D
:1038600000BF012204210248FDF7CEFB00BF10BDBE
:10387000000C02402DE9F04105460E461446684210
:10388000304400EE100AF8EEC00A00EE104AB8EE1E
:10389000C00A9FED391A40EE410ABDEEE00A3748F2
:1038A00080ED000AA81900EE100AF8EEC00A00EE3A
:1038B000104AB8EEC00A9FED301A40EE410ABDEE44
:1038C000E00A2E4880ED010AA81B00EE100AF8EE6F
:1038D000C00A00EE104AB8EEC00A9FED271A40EE6B
:1038E000410ABDEEE00A254880ED020A6842801BCD
:1038F00000EE100AF8EEC00A00EE104AB8EEC00A58
:103900009FED1D1A40EE410ABDEEE00A1B4880ED16
:10391000030A002015E0194951F82010642904DD3C
:103920006421164A42F820100AE0144951F8201088
:1039300011F1640F04DA6FF06301104A42F82010AD
:10394000401C0428E7DB0D4FFF68C7EB0717FB009F
:103950000A4FBF68C7EB0717FA00084F7F68C7EB2D
:103960000717F900054F3F68C7EB0717F800FFF787
:10397000B9FDBDE8F08100009A99993E84040020C9
:10398000B0EE401A10B99FED790A704790ED100A19
:1039900080ED110A90ED0F0A80ED100AC0ED060AC5
:1039A00080ED071A30EEC10A80ED0F0A0178002978
:1039B00075D190ED010AD0ED0F1A20EE210A80EDAD
:1039C000090A90ED0A0AD0ED021A90ED0F2A01EED5
:1039D000820A80ED0A0A90ED0D0A80ED0E0A90ED44
:1039E0000C0A80ED0D0A90ED0F0AD0ED101A30EEA2
:1039F000610A80ED0C0A90ED030AD0ED0C1A20EE5E
:103A0000210A80ED0B0A90ED0A0AD0ED051AB4EEFA
:103A1000E10AF1EE10FA04DD90ED050A80ED0A0AE4
:103A200010E090ED0A0AD0ED051AF1EE611AB4EE3D
:103A3000E10AF1EE10FA05D290ED050AB1EE400A66
:103A400080ED0A0A90ED090AD0ED0A1A30EE210A3B
:103A5000D0ED0B1A30EE210A80ED080A90ED080A2D
:103A6000D0ED041AB4EEE10AF1EE10FA04DD90EDA7
:103A7000040A80ED080A76E090ED080AD0ED041AF9
:103A8000F1EE611AB4EEE10AF1EE10FA6BD290EDAC
:103A9000040AB1EE400A80ED080A64E0FFE701780D
:103AA000012960D190ED0F0AD0ED101A30EE610AB5
:103AB000D0ED011A20EE210A80ED090A90ED020AEC
:103AC000D0ED0F1A20EE210A80ED0A0A90ED0D0AC2
:103AD00080ED0E0A90ED0C0A80ED0D0A90ED0F0AB4
:103AE000D0ED101AB0EE002A02EE610AD0ED111AE4
:103AF00030EE210A80ED0C0A90ED030AD0ED0C1A8D
:103B000020EE210A80ED0B0A90ED090AD0ED0A1A89
:103B100030EE210AD0ED0B1A30EE210AD0ED081A52
:103B200030EE210A80ED080A90ED080AD0ED041A63
:103B3000B4EEE10AF1EE10FA04DD90ED040A80ED36
:103B4000080A10E090ED080AD0ED041AF1EE611AAF
:103B5000B4EEE10AF1EE10FA05D290ED040AB1EEEE
:103B6000400A80ED080A90ED080A0EE70000000008
:103B700000B970479FED100A80ED110A80ED100A20
:103B800080ED0F0A9FED0C0A80ED0E0A80ED0D0A04
:103B900080ED0C0A9FED080A80ED0B0A80ED0A0A01
:103BA00080ED090A80ED080A9FED030A80ED060A00
:103BB00080ED070A00BFDCE70000000000B102B999
:103BC0007047017092ED001A80ED011A92ED011A12
:103BD00080ED021A92ED021A80ED031A80ED040ABC
:103BE000C0ED050A9FED0C1A80ED0E1A80ED0D1A3E
:103BF00080ED0C1A9FED081A80ED081A80ED0B1A63
:103C000080ED0A1A80ED091A80ED111A80ED101A64
:103C100080ED0F1A00BFD3E7000000007CB504461A
:103C20000D461646164800681821B0FBF1F01549FC
:103C3000B0FBF1F04FF47A71484301906068B0F541
:103C4000827F0DD12B46002280212046009600F075
:103C50001BF898B1606D40F02000606503207CBDCA
:103C600000BF019800B908E00198401E019020684B
:103C70008068C0F3C0100028F3D100BF0020EEE739
:103C80000000002040420F002DE9F84F04460D4689
:103C900090461E46DDF82890FDF7C2F9A0EB09001A
:103CA000371AFDF7BDF982462C480068C0F3CB30C7
:103CB0007843009045E0701C002842D0FDF7B0F931
:103CC000A0EB0A00B84200D2A7BB2068406820F0F1
:103CD000E000216848606068B0F5827F0DD1A0687F
:103CE000B0F5004F03D0A068B0F5806F05D1206813
:103CF000006820F0400021680860A06AB0F5005F0D
:103D00000DD100BF2068006820F4005021680860D1
:103D10002068006840F400502168086000BF01205E
:103D200084F8510000BF002084F8500000BF032039
:103D3000BDE8F88FFFE7009800B900270098401E03
:103D40000090206880682840A84201D1012000E04E
:103D500000204045AFD10020EAE70000000000202D
:103D600010B5FDF773FD05F019FE012801D005F02F
:103D700069FB10BD0348006840F470000149086009
:103D80007047000088ED00E010B50268294B9842AA
:103D90000ED0B0F1804F0BD0274B984208D0274B64
:103DA000984205D0264B984202D0264B984203D128
:103DB00022F070024B681A431E4B984220D0B0F19B
:103DC000804F1DD01C4B98421AD01C4B984217D0E4
:103DD0001B4B984214D01B4B984211D01A4B98425F
:103DE0000ED01A4B98420BD0194B984208D0194B61
:103DF000984205D0184B984202D0184B984203D1F4
:103E000022F44072CB681A4322F080034C6943EAE3
:103E1000040202608B68C3620B688362054B9842A0
:103E200002D0084B984201D10B690363012343611F
:103E300010BD0000000001400004004000080040E8
:103E4000000C0040000401400040014000440140DB
:103E50000048014000180040001C004000200040C5
:103E600030B501F01F05012404FA05F3046A9C43F0
:103E70000462046A01F01F0502FA05F52C4304628E
:103E800030BD000030B5056A25F001050562026A03
:103E90004368846924F0700424F003040D682C4303
:103EA00022F002028D682A43104DA84200D103E09F
:103EB0000F4DA84206D100BF22F00802CD682A4368
:103EC00022F00402094DA84202D0094DA84207D1B0
:103ED00023F4807323F400734D692B438D692B43C6
:103EE000436084614D684563026230BD000001405B
:103EF0000004014030B5056A25F010050562026A2C
:103F00004368846924F4E04424F440740D6844EA6E
:103F1000052422F020028D6842EA0512124DA842C3
:103F200000D103E0114DA84207D100BF22F080026A
:103F3000CD6842EA051222F040020B4DA84202D0A1
:103F40000A4DA84209D123F4806323F400634D692C
:103F500043EA85038D6943EA8503436084614D68C4
:103F60008563026230BD0000000001400004014092
:103F700030B5056A25F480750562026A4368C46934
:103F800024F0700424F003040D682C4322F4007222
:103F90008D6842EA0522124DA84200D103E0114D7E
:103FA000A84207D100BF22F40062CD6842EA052290
:103FB00022F480620A4DA84202D00A4DA84209D1DB
:103FC00023F4805323F400534D6943EA05138D69AC
:103FD00043EA05134360C4614D68C563026230BDA6
:103FE000000001400004014030B5056A25F4805509
:103FF0000562036A4468C26922F4E04222F4407216
:104000000D6842EA052223F400538D6843EA053324
:10401000084DA84202D0084DA84204D124F480449F
:104020004D6944EA85144460C2614D6805640362C9
:1040300030BD0000000001400004014070B506469C
:104040000025B46B20684069C0F3C01594F83D00AA
:10405000212805D125B10020E084204600F075F824
:1040600020684069C0F3801594F83E00222805D1ED
:1040700025B10020E085204600F04CF8206C40F08F
:10408000100020642046FEF7EEFB70BD70B50546BB
:10409000AC6B2868006800F48070F8B90020E085F7
:1040A0002068C06820F480702168C860206840697A
:1040B00020F00100216848612068406920F040003C
:1040C00021684861202084F83E00206B012805D13A
:1040D0002068C06820F010002168C860206B0128AB
:1040E00004D1A18D2046FEF7BDFB02E02046FEF77D
:1040F00072FC70BD70B50546AC6B206B012805D114
:10410000A08D41082046FEF7ADFB02E02046FEF7F9
:1041100063FC70BD0168C96821F490710268D160C8
:104120000168496921F0010102685161016B0129AF
:1041300005D10168C96821F010010268D160202111
:1041400080F83E100021016370470168C96821F0C2
:10415000C0010268D160202180F83D107047000046
:104160002DE9F84F04462068006920F44050E168CA
:104170000843216808612169A06808436169084310
:10418000E169084300902068C06849F20C618843E7
:10419000009908432168C8602068406920F4407095
:1041A000A16908432168486176492068884203D0A4
:1041B00075492068884203D1FDF7BEFC814602E0C4
:1041C000FDF7AAFC8146E069B0F5004F6CD10220F2
:1041D0006168A0FB015003461920A9FB007001464D
:1041E0002A463846FCF756F86421B0FBF1F04FEA56
:1041F000001A02206168A0FB01510B461920A9FB9F
:1042000000712A463846FCF745F88346022061686B
:10421000A0FB015003461920A9FB00712A4638462D
:10422000FCF738F86421B0FBF1F000EBC00101EBC2
:104230000010ABEB8000322101EBC0006421B0FB29
:10424000F1F000F0F8000AEB400A02206168A0FBE0
:10425000015003461920A9FB007001462A46384642
:10426000FCF718F8834602206168A0FB0150034662
:104270001920A9FB00712A463846FCF70BF8642187
:10428000B0FBF1F000EBC00101EB0010ABEB8000E4
:10429000322101EBC0006421B0FBF1F000F0070017
:1042A0005044216888606AE004206168A0FB0150E6
:1042B00003461920A9FB007001462A463846FBF741
:1042C000E9FF824604206168A0FB015003461920E3
:1042D000A9FB007001462A463846FBF7DBFF642144
:1042E000B0FBF1F000EBC00101EB0010AAEB800085
:1042F000322101EB00106421B0FBF1F000F0F00A74
:1043000004206168A0FB017003461920A9FB00513D
:104310003A462846FBF7BEFF6421B0FBF1F00AEBFA
:10432000001A04206168A0FB01510B461920A9FB6B
:1043300000712A463846FBF7ADFF834604206168CA
:10434000A0FB015003461920A9FB007001462A4634
:104350003846FBF79FFF6421B0FBF1F000EBC00192
:1043600001EB0010ABEB8000322101EB0010642167
:10437000B0FBF1F000F00F00504421688860BDE808
:10438000F88F0000001001400014014077B581B0A3
:10439000044615460298A062A585002020642220CC
:1043A00084F83E001C48A16BC8631C48A16B0864DC
:1043B0001B48A16BC8640020A16B086502AE32687F
:1043C0002368191D2B46A06BFCF7C0FC00BF002022
:1043D000009020680068009020684068009000BF4E
:1043E00000BF00BF002084F83C0000BF2068C06808
:1043F00040F480702168C8602068406940F0010086
:10440000216848612068406940F0400021684861A7
:10441000002004B070BD00008D400008F540000889
:104420003D40000808B505F0C9FA00900AE004F024
:1044300047FA082002F084FD02F04AFD0121684697
:1044400005F036FAF3E700BFFEE700000FB4054BB6
:1044500010B503A9044A029800F014FE10BC5DF8E0
:1044600014FB0000495B000808000020410008021E
:1044700018BF04200A0E18BF40F001004FF07F4221
:1044800032EA010108BF40F00200012808BF052000
:104490007047000002480068C0F302207047000027
:1044A0000CED00E010B5002804DB0A07130E054AE6
:1044B000135406E00A07140E034A00F00F031B1FF3
:1044C000D45410BD00E400E018ED00E010B54FF04A
:1044D0000E402DED028BB0EE408A18EE104A00EB34
:1044E0004400B0F1506F4AD84FF0FC40B0EB440F9D
:1044F00022D2B0EEC80AF7EE000A30EEC00AF6EE9D
:10450000000A60EE208A18EE900A04F0E9F801EE45
:10451000100A14F0004F1DBFDFED2D0A9FED2D0A8C
:10452000B1EE411ADFED2C0A08BF9FED2C0AF8EE20
:10453000001A21EE218A05E0DFED290A68EE088ADB
:10454000B0EE600A9FED271ADFED271A30EE080A59
:1045500048EE811A9FED251A08EEA11ADFED241A04
:1045600048EE811A9FED231A08EEA11A68EE281A68
:10457000BDEC028B01EE810A30EE200A10BD4FF037
:10458000E440B0EB440F0CD918EE100AFFF76EFFB1
:10459000042808BF00F0ECFBB0EE480ABDEC028B2B
:1045A00010BD4FF07F40B0EB440F07D2B0EE480A89
:1045B000BDEC028BBDE8104000F0CBBB012000F049
:1045C00099FCBDEC028BBDE8104000F0C9BB0000B7
:1045D0000000C9BF22AAFDB90000C93F22AAFD39C7
:1045E0000000000024FE1C3DC78AD83C1E67383DF1
:1045F0001B93993DAFAA2A3E70B54FF068422DED4E
:10460000048BF0EE408A18EE900AB0EE608A18EE45
:10461000101A02EB4003B3F1654F3CBF02EB4102BD
:10462000B2F1654F7DD200BFC0F3C753C1F3C7528B
:104630009A1A1B2A09DD10F0004F14BF9FED830A60
:104640009FED830ABDEC048B70BD12F11A0F36DAB0
:1046500011F0004F09D010F0004F0CBF9FED7D0A04
:104660009FED7D0ABDEC048B70BD88EE889A19EE33
:10467000100AFFF7FBFE042808BF00F079FB18EED4
:10468000900AFFF7F3FE054618EE100AFFF7EEFE5C
:10469000044619EE100AFFF7E9FE042D18BF052D98
:1046A00008D1042C18BF052C04D1002804BF022017
:1046B00000F020FCB0EE490ABDEC048B70BD420056
:1046C000B2EB410F3AD910F0004F19BFDFED630A8A
:1046D0009FED630ADFED630A9FED630AB0EE481AAF
:1046E0000A46B1EE688A80F00041F0EE418A104639
:1046F0000A1A5200B2F1807F34D2484010F0004FC5
:10470000DFED5A1A9FED5A2A1DBFBEEE001A70EE59
:10471000E10A30EE420AB6EE001A08BF70EEA10AB6
:1047200000E040E008BF30EE020AB0EE682A01EE79
:10473000482A08EE818AC2EE081A15E011F0004FEF
:1047400004BF9FED4C0AF0EE400AD1D010F0004FAC
:1047500019BFDFED490A9FED490ADFED490A9FEDD8
:10476000490AC5E7C8EE881A21EEA11A9FED462A2C
:10477000DFED462A41EE022A9FED452A01EE222A6C
:10478000DFED442A41EE022A9FED432ABDEC048B63
:1047900001EE222A21EE811A01EE020A30EE210AF0
:1047A00030EE200A70BD4FF07F42B2EB400F28BFC1
:1047B000B2EB410F09D2F0EE480AB0EE680ABDEC48
:1047C000048BBDE8704000F0C7BA40EA01035B000B
:1047D00008BF41F0FF410BD0B2EB400F08BFB2EB76
:1047E000410F08D120F0804008EE900A21F080416E
:1047F00008EE101A18E7B2EB400F12BF5FEA410350
:1048000040F0FF4001F000413FF40EAFB2EB410F2A
:1048100012BF5FEA400200F0004041F0FF413FF468
:1048200003AF4A0092EA40033FF5FEAE002AACBF58
:104830009FED1A0A9FED1A0A68EE808A28EE008A18
:1048400018EE900A18EE101AEEE60000DB0FC9BF52
:10485000DB0FC93FDB0F4940DB0F49C00000C9BF78
:1048600022AAFDB90000C93F22AAFD390060ED3E31
:10487000C30ACE3700000000000049C022AA7DBA5A
:104880000000494022AA7D3A2DAD65BD8FB8D53DC7
:104890000FB511BE61C84C3EA8AAAABE0000804F49
:1048A0000000802F10EE101A08B5444A6846B2EB9B
:1048B000410F28D94FF0E640B0EB410F94BF0020E4
:1048C0004FF0FF3000900098002861DB60EE000A96
:1048D00010F0010F45D010F0020FDFED391A9FEDF7
:1048E000391A00EEE11ADFED381A40EE811A21EE96
:1048F000A01AF0EE400A40EE010A08BFF1EE600A8D
:10490000B0EE600A08BD314B21F0004293423CD921
:1049100011F0004FDFED2E0A20EE201ADFED2D0AF8
:1049200019BF31EE601A71EE200A31EE201A71EED5
:10493000600ABDEEE01A11EE100A9FED271A00F092
:10494000030000EEC10A9FED251A009000EEC10A97
:104950009FED231A00EEC10A9FED221A00EEC10A54
:10496000B1E79FED211A9FED210A10F0020F00EE32
:10497000810A9FED1F1A00EE801AB7EE000A00EEC2
:10498000810A18BFB1EE400A08BD00F0F9F99AE7B4
:1049900010EE100A4000B0F17F4F3CBFB7EE000AA6
:1049A00008BD07D14FF0010000F0A4FABDE80840AF
:1049B00000F0D6B9BDE8084000F0CBB9B61F927E32
:1049C000336D4C39DA82083CA0AA2ABE490E49460A
:1049D00083F9223F0000004B0000C93F00A0FD39D1
:1049E0000020A2331A61342CB93AB2BACA9F2A3DC8
:1049F000DDFFFFBE10B52DED028BF0EE408A18EE04
:104A0000900AB0EE608A20F00040C0F1FF40C00F75
:104A100007D118EE100A20F00040C0F1FF40C00F8F
:104A20002BD018EE101A18EE900AFBF726FD00EEB8
:104A3000100A10EE100A6FEAD05010F0FF0F04BFFA
:104A4000BDEC028B10BD18EE900A00F0004110EE94
:104A5000100A00F00040814204BFBDEC028B10BD83
:104A600018EE101A10EE100ABDEC028B61F31E0056
:104A700000EE900A30EE600A10BD18EE900A4FF07A
:104A80007F41B1EB400F1CBF18EE100A5FEA4000F7
:104A9000C7D1012000F02EFABDEC028BBDE810401A
:104AA00000F05EB90000000010B52DED020B2DEDF9
:104AB000088B84B09DED0C0B51EC100BFBF78EFEB8
:104AC00041EC180B9DED0C0B53EC182B51EC100B1B
:104AD000FBF79DFD41EC190B0D989FED290B10F094
:104AE000004F53EC102B51EC190B9FED21AB9FEDB8
:104AF00022BB0ED0FBF7CEFE0ED953EC1B2B51EC94
:104B0000190BFBF7DFFE1CD214E000BF41EC180BC1
:104B100017E0FBF7BFFE06D253EC1A2B51EC180B33
:104B2000FBF775FDF2E753EC1B2B51EC190BFBF770
:104B3000C9FE06D853EC1A2B51EC180BFBF7C6FC38
:104B4000E4E78DED028B9DED0C0B18EE901A10EE44
:104B5000900A8DED000B61F31E0003909DED020B9A
:104B600004B0BDEC088B02B010BD000000000000D6
:104B7000000000000000F03F000000000000E03FE7
:104B8000000000000000E0BF00B510EE101A2DED8F
:104B9000028B81B0524A6846B2EB410F2ED94FF0DA
:104BA000E640B0EB410F94BF00204FF0FF30009083
:104BB0000098B0EE408A00286ADB10F0010F4BD05D
:104BC00068EE080A9FED471A9FED470A00EE810A3A
:104BD0009FED461A10F0020F00EE801AB7EE000AA1
:104BE00000EE810A02BF01B0BDEC028B00BD00BF28
:104BF00001B0B1EE400ABDEC028B00BD3C4B21F090
:104C00000042934241D911F0004FDFED3A0A20EE05
:104C1000201ADFED390A19BF31EE601A71EE200A51
:104C200031EE201A71EE600ABDEEE01A11EE100AA4
:104C30009FED321A00F0030000EEC10A9FED301A1A
:104C4000009000EEC10A9FED2F1A00EEC10A9FED01
:104C50002E1A00EEC10AABE728EE080A9FED2B1AC8
:104C6000DFED2B0A10F0020F40EE410A9FED291AEA
:104C700000EE201A61EE000AB0EE480A08EE200AA3
:104C8000B6D101B0BDEC028B00BD00F079F88FE722
:104C900018EE100A4000B0F17F4F0DD218EE100A46
:104CA000FFF7E4FB042808BF00F062F8B0EE480A02
:104CB00001B0BDEC028B00BD09D1012000F01AF952
:104CC00001B0BDEC028B5DF804EB00F049B801B017
:104CD000B0EE480ABDEC028B5DF804EB00F039B889
:104CE000B61F927EB93AB2BACA9F2A3DDDFFFFBE17
:104CF000490E494683F9223F0000004B0000C93F9E
:104D000000A0FD390020A2331A61342C336D4C39D8
:104D1000DA82083CA0AA2ABE10B52DED028BB1EEB6
:104D2000C08A18EE100A20F00040C0F1FF40C00F0A
:104D30000AD010EE100A20F00040C0F1FF40C00F72
:104D400004BF012000F0D6F8B0EE480ABDEC028B9B
:104D500010BD30EE000A704730EE200A70470000A8
:104D6000DFED020A80EEA00A70470000000000009C
:104D70009FED020A20EE000A7047000000000010BC
:104D80002DE9F0014FF07F42B2EB410F9FBF4FF092
:104D9000FF310160BDE8F00170474FF0004242EA88
:104DA0000123C1F3C752783A551112F01F0C434C3E
:104DB000CCF120067C44C1F3C752A2F178024FEA3D
:104DC000621204EB820254F8254008BFD2E9015672
:104DD00012D0556804FA0CF425FA06F73C4397689C
:104DE00005FA0CF527FA06F8D26807FA0CFCF2402F
:104DF00045EA08054CEA0206A4FB034CA5FB035256
:104E0000A6FB03631D449D4234BF012600261319EF
:104E1000334416B1934202D903E0934201D20122F6
:104E200000E00022624402F1200C9206DC0C42EA0F
:104E3000443200EE102A5B03DFED210AF8EEC01ABF
:104E400000EE103A4FEA9C1C11F0004FB8EE400AF9
:104E5000C0F800C020EE201A00EE105ADFED190A4B
:104E6000B8EE400A20EE200A71EE810A70EE800A48
:104E700010EE902A02F500626FF30B0200EE902A0A
:104E800070EEE11A31EEC11ADFED101A30EE411A60
:104E90009FED0D0A20EE800A01EE210A9FED0C1A0B
:104EA00000EE810A04BFBDE8F0017047CCF18051EB
:104EB0000160BDE8F001B1EE400A70479472000055
:104EC000000000360000802C22AAFD29DB0FC92F2C
:104ED0000000C92F02E008C8121F08C1002AFAD139
:104EE00070477047002001E001C1121F002AFBD16A
:104EF00070470000014908607047000090010020E1
:104F00002DE9FF5F82B00021DDE90430020DDDF8FC
:104F100040B0034318D044F61050A2F2FF3242438F
:104F20001514119801281FD0A5EB0B00401C5FEA57
:104F3000000A4FF000064E4FDFF83891B046504659
:104F400015D5CAF1000413E0119801244AA30128E1
:104F500001D16FEA0B010298119AC0E90031C0E952
:104F6000024206B0BDE8F09FCBF10000DFE7044647
:104F70000021404A491842EB0450CDE9001012E0EC
:104F8000E00707D032463B4640464946FBF745FB23
:104F90008046894632463B4610461946FBF73DFBA4
:104FA00006460F466410002CEAD1DDE90401DDE974
:104FB0000023BAF1000F06DAFBF72FFB42464B46FF
:104FC000FBF72BFB05E0FBF79AFB42464B46FBF752
:104FD00096FB04460E460022284BFBF773FC03D8D1
:104FE0004FF0FF30014607E00022254B20463146B6
:104FF000FBF76CFAFBF736FC102409E0002C0ADB07
:105000000A220023FBF746F9039B30321A55641E2F
:1050100050EA0102F2D1641C039AC4F11103144452
:10502000119A012A03D0012208430DD10AE0084356
:1050300004D000204FF0110B119072E7A3EB0B0589
:105040006D1E0DE05B4504DD4FF0000205F101052A
:1050500004E003DA4FF00002A5F10105002AECD0CC
:1050600002981199C0E90231C0E9004579E70000D2
:10507000000014400000F03F300000000000F0434A
:105080000000E03F2DE9FF4F95B09A46884606465E
:105090000025EEE1252877D100242746F94A012191
:1050A000039400E0044316F8013F203B01FA03F0AB
:1050B0001042F7D130782A2811D06FF02F033078C2
:1050C000A0F13002092A16D8039A44F0020402EB38
:1050D000820203EB42021044761C0390EFE758F87B
:1050E000042B0392002A03DA504244F40054039044
:1050F00044F00204761C30782E2816D116F8010FE1
:1051000044F004042A280DD06FF02F023078A0F16B
:105110003003092B09D807EB870302EB4303C718B9
:10512000761CF3E758F8047B761C30786C280FD097
:1051300006DC4C2817D068280DD06A2814D104E06A
:10514000742810D07A280FD10DE044F400140AE03E
:1051500044F4801401E044F440147278824202D195
:1051600004F58014761C761C307866280BD013DC8E
:10517000582877D009DC002875D04528F6D0462875
:10518000F4D047281AD193E118E0632835D0642879
:1051900079D0652812D18BE1702873D008DC67289C
:1051A000F1D069286FD06E280DD06F2806D1ACE001
:1051B00073282CD0752874D0782853D0524617996C
:1051C00090476D1C54E1C4F30250022809D0032813
:1051D0000DD0D8F8001004280DD00D6008F1040897
:1051E00046E1D8F80010EA17C1E90052F6E7D8F80E
:1051F00000100D80F2E70D70F0E718F8041B8DF831
:10520000001000208DF80100EB46012003E058F863
:1052100004BB4FF0FF3061074FF0000102D40DE0F6
:1052200009F101018946B9420FDA8145F8DB1BF823
:1052300009100029F4D108E009F1010189468142F1
:10524000FADB1BF809100029F6D103985346A0EBAE
:10525000090721463846179A00F080FA284400EBE7
:10526000090507E044E008E10DE01BF8010B524698
:1052700017999047B9F10109F7D2534621463846AC
:10528000179AF2E039E00A21C4F302524FF0000B02
:105290000091022A06D058F8040BC117032A09D03E
:1052A0000AE023E008F1070020F00702F2E802011B
:1052B000904605E000B2C117042A01D140B2C117DF
:1052C000002906DA0A460021404261EB02012D2244
:1052D00002E0220504D52B228DF80420012203E0F0
:1052E000E20701D02022F7E7914657E00A2100E0CB
:1052F00010214FF0000B00910BE010214FF0000B3C
:1053000044F004040827009103E008204FF0000B4C
:105310000090C4F30252022A05D058F8040B002171
:10532000032A08D008E008F1070020F00702F2E89D
:105330000201904603E080B2042A00D1C0B24FF0CF
:10534000000922072AD53278702A07D0DDF800C07C
:105350008CF0100C5CEA0B0C05D00EE040228DF8AE
:105360000420012208E050EA010306D030238DF822
:1053700004308DF8052002229146009B83F008033B
:1053800053EA0B030AD150EA010201D1620705D5A5
:1053900030228DF804204FF001097F1E3278582A00
:1053A00004D039A20C920CAA02920BE03BA2F9E7BE
:1053B0005B46009AFAF76EFF0C9B9B5C029A521EAA
:1053C0000292137050EA0102F2D1029804A9081A5D
:1053D00000F1200B600702D524F4803400E001279F
:1053E0005F4502DDA7EB0B0000E0002000EB0B01A6
:1053F000009003984944401A0390E00306D45346B2
:105400002146179A039800F0A9F90544002706E001
:1054100001A85246C05D179990476D1C7F1C4F45EF
:10542000F6DBE0030CD553462146179A039800F0AB
:1054300095F9054404E030205246179990476D1CB9
:105440000099481E00900029F5DC08E002980299B6
:1054500052460078491C0291179990476D1CBBF188
:105460000001ABF1010BF1DC5BE100F065F90544F3
:10547000761C307800287FF40DAE19B02846BDE8C0
:10548000F08F0000092801003031323334353637CF
:105490003839616263646566000000003031323380
:1054A0003435363738394142434445460000000020
:1054B000600700D4062708F1070020F00700F0E895
:1054C0000223804603F0004C5FEA0C0001D097A055
:1054D00009E0200501D596A005E0E00701D095A0E0
:1054E00001E0AFF24C001390307823F000436528C0
:1054F0000CD006DC452809D046281DD047287FD18E
:105500003BE0662818D067287AD136E00021112FB9
:1055100001DB112000E0781CCDE9000104A90CA8F2
:10552000FFF7EEFCDDE90D010C9A4FF0000B07F1DF
:105530000109109200914EE04FF000400097CDE934
:10554000011004A90CA8FFF7DBFCDDE90D020C9BA0
:105550000F994FF0000B91461093009211B9791CEE
:1055600000EB0109B7EB090003D4C0F1FF3B07F1E1
:105570000109A9EB0700019042E0012F00DA0127A1
:105580000021112F01DD112000E03846CDE9000196
:1055900004A90CA8FFF7B4FCDDE90D010C9A0091F9
:1055A0004FF0000BB946109221070FD4009A4A45DC
:1055B00003DA914601E0A9F10109B9F1010F05DD16
:1055C000109AA9F10101515C3029F4D0B84202DAF5
:1055D00010F1040F03DA0121CDE9011010E00028D9
:1055E00003DC8344A9EB000102E0411C494500DDD6
:1055F0008946A0EB0B00401C01904FF00040029048
:10560000200705D40198484502DB4FF0FF30019098
:1056100000208DF84B0002980DF14B07B0F1004FC0
:1056200025D002200C902B200D90029800280CDA37
:10563000404202902D200D9007E00A210298FAF7CF
:10564000B0FE3031029007F8011D0C99481E0C90F5
:105650000029F2DC02980028EFD1791E0D9808701D
:10566000307800F0200040F0450007F8020D11A846
:10567000C01BC01D02901398007800B1012000EB00
:105680000901019801EBE071029801440398401A66
:10569000401E0390E00306D453462146179A039810
:1056A00000F05CF805441398007818B15246179939
:1056B00090476D1CE00323D553462146179A039863
:1056C00000F04CF805441BE0BBF1000F07DB00982D
:1056D000584504DD1098179910F80B0001E0179950
:1056E00030205246904701980BF1010B401E05F106
:1056F0000105019004D12E205246179990476D1C48
:10570000B9F10001A9F10109DEDC05E017F8010B90
:105710005246179990476D1C0299481E0290002925
:10572000F4DC53462146179A03989EE62D000000AC
:105730002B000000200000002DE9F0410446002568
:105740001E461746880404D405E039462020B04799
:105750006D1C641EF9D52846BDE8F0812DE9F041A5
:10576000044600251E469046C80301D5302700E0B8
:105770002027880404D505E041463846B0476D1C13
:10578000641EF9D52846BDE8F08100001CB5054827
:105790000A2100238022CDE9001003A1054804F06E
:1057A00057F81CBD8000002073746172745F7461CF
:1057B000736B00002187000810B503F03FF96348C0
:1057C000006801F047FCC82805D9002211461046A0
:1057D000FEF750F810BD002004E05D49095C5D4A09
:1057E0001154401C1428F8DB5948407840B25A49FB
:1057F00008705748807840B248705548C07840B229
:105800008870534A517A107A03F04CF8BDEEC00A02
:1058100010EE100A40B25049C8704D4AD17A907AC1
:1058200003F040F8BDEEC00A10EE100A40B24A493B
:105830000871474A5179107903F034F8B1EE400A03
:10584000464880ED000A4648D0ED000AB0EE600AF6
:1058500040490D31481E00F033F94248D0ED000AAE
:10586000B0EE600A3B490F31481E00F029F93E486E
:10587000006801F0EFFB642812D83C4A9178507818
:1058800003F010F83A4880ED000A90ED000A01F0AC
:10589000D1FD384880ED000A01203749087002E048
:1058A0000020354908703448007840B13148D0EDC7
:1058B000001A324890ED002A71EEC21A01E0DFEDC5
:1058C000301AB0EE611A244890F9040001EE900AF3
:1058D000F8EEE10A204890F9030001EE900AB8EED4
:1058E000E10A2849081F00F022FA1B48007800F05E
:1058F0000100A8B9184B93F9013003EB4302214B87
:105900001B1F93ED010ABDEEC00A10EE101A93EDB5
:10591000000ABDEEC00A10EE100AFDF7ABFF13E05F
:10592000154B1B783BB10F4B93ED010ABDEEC00A3E
:1059300010EE103A00E000231A46074B93F90410CA
:1059400093F90300FDF796FF00BF43E70001002035
:1059500094040020B4040020B0000020B80000200F
:1059600078050020D400002004010020C804002095
:10597000E4000020EC00002008010020E8000020E6
:1059800000000000E000002008B504F017F80090C7
:1059900008E0FFF711FF042001F0D2FA0121684668
:1059A00003F086FFF5E7000008B504F007F8009063
:1059B000002417E00C48007820B9601C80B204462F
:1059C000642808D3002401F0F7F810B101F0D6FEE6
:1059D00001E000F0DFFE012001F0B2FA012168468B
:1059E00003F066FFE6E700005400002010B5DFED8D
:1059F000090A9FED080A084A00210848FEF7DEF868
:105A0000DFED040A9FED030A054A00210548FEF771
:105A1000D5F810BD00009643BC000020DC04002037
:105A2000C80000202405002070B504460420FCF7BF
:105A300072FD0A48046025464FF47A7045434FF0E2
:105A4000E020006940F002004FF0E02108610846C4
:105A50004561006940F00100086170BD040000204C
:105A600030B50446002504E04FF47A7000F004F8E5
:105A70006D1CA542F8D330BD70B5034600224FF02F
:105A8000E02675690D4E366803FB06F44FF0E026FC
:105A9000B16910E04FF0E026B06988420BD088422F
:105AA00002D20E1A324402E02E1A0E44324401464B
:105AB000A24200D300E0EDE700BF70BD040000206B
:105AC00070B52DED068BB0EE408A05460E469FED73
:105AD0001B0AB4EEC08AF1EE10FA03DD9FED170A3F
