:020000040800F2
:100000003837002075020008EB280008E3280008B4
:10001000E728000815090008BD32000800000000AC
:10002000000000000000000000000000DD010008EA
:100030004F0900080000000021020008252C0008DC
:100040008F0200088F0200088F0200088F0200084C
:100050008F0200088F0200088F0200088F0200083C
:100060008F0200088F0200088F0200088F0200082C
:100070008F0200088F0200088F0200088F0200081C
:100080008F0200088F0200088F0200088F0200080C
:100090008F0200088F0200088F0200088F020008FC
:1000A0008F0200088F0200088F0200088F020008EC
:1000B0008F0200088F0200088F0200088F020008DC
:1000C0008F0200088F0200088F0200088F020008CC
:1000D0008F020008AD3200088F0200088F0200086E
:1000E0008F0200088F0200088F0200088F020008AC
:1000F0008F0200088F0200088F0200088F0200089C
:100100008F0200088F0200088F0200088F0200088B
:100110008F0200088F0200088F0200088F0200087B
:100120008F0200088F0200088F0200088F0200086B
:1001300000F002F800F042F80AA090E8000C8244B7
:100140008344AAF10107DA4501D100F037F8AFF294
:10015000090EBAE80F0013F0010F18BFFB1A43F0A5
:1001600001031847A45C0000C45C0000103A24BFDF
:1001700078C878C1FAD8520724BF30C830C144BF0C
:1001800004680C607047000000230024002500264E
:10019000103A28BF78C1FBD8520728BF30C148BFEA
:1001A0000B607047642900F0BD80732900F07882ED
:1001B000002070471FB51FBD10B510BD00F0DEFA5E
:1001C0001146FFF7F7FF03F0BBFB00F0FCFA03B4A6
:1001D000FFF7F2FF03BC03F080F90000224B19681F
:1001E0000868B0E8F00F80F30988BFF36F8F4FF015
:1001F000000080F311884EF00D0E704700000000E3
:1002000006480068006880F3088862B661B6BFF3EC
:100210004F8FBFF36F8F00DF00BF00BF08ED00E01E
:10022000EFF30980BFF36F8F0F4B1A6820E9F00FCF
:10023000106008B54FF0500080F31188BFF34F8F66
:10024000BFF36F8F04F02EFF4FF0000080F3118892
:10025000BDE8084019680868B0E8F00F80F3098825
:10026000BFF36F8F704700BF50000020EFF3058091
:10027000704700000948804709480047FEE7FEE74D
:10028000FEE7FEE7FEE7FEE7FEE7FEE7FEE7FEE746
:1002900004480549054A064B70470000392C000800
:1002A0003101000838310020383700203833002071
:1002B00038330020704700000FB4044910B503AA7A
:1002C000029800F0F1F910BC5DF814FB0800002062
:1002D00070B50C460546012A05D02878800600D561
:1002E000EA69002302E0012305E05B1C934202D28D
:1002F000E05C0028F9D1A869E618C01AA861286A4C
:10030000184428622846AFF3008004E0D5E90121B3
:1003100014F8010B9047B442F8D32846AFF300809D
:1003200070BD00002DE9F0410646002410687529D3
:10033000314616A510D0AFF30080002802DA404203
:1003400013A507E031688A0701D512A502E0490725
:1003500004D511A5012401E0AFF3008000210A2299
:1003600006F1240709E0B0FBF2FCB0FBF2F302FB5C
:100370001C00303078541846491C0028F3D123461D
:100380002A463046BDE8F04100F007B90000000001
:100390002D0000002B000000200000002DE9F04798
:1003A0004FF0000A89460446C0F820A02046E168C4
:1003B0008847002876D0252806D0D4E90121904727
:1003C000206A401C2062F1E7E1682046002588474A
:1003D000C4F81CA006460027C4F818A02A2E09D08D
:1003E000304603F073F838B304EB8708303EC8F8A2
:1003F000186019E059F8041B204604EB870291614C
:10040000E1688847012F064618D1E069002820DA04
:1004100025F020051DE0D8F8180000EB800006EB61
:1004200040003038C8F818002046E1688847064682
:1004300003F04CF80028EED1012F0AD02E2E08D15F
:100440002046E16888477F1C0646022F45F02005BC
:10045000C4DBA069002803DA404245F00105A06131
:10046000E80701D025F01005B6B1A6F14100192822
:1004700002D8203645F400654A46314620462560BC
:100480004D46FFF78FFE58B1012806D0ED1D25F02F
:10049000070000F1080989E704E005F1040985E790
:1004A00030468AE7206ABDE8F087032A40F23080B0
:1004B00010F0030C00F0158011F8013BBCF1020FA5
:1004C000624498BF11F801CB00F8013B38BF11F826
:1004D000013BA2F1040298BF00F801CB38BF00F83D
:1004E000013B11F0030300F0F180083AC0F00880EE
:1004F00051F8043B083A51F804CBA0E80810F5E79E
:10050000121D5CBF51F8043B40F8043BAFF3008080
:10051000D20724BF11F8013B11F801CB48BF11F8F5
:10052000012B24BF00F8013B00F801CB48BF00F8C5
:10053000012B704702F0FF0343EA032242EA024222
:1005400000F0F8B84FF0000200B513469446964606
:10055000203922BFA0E80C50A0E80C50B1F12001D6
:10056000BFF4F7AF090728BFA0E80C5048BF0CC084
:100570005DF804EB890028BF40F8042B08BF7047E2
:1005800048BF20F8022B11F0804F18BF00F8012B54
:10059000704770477047704770472DE9F0470D4628
:1005A00099469246044600F124080168880604D55D
:1005B000E06921F01001216000E00120A84201DD86
:1005C000471B00E00027A1697A1902EB0900081A0D
:1005D000A0612078C00602D42046AFF30080002638
:1005E00008E0D4E901211AF806009047206A401C6F
:1005F000761C20624E45F4DB2078C0060AD52046E2
:10060000AFF3008006E0D4E9012130209047206A52
:10061000401C2062381EA7F10107F4DC07E0D4E992
:10062000012118F805009047206A401C2062281E0E
:10063000A5F10105F3DC2046AFF300802078000629
:1006400002D50220BDE8F0870120FBE701694A1CC2
:1006500002610878704700B58FB0CDE90131002103
:10066000059105497944CDE9031011466846FFF725
:1006700095FE0FB000BD0000E5FFFFFF10B5436918
:1006800013B1AFF3008001E0FFF722FE012010BD9F
:10069000127800F124010A7000224A700122EDE76D
:1006A00011684FF0FF32E9E7074B70B50D467B4408
:1006B000FFF7D1FF0446284600F05CF810B14FF078
:1006C000FF3070BD204670BD2730000010B5203AC5
:1006D000C0F00B80B1E81850203AA0E81850B1E8FB
:1006E0001850A0E81850BFF4F5AF5FEA027C24BFB1
:1006F000B1E81850A0E8185044BF18C918C0BDE8A8
:1007000010405FEA827C24BF51F8043B40F8043B70
:1007100008BF7047D20728BF31F8023B48BF11F825
:10072000012B28BF20F8023B48BF00F8012B70477F
:100730004FF000020429C0F0128010F0030C3FF4C7
:1007400003AFCCF1040CBCF1020F18BF00F8012B71
:10075000A8BF20F8022BA1EB0C01FFF7F5BE5FEA62
:10076000C17C24BF00F8012B00F8012B48BF00F822
:10077000012B7047007B00F080007047754600F049
:100780002BF8AE4605006946534620F00700854623
:1007900018B020B5FFF77CFDBDE820404FF0000603
:1007A0004FF000074FF000084FF0000B21F0070159
:1007B000AC46ACE8C009ACE8C009ACE8C009ACE89C
:1007C000C0098D46704710B50446AFF3008020463F
:1007D000BDE81040FFF7FBBC00487047D430002054
:1007E00010B500220221144800F040FC05221349F4
:1007F0002A2002F015F90121212002F033F901210C
:10080000222002F02FF91E21252002F02BF92021B1
:10081000312002F027F90F21262002F023F90F21C1
:10082000202002F01FF901220221034800F01EFCE3
:10083000642000F05DFA10BD000801401A0000209D
:1008400006490968C86305490968086404490968D4
:10085000C863034909680864704700002402002047
:10086000DC01002030B58FB005460C461C2108A8DD
:10087000FFF768FE1C2101A8FFF764FE4FF08040DF
:100880002149086008464460C5600021816001F08C
:10089000F2FA60200890002009900A901B481C4939
:1008A000086008464460C5600021816001F0E3FAF9
:1008B00060200190002002900390082208A91248AD
:1008C00001F05BFA0C2208A90F4801F056FA082241
:1008D00001A90F4801F051FA0C2201A90C4801F0BE
:1008E0004CFA0821084801F0BDFB0C21064801F034
:1008F000B9FB0821064801F0B5FB0C21044801F0C2
:10090000B1FB0FB030BD0000DC010020000400404E
:100910002402002000BFFEE702E0052004F0FAF9FF
:10092000FBE730B590F840500124AC40C56B6C60DB
:10093000046863604468102C04D10468A2600468F1
:10094000E16003E00468A1600468E26030BD7047C4
:1009500010B50C480078022813D0002003F02AFFBD
:100960000A2000F0C5F901221102074800F07EFBC1
:1009700000224FF40041044800F078FB02200149B6
:10098000087010BD19000020000C014010B50C4883
:100990000078012813D0002003F00CFF0A2000F09B
:1009A000A7F900224FF48071064800F05FFB012296
:1009B000D103044800F05AFB01200149087010BD22
:1009C00019000020000C01400146002291F821008E
:1009D000022808D00420886300BF002081F820008E
:1009E00000BF012070470868006820F00E000B6807
:1009F00018600868006820F001000B68186091F822
:100A0000403001209840CB6B5860012081F82100D4
:100A100000BF002081F8200000BF1046E2E7000080
:100A200070B50446002594F82100022803D0042064
:100A3000A0630125C1E02068006820F00E00216855
:100A400008602068006820F00100216808605C49A7
:100A50002068884252D95A4978392068884201D1A1
:100A6000012047E0564964392068884201D11020AE
:100A700040E0534950392068884201D1801539E05F
:100A80004F493C392068884201D1801432E04C49FA
:100A900028392068884202D14FF480302AE0484942
:100AA00014392068884202D14FF4801022E0444972
:100AB0002068884201D140041CE0424920688842F5
:100AC00001D1012016E03F4914312068884201D14C
:100AD00010200FE03B4928312068884201D1801561
:100AE00008E038493C312068884201D1801401E097
:100AF0004FF480303349091F086051E0304978399C
:100B00002068884201D1012047E02D4964392068DE
:100B1000884201D1102040E029495039206888429C
:100B200001D1801539E026493C392068884201D13D
:100B3000801432E0224928392068884202D14FF4DB
:100B400080302AE01E4914392068884202D14FF4CF
:100B5000801022E01A492068884201D140041CE03C
:100B600018492068884201D1012016E01549143146
:100B70002068884201D110200FE0124928312068F6
:100B8000884201D1801508E00E493C312068884236
:100B900001D1801401E04FF4803009498039486068
:100BA000012084F8210000BF002084F8200000BF4D
:100BB000606B10B12046616B8847284670BD00000D
:100BC00080000240080402400146002209B90120C9
:100BD00070471E4B086898420BD21D4B0868C01A1C
:100BE0001423B0FBF3F08000086419480838C86388
:100BF0000AE0164B0868C01A1423B0FBF3F080001B
:100C0000086412480838C863022081F82100086887
:100C1000026843F6F0708243D1E901031843CB68C0
:100C200018430B6918434B6918438B691843CB6908
:100C3000184302430868026000208863012081F89D
:100C40002100002081F8200000BFC1E70804024015
:100C5000080002402DE9F04104460D4616461F46A5
:100C60004FF0000800BF94F82000012802D10220B4
:100C7000BDE8F081012084F8200000BF94F8210035
:100C800001282CD1022084F821000020A0632068D4
:100C9000006820F00100216808603B463246294682
:100CA0002046FFF73EFEE06A30B12068006840F061
:100CB0000E00216808600BE02068006820F0040046
:100CC000216808602068006840F00A002168086018
:100CD0002068006840F001002168086006E000BF5D
:100CE000002084F8200000BF4FF002084046BFE714
:100CF00070B5044600F0C0F906462546681C10B1E0
:100D000004480078054400BF00F0B6F9801BA842F3
:100D1000FAD370BD180000202DE9F84702460023E1
:100D20009C467BE14FF0010808FA03F4D1F80080FB
:100D300008EA0400A0427DD1DFF8F4A2D1F80480D3
:100D4000A8EB0A09D0453AD014DCB8F1030F50D013
:100D500009DCB8F1000F31D0B8F1010F1CD0B8F1A7
:100D6000020F49D120E0B8F1110F18D0B8F1120FDD
:100D700042D11EE0B9F5881F25D006DCB9F5803FC9
:100D800020D0B9F5801F37D11AE0B9F5001F18D06F
:100D9000B9F5041F30D117E0D1F80CC02DE0D1F81F
:100DA0000C8008F1040C28E0D1F80C8008F1080C44
:100DB00023E0D1F80C8008F10C0C1EE000BF00BF4E
:100DC00000BF00BF00BF00BFD1F80880B8F1000F1E
:100DD00002D14FF0040C0BE0D1F80880B8F1010FFC
:100DE00003D14FF0080C146102E04FF0080C54617D
:100DF00003E04FF0000C00E000BF00BFFF2801D867
:100E0000904601E002F104084646FF2802D84FEA66
:100E1000830803E0A3F108084FEA88084746D6F89C
:100E200000804FF00F0909FA07F928EA09080CFABF
:100E300007F900E07AE048EA0908C6F80080D1F82E
:100E4000048008F08058B8F1805F6FD100BFDFF8F0
:100E5000E481D8F8188048F00108DFF8D891C9F883
:100E60001880C846D8F8188008F00108CDF800802E
:100E700000BF00BF4FEAB9384FEA930958F829502C
:100E80004FEA83784FEA18794FF00F0808FA09F80B
:100E900025EA0805DFF8A081424502D14FF000089D
:100EA00024E0DFF89881424502D14FF001081DE0AF
:100EB000DFF88C81424502D14FF0020816E0DFF8DE
:100EC0008481424502D14FF003080FE0DFF87881BA
:100ED000424502D14FF0040808E0DFF87081424536
:100EE00002D14FF0050801E04FF006084FEA837980
:100EF0004FEA197908FA09F848EA0505DFF8508140
:100F00004FEA930948F82950D1F8048008F4803852
:100F1000B8F5803F0BD1DFF83C81D8F8008048EA73
:100F20000008DFF83091C9F800800AE075E0DFF8CA
:100F30002481D8F8008028EA0008DFF81891C9F861
:100F40000080D1F8048008F40038B8F5003F0ED1D5
:100F5000DFF8008108F10408D8F8008048EA0008AA
:100F6000DFF8F09009F10409C9F800800DE0DFF81E
:100F7000E48008F10408D8F8008028EA0008DFF8C7
:100F8000D49009F10409C9F80080D1F8048008F46C
:100F90008018B8F5801F0ED1DFF8B88008F1080876
:100FA000D8F8008048EA0008DFF8A89009F108099D
:100FB000C9F800800DE0DFF89C8008F10808D8F837
:100FC000008028EA0008DFF88C9009F10809C9F8C8
:100FD0000080D1F8048008F40018B8F5001F0ED185
:100FE000DFF8708008F10C08D8F8008048EA0008A3
:100FF000DFF8609009F10C09C9F800800DE0DFF816
:10100000548008F10C08D8F8008028EA0008DFF8BE
:10101000449009F10C09C9F800805B1CD1F80080EC
:1010200028FA03F8B8F1000F7FF47CAEBDE8F8872A
:10103000000011100010024000080140000C0140A7
:10104000001001400014014000180140001C014044
:10105000080001400004014010B5C26821EA020303
:1010600002EA010443EA0443036110BD0AB10161CD
:1010700001E00B04036170470148006870470000FD
:10108000100000200348006803490978084401491A
:1010900008607047100000201800002010B50848B4
:1010A000006840F0100006490860032000F080F856
:1010B0000F2000F007F800F02BF8002010BD000012
:1010C0000020024070B504460E4800784FF47A7153
:1010D000B1FBF0F00C490968B1FBF0F5284600F0CF
:1010E00031FE08B1012070BD102C07D2002221462C
:1010F000501E00F01EF80548046001E00120F2E7F0
:101100000020F0E71800002000000020140000205C
:10111000704701460846002809DB00F01F03012242
:101120009A4043099B0003F1E023C3F8002100BF6C
:1011300070472DE9F05F80460D461646002702F005
:10114000A9F9074639462A46334601F00700C0F19F
:10115000070ABAF1040F02D94FF0040A01E0C0F106
:10116000070AD14600F1040ABAF1070F02D24FF084
:10117000000A01E0A0F1030AD4464FF0010A0AFA7E
:1011800009FAAAF1010A0AEA020A0AFA0CFA4FF06D
:10119000010B0BFA0CFBABF1010B0BEA030B4AEA58
:1011A0000B042146404602F07DF9BDE8F09F0000A7
:1011B00000BF00F00702064B19684FF6FF03194005
:1011C000044B0B4343EA0221014B196000BF7047F7
:1011D0000CED00E00000FA0570B504460D460CB9B0
:1011E000012070BD5A48006800F00700A8420ED2E6
:1011F0005748006820F00700284355490860084612
:10120000006800F00700A84201D00120E9E720783B
:1012100000F0020002281DD1207800F0040004280C
:1012200005D14C48406840F4E0604A494860207865
:1012300000F00800082805D14648406840F4605096
:10124000444948604348406820F0F000A1680843E2
:1012500040494860207800F0010078B360680128B8
:1012600006D13C48006800F4003090B90120B8E78E
:101270006068022806D13748006800F0007040B965
:101280000120AEE73348006800F0020008B90120F1
:10129000A7E73048406820F00300616808432D4903
:1012A0004860FFF7E9FE064609E0FFF7E5FE801B10
:1012B00041F28831884202D9032092E707E02548AD
:1012C000406800F00C006168B0EB810FEDD1204860
:1012D000006800F00700A8420ED91D48006820F001
:1012E000070028431A4908600846006800F0070014
:1012F000A84201D0012074E7207800F004000428FF
:1013000007D11448406820F4E060E16808431149BF
:101310004860207800F00800082808D10D4840688F
:1013200020F46050216940EAC1000A49486000F099
:101330003FF808494968C1F30311074A515CC840A6
:101340000649086006480068FFF7BCFE002048E731
:101350000020024000100240F05D00080000002064
:1013600014000020014800687047000000000020C1
:1013700000B5FFF7F7FF04494968C1F30221034AAA
:10138000515CC84000BD000000100240005E000833
:1013900000B5FFF7E7FF04494968C1F3C221034ADA
:1013A000515CC84000BD000000100240005E000813
:1013B000F0B585B00FF26C0C9CE8E01001A8A0E835
:1013C000E0101CA52D6800950021002200230024B8
:1013D0000020194D696801F00C05F5B1042D02D00B
:1013E000082D19D101E0154819E001ADC1F383467C
:1013F000AC5D01F4803555B10F4D6D68C5F34045C6
:101400001DF805200D4D6543B5FBF2F302E00C4DD0
:1014100004FB05F3184602E000BF084800BF00BF08
:1014200005B0F0BD02030405060708090A0B0C0D00
:101430000E0F1010010200000010024000127A008E
:1014400000093D00F8B504460CB90120F8BD20782C
:1014500000F00100002878D0F848406800F00C0047
:1014600004280CD0F548406800F00C00082811D181
:10147000F248406800F48030B0F5803F0AD1EF4870
:10148000006800F4003000285FD0606800285CD15C
:101490000120DBE700BF6068B0F5803F06D1E74878
:1014A000006840F48030E549086028E0606858B979
:1014B000E248006820F48030E0490860084600688F
:1014C00020F4802008601AE06068B0F5A02F0BD1EE
:1014D000DA48006840F48020D8490860084600686F
:1014E00040F4803008600AE0D448006820F480307E
:1014F000D24908600846006820F48020086000BFD8
:10150000606888B1FFF7B8FD054606E0FFF7B4FD57
:10151000401B642801D9032098E7C848006800F4FC
:1015200000300028F2D010E0FFF7A6FD054606E0E7
:10153000FFF7A2FD401B642801D9032086E7BF48BE
:10154000006800F400300028F2D1207800F002009A
:10155000022857D1B948406800F00C0050B1B74894
:10156000406800F00C00082818D1B448406800F426
:10157000803098B9B148006800F0020020B12069BD
:10158000012801D0012061E7AC48006820F0F80094
:10159000616940EAC100A949086033E02069E8B107
:1015A0000120A7490860FFF767FD054606E0FFF741
:1015B00063FD401B022801D9032047E79F480068CC
:1015C00000F002000028F2D09C48006820F0F800EB
:1015D000616940EAC1009949086013E00020984918
:1015E0000860FFF749FD054606E0FFF745FD401B93
:1015F000022801D9032029E79048006800F0020082
:101600000028F2D1207800F0080008282DD1A06928
:10161000B8B101208B490860FFF72EFD054606E0B2
:10162000FFF72AFD401B022801D903200EE783485B
:10163000406A00F002000028F2D0012001F048FAD0
:1016400013E000207F490860FFF716FD054606E01D
:10165000FFF712FD401B022801D90320F6E6774868
:10166000406A00F002000028F2D1207800F0040067
:10167000042873D100277148C06900F0805070B908
:1016800000BF6E48C06940F080506C49C861084690
:10169000C06900F08050009000BF00BF01276A4879
:1016A000006800F48070B0B96748006840F480704A
:1016B00065490860FFF7E0FC054606E0FFF7DCFC43
:1016C000401B642801D90320C0E65F48006800F48D
:1016D00080700028F2D000BFE068012806D157488A
:1016E000006A40F001005549086227E0E06858B9F7
:1016F0005248006A20F00100504908620846006A1A
:1017000020F00400086219E0E06805280BD14B487E
:10171000006A40F00400494908620846006A40F047
:10172000010008620AE04548006A20F001004349D0
:1017300008620846006A20F00400086200BFE06802
:10174000A0B1FFF799FC054609E0FFF795FC401BA7
:1017500041F28831884202D9032077E622E03748F7
:10176000006A00F002000028EFD012E0FFF784FCCE
:10177000054608E0FFF780FC401B41F288318842B3
:1017800001D9032062E62D48006A00F0020000281B
:10179000F0D1012F05D12948C06920F08050274998
:1017A000C86100BFE069C8B32448406800F00C007D
:1017B000082860D0E069022848D100202049086646
:1017C000FFF75AFC054606E0FFF756FC401B0228CF
:1017D00001D903203AE61948006800F0007000289B
:1017E000F2D1206AB0F5803F07D11448406820F458
:1017F0000030A168084311494860D4E90801084352
:101800000E49496821F4741108430C4948600120CD
:101810000B490866FFF730FC054607E03DE0FFF79F
:101820002BFC401B022801D903200FE60348006867
:1018300000F000700028F2D02FE0000000100240FD
:1018400000004242800442420070004000201449DF
:101850000866FFF711FC054606E0FFF70DFC401B8C
:10186000022801D90320F1E50E48006800F000705D
:101870000028F2D111E0E069012800D1E6E509482D
:10188000466806F48031206A814204D106F4701162
:10189000606A814201D00120D8E50020D6E5000031
:1018A000000042420010024010B504460CB901206D
:1018B00010BD606A38B96068B0F5827F00D105E07C
:1018C0000021E16102E0002121616161A06AB0F5BF
:1018D000005F00D100BF94F8510028B9002084F8BF
:1018E0005000204600F04AF8022084F85100206899
:1018F000006820F0400021680860A08800F4827031
:10190000218901F404410843A18901F400610843DD
:10191000217C01F002010843217D01F0010108430F
:10192000218B01F400710843217F01F03801084345
:101930002021095D01F080010843218D01F400514F
:101940000843216808600421A06901EA1040216869
:101950004860A06AB0F5005F03D1A08D80B2216815
:1019600008612068C06920F400602168C861002017
:101970006065012084F85100002099E710B586B019
:1019800004462F492068884257D100BF2D488069FE
:1019900040F004002B4988610846806900F004008B
:1019A000019000BF00BF00BF0846806940F480502E
:1019B00088610846806900F48050019000BF00BF34
:1019C000102002900120039004900320059002A9AA
:1019D0001D48FFF7A1F9A02002900220039002A960
:1019E0001948FFF799F9402002900020039002A9BE
:1019F0001548FFF791F900BF1248806940F00400D4
:101A0000104988610846806900F00400019000BF19
:101A100000BF022002900120039004900320059053
:101A200002A90948FFF778F90120029000200390ED
:101A300002A90548FFF770F900BF06B010BD00000D
:101A40000030014000100240000801402DE9F04F35
:101A500085B00446884691461D460E9E00200390A0
:101A6000012002900020019000BF94F8500001284E
:101A700003D1022005B0BDE8F08F012084F85000AA
:101A800000BFFFF7F9FA074694F851B06068049078
:101A9000AA46BBF1010F0BD00498B0F5827F04D1A8
:101AA000A06810B9BBF1040F02D0022001903FE101
:101AB000B8F1000F03D0B9F1000F00D015B9012023
:101AC000019035E194F85100042802D0052084F8F3
:101AD000510000206065C4F83890E587A587C4F8F8
:101AE0003080E586A58620646064A06AB0F5005F5A
:101AF0000DD100BF2068006820F400502168086004
:101B00002068006840F400502168086000BF206829
:101B1000006800F04000402805D02068006840F0D0
:101B2000400021680860E068B0F5006F56D1606839
:101B300010B1BAF1010F09D1206B00882168C8608B
:101B4000206B801C2063E08E401EE0863FE0206812
:101B5000806800F0020002281CD1E08ED0B102980B
:101B6000012817D1206B00882168C860206B801C79
:101B70002063E08E401EE08600200290E08E48B98F
:101B8000A06AB0F5005F05D12068006840F480507D
:101B9000216808602068806800F0010068B1E08F6B
:101BA00058B12068C068A16B0880A06B801CA0633E
:101BB000E08F401EE08701200290FFF75DFAC01B16
:101BC000B04204D3701C10B103200190B0E0E08E4D
:101BD0000028BCD1E08F0028B9D156E0606810B170
:101BE000BAF1010F09D1206B007821680873206BCE
:101BF000401C2063E08E401EE08640E02068806844
:101C000000F0020002281CD1E08ED0B10298012819
:101C100017D1206B007821680873206B401C20636B
:101C2000E08E401EE08600200290E08E48B9A06A57
:101C3000B0F5005F05D12068006840F4805021684D
:101C400008602068806800F0010068B1E08F58B13A
:101C50002068C068A16B0870A06B401CA063E08F77
:101C6000401EE08701200290FFF706FAC01BB04239
:101C700001D3701C00B916B90320019058E0E08E22
:101C80000028BBD1E08F0028B8D1A06AB0F5005F72
:101C900012D13346012211462046009700F056FF2C
:101CA00030B1606D40F002006065032001903FE0BC
:101CB0002068C068039000BF20688068C0F30010EF
:101CC000E8B1204600F02CFF012814D1606D40F0EF
:101CD0000200606500BF2068006820F400502168A1
:101CE00008602068006840F400502168086000BF68
:101CF0000120019003E04FF6EF70216888603A46BA
:101D00003146204600F0F8FE20B10120019020204D
:101D100060650DE0A06850B900BF00200090206809
:101D2000C068009020688068009000BF00BF00BFBE
:101D3000012084F8510000BF002084F8500000BF4B
:101D4000019897E670B504462546681EB0F1807F7D
:101D500001D301200FE0681E4FF0E02148610F2100
:101D60004FF0FF3001F09EFB00204FF0E021886132
:101D700007200861002070BD704770B504460D460D
:101D8000164600BF94F83C00012801D1022070BD26
:101D9000012084F83C0000BF36B1042E1BD0082E71
:101DA00031D00C2E5ED145E02946206801F028F89C
:101DB0002068806940F00800216888612068806997
:101DC00020F004002168886120688069296908433F
:101DD0002168886147E02946206801F049F82068B9
:101DE000806940F40060216888612068806920F47F
:101DF00080602168886120688069296940EA012043
:101E0000216888612FE02946206801F06FF820687A
:101E1000C06940F008002168C8612068C06920F0EE
:101E200004002168C8612068C069296908432168E5
:101E3000C86118E02946206801F094F82068C0695C
:101E400040F400602168C8612068C06920F48060A7
:101E50002168C8612068C069296940EA01202168B9
:101E6000C86100E000BF00BF00BF002084F83C0054
:101E700000BF00BF8BE710B504460CB9012010BDB0
:101E800094F83D0028B9002084F83C00204600F07A
:101E900025F8022084F83D00211D206800F0CEFEC8
:101EA000012084F8460000BF84F83E0001213F2055
:101EB0000155402001554120015500BF00BF0120C0
:101EC00084F8420043200155442001554520015526
:101ED00000BF012084F83D000020D0E710B586B097
:101EE000044659492068884227D100BF5748806975
:101EF00040F40060554988610846806900F400603C
:101F0000019000BF00BF00BF0846806940F0040098
:101F100088610846806900F00400019000BF00BF9E
:101F20008815029002200390012004900320059060
:101F300002A94748FEF7F0FE00BF2068B0F1804FCD
:101F400027D100BF4148C06940F001003F49C86146
:101F50000846C06900F00100019000BF00BF00BF4B
:101F60000846806940F0040088610846806900F0F6
:101F70000400019000BF00BF0C20029002200390DB
:101F8000012004900320059002A93148FEF7C4FE09
:101F900000BF30492068884227D100BF2B48C06964
:101FA00040F002002949C8610846C06900F00200FB
:101FB000019000BF00BF00BF0846806940F00800E4
:101FC00088610846806900F00800019000BF00BFEA
:101FD000032002900220039001200490032005902A
:101FE00002A91D48FEF798FE00BF1C4920688842E0
:101FF00027D100BF1548C06940F004001349C861EB
:102000000846C06900F00400019000BF00BF00BF97
:102010000846806940F0080088610846806900F041
:102020000800019000BF00BF8020029002200390B2
:10203000012004900320059002A90748FEF76CFEDA
:1020400000BF06B010BD0000002C0140001002408F
:102050000008014000040040000C0140000800405E
:102060007047704770B504460D4615B994F83E00A8
:102070000BE0042D02D13F20005D06E0082D02D1C7
:102080004020005D01E04120005D012801D00120D9
:1020900070BD1DB9022084F83E000EE0042D03D16E
:1020A00002213F20015508E0082D03D102214020E4
:1020B000015502E0022141200155012229462068F4
:1020C00000F00AFE1F492068884203D01E4920689C
:1020D000884201D1012000E0002028B12068406C36
:1020E00040F400402168486416492068884213D0B3
:1020F0001549206888420FD02068B0F1804F0BD07E
:1021000012492068884207D011492068884203D0CC
:102110001049206888420CD12068806800F00706CA
:10212000062E0CD02068006840F00100216808608D
:1021300005E02068006840F0010021680860002088
:10214000A6E70000002C01400034014000040040DC
:1021500000080040000C00402DE9F04104460D4607
:1021600016461F4615B994F83E000BE0042D02D127
:102170003F20005D06E0082D02D14020005D01E017
:102180004120005D022801D1BDE8F08115B994F825
:102190003E000BE0042D02D13F20005D06E0082D3B
:1021A00002D14020005D01E04120005D012817D1EF
:1021B0000EB907B1E8E71DB9022084F83E0011E02E
:1021C000042D03D102213F2001550BE0082D03D13E
:1021D00002214020015505E002214120015501E086
:1021E0000120D1E735B1042D1FD0082D38D00C2D9A
:1021F0006CD150E05949606A81625949606AC16294
:102200005849606A0163216801F134023B46314656
:10221000606AFEF71FFD08B10120B5E72068C068BD
:1022200040F400702168C86051E04C49A06A8162A6
:102230004B49A06AC1624B49A06A0163216801F160
:1022400038023B463146A06AFEF704FD08B1012082
:102250009AE72068C06840F480602168C86036E072
:102260003E49E06A81623E49E06AC1623D49E06AF6
:102270000163216801F13C023B463146E06AFEF70A
:10228000E9FC08B101207FE72068C06840F40060E5
:102290002168C8601BE03149206B81623049206BA6
:1022A000C1623049206B0163216801F140023B4665
:1022B0003146206BFEF7CEFC08B1012064E72068B0
:1022C000C06840F480502168C86000E000BF00BFD3
:1022D00001222946206800F0FFFC2349206888423B
:1022E00003D022492068884201D1012000E000206B
:1022F00028B12068406C40F40040216848641A49C5
:102300002068884213D01949206888420FD020687D
:10231000B0F1804F0BD016492068884207D015498C
:102320002068884203D01449206888420DD1206873
:10233000806800F00708B8F1060F0CD0206800682C
:1023400040F001002168086005E02068006840F066
:10235000010021680860002016E70000FB2C00083F
:10236000632D0008A32D0008002C0140003401401B
:102370000004004000080040000C004070B5044616
:102380000D4635B1042D0ED0082D16D00C2D28D1B8
:102390001DE02068C06820F400702168C860606A91
:1023A000FEF73EFB1EE02068C06820F480602168D4
:1023B000C860A06AFEF734FB14E02068C06820F40F
:1023C00000602168C860E06AFEF72AFB0AE0206826
:1023D000C06820F480502168C860206BFEF720FBA5
:1023E00000E000BF00BF00222946206800F074FC16
:1023F00023492068884203D022492068884201D1BD
:10240000012000E0002090B100BF2068006A41F286
:102410001111084050B92068006A8910084028B995
:102420002068406C20F400402168486400BF00BF71
:102430002068006A41F21111084050B92068006A12
:102440008910084028B92068006820F00100216840
:10245000086000BF1DB9012084F83E000EE0042D85
:1024600003D101213F20015508E0082D03D10121AE
:102470004020015502E0012141200155002070BD9E
:10248000002C014000340140704770472DE9F84F9F
:102490000446206805682068C668206847694FF0D0
:1024A0000009CA4605F00F09B9F1000F0AD105F07D
:1024B000200038B106F0200020B1204600F0B1FD28
:1024C000BDE8F88FB9F1000F71D007F0010018B91D
:1024D00006F4907000286AD005F0010030B106F4CF
:1024E000807018B1206C40F00100206405F00400F9
:1024F00030B107F0010018B1206C40F002002064F8
:1025000005F0020030B107F0010018B1206C40F076
:102510000400206405F0080048B106F0200010B95E
:1025200007F0010018B1206C40F008002064206C16
:1025300068B305F0200028B106F0200010B1204655
:1025400000F06FFD20684069C0F3801A206C00F035
:10255000080010B9BAF1000F22D0204600F036FD75
:102560002068406900F04000B0B12068406920F068
:10257000400021684861A06B50B15648A16B486388
:10258000A06BFEF74DFA10B1A06B416B88470CE0D1
:102590002046FFF77AFF08E02046FFF776FF04E0C9
:1025A0002046FFF772FF0020206489E7FFE7206BD9
:1025B000012878D105F01000002874D006F0100032
:1025C000002870D000BF00200090206800680090B4
:1025D00020684068009000BF00BF2068406900F09C
:1025E0004000C0B3A06B006840681FFA80F8B8F1E3
:1025F000000F2FD0A08D40452CDDA4F82E80A06BBD
:10260000806920281FD02068C06820F4807021686D
:10261000C8602068406920F0010021684861206896
:10262000406920F0400021684861202084F83E0085
:10263000002020632068C06820F010002168C86076
:10264000A06BFEF7C1F9A08DE28D801A81B2204601
:10265000FFF71AFF34E7FFE7A08DE18D401A1FFA5C
:1026600080F8E08DE8B1B8F1000F1AD02068C0689A
:1026700020F490702168C8602068406920F0010053
:1026800021684861202084F83E00002020632068F3
:10269000C06820F010002168C86041462046FFF75E
:1026A000F3FE0DE7FFE705F0800030B106F0800093
:1026B00018B1204600F0C9FD02E705F0400030B136
:1026C00006F0400018B1204600F09BFCF8E600BF81
:1026D000F6E60000B92F000810B504460CB9012039
:1026E00010BDA06900B100E000BF94F83D0028B91A
:1026F000002084F83C00204600F028F8242084F8CC
:102700003D002068C06820F400502168C860204661
:1027100000F0FAFC2068006920F49040216808610C
:102720002068406920F02A00216848612068C0685C
:1027300040F400502168C86000202064202084F804
:102740003D0084F83E000020CAE7000010B586B0C6
:1027500004462849206888424AD100BF00BF264865
:10276000806940F00400244988610846806900F0CF
:102770000400019000BF00BF00BF00BF00BF0846BB
:10278000806940F0040088610846806900F0040018
:10279000019000BF00BF00BF00BF00BF08468069B6
:1027A00040F4804088610846806900F480400190D0
:1027B00000BF00BF00BF4815029002200390012017
:1027C00004900320059002A90C48FEF7A5FA4FF4E7
:1027D000806002900020039002A90848FEF79CFA4E
:1027E0002520FEF796FC032211462520FEF7A1FCCA
:1027F00006B010BD00380140001002400008014042
:1028000070B504460D46164694F83E00202816D1B1
:1028100005B10EB9012070BD00BF94F83C0001283D
:1028200001D10220F7E7012084F83C0000BF00201E
:10283000206332462946204600F0E4FCEBE7022004
:10284000E9E7000010B504462049206888423BD1E2
:102850001F48008800F4004088BB1D48008800F431
:10286000804070B11B4800780A2803D00020184926
:10287000088024E01648008840F40040144908808D
:102880001DE0144800780D2806D11148008840F456
:1028900080400F49088012E00E4800780C490988F2
:1028A000C1F30D010C4A505409480088401C0849E6
:1028B000088008460088C72801DD00200880012222
:1028C00004490648FFF79CFF10BD00000038014096
:1028D0000C0000200E000020D000002098010020F5
:1028E000704700BFFEE700BFFEE770471CB510A1B0
:1028F00003C9CDE9000105226946302000F090F8B7
:1029000005226946102000F037F8002406E01DF883
:102910000400A52800D003E0601CC4B2052CF6DB3F
:1029200000BF052C01D001201CBD0020FCE70000E9
:10293000A5A5A5A5A500000010B50D480D49086086
:102940004FF48270486000210A488160C1600161D3
:1029500041614FF4007181613821C1610021016240
:10296000416281620721C162FEF79EFF10BD000037
:1029700000300140B40200202DE9F04107460D4629
:102980001646002210210C48FEF770FB384600F076
:10299000CBF88046002405E0FF2000F0C5F828555C
:1029A000601CC4B2B442F7DB012210210248FEF7DA
:1029B0005DFB4046BDE8F0810008014070B504466B
:1029C000002210210848FEF751FB204600F0ACF829
:1029D000FF2000F0A9F80546012210210248FEF769
:1029E00045FB284670BD00000008014070B5044654
:1029F0000720FFF7E3FF05462946272000F032F8BD
:102A000005F0400050B1202221466120FFF7B4FFBD
:102A1000FF21E22000F026F8002070BD0120FCE735
:102A20002DE9F04107460C461546002210210C48BE
:102A3000FEF71CFB384600F077F88046002605E0DC
:102A400014F8010B00F070F8701CC6B2AE42F7DB50
:102A5000012210210248FEF709FB4046BDE8F08143
:102A60000008014070B505460C46002210210848B8
:102A7000FEF7FCFA284600F057F80646204600F01C
:102A800053F8012210210248FEF7F0FA304670BDDB
:102A90000008014010B50AE04FF47A7000F0B8FD6C
:102AA00000BF4FF480510948FEF7D6FA00BFFFF788
:102AB0001DFF0028F0D100BF012211030348FEF7DB
:102AC000D5FA00BFFDF78CFE10BD0000000C0140E0
:102AD00008B508490968C9084FF47A72B1FBF2F1E8
:102AE0004143009100BF00BF00994A1E0092002997
:102AF000F9D108BD00000020F8B504460D46164681
:102B00002B46002280212046009600F01FF828B1B5
:102B1000606D40F0200060650320F8BD0020FCE7F8
:102B2000014601207047000001B582B000200190ED
:102B30004FF47A70012301AA02A900900248FEF71F
:102B400085FF9DF804000EBDB40200202DE9F84F6A
:102B500004460D4690461E46DDF82890FEF78CFA96
:102B6000A0EB0900371AFEF787FA82462C48006866
:102B7000C0F3CB307843009045E0701C002842D071
:102B8000FEF77AFAA0EB0A00B84200D2A7BB206891
:102B9000406820F0E000216848606068B0F5827FFE
:102BA0000DD1A068B0F5004F03D0A068B0F5806FDC
:102BB00005D12068006820F0400021680860A06A04
:102BC000B0F5005F0DD100BF2068006820F4005010
:102BD000216808602068006840F40050216808609F
:102BE00000BF012084F8510000BF002084F850008D
:102BF00000BF0320BDE8F88FFFE7009800B9002769
:102C00000098401E0090206880682840A84201D1AA
:102C1000012000E000204045AFD10020EAE700009D
:102C20000000002010B502F09BFD012801D002F049
:102C300061FBFEF727FA10BD7047000010B502686F
:102C4000204B98420ED0204B98420BD0B0F1804FD1
:102C500008D01E4B984205D01D4B984202D01D4B08
:102C6000984203D122F070024B681A43154B9842E8
:102C70000ED0154B98420BD0B0F1804F08D0134BBB
:102C8000984205D0124B984202D0124B984203D181
:102C900022F44072CB681A4322F080034C6943EA65
:102CA000040202608B68C3620B688362054B984222
:102CB00002D0054B984201D10B69036301234361A4
:102CC00010BD0000002C0140003401400004004011
:102CD00000080040000C004030B501F01F05012441
:102CE00004FA05F3046A9C430462046A01F01F05B8
:102CF00002FA05F52C43046230BD70B505466C6AD6
:102D0000606AA84207D101202077A86918BB01207A
:102D100084F83E001FE0A06AA84207D10220207775
:102D2000A869C0B901213F20015514E0E06AA8421A
:102D300007D104202077A86968B9012140200155F6
:102D400009E0206BA84206D108202077A86910B9B5
:102D50000121412001552046FFF782F9002020770C
:102D600070BD70B505466C6A606AA84202D1012048
:102D7000207710E0A06AA84202D1022020770AE062
:102D8000E06AA84202D10420207704E0206BA84228
:102D900001D1082020772046FFF763F90020207733
:102DA00070BD70B505466C6A606AA84204D1012006
:102DB000207784F83E001DE0A06AA84205D10220D9
:102DC000207701213F20015514E0E06AA84205D197
:102DD000042020770121402001550BE0206BA84200
:102DE00005D10820207701214120015502E0012072
:102DF00084F83D002046FEF7BFFF0020207770BD1D
:102E000030B5056A25F001050562026A43688469E8
:102E100024F0700424F003040D682C4322F0020215
:102E20008D682A43104DA84200D103E00F4DA842FF
:102E300006D100BF22F00802CD682A4322F0040226
:102E4000094DA84202D0094DA84207D123F480734E
:102E500023F400734D692B438D692B4343608461D8
:102E60004D684563026230BD002C014000340140D2
:102E700030B5056A25F010050562026A4368846969
:102E800024F4E04424F440740D6844EA052422F05C
:102E900020028D6842EA0512124DA84200D103E0DB
:102EA000114DA84207D100BF22F08002CD6842EA4E
:102EB000051222F040020B4DA84202D00A4DA84252
:102EC00009D123F4806323F400634D6943EA850349
:102ED0008D6943EA8503436084614D6885630262BE
:102EE00030BD0000002C01400034014030B5056ABF
:102EF00025F480750562026A4368C46924F0700491
:102F000024F003040D682C4322F400728D6842EA19
:102F10000522124DA84200D103E0114DA84207D16D
:102F200000BF22F40062CD6842EA052222F48062EA
:102F30000A4DA84202D00A4DA84209D123F4805379
:102F400023F400534D6943EA05138D6943EA0513E1
:102F50004360C4614D68C563026230BD002C01400E
:102F60000034014030B5056A25F480550562036AD6
:102F70004468C26922F4E04222F440720D6842EAD9
:102F8000052223F400538D6843EA0533084DA84217
:102F900002D0084DA84204D124F480444D6944EA8B
:102FA00085144460C2614D680564036230BD000051
:102FB000002C01400034014070B505466C6A0020C9
:102FC000E085E0842046FFF760FA70BD0168C968BB
:102FD00021F490710268D1600168496921F0010112
:102FE00002685161016B012905D10168C96821F0AE
:102FF00010010268D160202180F83E100021016399
:10300000704710B504462068C06820F04000216871
:10301000C860202084F83D002046FFF761FC0020B6
:1030200010BDF8B5044694F83E00222869D1A06886
:10303000B0F5805F0CD1206950B90025A66A2068E0
:103040004068C0F308003080A06A801CA06215E0D0
:10305000A56A0026A068B0F5805F03D0A06828B9F3
:10306000206918B920684068287004E0206840682A
:1030700000F07F002870A06A401CA062E08D401E16
:1030800080B2E085A8BB2068C06820F020002168DD
:10309000C8602068C06820F480702168C86020681B
:1030A000406920F0010021684861202084F83E003A
:1030B000206B01281ED1002020632068C06820F00A
:1030C00010002168C8602068006800F01000102817
:1030D0000AD100BF0020009020680068009020689E
:1030E0004068009000BF00BFA18D2046FFF7CCF9DB
:1030F00003E004E02046FFF7A5FB0020F8BD002018
:10310000FCE70220FAE7000070B50446216809696F
:1031100021F44051E2681143226811612269A168DB
:103120001143626941EA02052168C96841F20C62F3
:10313000914329432268D1602168496921F4407193
:10314000A2691143226851612D4A2168914202D13E
:10315000FEF71EF901E0FEF70BF900EBC00101EBF1
:10316000001162689200B1FBF2F100EBC00202EBC9
:10317000001263689B00B2FBF3F26423B2FBF3F22C
:1031800002EBC20303EB0212A1EB8201322202EB3B
:1031900001116422B1FBF2F101F0F00100EBC00279
:1031A00002EB001263689B00B2FBF3F26423B2FBF4
:1031B000F3F201EB021200EBC00101EB00116368B6
:1031C0009B00B1FBF3F100EBC00303EB0013666857
:1031D000B600B3FBF6F36426B3FBF6F303EBC306CA
:1031E00006EB0313A1EB8301322303EB01116423EC
:1031F000B1FBF3F101F00F0111442268916070BD41
:103200000038014010B5034699629A85DA8500209E
:103210001864222083F83E0000BF002083F83C00A1
:1032200000BF1868C06840F480701C68E0601868CF
:10323000406940F001001C6860611868C06840F097
:1032400020001C68E060002010BD014691F83D00A0
:10325000212828D18868B0F5805F0BD1086948B96A
:103260000A6A1088C0F308000B685860086A801C5E
:10327000086205E00B6A581C086218780B685860F1
:10328000C88C401E80B2C88458B90868C06820F055
:1032900080000B68D8600868C06840F040000B6888
:1032A000D860002070470220FCE7000010B50248FB
:1032B000FFF7ECF810BD00009801002000BFFEE70A
:1032C0002DE9F0470746884691469A46089EE6B99A
:1032D000012417E000221146104600F069F8B423DB
:1032E00000228C21104600F053F84B4642463946E6
:1032F000204600F04DF800F06DF85046FDF7F8FC60
:10330000601CC4B2092CE5DB3FE0012E16D1082475
:1033100011E000221146104600F04AF8E0B24B4698
:103320004246394600F034F800F054F85046FDF7B4
:10333000DFFC601E44B2002CEBDA26E0022E24D122
:10334000042500241EE000221146104600F030F84B
:103350002819092806DA2919C8B24B4642463946C7
:1033600000F016F8281B06D4291BC8B24B4642466B
:10337000394600F00DF800F02DF85046FDF7B8FC86
:10338000601CC4B2AC42DEDD00BFBDE8F0870000C7
:1033900030B500EB4004054D295500EB40042C44AA
:1033A000627000EB40042C44A37030BD98030020F1
:1033B000F0B505460E461746002407E03B46324668
:1033C00029462046FFF7E4FF601CC4B2092CF5DB58
:1033D000F0BD00002DE9F04100203EE000EB40018F
:1033E000294D6A5C00EB400129444B7800EB400119
:1033F00029448C7800212CE080250D411D400DB121
:103400003C2500E01E25182606FB00161F4F27F856
:10341000165080250D4115400DB13C2600E01E26BA
:1034200000EB4005ED0008350D44184F27F81560F6
:1034300080250D4125400DB13C2600E01E2600EB05
:103440004005ED0010350D44104F27F815604D1C58
:10345000E9B20829D0DB411CC8B20928BEDB002034
:103460000A49A1F8B00104210948FEF787FF0020AE
:10347000074909684862D923044A04210448FEF731
:103480006BFEBDE8F081000098030020B40300202B
:103490005003002002480068C0F30220704700007B
:1034A0000CED00E010B5002804DB0A07130E054AF6
:1034B000135406E00A07140E034A00F00F031B1F03
:1034C000D45410BD00E400E018ED00E030380A28C4
:1034D00001D2012070470020704700BF70470000F4
:1034E0001CB505480A2100238022CDE9001003A164
:1034F000054802F005F91CBD2400002073746172B8
:10350000745F7461736B00003148000810B5FDF7FB
:10351000B3FD04462A48FFF769FAA8BB284800789B
:1035200055283DD12648C07CFF2839D12448C07891
:1035300000EB400000F57A70002801DA002011E06D
:103540001F48C07800EB400000F57A70B0F5966F28
:1035500002DD4FF4966005E01948C07800EB4000AA
:1035600000F57A70174908601548C078C0F1460028
:103570000A2801DA0A200CE01148C078C0F14600A0
:10358000462802DD462004E00AE00D48C078C0F17C
:1035900046000C4948600C48046001200B49087043
:1035A0000A48007858B108480068201AC82806D38D
:1035B0000020064908704FF47A700249086010BD77
:1035C00066050020400000204C000020480000203C
:1035D00004E0FFF79BFF022001F09CFBF9E70000ED
:1035E0000A4A106001464FF47A7251434FF0E022CC
:1035F000126942F002024FF0E0231A611A4651614B
:10360000126942F001021A617047000004000020B4
:1036100030B50446002505E04FF47A7000F006F856
:10362000681C85B2A542F7DB30BD000070B50346CB
:1036300000224FF0E02675690D4E366803FB06F454
:103640004FF0E026B16910E04FF0E026B069884203
:103650000BD0884202D20E1A324402E02E1A0E44D7
:1036600032440146A24200D300E0EDE700BF70BD46
:103670000400002008B500BF1348406940F0010075
:10368000114948610846406900F00100009000BF00
:1036900000BF0E480E4908601020486000210C4809
:1036A00081608021C1604900016189004161002180
:1036B0008161C161FDF788FA00BF05490548816253
:1036C000486200BF08BD00000010024044000240F4
:1036D0000C0300205003002000BF054A126802F0CE
:1036E0004002002AF9D0C2B2014B1B1D1A6070477C
:1036F0000038014000B585B000BF0D48806940F03A
:1037000008000B4988610846806900F008000090B5
:1037100000BF00BF202001900020029001200390F4
:103720000320049001A90348FDF7F6FA05B000BD97
:1037300000100240000C014010B513480078D8B1C9
:1037400012480078552817D11048C07CFF2813D1A3
:103750000E48407800F00200022806D000BF012287
:1037600040210B48FDF782FC0DE000BF0022402104
:103770000748FDF77BFC06E000BF0022402104481B
:10378000FDF774FC00BF10BD480000206605002056
:10379000000C014000B585B000200190029003901C
:1037A000049000BF00BF3D48806940F008003B49DD
:1037B00088610846806900F00800009000BF00BFE3
:1037C00000BF00BF00BF0846806940F00800886164
:1037D0000846806900F00800009000BF00BF00BFED
:1037E00000BF00BF0846806940F0080088610846B5
:1037F000806900F00800009000BF00BF00BF88147F
:1038000001900120029002200390049001A9244815
:10381000FDF782FA4FF4005001900120029002203F
:103820000390049001A91E48FDF776FA4FF48040FA
:1038300001900120029002200390049001A91848F1
:10384000FDF76AFA402001900120029002200390C7
:10385000049001A91248FDF75FFA00BF00224FF45F
:1038600080510F48FDF702FC00BF00BF00224FF45B
:1038700000510B48FDF7FAFB00BF00BF00224FF4D8
:1038800080410748FDF7F2FB00BF00BF0022402146
:103890000348FDF7EBFB00BF05B000BD0010024080
:1038A000000C014008B51F480078552828D11D4854
:1038B000C07CFF2824D11C480068B0F5806F1FDD54
:1038C000194840684B2810DA1648407800F020006C
:1038D00020280AD0002000901348808883B2FF225D
:1038E00000210846FFF7ECFC14E0002000900E4891
:1038F000808883B2002211461046FFF7E1FC09E000
:10390000002000900848808883B2002211461046AB
:10391000FFF7D6FC00BF4FF480410448FDF79CFB45
:1039200000BF08BD6605002040000020000C0140DB
:1039300004E0FFF7B7FF052001F0ECF9F9E700001C
:1039400010B5FDF7ABFB4FF4E01000F0D3FF4820BB
:10395000FFF746FE4FF4E13001F000F823A0FCF73A
:10396000ABFCFFF717FF00BF012251032348FDF70F
:103970007DFB00BF00BF002240212048FDF776FB01
:1039800000BFFFF7B7FE00F083F8FFF773FEFEF706
:10399000D3FF0021592001F0E1FB01214FF4B46075
:1039A00000F00EFF472144F61F60FCF75BFF4FF469
:1039B000E13000F0D3FF12A0FCF77EFC002211469C
:1039C000FF20FFF7F5FCFFF705FD4FF47A70FCF7D9
:1039D00037FF40F6B830FFF71BFEFFF75BF8FFF745
:1039E0007FFD01F0F5FA002010BD000072756E69D0
:1039F0006E672E2E2E2E2E2E00000000000C014091
:103A000072756E6E696E672E2E2E2E2E2E0D0A008A
:103A100010B51C49098888B2FCF712FFFFF78CFE2D
:103A20001948007850B319480078552826D117480E
:103A3000C07CFF2822D113480068B0F5806F1DDDDF
:103A40001248407800F02000202806D0FCF79EFFA6
:103A50004FF4967000F0AEFE13E00C48407800F092
:103A60001000102806D0FCF773FF4FF4FA7000F036
:103A7000A1FE06E0002000F09DFE02E0002000F024
:103A800099FE10BD4000002048000020660500207F
:103A900000B585B000BF0D48806940F008000B49B3
:103AA00088610846806900F00800009000BF00BFF0
:103AB0004FF40140019001200290039003200490F4
:103AC00001A90348FDF728F905B000BD0010024028
:103AD000000C014004E0FFF79BFF022001F01AF9FF
:103AE000F9E700002DE9F04105460E462948076830
:103AF00000202949096881F8590027480068001DFD
:103B000000F048FF50B92448006890F82C100120BC
:103B1000884022490968814320480160681CD8B95F
:103B2000D6B11F4948681C49096888601A498268EB
:103B30000968CA6018490968091D826851601649F8
:103B40000968091D8160164A134909684A611146CE
:103B50000968491C11601AE07C190F48006844602C
:103B6000BC4207D20C480168091D0E48006800F0ED
:103B700035FF0CE008480168091D0B48006800F09B
:103B80002DFF0A480068844201D208480460BDE85D
:103B9000F081000064000020500000206800002038
:103BA00098080020580000205400002080000020C9
:103BB00010B5044600F038FF31480068401C304919
:103BC00008603048006840B92E4804600846006824
:103BD00001280DD100F016FA0AE02B48006838B928
:103BE00028480068C06AE16A884201D82548046014
:103BF00026480068401C2549086008460068606443
:103C000094F82C1001208840214909680843204974
:103C10000860E16A01EB81011E4A02EB81014868FC
:103C2000A0608268E260211D826851608160E16A63
:103C300001EB8101174A02EB81026261E16A01EB4B
:103C40008101144A52F82110491CE26A02EB8202F7
:103C5000104B43F8221000F031FF0B48006868B1A8
:103C600008480068C06AE16A884207D24FF0805075
:103C700009490860BFF34F8FBFF36F8F10BD00007D
:103C800060000020500000206C0000207C0000201C
:103C900068000020C805002004ED00E010B500F029
:103CA000C3FE10480068D0B90F4800F087FE0F48E7
:103CB00000F084FE0C480E4908600C480D4908606D
:103CC00000221021052001F02FFB0649086008465C
:103CD000006820B108A10348006800F0AFFF00F0C1
:103CE000EDFE10BD98000020AC080020C0080020A8
:103CF0009000002094000020546D725100000000DC
:103D000010B516E000F090FE0C48C068C468201D95
:103D100000F040FE0A480068401E09490860094852
:103D20000068401E0749086000F0C8FE204600F009
:103D30005FF8044800680028E4D110BD8408002022
:103D4000600000205C00002070B504460D46206C29
:103D500070B1216CE0680144E160D4E9021088424E
:103D600001D32168E1602846226CE168FCF79DFBE5
:103D700070BD2DE9F04104460F4615464FF000088E
:103D8000A66B206C48B9206800282CD1A06801F0EF
:103D9000F1FD80460020A06025E07DB93946226C07
:103DA0006068FCF782FB216C606808446060D4E9BD
:103DB0000101884217D32068606014E03946226C04
:103DC000E068FCF772FB216CE068411AE160216851
:103DD000E068884203D2216CA068411AE160022D9C
:103DE00001D106B1761E701CA0634046BDE8F0818B
:103DF00010B50446206B00F09FFE204600F09CFEAC
:103E000010BD00000146084A126812680AB9012272
:103E100000E000220A600A6822B9034A1268D268E8
:103E2000106800E0002070479000002030B54FF48B
:103E30002053174800F007042CB1C01D20F00700E4
:103E4000134C041B1B1B0246124C22600024114D14
:103E50006C60D018083820F007000F4C2060002458
:103E60000D4D2D686C600C4D2D682C601146441A68
:103E70004C60094C24680C60084D4C682C60084D5F
:103E80004C682C604FF00044064D2C6030BD0000A3
:103E9000D4080020A4000020AC000020B4000020C2
:103EA000B0000020C000002000BFFFF729FF064837
:103EB00000680128F9D94FF0805004490860BFF329
:103EC0004F8FBFF36F8FF0E7C805002004ED00E0CF
:103ED0002DE9F04106460D4617469846069C0DB959
:103EE000246000E02760E66325640121204601F09C
:103EF00063FA84F850800020A064BDE8F0810000DF
:103F00002DE9F05F82460F4690469B460A9E0C9C28
:103F10004FEA8801A522206BFCF70CFBA8F10100F9
:103F2000216B01EB800929F0070909F0070008B9A6
:103F3000012000E0002028B94FF4587224A12DA0E0
:103F4000FCF7BAF987B1002507E0795D04F1340088
:103F50004155785D00B902E06D1C102DF5D300BF0E
:103F600000214320015502E0002084F83400202E77
:103F700001D2012000E0002028B940F2973214A1BC
:103F80001CA0FCF799F9202E00D31F26E662E664F8
:103F900000202065201D00F01EFD04F1180000F037
:103FA0001AFD2461C6F12000A061646200206065F2
:103FB00084F8580084F859005A465146484600F0A3
:103FC00025FC20600B9808B10B980460BDE8F09FB9
:103FD0002E2E5C2E2E5C4D6964646C657761726573
:103FE000735C4672656552544F535C7461736B73B6
:103FF0002E6300004572726F723A2025732C2025C3
:10400000640D0A0010B5002407E004EB84010F4A98
:1040100002EB810000F0D2FC641C202CF5D30C488C
:1040200000F0CCFC0B4800F0C9FC0B4800F0C6FCCB
:104030000A4800F0C3FC0A4800F0C0FC04480949E3
:10404000086004480849086010BD0000C805002049
:10405000480800205C080020700800208408002028
:1040600098080020540000205800002010B5014698
:10407000164800E0006803688B42FBD302464368A1
:1040800013448B4204D143684C6823444360014687
:104090000A464B6813440468A34211D10C4C0368D0
:1040A0002468A34208D04B680468646823444B60CA
:1040B00003681B680B6005E0054B1B680B6001E0A3
:1040C00003680B60884200D0016010BDA40000208E
:1040D000AC0000202DE9F04104460D4616461F466F
:1040E0004FF0000865602461B5420CD8F01BA1694F
:1040F000884202D34FF0010811E0211D09480068F1
:1041000000F06CFC0BE0BE4204D2BD4202D34FF083
:10411000010804E0211D0448006800F05FFC4046EF
:10412000BDE8F081940000209000002070B50546A5
:1041300000F07AFCA86B08B9012400E0002400F02C
:10414000BDFC204670BD0000F1B50098846C0026CF
:104150002CB940F6D53220A128A0FCF7ADF8A06B11
:10416000E16B884201D2012000E0002028B940F62E
:10417000D63219A121A0FCF79FF8A06BE16B884211
:1041800027D294F94550002269462046FFF7F1FDF9
:104190000646681C60B9606A08B9012000E000208A
:1041A000B0B904F1240001F06DFC88B101260FE0E4
:1041B0007F2D01D0012000E0002028B940F6F63222
:1041C00005A10EA0FCF778F8681C40B284F8450001
:1041D00000BF3046F8BD00002E2E5C2E2E5C4D69CF
:1041E00064646C6577617265735C46726565525490
:1041F0004F535C71756575652E6300004572726F73
:10420000723A2025732C2025640D0A0070B50546EE
:104210000E460E480068C068C468201D00F0BAFB56
:1042200094F8280000F0040028B1324629462046C0
:1042300000F0FEF805E094F8280000F0FE0084F895
:1042400028002046216A884770BD000090000020A9
:1042500070B586B08AE0029800280CDA03AE2EB959
:1042600040F2063247A150A0FCF726F8D6E900201C
:10427000B168904700BF0298002877DB049C606912
:1042800008B9012000E0002010B9201D00F082FBD9
:1042900001A800F0F9F8054602980A2864D2DFE880
:1042A00000F06305072E365306082F3700BF00BF06
:1042B00000BF94F8280040F0010084F8280003981B
:1042C000A269811803462A462046FFF703FFA8B1DA
:1042D00094F8280000F0040038B10398A26981180E
:1042E0002A46204600F0A4F805E094F8280000F0E3
:1042F000FE0084F828002046216A884735E000BF88
:1043000094F8280000F0FE0084F828002DE000BF9B
:1043100094F8280040F0010084F828000398A06178
:10432000A06908B1012000E0002028B940F259320C
:1043300014A11DA0FBF7C0FFA06941192B462A4616
:104340002046FFF7C7FE10E094F8280000F00200B6
:1043500018B9204600F0F0FB05E094F8280000F0C2
:10436000FE0084F8280000E000BF00BF002202A980
:104370001148006801F09EF800287FF46CAF06B089
:1043800070BD00002E2E5C2E2E5C4D6964646C6541
:1043900077617265735C4672656552544F535C7405
:1043A000696D6572732E63004572726F723A2025D3
:1043B000732C2025640D0A0098000020F8B50546EE
:1043C0000C4600F067FE684600F05EF8064600986E
:1043D00020BB44B9B54206D801F0FAFB3146284665
:1043E000FFF714FF1CE03CB10E480068006808B9F4
:1043F000012000E000200446A91B22460A4800686C
:1044000000F062FC01F0E4FB50B94FF08050074926
:104410000860BFF34F8FBFF36F8F01E001F0D8FB4F
:10442000F8BD0000940000209800002004ED00E09A
:1044300070B504460D46164604E0A06905442046C2
:10444000216A8847A06941192B4632462046FFF76A
:1044500041FE0028F1D170BD09480068006808B924
:10446000012000E0002020B14FF0FF300549086036
:1044700005E003480068C0680068024908607047AA
:10448000540000208000002070B5044601F078F947
:10449000054607480068854204D200F00BF8012069
:1044A000206001E00020206001480560284670BDC2
:1044B000A000002070B508E00D480068C0680468DE
:1044C0004FF0FF312046FFF7A1FE09480068006861
:1044D00008B9012000E000200028EDD0044805685C
:1044E00004480068024908600248056070BD000089
:1044F00090000020940000200B480068401C08B980
:10450000012000E0002020B9CE2208A115A0FBF771
:10451000D3FE00BF502080F31188BFF34F8FBFF34D
:104520006F8F00BF00BFFEE7C40000202E2E5C2E60
:104530002E5C4D6964646C6577617265735C46726C
:10454000656552544F535C706F727461626C655C48
:10455000525644535C41524D5F434D335C706F7211
:10456000742E63004572726F723A2025732C2025D9
:10457000640D0A0008B500BF6846FFF743FC044617
:1045800020460099FFF71AFFFFF762FEF4E770B5C7
:10459000044600F049FA94F9455019E0A06C30B196
:1045A0002046FFF7D1FD88B100F094FC0EE0606A70
:1045B00008B9012000E0002038B904F1240001F01E
:1045C00061FA18B100F086FC00E003E0681E45B215
:1045D000002DE3DC00BFFF2084F8450000F06EFAF8
:1045E00000F022FA94F9445010E0206908B9012043
:1045F00000E0002048B904F1100001F043FA08B1CE
:1046000000F068FC681E45B200E001E0002DECDC23
:1046100000BFFF2084F8440000F050FA70BD000095
:104620002DE9F04104464FF0000800F033FD494801
:10463000006808B9FFF7FAFB4748006820400028E7
:1046400075D1002C23D004F10800A0421FD90834F2
:1046500004F0070000281BD004F00700C0F1080098
:104660002044A04211D904F00700C0F1080004441E
:1046700004F0070008B9012000E0002040B99C22A6
:1046800036A144A0FBF718FE02E0002400E000245D
:10469000002C4CD043480068844248D8424E3046F3
:1046A000056801E02E462D686868A04202D228689D
:1046B0000028F7D127480068854238D0306800F1DB
:1046C0000808286830606868001B102813D92F1963
:1046D00007F0070008B9012000E0002020B9CF2230
:1046E0001EA12CA0FBF7E8FD6868001B78606C60D9
:1046F0003846FFF7BBFC2B4968680968081A294946
:1047000008600846006829490968884203D225489C
:1047100000682649086010496868096808436860AD
:104720000020286022480068401C2149086001F0F0
:104730004FFA08F0070008B9012000E0002028B96E
:104740004FF4887205A113A0FBF7B6FD4046BDE803
:10475000F0810000AC000020C00000202E2E5C2E56
:104760002E5C4D6964646C6577617265735C46723A
:10477000656552544F535C706F727461626C655C16
:104780004D656D4D616E675C686561705F342E6369
:10479000000000004572726F723A2025732C2025AC
:1047A000640D0A00B0000020A4000020B400002026
:1047B000B800002001490968486370476C02002076
:1047C00030B587B005460C461C216846FBF7BAFE9B
:1047D0000C480D49086008464460C56000218160AE
:1047E000FDF749FB6020009000200190029000221C
:1047F00069460548FDF7C1FA00210348FDF732FC80
:1048000007B030BD002C01406C020020001F4FF0AB
:1048100080730360001F21F001030360001F034B3E
:10482000036014380260203870470000F944000823
:104830001CB5044600F0F8F8174808210023802230
:10484000CDE9001015A1194800F05AFF18480721BA
:1048500000238022CDE9001016A11A4800F050FF75
:104860001948052100238022CDE9001017A11A481C
:1048700000F046FF1948062100238022CDE90010F0
:1048800017A11A4800F03CFF1948006800F084FAAC
:1048900000F014F91CBD0000280000206461746160
:1048A0005F6765745F7461736B000000D135000849
:1048B0002C000020444154415F53454E445F7461D5
:1048C000736B000019090008380000206C696768E4
:1048D000745F7461736B000031390008340000208C
:1048E0006D6F746F725F7461736B0000D53A00086E
:1048F0002400002030B58FB005460124282105A8EA
:10490000FBF720FE14216846FBF71CFE01200590F2
:10491000000406900020079002200C90C1030D9126
:104920000E9505A8FCF78EFD04460CB100BFFEE70E
:104930000F20009002200190002002904FF4806030
:1049400003900020049002216846FCF745FC0446D1
:104950000CB100BFFEE70FB030BD000010B504463B
:1049600009480A4908600846446000218160C16026
:10497000016181610C214161FDF7AEFE0122044914
:104980000248FDF73DFF10BD0038014098010020AE
:104990000E00002001460A69D1E901309860D1E992
:1049A000010358605068884201D188685060002037
:1049B00008611068401E10601068704700F108011F
:1049C00041604FF0FF31816000F10801C160016179
:1049D00000210160704700210161704710B5024657
:1049E0000B685C1C0CB9106907E002F1080000E0DC
:1049F0004068446824689C42FAD944684C604C681A
:104A0000A160886041600A611468641C146010BD74
:104A100042684A6093688B6093685960916008614E
:104A200003685B1C0360704710B500BF502080F323
:104A30001188BFF34F8FBFF36F8F00BF0B48006823
:104A4000401C0A4908600846006801280DD1084842
:104A50000068C0B208B9012000E0002028B940F287
:104A6000731204A111A0FBF727FC10BDC4000020A5
:104A700004ED00E02E2E5C2E2E5C4D6964646C65A6
:104A800077617265735C4672656552544F535C7012
:104A90006F727461626C655C525644535C41524D56
:104AA0005F434D335C706F72742E63004572726F9A
:104AB000723A2025732C2025640D0A0010B50B488E
:104AC000006828B94FF4BD7209A117A0FBF7F4FBE9
:104AD00006480068401E054908600846006820B97D
:104AE000002080F3118800BF00BF10BDC40000206B
:104AF0002E2E5C2E2E5C4D6964646C657761726548
:104B0000735C4672656552544F535C706F7274618A
:104B1000626C655C525644535C41524D5F434D3369
:104B20005C706F72742E63004572726F723A20254A
:104B3000732C2025640D0A0070B506463546002EFC
:104B40003AD0083D2C461D4960680968084008B104
:104B5000012000E0002028B94FF4927218A126A08D
:104B6000FBF7AAFB206808B9012000E0002028B963
:104B700040F2251212A120A0FBF79EFB0F496068AE
:104B800009680840C0B12068B0B90C49606809687C
:104B90008843606000F07EFA1B4960680968084439
:104BA000194908602046FFF761FA18480068401C60
:104BB0001649086001F00CF870BD0000C00000202C
:104BC0002E2E5C2E2E5C4D6964646C657761726577
:104BD000735C4672656552544F535C706F727461BA
:104BE000626C655C4D656D4D616E675C686561709A
:104BF0005F342E63000000004572726F723A202508
:104C0000732C2025640D0A00B0000020BC00002099
:104C100000204FF0E0210861886107480068C00863
:104C20004FF47A71B0FBF1F0401E4FF0E021486183
:104C30000320086170470000000000202DE9F041CA
:104C400006460F462EB940F6C82211A119A0FBF75F
:104C500033FB0025BFB1002412E01A4800EBC4006A
:104C60004068B04203D1174800EBC4050AE035B9EB
:104C7000144850F8340010B9124800EBC405641C05
:104C8000082CEAD300BF0DB12F606E60BDE8F08143
:104C90002E2E5C2E2E5C4D6964646C6577617265A6
:104CA000735C4672656552544F535C7175657565EA
:104CB0002E6300004572726F723A2025732C2025F6
:104CC000640D0A00880500202DE9F04105460E46D6
:104CD00017462C46FFF7A8FE94F94400401C10B973
:104CE000002084F8440094F94500401C10B90020CD
:104CF00084F84500FFF7E2FEA06B28B93A4631463A
:104D000004F1240000F01EF92046FFF740FCBDE846
:104D1000F081000070B504460025ACB10F48006872
:104D200008B9012000E0002028B940F249520CA146
:104D300014A0FBF7C1FA00F0ADF900212046FEF700
:104D4000D1FE00F045FF05463DB94FF080501149B6
:104D50000860BFF34F8FBFF36F8F70BD8C000020D2
:104D60002E2E5C2E2E5C4D6964646C6577617265D5
:104D7000735C4672656552544F535C7461736B7318
:104D80002E6300004572726F723A2025732C202525
:104D9000640D0A0004ED00E070B50546FFF744FE1F
:104DA00015B92F48006800E028460446201DFFF78B
:104DB000F1FD78B9E06A00EB80002A4951F8200043
:104DC00040B994F82C100120884027490968814394
:104DD00025480160A06A18B104F11800FFF7DAFD58
:104DE00022480068401C214908601D480068844230
:104DF00009D1211D1E48FFF70BFE1E480068401C0C
:104E00001C49086006E01C480068401E1A490860FA
:104E1000FFF722FBFFF752FE11480068844202D0E0
:104E20002046FEF7E5FF15480068C0B10C48006851
:104E3000844214D11248006808B9012000E0002023
:104E400028B940F2DC420FA117A0FBF735FA4FF06A
:104E5000805019490860BFF34F8FBFF36F8F70BD4B
:104E600050000020C8050020680000207C000020C1
:104E7000840800205C000020600000206C000020FE
:104E80008C0000202E2E5C2E2E5C4D6964646C65B7
:104E900077617265735C4672656552544F535C74FA
:104EA00061736B732E6300004572726F723A202536
:104EB000732C2025640D0A0004ED00E00349096805
:104EC00001600349096841607047000078000020D4
:104ED0006400002001200149086070477400002030
:104EE00070B504460D462CB940F61C4207A110A02F
:104EF000FBF7E2F91248016818312046FFF76EFD12
:104F000001212846FEF7EEFD70BD00002E2E5C2E1E
:104F10002E5C4D6964646C6577617265735C467282
:104F2000656552544F535C7461736B732E6300005C
:104F30004572726F723A2025732C2025640D0A0089
:104F40005000002070B504460E4615462CB940F6B8
:104F5000524211A119A0FBF7AFF960681B4909681B
:104F6000C8611A49826809680A62184909681831D3
:104F700082685160154909681831816013490968D0
:104F80008C622168491C21600DB14FF0FF36294623
:104F90003046FEF7A7FD70BD2E2E5C2E2E5C4D69AF
:104FA00064646C6577617265735C467265655254C2
:104FB0004F535C7461736B732E6300004572726FA4
:104FC000723A2025732C2025640D0A005000002021
:104FD0001CB51B4800210B468022CDE9001019A109
:104FE0001A4800F08DFB0446012C02D100F0C0FEEF
:104FF0000446012C15D100BF502080F31188BFF367
:105000004F8FBFF36F8F00BF4FF0FF301049086024
:1050100001201049086000200F49086000F0C4F822
:105020000BE0601C08B1012000E0002028B94FF41B
:1050300004620AA112A0FBF73FF9154800681CBDE5
:105040008400002049444C4500000000A93E0008AF
:10505000800000206C000020640000202E2E5C2EBA
:105060002E5C4D6964646C6577617265735C467231
:10507000656552544F535C7461736B732E6300000B
:105080004572726F723A2025732C2025640D0A0038
:105090008800002002480068401C014908607047F1
:1050A0008C00002010B51B48006818B101201A4977
:1050B00008602DE000201849086018480068B0FA20
:1050C00080F0C0F11F0404EB8400154951F8200062
:1050D00008B1012000E0002028B940F6024211A1E9
:1050E00019A0FBF7E9F804EB84010D4A02EB8100FB
:1050F00041684968416000F1080142688A4202D172
:105100004168496841604168C968134A116000BF3D
:1051100010BD00008C0000207400002068000020FA
:10512000C80500202E2E5C2E2E5C4D6964646C65D3
:1051300077617265735C4672656552544F535C7457
:1051400061736B732E6300004572726F723A202593
:10515000732C2025640D0A005000002030B587B064
:1051600005460C461C216846FBF7ECF90C480D4936
:10517000086008464460C56000218160016181616A
:10518000FCF779FE602000900020019002900490CE
:10519000042269460348FCF7F0FD07B030BD00006B
:1051A00000080040500300201CB53B4C204600780E
:1051B0000190FF20214608700846007800909DF875
:1051C000000000F0F0009DF80010884201D101209D
:1051D00000E0002028B940F21F1230A13DA0FBF7EB
:1051E0006BF89DF8000000F050003E490870072061
:1051F0003D49086009E03C480068401E3A490860A3
:105200009DF800004006000E00909DF8000000F0A0
:1052100080008028EFD034480068C0F107000428DF
:1052200001D1012000E0002028B940F233121BA177
:1052300028A0FBF741F82C480068C0F107000428BB
:1052400001D1012000E0002028B94FF49E7213A183
:1052500020A0FBF731F824480068000222490860CA
:105260000846008800F4E06008600B490198087067
:105270001E48006840F470001C4908600846006839
:1052800040F070400860FFF7C3FC00201849086038
:10529000FAF7B6FF00201CBD00E400E02E2E5C2EC5
:1052A0002E5C4D6964646C6577617265735C4672EF
:1052B000656552544F535C706F727461626C655CCB
:1052C000525644535C41524D5F434D335C706F7294
:1052D000742E63004572726F723A2025732C20255C
:1052E000640D0A00C8000020CC00002020ED00E082
:1052F000C400002010B500BF502080F31188BFF318
:105300004F8FBFF36F8F00BF00F040FA18B14FF01E
:1053100080500449086000BF002080F3118800BF5E
:1053200010BD000004ED00E02DE9F84305460E46EF
:1053300017460024E5B1601EB0FBF5F0B04217D36C
:1053400005FB06F010F1550F12D805FB06F909F11F
:105350005400FFF765F904468CB1A04608F15408E3
:105360003B464246314628460094FEF7B1FD06E032
:105370002CB94FF4E37203A10BA0FAF79DFF20466E
:10538000BDE8F8832E2E5C2E2E5C4D6964646C653E
:1053900077617265735C4672656552544F535C71F8
:1053A000756575652E6300004572726F723A20252F
:1053B000732C2025640D0A002DE9F04105460E46A8
:1053C00001272C462CB94FF488722CA134A0FAF78F
:1053D00073FF002C42D0E06B00283FD04FF0FF312C
:1053E000E06BB1FBF0F0216C884237D3FFF71CFB78
:1053F000D4E90F12206801FB0200A0600020A06326
:1054000020686060E06B401E226C216800FB021186
:10541000E160FF2084F8440084F845009EB92069CB
:1054200008B9012000E00020A8B904F1100000F044
:1054300029FB80B14FF080501D490860BFF34F8FAA
:10544000BFF36F8F07E004F11000FFF7B7FA04F124
:105450002400FFF7B3FAFFF731FB00E000270FB19C
:10546000012000E0002028B940F2451203A10CA061
:10547000FAF722FF3846BDE8F08100002E2E5C2EA0
:105480002E5C4D6964646C6577617265735C46720D
:10549000656552544F535C71756575652E630000E8
:1054A0004572726F723A2025732C2025640D0A0014
:1054B00004ED00E02DE9F74183B005460E464FF0BC
:1054C00000082C462CB940F251524CA154A0FAF7D6
:1054D000F3FE0EB9206C08B9012000E0002028B9C5
:1054E00040F2555245A14EA0FAF7E6FE00F038F919
:1054F00008B9059808B9012000E0002028B940F259
:105500005A523EA146A0FAF7D7FE00BFFFF78CFA29
:10551000A76BF7B131462046FEF716FC781EA06354
:10552000206908B9012000E0002060B904F11000F2
:1055300000F0A8FA38B14FF080503D490860BFF341
:105540004F8FBFF36F8FFFF7B9FA012006B0BDE8A8
:10555000F081059818B9FFF7B1FA0020F6E7B8F125
:10556000000F04D101A8FFF7A9FC4FF00108FFF7D5
:10557000A5FAFFF78FFDFFF757FA94F94400401C96
:1055800010B9002084F8440094F94500401C10B97B
:10559000002084F84500FFF791FA05A901A800F062
:1055A00049F8F0B92046FEF7C1FDA0B104F124008E
:1055B0000599FFF795FC2046FEF7E9FF00F008FB90
:1055C0000028A3D14FF0805019490860BFF34F8FD6
:1055D000BFF36F8F9AE72046FEF7D9FF00F0F8FA85
:1055E00094E72046FEF7D3FF00F0F2FA2046FEF7DC
:1055F0009DFD00288AD00020A8E700002E2E5C2EFA
:105600002E5C4D6964646C6577617265735C46728B
:10561000656552544F535C71756575652E63000066
:105620004572726F723A2025732C2025640D0A0092
:1056300004ED00E070B506460C462EB940F6FD427A
:105640001FA128A0FAF738FE2CB940F6FE421CA193
:1056500024A0FAF731FEFFF7E7F9264802687068E0
:10566000131A2548006890F8590030B100202249EB
:10567000096881F8590001251EE02068401C08B91E
:10568000002519E01D4930680968884206D0706815
:10569000904203D80125002020600DE02068984248
:1056A00007D92068C01A20603046FFF707FC0025A4
:1056B00002E0002020600125FFF700FA284670BDB7
:1056C0002E2E5C2E2E5C4D6964646C65776172656C
:1056D000735C4672656552544F535C7461736B73AF
:1056E0002E6300004572726F723A2025732C2025BC
:1056F000640D0A00640000205000002078000020A3
:105700002DE9FF4F85B0804689461746DDE912AB8B
:10571000B800FEF785FF064656B15C20FEF780FF15
:1057200004460CB1266304E03046FFF705FA00E0BA
:1057300000247CB10020CDE900ABCDE902403A461F
:1057400049464046089BFEF7DBFB2046FEF730FA51
:10575000012501E04FF0FF35284609B0BDE8F08F84
:105760000549096809B9012005E00449096809B932
:10577000022000E0002070476C0000208C00002018
:105780000149086870470000640000202DE9F041DD
:105790004FF000085F48006800287DD15E4800682F
:1057A000451C5D480560002D1DD15C4800680068FF
:1057B00008B9012000E0002028B940F6C72258A10E
:1057C00060A0FAF779FD55480768624800685349B8
:1057D00008606048076060480068401C5E490860D7
:1057E000FEF73AFE00BF5D480068854277D300BFF0
:1057F0004A480068006808B9012000E0002020B194
:105800004FF0FF305549086068E044480068C068C0
:10581000C4686668B54202D2504806605EE06069BE
:10582000D4E902128A60D4E902214A60211D42684B
:105830008A4201D1E1684160002262610168491E2B
:105840000160A06A98B1A06AD4E907128A60D4E91D
:1058500007214A6004F1180142688A4201D1216A95
:1058600041600022A2620168491E016000BF94F8F5
:105870002C10012088403A490968084338490860DB
:10588000E16A01EB8101374A02EB81014868A060BF
:105890008268E260211D00E033E08268516081602F
:1058A000E16A01EB81012F4A02EB81026261E16A48
:1058B00001EB81012B4A52F82110491CE26A02EBEC
:1058C0008202284B43F822102749E06A0968C96A16
:1058D00088428DD34FF001088AE700E000BF2248DC
:1058E0000068C06A00EB80001E4951F820000128C2
:1058F00001D94FF001081D48006808B14FF00108B8
:1059000004E01B480068401C194908604046BDE897
:10591000F08100008C000020640000205400002072
:105920002E2E5C2E2E5C4D6964646C657761726509
:10593000735C4672656552544F535C7461736B734C
:105940002E6300004572726F723A2025732C202559
:10595000640D0A005800002078000020800000201C
:1059600068000020C80500205000002074000020BE
:105970007000002070B505462C460026002D5ED034
:1059800030480068844201D1012000E0002028B99D
:1059900041F24F022CA135A0FAF78EFC206D28B9F8
:1059A00041F2500228A131A0FAF786FC206D401E7A
:1059B0002065E16CE06A884241D0206D00283ED12C
:1059C000201DFEF7E7FF40B994F82C100120884015
:1059D0002A490968814329480160E06CE062E06A75
:1059E000C0F12000A06194F82C10012088402349C8
:1059F0000968084321490860E16A01EB8101204AF6
:105A000002EB81014868A0608268E260211D826823
:105A100051608160E16A01EB8101194A02EB810268
:105A20006261E16A01EB8101154A52F82110491CBB
:105A3000E26A02EB8202124B43F822100126304642
:105A400070BD0000500000202E2E5C2E2E5C4D6993
:105A500064646C6577617265735C46726565525407
:105A60004F535C7461736B732E6300004572726FE9
:105A7000723A2025732C2025640D0A00680000204E
:105A8000C805002070B50646F068C4682CB940F619
:105A900082423CA144A0FAF70FFCA06AD4E90712A5
:105AA0008A60D4E907214A6004F1180142688A42F9
:105AB00001D1216A41600022A2620168491E016091
:105AC0003D48006800283DD16069D4E902128A602F
:105AD000D4E902214A60211D42688A4201D1E1686D
