:020000040800F2
:10000000F8070020290100089529000817010008B9
:100010001B0100081F010008230100080000000068
:10002000000000000000000000000000192D000882
:10003000490D0008000000006B2B00081B2D000874
:100040004301000843010008430100084301000880
:100050004301000843010008430100084301000870
:100060004301000843010008430100084301000860
:100070004301000843010008430100084301000850
:100080004301000843010008430100084301000840
:100090004301000843010008430100084301000830
:1000A0004301000843010008430100084301000820
:1000B000252D000843010008430100084301000802
:1000C0004301000843010008430100084301000800
:1000D00043010008430100084301000843010008F0
:1000E000430100084301000843010008DFF810D075
:1000F00000F020FC00480047E9500008AFF3008002
:10010000F80700201EF0040F0CBFEFF30881EFF397
:10011000098104F015BD0120F4E70220F2E7032075
:10012000F0E70420EEE70000064880470648004755
:10013000FEE7FEE7FEE7FEE7FEE7FEE7FEE7FEE797
:10014000FEE7FEE7232D0008ED000008D2B201E033
:1001500000F8012B491EFBD270470022F6E710B5CC
:1001600013460A4604461946FFF7F0FF204610BD25
:10017000F0B480EA0102D40F4200B2EB410F02D288
:100180000246084611464A0042D0C30DDDB2C1F313
:10019000C752AD1A202D35DAC1F3160141F4000221
:1001A00004B15242C5F1200602FA06F12A41104478
:1001B000B3EBD05F23D0C4B1012DA0EBC35009DC59
:1001C000F0BC4FF0004202EAC352DBB200F500007F
:1001D00000F048B9400000F1807000EBC350A0F17E
:1001E000807040EAD170490009E0490841EAC071D5
:1001F000A0EBC35000F50000400800EBC350F0BC7A
:1002000000F027B96142012202EB4101001BF6E731
:10021000F0BC704781F00041AAE780F00040A7E7FA
:1002200080EA010210B502F00043400022D04A00EB
:100230001FD0010E01EB1261C0F35600C2F356024B
:1002400040F4000042F40002A0FB022000047F39C9
:10025000140400D0401C50EA124001D44000491E52
:10026000C2B20C0604EBD010401C4008802A02D019
:1002700003E0002010BD20F00100002900DA00207A
:10028000184310BD30B480EA010202F0004530F09E
:10029000004221F0004013D090B1C30DD40DC2F341
:1002A0001601C0F31600E41A41F4000140F4000204
:1002B0007D34914201D3641C00E04900002C02DA35
:1002C00030BC002070474FF400000023914201D35E
:1002D000891A034340084FEA4101F7D151B19142D5
:1002E00002D14FF0004105E002D24FF0010101E0E0
:1002F0006FF0010103EBC450284430BC00F0A9B8F2
:10030000C10F80EAE0700844CA079623002100F07C
:10031000A9B896230022114600F0A4B800F00042CC
:1003200020F00040C10DC0F3160040F400007F290A
:1003300001DA00207047962903DCC1F19601C8401C
:1003400001E096398840002AF4D04042704720F0FE
:100350000040C10DC0F3160040F400007F2901DA0F
:1003600000207047962903DCC1F19601C840704710
:1003700096398840704700F0004230F000400AD0C3
:10038000C10D01F56071C0F3160042EA0151C208C7
:10039000400711437047002001467047002801DBE9
:1003A000C0F10040002901DBC1F1004181427047EA
:1003B000002801DBC0F10040002901DBC1F1004150
:1003C0008842704730B50B460146002020220124A8
:1003D00009E021FA02F59D4205D303FA02F5491B13
:1003E00004FA02F52844151EA2F10102F1DC30BD29
:1003F0002DE9F05F0546002092469B46884606465A
:10040000814640241BE0284641464746224600F0EC
:10041000B2FA53465A46C01A914110D311461846B3
:10042000224600F099FA2D1A67EB01084F46224642
:100430000120002100F090FA17EB00094E41201E28
:10044000A4F10104DFDC484631462A464346BDE8B4
:10045000F09F0029A8BF7047401C490008BF20F04A
:100460000100704710B4B0FA80FC00FA0CF050EABA
:10047000010404BF10BC704749B1CCF1200421FA3B
:1004800004F411FA0CF118BF012121430843A3EB36
:100490000C01CB1D4FEA00614FEA102042BF002043
:1004A00010BC704700EBC35010440029A4BF10BC1F
:1004B0007047401C490008BF20F0010010BC704785
:1004C000420005D0C0F3C7525242914201DC0020E5
:1004D000704700EBC1507047F0B4002802DCF0BC5C
:1004E00000207047C0F3C751C0F3160040F400006D
:1004F000CA0701D14000491E3F2202EB61050022DC
:1005000011464FF4000626FA01F31344D41884422E
:1005100001D8001B1A464000491C1729F3DD510081
:10052000814202D24FF0FF3100E0002102EBC550C2
:10053000F0BCFFF78EBF10B541000CD0C0F3C7511F
:10054000962908DC7E2909DC06DB410204D000F094
:10055000004040F07E5010BD002010BDC1F1960457
:10056000C4F1200100FA01F1E040FFF772FFA04062
:1005700010BDF0B400F0004221F0004120F0004036
:10058000CE0DC30DC1F3160141F40001C0F31600F6
:100590004C42154640F40000761E09E010EB440082
:1005A00002D582F0004240428842F7D840005B1EEC
:1005B000B342F9DA18B1F0BC0021FFF753BF284667
:1005C000F0BC70472DE9FE4F804681EA0300C00F62
:1005D0000C46009021F0004123F00045B8EB0200EA
:1005E000A94105D24046214690461C460B4602468C
:1005F00023F00040104347D0270DC7F30A00C3F390
:100600000A510290401A019040286BDAC3F313009C
:1006100040F4801B0098924620B10023D2EB030ADD
:1006200063EB0B0B01985946C0F14002504600F0B5
:1006300093F906460D4650465946019A00F0ABF92B
:1006400010EB08006141002487EA115284EAE77345
:100650001A4340D0009A62B3019A012A4FEA075226
:1006600015DC001B61EB02014FF0004202EA075269
:10067000CDE90042001C41F5801132462B4600F0C6
:10068000ABF903B0BDE8F08F40462146F9E7001B07
:1006900061EB0201001C41F5801300185B4120183A
:1006A000A2F5001747EB030140EAD570B6196D417A
:1006B00011E06D084FEA360645EAC0754FEA075269
:1006C000001B61EB0201001C41F5801149084FEA53
:1006D00030000019514132462B4603B0BDE8F04FBF
:1006E00000F06BB90098012240000023D0EB020219
:1006F00063EBE073009821464FEAE074B8EB00002A
:1007000061EB0401E9E783F000435BE781F000411E
:1007100058E72DE9FE4F81EA030404F0004421F07C
:10072000004100944FF0000B23F0004350EA010415
:100730005ED052EA03045BD0C3F30A54C1F30A55F6
:100740002C44A4F2F3340194A0FB0254C1F313012E
:1007500041F48011C3F3130343F4801301FB0244FB
:1007600000FB034E840A970A44EA815447EA835700
:10077000A4FB076802958D0A05FB07854FEA932CB9
:1007800004FB0C542705029D4FEA065847EA16372A
:10079000B5EB08056EEB070C870E920E47EA811742
:1007A00042EA8312A7FB0201B6EB0B0164EB0004E3
:1007B0002B0D43EA0C335E1844EB1C50DA465146CD
:1007C000E7FB0201C5F313044FEA0B3343EA14536A
:1007D0004FEA0432019C43EA0603A4F10C0402949C
:1007E000009CCDE900B400F0F7F803B0BDE8F08F4D
:1007F00000200146F9E72DE9F04D81EA030404F0F9
:10080000004B21F0004514464FF0000A23F0004150
:1008100050EA050220D054EA01021DD0C5F30A5760
:100820000246C5F31303C1F31300C1F30A5640F4A3
:10083000801543F48013A7EB0608101BD64608F278
:10084000FD3873EB050002D308F1010801E09218AE
:100850005B41B8F1000F03DA00200146BDE8F08DDE
:1008600000204FF48011064684460EE0171B73EB00
:10087000050705D3121B63EB050306434CEA010C85
:1008800049084FEA300092185B4150EA0107EDD168
:1008900052EA030012D082EA040083EA0501084309
:1008A00005D0101BAB4106D20122002306E0002236
:1008B0004FF0004302E06FF0010253101AEB060004
:1008C0004CEB085110EB0A0041EB0B01BDE8F04D79
:1008D00000F073B8C1F30A52C1F3130140F2FF33C1
:1008E00041F480119A4202DA00200146704740F23A
:1008F00033439A42A2F2334202DC524200F03BB848
:1009000000F02AB830B5041E71F1000404DB4FF08A
:100910000044404264EB0101141E73F1000405DB46
:100920001C464FF00043524263EB0403994208BF58
:10093000904230BD064C074D06E0E06840F00103F0
:1009400094E8070098471034AC42F6D3FFF7D2FB87
:10095000E45F000804600008202A04DB203A00FA63
:1009600002F1002070479140C2F1200320FA03F306
:10097000194390407047202A04DB203A21FA02F004
:100980000021704721FA02F3D040C2F120029140C9
:10099000084319467047202A06DBCB17203A41FA54
:1009A00002F043EAE07306E041FA02F3D040C2F1FC
:1009B0002002914008431946704710B5141E73F188
:1009C000000408DA401C41F1000192185B411A430F
:1009D00001D120F0010010BD2DE9F04D92469B465B
:1009E00011B1B1FA81F202E0B0FA80F22032904601
:1009F000FFF7B2FF04460F4640EA0A0041EA0B0146
:100A000053465A46084313D0114653EA010019D001
:100A1000C8F140025046FFF7AEFF05460E4650466D
:100A200059464246FFF798FF084305D0012004E0ED
:100A300020463946BDE8F08D0020054346EAE076C1
:100A40002C4337430A986305E40AA0EB0800002210
:100A5000FD0A44EA47540A3002D500200146E9E77E
:100A6000010510196941DDE9084500196941BDE832
:100A7000F04DA2E770B5044600252068806800F0BC
:100A8000010018B32068806820F0010021688860A8
:100A900000F086FE054613E000F082FE401B0228AF
:100AA0000ED92068806800F0010048B1A06A40F0CB
:100AB0001000A062E06A40F00100E062012070BD19
:100AC0002068806800F001000028E5D10020F6E7EA
:100AD00070B505466C6AA06A00F05000E0B9A06AE3
:100AE00040F40070A0622068806800F46020B0F5D7
:100AF000602F0DD1207B58B9A06A20F48070A062CD
:100B0000A06A00F4805018B9A06A40F00100A06209
:100B1000204600F085FA03E0206A016B28468847EA
:100B200070BD70B505466C6AA06A40F04000A062D6
:100B3000E06A40F00400E062204600F073FA70BD05
:100B400070B50446656A284600F06BFA70BD000077
:100B500038B504460025002000902068806800F029
:100B6000010078BB2068806840F00100216888603F
:100B7000194800681949B0FBF1F0009002E00098B4
:100B8000401E009000980028F9D100F009FE0546AB
:100B900019E000F005FE401B022814D92068806887
:100BA00000F0010078B9A06A40F01000A062E06A8D
:100BB00040F00100E06200BF002084F8240000BF84
:100BC000012038BD05E02068806800F001000028A1
:100BD000DFD00020F5E700000000002040420F00B9
:100BE00070B51249088803F053F9054610480168AA
:100BF0002846FFF70FFB04460E4801682046FFF722
:100C00000FFB0D4908600949488803F041F9054682
:100C10000A4801682846FFF7FDFA044608480168BB
:100C20002046FFF7FDFA0749086070BD4800002024
:100C3000540000204C0000206800002058000020D4
:100C4000500000206C00002010B50F4801684FF0E4
:100C50007E50FFF717FB04460C4801682046FFF75B
:100C600011FB0B490860084600680A4908600848FB
:100C7000006880F0004008490860084803F0A6F9C1
:100C800000F00EF810BD000060000020640000209D
:100C90005C0000204C000020500000204800002094
:100CA00070B50020194908601949086000241BE04C
:100CB0001849088803F0ECF80546144801682846EE
:100CC000FFF756FA114908601249488803F0E0F826
:100CD00005460F4801682846FFF74AFA0C490860A4
:100CE000012003F0F2FD641CB4F57A7FE0DB0A49D1
:100CF00006480068FFF7C6FA044908600649044838
:100D00000068FFF7BFFA0249086070BD5400002078
:100D1000580000204800002000007A4430B590F8C8
:100D200040500124AC40C56B6C600468636044684B
:100D3000102C04D10468A2600468E16003E0046838
:100D4000A1600468E26030BD70470000014800689F
:100D5000704700000800002001480068704700004C
:100D60000C00002070B5FFF73BFF02F015FC0546B4
:100D70002A46064801680648006803F04FFB04460F
:100D80002146044801F078FD70BD00006C00002091
:100D900068000020F401002001480068704700004E
:100DA00010000020F8B5044600260020009000BF87
:100DB00094F82400012801D10220F8BD012084F814
:100DC000240000BF2046FFF755FE06462046FFF7E9
:100DD000BFFE0646002E69D1A06A20F4885040F07C
:100DE0000200A062022000F08BFD34490968B1FBCB
:100DF000F0F04000009002E00098401E0090009843
:100E00000028F9D12068806840F0080021688860D7
:100E100000F0C6FC054616E000F0C2FC401B0A28A4
:100E200011D92068806800F0080060B1A06A20F045
:100E3000020040F01000A06200BF002084F82400EF
:100E400000BF0120B9E72068806800F00800002892
:100E5000E2D12068806840F004002168886000F0DA
:100E60009FFC054616E000F09BFC401B0A2811D9A8
:100E70002068806800F0040060B1A06A20F00200E1
:100E800040F01000A06200BF002084F8240000BFE2
:100E9000012092E72068806800F004000028E2D179
:100EA000A06A20F0020040F00100A06200BF002014
:100EB00084F8240000BF30467FE7000000000020D7
:100EC00038B5024600230020009000BF92F82400AD
:100ED000012801D1022038BD012082F8240000BF82
:100EE0004868072812D21068406B0C79641E04EB26
:100EF00084051F24AC40A0430D796D1E05EB8505CC
:100F00000C68AC4020431468606327E048680D28F3
:100F100012D21068006B0C79E41F04EB84051F24C7
:100F2000AC40A0430D79ED1F05EB85050C68AC4086
:100F300020431468206311E01068C06A0C790D3CEE
:100F400004EB84051F24AC40A0430D790D3D05EB57
:100F500085050C68AC4020431468E06208680A28E4
:100F600012D31068C0680C780A3C04EB44050724CF
:100F7000AC40A0430D780A3D05EB45058C68AC40BC
:100F800020431468E0600FE0106800690C7804EBFF
:100F900044050724AC40A0430D7805EB45058C685B
:100FA000AC402043146820610868102802D008680B
:100FB000112827D1174C1068A0421ED110688068F4
:100FC00000F40000F0B91068806840F40000146874
:100FD000A0600868102815D10F4800680F4CB0FBBE
:100FE000F4F000EB80004000009002E00098401E0A
:100FF000009000980028F9D104E0906A40F02000A9
:101000009062012300BF002082F8240000BF184630
:1010100061E70000002401400000002040420F0072
:1010200070477047704700002DE9F04104460027E3
:1010300000250026A84614B90120BDE8F081A0686B
:1010400010B1207D00B100BFA06A30B90020E0627D
:1010500084F82400204600F089F82046FFF70AFDB6
:101060000746A06A00F01000002873D1002F71D14C
:10107000A06A20F4885040F00200A062E169606834
:101080000843217B40EA41000643A068B0F5807F19
:1010900002D0A068012802D14FF4807000E0002047
:1010A0000543207D012811D1207B38B9A069401E5D
:1010B0004FF4006141EA4030054307E0A06A40F088
:1010C0002000A062E06A40F00100E0622068406811
:1010D00020F46940284321684860206880682149DD
:1010E0000840304321688860A068B0F5807F02D056
:1010F000A068012802D14FF4807000E00020B0F514
:10110000807F03D1208A401E4FEA00582068C06AC1
:1011100020F4700040EA08002168C86220688068F6
:1011200011490840B04208D10020E062A06A20F0D6
:10113000020040F00100A06211E0A06A20F002006D
:1011400040F01000A062E06A40F00100E062012778
:1011500005E0FFE7A06A40F01000A06201273846D2
:101160006BE70000FDF7E1FFFE0E1FFF10B58AB030
:1011700004461C492068884232D10020069007901E
:1011800008900990029003900490059000BF1648C3
:10119000806940F40070144988610846806900F451
:1011A0000070019000BF00BF00BF0846806940F09A
:1011B000040088610846806900F00400019000BFC7
:1011C00000BF03200290039002A9084800F052F9E2
:1011D000022006908003089006A800F00FFC00BFD4
:1011E0000AB010BD00240140001002400008014078
:1011F0002DE9F04104460D46164600275749206860
:10120000884203D056492068884205D15348001DC2
:10121000006800F4702000E0002000287ED100BFAC
:1012200094F82400012802D10220BDE8F0810120B9
:1012300084F8240000BF2046FFF78AFC0746002FF1
:101240006DD1A06A40F60161884340F48070A062CD
:1012500043492068884209D14048001D006800F4D5
:10126000702008B9012002E0002000E0012078B1E0
:10127000A06A20F48010A0622068406800F48060BA
:1012800000B3A06A20F4005040F48050A06219E03E
:10129000A06A40F48010A06230492068884203D0E0
:1012A0002F492068884205D12C48001D006800F4B1
:1012B000806000E0002028B1A06A20F4005040F4D3
:1012C0008050A062A06A00F4805020B1E06A20F053
:1012D0000600E06201E00020E06200BF002084F828
:1012E000240000BF1F48216A88621F48216AC86223
:1012F0001E48216A08636FF00200216808602068B8
:10130000806840F4807021688860226802F14C0196
:1013100033462A46206A00F05FF801E01AE014E044
:101320002068806800F46020B0F5602F06D1206846
:10133000806840F4A000216888600CE02068806824
:1013400040F480102168886005E000BF002084F828
:10135000240000E00127384667E700000024014030
:1013600000280140D10A0008410B0008230B0008A7
:101370000146002209B901207047164B0868C01ABF
:101380001423B0FBF3F08000086412480838C863E7
:10139000022081F821000868026843F6F070824359
:1013A000D1E901031843CB6818430B6918434B6913
:1013B00018438B691843CB691843024308680260DD
:1013C00000208863012081F82100002081F820009E
:1013D00000BFD1E7080002402DE9F04104460D4668
:1013E00016461F464FF0000800BF94F82000012861
:1013F00002D10220BDE8F081012084F8200000BF66
:1014000094F8210001282CD1022084F8210000202A
:10141000A0632068006820F00100216808603B4656
:10142000324629462046FFF779FCE06A30B1206851
:10143000006840F00E00216808600BE0206800683A
:1014400020F00400216808602068006840F00A006D
:10145000216808602068006840F001002168086089
:1014600006E000BF002084F8200000BF4FF0020813
:101470004046BFE72DE9F8470346002294466EE157
:101480004FF0010808FA02F4D1F8008008EA0400DD
:10149000A0427DD1DFF8DCA2D1F80480A8EB0A09D4
:1014A000D0453AD014DCB8F1030F50D009DCB8F1C4
:1014B000000F31D0B8F1010F1CD0B8F1020F49D1A3
:1014C00020E0B8F1110F18D0B8F1120F42D11EE090
:1014D000B9F5881F25D006DCB9F5803F20D0B9F5D5
:1014E000801F37D11AE0B9F5001F18D0B9F5041FD5
:1014F00030D117E0D1F80CC02DE0D1F80C8008F104
:10150000040C28E0D1F80C8008F1080C23E0D1F895
:101510000C8008F10C0C1EE000BF00BF00BF00BF34
:1015200000BF00BFD1F80880B8F1000F02D14FF022
:10153000040C0BE0D1F80880B8F1010F03D14FF093
:10154000080C1C6102E04FF0080C5C6103E04FF0F6
:10155000000C00E000BF00BFFF2801D8984601E062
:1015600003F104084646FF2802D84FEA820803E048
:10157000A2F108084FEA88084746D6F800804FF0E5
:101580000F0909FA07F928EA09080CFA07F900E037
:1015900088E048EA0908C6F80080D1F8048008F01D
:1015A0008058B8F1805F7DD100BFDFF8CC81D8F8DA
:1015B000188048F00108DFF8C091C9F81880C846C3
:1015C000D8F8188008F00108CDF8008000BF00BFEF
:1015D0004FEAB9384FEA920958F829504FEA827811
:1015E0004FEA18794FF00F0808FA09F825EA0805BC
:1015F000DFF88881434502D14FF0000816E0DFF89C
:101600008081434502D14FF001080FE0DFF874817B
:10161000434502D14FF0020808E0DFF86C814345F2
:1016200002D14FF0030801E04FF004084FEA82793D
:101630004FEA197908FA09F848EA0505DFF84C81FC
:101640004FEA920948F82950D1F8048008F480182C
:10165000B8F5801F0AD1DFF83881D8F8008048EA51
:101660000008DFF82C91C9F8008009E0DFF820813C
:10167000D8F8008028EA0008DFF81491C9F8008043
:10168000D1F8048008F40018B8F5001F10D1DFF875
:10169000008108F10408D8F8008048EA0008DFF863
:1016A000F09000E05AE009F10409C9F800800DE06B
:1016B000DFF8DC8008F10408D8F8008028EA000888
:1016C000DFF8CC9009F10409C9F80080D1F8048052
:1016D00008F40038B8F5003F0ED1DFF8B480A8F167
:1016E0000408D8F8008048EA0008DFF8A490A9F1BF
:1016F0000409C9F800800DE0DFF89480A8F104081F
:10170000D8F8008028EA0008DFF88490A9F10409DD
:10171000C9F80080D1F8048008F48038B8F5803F1B
:101720000ED1DFF86C80A8F10808D8F8008048EAEC
:101730000008DFF85C90A9F10809C9F800800DE005
:10174000DFF84C80A8F10808D8F8008028EA0008E3
:10175000DFF83C90A9F10809C9F80080521CD1F8C3
:10176000008028FA02F8B8F1000F7FF489AEBDE8D6
:10177000F88700000000111000100240000801402E
:10178000000C01400010014000140140080001401D
:10179000080401400AB1016101E00B0403617047D4
:1017A0000148006870470000F0000020034800680E
:1017B000034909780844014908607047F000002097
:1017C000F800002010B50848006840F010000649F5
:1017D0000860032000F080F80F2000F007F800F008
:1017E0002BF8002010BD00000020024070B5044618
:1017F0000E4800784FF47A71B1FBF0F00C4909689B
:10180000B1FBF0F5284600F0E7FC08B1012070BDFF
:10181000102C07D200222146501E00F01EF8054869
:10182000046001E00120F2E70020F0E7F80000206A
:1018300000000020F4000020704701460846002800
:1018400009DB00F01F0301229A4043099B0003F1CA
:10185000E023C3F8002100BF70472DE9F05F804608
:101860000D461646002701F091FD074639462A46E7
:10187000334601F00700C0F1070ABAF1040F02D99C
:101880004FF0040A01E0C0F1070AD14600F1040A52
:10189000BAF1070F02D24FF0000A01E0A0F1030AEB
:1018A000D4464FF0010A0AFA09FAAAF1010A0AEA33
:1018B000020A0AFA0CFA4FF0010B0BFA0CFBABF11F
:1018C000010B0BEA030B4AEA0B042146404601F0E8
:1018D00065FDBDE8F09F000000BF00F00702064B69
:1018E00019684FF6FF031940044B0B4343EA0221EA
:1018F000014B196000BF70470CED00E00000FA05D5
:101900002DE9F04706464FF0000800250027002487
:10191000A146012E31D0022E56D0102E5FD1324872
:101920004468006800F0807008B33048C4F3834115
:10193000475C04F4803078B12B484068C0F34040E5
:101940002B4911F8008004F4803040B12948B0FBE5
:10195000F8F000FB07F502E0274807FB00F52248F6
:10196000406800F48000B0F5800F01D1A94603E083
:1019700068000321B0FBF1F932E01B48046A04F46B
:101980004070B0F5807F05D104F0020010B14FF433
:10199000004918E004F44070B0F5007F07D1124808
:1019A000406A00F0020010B149F640490BE004F42F
:1019B0004070B0F5407F06D10B48006800F400305D
:1019C00008B14FF224490BE000F08CF90649496850
:1019D000C1F38131491C4900B0FBF1F900E000BFBF
:1019E00000BF4846BDE8F08700100240825F000853
:1019F000925F000800127A0000093D00F8B5044625
:101A000000260025207800F0010000286BD0002778
:101A10004348C06900F0805070B900BF4048C069B9
:101A200040F080503E49C8610846C06900F08050CF
:101A3000009000BF00BF01273A48006800F48070A2
:101A4000B0B93848006840F4807036490860FFF744
:101A5000A7FE064606E0FFF7A3FE801B642801D917
:101A60000320F8BD2F48006800F480700028F2D0F1
:101A70002B48006A00F440752DB3A08800F4407034
:101A8000A84220D02648006A20F44075012026494B
:101A90000860002008602248056205F0010090B14E
:101AA000FFF77EFE064608E0FFF77AFE801B41F254
:101AB0008831884201D90320D3E71948006A00F031
:101AC00002000028F0D01648006A20F440706168D7
:101AD000084313490862012F04D10846C06920F069
:101AE0008050C86100BF207800F00200022807D1B2
:101AF0000B48406820F44040A1680843084948600A
:101B0000207800F01000102807D10548406820F424
:101B10008000E1680843024948600020A1E7000016
:101B200000100240007000404004424270B504467C
:101B30000D460CB9012070BD5A48006800F007003E
:101B4000A8420ED25748006820F0070028435549A4
:101B500008600846006800F00700A84201D0012094
:101B6000E9E7207800F0020002281DD1207800F07B
:101B70000400042805D14C48406840F4E0604A491C
:101B80004860207800F00800082805D146484068E1
:101B900040F46050444948604348406820F0F000F9
:101BA000A168084340494860207800F0010078B3FC
:101BB0006068012806D13C48006800F4003090B904
:101BC0000120B8E76068022806D13748006800F0B5
:101BD000007040B90120AEE73348006800F0020011
:101BE00008B90120A7E73048406820F00300616889
:101BF00008432D494860FFF7D3FD064609E0FFF78B
:101C0000CFFD801B41F28831884202D9032092E740
:101C100007E02548406800F00C006168B0EB810FD8
:101C2000EDD12048006800F00700A8420ED91D48F9
:101C3000006820F0070028431A4908600846006839
:101C400000F00700A84201D0012074E7207800F0DE
:101C50000400042807D11448406820F4E060E168DB
:101C6000084311494860207800F00800082808D18E
:101C70000D48406820F46050216940EAC1000A49DB
:101C8000486000F03FF808494968C1F30311074A6A
:101C9000515CC8400649086006480068FFF7A6FD89
:101CA000002048E70020024000100240545D000878
:101CB00000000020F4000020014800687047000088
:101CC0000000002000B5FFF7F7FF04494968C1F3A1
:101CD0000221034A515CC84000BD000000100240D0
:101CE000645D000800B5FFF7E7FF04494968C1F3E8
:101CF000C221034A515CC84000BD000000100240F0
:101D0000645D000870B5002100220024002300203B
:101D1000134D696801F00C05F5B1042D02D0082DB2
:101D200019D101E00F4819E00F4DC1F38346AB5DB7
:101D300001F4803555B10A4D6D68C5F340450B4E31
:101D4000725D084D5D43B5FBF2F402E0084D03FB04
:101D500005F4204602E000BF024800BF00BF70BD8E
:101D60000010024000127A00705F0008805F0008D7
:101D700000093D00F8B504460CB90120F8BD2078F3
:101D800000F00100002878D0F848406800F00C000E
:101D900004280CD0F548406800F00C00082811D148
:101DA000F248406800F48030B0F5803F0AD1EF4837
:101DB000006800F4003000285FD0606800285CD123
:101DC0000120DBE700BF6068B0F5803F06D1E7483F
:101DD000006840F48030E549086028E0606858B940
:101DE000E248006820F48030E04908600846006856
:101DF00020F4802008601AE06068B0F5A02F0BD1B5
:101E0000DA48006840F48020D84908600846006835
:101E100040F4803008600AE0D448006820F4803044
:101E2000D24908600846006820F48020086000BF9E
:101E3000606888B1FFF7B4FC054606E0FFF7B0FC28
:101E4000401B642801D9032098E7C848006800F4C3
:101E500000300028F2D010E0FFF7A2FC054606E0B3
:101E6000FFF79EFC401B642801D9032086E7BF488A
:101E7000006800F400300028F2D1207800F0020061
:101E8000022857D1B948406800F00C0050B1B7485B
:101E9000406800F00C00082818D1B448406800F4ED
:101EA000803098B9B148006800F0020020B1206984
:101EB000012801D0012061E7AC48006820F0F8005B
:101EC000616940EAC100A949086033E02069E8B1CE
:101ED0000120A7490860FFF763FC054606E0FFF70D
:101EE0005FFC401B022801D9032047E79F48006898
:101EF00000F002000028F2D09C48006820F0F800B2
:101F0000616940EAC1009949086013E000209849DE
:101F10000860FFF745FC054606E0FFF741FC401B63
:101F2000022801D9032029E79048006800F0020048
:101F30000028F2D1207800F0080008282DD1A069EF
:101F4000B8B101208B490860FFF72AFC054606E07E
:101F5000FFF726FC401B022801D903200EE7834827
:101F6000406A00F002000028F2D0012000F0C0FE1C
:101F700013E000207F490860FFF712FC054606E0E9
:101F8000FFF70EFC401B022801D90320F6E6774834
:101F9000406A00F002000028F2D1207800F004002E
:101FA000042873D100277148C06900F0805070B9CF
:101FB00000BF6E48C06940F080506C49C861084657
:101FC000C06900F08050009000BF00BF01276A4840
:101FD000006800F48070B0B96748006840F4807011
:101FE00065490860FFF7DCFB054606E0FFF7D8FB14
:101FF000401B642801D90320C0E65F48006800F454
:1020000080700028F2D000BFE068012806D1574850
:10201000006A40F001005549086227E0E06858B9BD
:102020005248006A20F00100504908620846006AE0
:1020300020F00400086219E0E06805280BD14B4845
:10204000006A40F00400494908620846006A40F00E
:10205000010008620AE04548006A20F00100434997
:1020600008620846006A20F00400086200BFE068C9
:10207000A0B1FFF795FB054609E0FFF791FB401B78
:1020800041F28831884202D9032077E622E03748BE
:10209000006A00F002000028EFD012E0FFF780FB9A
:1020A000054608E0FFF77CFB401B41F2883188427F
:1020B00001D9032062E62D48006A00F002000028E2
:1020C000F0D1012F05D12948C06920F0805027495F
:1020D000C86100BFE069C8B32448406800F00C0044
:1020E000082860D0E069022848D10020204908660D
:1020F000FFF756FB054606E0FFF752FB401B0228A0
:1021000001D903203AE61948006800F00070002861
:10211000F2D1206AB0F5803F07D11448406820F41E
:102120000030A168084311494860D4E90801084318
:102130000E49496821F4741108430C494860012094
:102140000B490866FFF72CFB054607E03DE0FFF76B
:1021500027FB401B022801D903200FE60348006833
:1021600000F000700028F2D02FE0000000100240C4
:1021700000004242800442420070004000201449A6
:102180000866FFF70DFB054606E0FFF709FB401B5D
:10219000022801D90320F1E50E48006800F0007024
:1021A0000028F2D111E0E069012800D1E6E50948F4
:1021B000466806F48031206A814204D106F4701129
:1021C000606A814201D00120D8E50020D6E50000F8
:1021D000000042420010024070B504462546681EC9
:1021E000B0F1807F01D301200FE0681E4FF0E021A5
:1021F00048610F214FF0FF3001F0D0F800204FF080
:10220000E021886107200861002070BD10B50446F8
:102210000CB9012010BD94F83D0028B9002084F8C5
:102220003C00204600F025F8022084F83D00211DE6
:10223000206800F08DFD012084F8460000BF84F87E
:102240003E0001213F20015540200155412001550C
:1022500000BF00BF012084F8420043200155442004
:1022600001554520015500BF012084F83D000020A4
:10227000D0E77047014691F83D00012801D00120C8
:102280007047022081F83D000868C06840F00100F6
:102290000B68D860124B086898420BD00868B0F100
:1022A000804F07D00F4B0868984203D00E4B086848
:1022B00098420CD10868806800F00702062A0CD00A
:1022C0000868006840F001000B68186005E00868C5
:1022D000006840F001000B6818600020D0E70000A3
:1022E000002C014000040040000800402DE9F041AE
:1022F00004460D461646002700BF94F83C0001280E
:1023000002D10220BDE8F081012084F83C0000BF2A
:1023100036B1042E1BD0082E31D00C2E5ED145E0F4
:102320002946206800F060FD2068806940F00800C0
:10233000216888612068806920F004002168886134
:1023400020688069296908432168886148E0294636
:10235000206800F079FD2068806940F40060216801
:1023600088612068806920F4806021688861206825
:102370008069296940EA01202168886130E02946A6
:10238000206800F095FD2068C06940F008002168D1
:10239000C8612068C06920F004002168C861206815
:1023A000C069296908432168C86119E02946206885
:1023B00000F0B2FD2068C06940F400602168C86187
:1023C0002068C06920F480602168C8612068C06905
:1023D000296940EA01202168C86101E0012700BFA6
:1023E00000BF00BF002084F83C0000BF384689E7EA
:1023F00010B504460CB9012010BD94F83D0028B971
:10240000002084F83C00204600F026F8022084F8E2
:102410003D00211D206800F09BFC012084F846004F
:1024200000BF84F83E0001213F20015540200155A6
:102430004120015500BF00BF012084F84200432025
:102440000155442001554520015500BF012084F865
:102450003D000020D0E7000010B586B004461749C3
:102460002068884228D100BF1548806940F4006088
:10247000134988610846806900F40060019000BF3C
:1024800000BF00BF0846806940F00400886108462C
:10249000806900F00400019000BF00BF4FF4E060CD
:1024A000029002200390002004900320059002A9CE
:1024B0000448FEF7DFFF00BF06B010BD002C01404E
:1024C000001002400008014070B504460D4615B9E1
:1024D00094F83E000BE0042D02D13F20005D06E0A1
:1024E000082D02D14020005D01E04120005D01285F
:1024F00001D0012070BD1DB9022084F83E000EE01D
:10250000042D03D102213F20015508E0082D03D1FD
:1025100002214020015502E0022141200155012203
:102520002946206800F04EFC19492068884201D1F4
:10253000012000E0002028B12068406C40F40040F9
:10254000216848641249206888420BD02068B0F1A5
:10255000804F07D00F492068884203D00E49206879
:1025600088420CD12068806800F00706062E0CD047
:102570002068006840F001002168086005E02068DC
:10258000006840F00100216808600020B2E7000008
:10259000002C0140000400400008004030B5044613
:1025A0000D4600222946206800F00CFC21492068D5
:1025B000884201D1012000E0002090B100BF2068D6
:1025C000006A41F21111084050B92068006A891070
:1025D000084028B92068406C20F400402168486415
:1025E00000BF00BF2068006A41F21111084050B9D5
:1025F0002068006A8910084028B92068006820F027
:1026000001002168086000BF1DB9012084F83E0068
:102610000EE0042D03D101213F20015508E0082DD3
:1026200003D101214020015502E001214120015543
:10263000002030BD002C01407047704710B50446A3
:102640000CB9012010BDA06900B100E000BF94F8F2
:10265000410028B9002084F84000204600F02AF804
:10266000242084F841002068C06820F400502168CC
:10267000C860204600F084FD2068006920F4904086
:10268000216808612068406920F02A0021684861BB
:102690002068C06840F400502168C8600020606471
:1026A000202084F8410084F842000020606300BFCD
:1026B000C8E7000010B586B004462D49206888425E
:1026C00054D100BF2B48806940F00400294988613B
:1026D0000846806900F00400019000BF00BF00BF01
:1026E0000846C06940F40030C8610846C06900F47B
:1026F0000030019000BF00BF00BF0846406940F0B5
:10270000010048610846406900F00100019000BFE7
:1027100000BF0420029002200390012004900320B7
:10272000059002A91448FEF7A5FE0820029000209B
:102730000390049002A91048FEF79CFE0F48104930
:1027400008600020486000210D4881608021C16040
:10275000002101614161202181610902C161FEF70F
:1027600007FE00BF0648E063446200BF06B010BD2C
:102770000044004000100240000801406C0002408C
:102780009C03002070B504460D46164694F842009E
:1027900020280BD105B10EB9012070BD00202063A7
:1027A00032462946204600F069FDF6E70220F4E7AC
:1027B00070477047F7B50446154694F84100202845
:1027C00036D1019800B10DB90120FEBD01982062FB
:1027D000A584E58400206064212084F84100154828
:1027E000A16B88621448A16BC8621448A16B08638E
:1027F0000020A16B486301AE23681A1D31682B4687
:10280000A06BFEF7E9FD6FF040002168086000BF93
:1028100000BF2168143151E8001F41F08000216899
:10282000143141E80002002AF3D100BF0020CCE7B8
:102830000220CAE789300008E1300008612F000853
:102840007047704710B502F0B5FC0749886000205A
:1028500048600648086002F0ADFC05498860002029
:1028600048600448086010BDF4010020CDCC4C3D08
:10287000000200200AD7233C2DE9F05F04460F46F2
:1028800004F1080003F01CF9814649462068FDF771
:102890006FFC804641462068FDF7F4FC054629465A
:1028A0004FF07E50FDF7B6FC83463946FDF7B8FC85
:1028B000804628466168FDF7B3FC82464146FDF735
:1028C00057FC064666603046BDE8F09F70B502F0E2
:1028D00029FD124A0021124802F0B6FE4FF4C870DA
:1028E00001F0F3FF01F0B6FB00200E49086000F094
:1028F00053FE0C490860094A0021084602F0A4FE74
:1029000000F034F807480068FDF735FD044622461C
:102910000B4605A000F016FD70BD0000E4CB96400C
:102920000000D040440000207A65726F5F656C65DE
:1029300063747269635F616E676C65203D20256614
:102940000D0A000010B5064800F03AF8054800F0FE
:1029500037F8054800F034F802F0E4FC10BD000040
:102960005001002080010020B001002010B502F0CD
:10297000E9FC054800F024F8044800F021F8044878
:1029800000F01EF810BD0000500100208001002062
:10299000B00100207047000010B5034C206061605A
:1029A000A260236110BD0000B001002010B5034CEF
:1029B00020606160A260236110BD00005001002012
:1029C00010B504460020E0616062A062206202F05F
:1029D000F1FBE06210BD000010B5034C20606160A7
:1029E000A260236110BD0000800100202DE9FE4F90
:1029F00004460E4604F12C0003F062F802903146C2
:102A00002068FDF70DFC01903046E169FDF7B0FB51
:102A1000834660680299FDF703FC4FF07C510090FB
:102A2000FDF7FEFB82465946FDF7FAFB8146A16A97
:102A3000FDF79EFB0746206980F00049394648466D
:102A4000FDF7B6FC03D2206980F0004007E038466D
:102A50002169FDF7ADFC01D2206900E03846074648
:102A60003046E169FDF7D6FB8246A168FDF7D8FB49
:102A700081460299FDF706FC80460021A069FDF71A
:102A800097FC1DD2A0690299FDF772FB8246514660
:102A9000A069FDF7F7FB814649464FF07E50FDF7F0
:102AA000B9FB41460090FDF7BBFB82464846216AD0
:102AB000FDF7B6FB83465146FDF75AFB804600BF43
:102AC00039460198FDF754FB81464146FDF750FB1E
:102AD0000546206980F0004929464846FDF768FC14
:102AE00003D2206980F0004007E028462169FDF705
:102AF0005FFC01D2206900E028460546002160699C
:102B0000FDF756FC29D22846616AFDF783FB824611
:102B10000299FDF7B7FB814648466169FDF748FC1D
:102B200009D260690299FDF77BFB8246616AFDF775
:102B30001FFB054610E0606980F0004A4946504698
:102B4000FDF736FC08D260690299FDF769FB824601
:102B5000616AFDF762FB054600BFA7626562E66138
:102B6000C4F820802846BDE8FE8F70472DE9FE4F4F
:102B70000746384602F094FC044621465448FFF7C5
:102B800035FF0546FEF7E8F806465249FDF742FBD9
:102B9000804604E050494046FDF73CFB80464F49E3
:102BA0004046FDF705FCF5D304E04B494046FDF7F0
:102BB000DFFA80464A494046FDF7F0FBF5D3404630
:102BC00001F0C0FC81464FF04041FDF729FB06466D
:102BD0004FF07C512046FDF7EBFB19D24FF07C51B2
:102BE0002046FDF717FB4FF080410290FDF74AFBAE
:102BF00083464FF07E51FDF7BBFA824651464FF0B7
:102C00007E50FDF73FFB81463146FDF709FB064646
:102C100031462846FDF7ACFA05462D49086821469D
:102C2000FDF7FEFA029000212046FDF7B7FB02D225
:102C300084F0004000E0204681464FF07C51484639
:102C4000FDF7E8FA83462749FDF71CFB824602F0B0
:102C500089FF064600213046FDF7A0FB00D2002682
:102C600021490298FDF70EFB009002F07BFF83469E
:102C70001E493046FDF7D4FA59460190FDF7D0FAC7
:102C800082462946FDF774FA05461148006980F02E
:102C9000004629463046FDF78BFB04D20C480069FC
:102CA00080F0004009E00A4801692846FDF780FBF2
:102CB00002D20748006900E02846054600F06CFC97
:102CC000064632460021284602F0BEFCBDE8FE8FD3
:102CD000500100207671C740DB0FC940DB0F49402F
:102CE000DB0F49C0CDCC4C3F0AD7A33D9A99993F01
:102CF00008B508490968C9084FF47A72B1FBF2F1C6
:102D00004143009100BF00BF00994A1E0092002974
:102D1000F9D108BD00000020704710B5FEF746FD50
:102D200010BD704708480068006900F0010050B10C
:102D30006FF001000449096808610448006800F563
:102D400080300249086070470C030020E400002036
:102D500010B50268184B984208D0B0F1804F05D0EA
:102D6000164B984202D0164B984203D122F07002C3
:102D70004B681A43104B984208D0B0F1804F05D0F1
:102D80000E4B984202D00E4B984203D122F440726F
:102D9000CB681A4322F080034C6943EA04020260C4
:102DA0008B68C3620B688362034B984201D10B6945
:102DB00003630123436110BD002C01400004004067
:102DC0000008004030B501F01F05012404FA05F3A6
:102DD000046A9C430462046A01F01F0502FA05F5C7
:102DE0002C43046230BD000030B5026A056A25F04C
:102DF000010505624368846924F0700424F003042B
:102E00000D682C4322F002028D682A430D4DA84222
:102E100006D100BF22F00802CD682A4322F0040246
:102E2000084DA84207D123F4807323F400734D6941
:102E30002B438D692B43436084614D684563026277
:102E400030BD0000002C014030B5026A056A25F053
:102E5000100505624368846924F4E04424F4407456
:102E60000D6844EA052422F020028D6842EA05122A
:102E70000E4DA84207D100BF22F08002CD6842EA81
:102E8000051222F04002094DA84209D123F48063C3
:102E900023F400634D6943EA85038D6943EA8503A2
:102EA000436084614D688563026230BD002C01403F
:102EB00030B5026A056A25F4807505624368C46905
:102EC00024F0700424F003040D682C4322F40072F3
:102ED0008D6842EA05220F4DA84207D100BF22F4B7
:102EE0000062CD6842EA052222F48062094DA842C0
:102EF00009D123F4805323F400534D6943EA0513A9
:102F00008D6943EA05134360C4614D68C56302627D
:102F100030BD0000002C014030B5036A056A25F47D
:102F2000805505624468C26922F4E04222F440728E
:102F30000D6842EA052223F400538D6843EA053305
:102F4000064DA84204D124F480444D6944EA851416
:102F50004460C2614D680564036230BD002C0140CD
:102F600070B506460025746A20684069C0F3C01534
:102F700094F84100212805D125B10020E0842046A5
:102F800000F0EBF820684069C0F3801594F8420027
:102F9000222805D125B10020E085204600F0A7F8C1
:102FA000606C40F0100060642046FFF746FB70BD87
:102FB00070B505466C6A2868006800F0200000289B
:102FC00042D1E08500BF00BF21680C3151E8001FED
:102FD00021F4807021680C3141E80002002AF3D10D
:102FE00000BF00BF00BF2168143151E8001F21F06D
:102FF00001002168143141E80002002AF3D100BF2A
:1030000000BF00BF2168143151E8001F21F04000CB
:103010002168143141E80002002AF3D100BF2020CA
:1030200084F84200206B01280ED100BF00BF216848
:103030000C3151E8001F21F0100021680C3141E8EB
:103040000002002AF3D100BF00206063206B01283A
:1030500004D1A18D2046FFF7EFFA02E02046FFF7EA
:10306000A7FB70BD70B505466C6A01206063206BDC
:10307000012805D1A08D41082046FFF7DDFA02E0C6
:103080002046FFF796FB70BD70B505466C6A286850
:10309000006800F02000F8B90020E08400BF00BF05
:1030A0002168143151E8001F21F08000216814319B
:1030B00041E80002002AF3D100BF00BF00BF216831
:1030C0000C3151E8001F41F0400021680C3141E80B
:1030D0000002002AF3D102E02046FFF7B1FB70BDE9
:1030E00070B50446656A2846FFF7ABFB70BD00BFAC
:1030F00000BF02680C3252E8002F22F4907102687F
:103100000C3242E80013002BF3D100BF00BF00BF18
:103110000268143252E8002F22F0010102681432D2
:1031200042E80013002BF3D100BF016B01290ED13F
:1031300000BF00BF02680C3252E8002F22F01001DD
:1031400002680C3242E80013002BF3D100BF2021AB
:1031500080F8421000210163704700BF00BF026881
:103160000C3252E8002F22F0C00102680C3242E813
:103170000013002BF3D100BF202180F841107047CD
:1031800070B504462168096921F44051E268114391
:10319000226811612269A1681143626941EA02054E
:1031A0002168C96841F20C62914329432268D160C9
:1031B0002168496921F44071A26911432268516173
:1031C0002D4A2168914202D1FEF78CFD01E0FEF705
:1031D00079FD00EBC00101EB001162689200B1FBC8
:1031E000F2F100EBC00202EB001263689B00B2FB3D
:1031F000F3F26423B2FBF3F202EBC20303EB02121D
:10320000A1EB8201322202EB01116422B1FBF2F147
:1032100001F0F00100EBC00202EB001263689B00BA
:10322000B2FBF3F26423B2FBF3F201EB021200EB08
:10323000C00101EB001163689B00B1FBF3F100EBEF
:10324000C00303EB00136668B600B3FBF6F3642615
:10325000B3FBF6F303EBC30606EB0313A1EB830109
:10326000322303EB01116423B1FBF3F101F00F01F1
:1032700011442268916070BD0038014077B581B07B
:10328000044615460298A062A585002060642220AD
:1032900084F842002848E16B88622848E16BC862E4
:1032A0002748E16B08630020E16B486302AE326897
:1032B0002368191D2B46E06BFEF78EF800BF002037
:1032C000009020680068009020684068009000BF6F
:1032D00000BF206970B100BF00BF21680C3151E808
:1032E000001F41F4807021680C3141E80002002A7F
:1032F000F3D100BF00BF00BF2168143151E8001FA7
:1033000041F001002168143141E80002002AF3D1A4
:1033100000BF00BF00BF2168143151E8001F41F019
:1033200040002168143141E80002002AF3D100BFB7
:10333000002004B070BD0000B12F00086530000807
:10334000612F00080FB4054B10B503A9044A029879
:1033500000F01AFA10BC5DF814FB0000794C00086C
:10336000FC0000204100080218BF04200A0E18BF0C
:1033700040F001004FF07F4232EA010108BF40F007
:103380000200012808BF05207047000002480068BD
:10339000C0F30220704700000CED00E010B50028DB
:1033A00004DB0A07130E054A135406E00A07140E3D
:1033B000034A00F00F031B1FD45410BD00E400E0CB
:1033C00018ED00E00121FDF77BB8FCF7D1BE00212C
:1033D0000846FCF757BF61214FF0E040FDF770B899
:1033E0006FF05E010807FDF76BB800002DE9F04DA6
:1033F0000D4614464FF07F41B1EB440F9EBF4FF096
:10340000FF312960BDE8F08D4FF0004040EA042113
:10341000C4F3C750783810F01F024A4B4FEA601CC3
:10342000C2F120067B44C4F3C750A0F178004FEAF4
:10343000601003EB800053F82C3008BFD0E901C6C0
:1034400012D0D0F804C093402CFA06F73B438768AB
:103450000CFA02FC27FA06F8C06807FA02F2F040FC
:103460004CEA080C42EA0006A3FB0132ACFB01C0A7
:10347000A6FB016101EB0C068E4234BF4FF0010C3C
:103480004FF0000CC1186144BCF1000F02D0814222
:1034900002D903E0814201D2012000E00020104463
:1034A00000F120024FEA92188006CA0C40EA42302E
:1034B0004F03C5F80080FCF723FF82463846FCF72F
:1034C00028FF6FF01201FCF7FBFF07463046FCF7C0
:1034D00020FF6FF02501FCF7F3FF83463946504685
:1034E000FCF746FE5946FCF743FE00F500666FF315
:1034F0000B0651463046FCF78DFE3946FCF78AFE36
:103500005946FCF78AFE1049FCF78AFE07460F4928
:103510003046FCF785FE3946FCF72AFE07460C4983
:103520003046FCF77DFE3946FCF722FE14F0004FD2
:1035300008BFBDE8F08DC8F1805180F000402960DF
:10354000BDE8F08D9C2B0000DB0FC92F22AAFD29BE
:103550000000C92F02E008C8121F08C1002AFAD1D2
:1035600070477047002001E001C1121F002AFBD103
:10357000704700000149086070470000000100200A
:1035800070B5044603492046FCF7F2FD054600F0FD
:1035900091FC70BDDB0FC93F2DE9F041FDF7DCFB6D
:1035A00006460A4801680A480068FCF739FE0746E3
:1035B0003146FCF735FE0546064801682846FCF70B
:1035C00029FE044600F0CAF8BDE8F0813C00002066
:1035D00038000020440000202DE9FF5F82B0002168
:1035E000DDE90430020DDDF840B0034318D044F6A5
:1035F0001050A2F2FF3242431514119801281FD037
:10360000A5EB0B00401C5FEA000A4FF000064E4F8E
:10361000DFF83891B046504615D5CAF1000413E0E2
:10362000119801244AA3012801D16FEA0B010298E5
:10363000119AC0E90031C0E9024206B0BDE8F09F2E
:10364000CBF10000DFE704460021404A491842EB75
:103650000450CDE9001012E0E00707D032463B46A7
:1036600040464946FDF755F88046894632463B4676
:1036700010461946FDF74DF806460F466410002C1B
:10368000EAD1DDE90401DDE90023BAF1000F06DA31
:10369000FDF73FF842464B46FDF73BF805E0FDF7E6
:1036A000AAF842464B46FDF7A6F804460E4600220D
:1036B000284BFDF727F903D84FF0FF30014607E00C
:1036C0000022254B20463146FCF77CFFFDF702F92E
:1036D000102409E0002C0ADB0A220023FCF788FEF4
:1036E000039B30321A55641E50EA0102F2D1641C69
:1036F000039AC4F111031444119A012A03D0012240
:1037000008430DD10AE0084304D000204FF0110B0C
:10371000119072E7A3EB0B056D1E0DE05B4504DD18
:103720004FF0000205F1010504E003DA4FF000025A
:10373000A5F10105002AECD002981199C0E90231E7
:10374000C0E9004579E70000000014400000F03FA8
:10375000300000000000F0430000E03F70B5044678
:103760000849204601F052FA054600212846FCF798
:103770001FFE01D8284670BD02492846FCF7F8FC18
:10378000F9E70000DB0FC9402DE9FF4F95B09A46DD
:10379000884606460025EEE1252877D100242746F5
:1037A000F94A0121039400E0044316F8013F203B4D
:1037B00001FA03F01042F7D130782A2811D06FF0C7
:1037C0002F033078A0F13002092A16D8039A44F06A
:1037D000020402EB820203EB42021044761C0390C7
:1037E000EFE758F8042B0392002A03DA504244F41E
:1037F0000054039044F00204761C30782E2816D131
:1038000016F8010F44F004042A280DD06FF02F029F
:103810003078A0F13003092B09D807EB870302EBBE
:103820004303C718761CF3E758F8047B761C3078FE
:103830006C280FD006DC4C2817D068280DD06A28D9
:1038400014D104E0742810D07A280FD10DE044F48C
:1038500000140AE044F4801401E044F44014727847
:10386000824202D104F58014761C761C30786628DA
:103870000BD013DC582877D009DC002875D04528F8
:10388000F6D04628F4D047281AD193E118E06328EF
:1038900035D0642879D0652812D18BE1702873D097
:1038A00008DC6728F1D069286FD06E280DD06F280A
:1038B00006D1ACE073282CD0752874D0782853D06A
:1038C0005246179990476D1C54E1C4F302500228E8
:1038D00009D003280DD0D8F8001004280DD00D60B1
:1038E00008F1040846E1D8F80010EA17C1E90052CF
:1038F000F6E7D8F800100D80F2E70D70F0E718F841
:10390000041B8DF8001000208DF80100EB4601200B
:1039100003E058F804BB4FF0FF3061074FF000019F
:1039200002D40DE009F101018946B9420FDA81455F
:10393000F8DB1BF809100029F4D108E009F10101B6
:1039400089468142FADB1BF809100029F6D1039859
:103950005346A0EB090721463846179A00F080FA33
:10396000284400EB090507E044E008E10DE01BF8FE
:10397000010B524617999047B9F10109F7D2534606
:1039800021463846179AF2E039E00A21C4F3025280
:103990004FF0000B0091022A06D058F8040BC11713
:1039A000032A09D00AE023E008F1070020F007020B
:1039B000F2E80201904605E000B2C117042A01D1E5
:1039C00040B2C117002906DA0A460021404261EBE5
:1039D00002012D2202E0220504D52B228DF80420BD
:1039E000012203E0E20701D02022F7E7914657E0E9
:1039F0000A2100E010214FF0000B00910BE0102194
:103A00004FF0000B44F004040827009103E0082065
:103A10004FF0000B0090C4F30252022A05D058F870
:103A2000040B0021032A08D008E008F1070020F069
:103A30000702F2E80201904603E080B2042A00D1B6
:103A4000C0B24FF0000922072AD53278702A07D079
:103A5000DDF800C08CF0100C5CEA0B0C05D00EE019
:103A600040228DF80420012208E050EA010306D02C
:103A700030238DF804308DF8052002229146009BFA
:103A800083F0080353EA0B030AD150EA010201D183
:103A9000620705D530228DF804204FF001097F1E02
:103AA0003278582A04D039A20C920CAA02920BE068
:103AB0003BA2F9E75B46009AFCF79AFC0C9B9B5CE7
:103AC000029A521E0292137050EA0102F2D1029839
:103AD00004A9081A00F1200B600702D524F48034F1
:103AE00000E001275F4502DDA7EB0B0000E00020AE
:103AF00000EB0B01009003984944401A0390E00347
:103B000006D453462146179A039800F0A9F90544B4
:103B1000002706E001A85246C05D179990476D1C2A
:103B20007F1C4F45F6DBE0030CD553462146179A20
:103B3000039800F095F9054404E0302052461799A7
:103B400090476D1C0099481E00900029F5DC08E0A4
:103B50000298029952460078491C029117999047A1
:103B60006D1CBBF10001ABF1010BF1DC5BE100F07E
:103B700065F90544761C307800287FF40DAE19B045
:103B80002846BDE8F08F00000928010030313233AB
:103B90003435363738396162636465660000000089
:103BA0003031323334353637383941424344454673
:103BB00000000000600700D4062708F1070020F08D
:103BC0000700F0E80223804603F0004C5FEA0C0097
:103BD00001D097A009E0200501D596A005E0E007F7
:103BE00001D095A001E0AFF24C001390307823F0A3
:103BF000004365280CD006DC452809D046281DD096
:103C000047287FD13BE0662818D067287AD136E074
:103C10000021112F01DB112000E0781CCDE900010B
:103C200004A90CA8FFF7D8FCDDE90D010C9A4FF0B0
:103C3000000B07F10109109200914EE04FF0004097
:103C40000097CDE9011004A90CA8FFF7C5FCDDE938
:103C50000D020C9B0F994FF0000B914610930092B0
:103C600011B9791C00EB0109B7EB090003D4C0F1CD
:103C7000FF3B07F10109A9EB0700019042E0012F8A
:103C800000DA01270021112F01DD112000E0384664
:103C9000CDE9000104A90CA8FFF79EFCDDE90D01A8
:103CA0000C9A00914FF0000BB946109221070FD4E7
:103CB000009A4A4503DA914601E0A9F10109B9F1F8
:103CC000010F05DD109AA9F10101515C3029F4D0F2
:103CD000B84202DA10F1040F03DA0121CDE9011034
:103CE00010E0002803DC8344A9EB000102E0411C42
:103CF000494500DD8946A0EB0B00401C01904FF0C8
:103D000000400290200705D40198484502DB4FF09F
:103D1000FF30019000208DF84B0002980DF14B0709
:103D2000B0F1004F25D002200C902B200D9002986E
:103D300000280CDA404202902D200D9007E00A2165
:103D40000298FCF73FFB3031029007F8011D0C99F7
:103D5000481E0C900029F2DC02980028EFD1791E51
:103D60000D980870307800F0200040F0450007F80A
:103D7000020D11A8C01BC01D02901398007800B15D
:103D8000012000EB0901019801EBE0710298014468
:103D90000398401A401E0390E00306D45346214680
:103DA000179A039800F05CF805441398007818B14E
:103DB0005246179990476D1CE00323D55346214680
:103DC000179A039800F04CF805441BE0BBF1000F74
:103DD00007DB0098584504DD1098179910F80B0080
:103DE00001E0179930205246904701980BF1010BE2
:103DF000401E05F10105019004D12E20524617996D
:103E000090476D1CB9F10001A9F10109DEDC05E064
:103E100017F8010B5246179990476D1C0299481EDE
:103E200002900029F4DC53462146179A03989EE637
:103E30002D0000002B000000200000002DE9F041C3
:103E4000044600251E461746880404D405E039467A
:103E50002020B0476D1C641EF9D52846BDE8F081CE
:103E60002DE9F041044600251E469046C80301D5C1
:103E7000302700E02027880404D505E04146384675
:103E8000B0476D1C641EF9D52846BDE8F0810000DE
:103E900070B504462046FCF73CFA06460449FCF798
:103EA000BFF905464FF08B41FCF7ECF970BD0000FF
:103EB000333353402DE9F05F07464FF00008384692
:103EC000FFF74CFC074625493846FCF771FA06D83F
:103ED00022493846FCF79EF907464FF00108204971
:103EE0003846FCF765FA04D21C493846FCF795F9C8
:103EF00007461C493846FCF793F982465046FCF7C2
:103F000026FA0446802C02D37F24E50507E02046EC
:103F1000FCF7FFF981465146FCF77FF90546124A46
:103F200052F824101346621C53F82200FCF772F971
:103F300083462946FCF774F981460B4850F8241053
:103F40004846FCF715F90646B8F1000F03D086F095
:103F50000040BDE8F09F3046FBE70000DB0F494022
:103F6000DB0FC93F83F9A2426C5D0008FEB507462E
:103F70000C4615461E4600200090019002900094C9
:103F80000195029669463846FCF79AFFFEBD00008F
:103F900010B50C480C490860002048604FF480714F
:103FA000094881600121017302210161002101752D
:103FB00081614FF46021C161FDF736F80248FCF7DA
:103FC000F1FE10BD002401405402002010B504464B
:103FD000FFF7DEFF0723012200210848FFF7C6FF95
:103FE0000723022201210548FFF7C0FF00F086FCED
:103FF000022221460148FDF7FBF810BD54020020C3
:1040000010B500220721362000F0F4FF28B9002265
:104010000821362000F0EEFF10B10120074908709A
:104020004FF4805006490860002048608860C860EE
:1040300001F0C0F80249086110BD00000400002032
:104040002801002010B502480088FCF762F910BD75
:10405000060000202DE9F84F6B4602220C21362085
:1040600000F0BAFE28B10120394908700020BDE8EF
:10407000F88F9DF801009DF8001001F00F0140EA53
:1040800001243448048034494868FCF739F907466C
:104090002046FCF73EF980463946FCF7BBF805465A
:1040A0002D490868FCF72CF982462C49FCF7B8F832
:1040B000074625F0004839464046FCF779F90FD20B
:1040C00000212846FCF774F901D2254800E0254874
:1040D00007462149C8683946FCF74AF81E49C860B6
:1040E0001D4844602046FCF714F980464FF08B4190
:1040F000FCF7C8F807461B49FCF792F81A49086014
:104100001549C86818490968FCF732F8174908606A
:104110001148103001F0D4FC81460F4881681348E3
:104120000068FCF777F807464946FCF7ABF8064607
:104130000E4800680849886031460D48FEF79CFB30
:104140000C49086000200249087001208FE7000038
:10415000040000200600002028010020CDCC4C3FA8
:10416000DB0FC9C0DB0FC9400C0000200800002095
:1041700000020020100000202DE9F0474FF06842B7
:1041800002EB40030C460546B3F1654F3CBF02EB22
:104190004102B2F1654F80F0CD8000BFC0F3C7523D
:1041A000C1F3C753D21A1B2A06DD10F0004F14BF0B
:1041B00087488848BDE8F08712F11A0F2FDA11F00E
:1041C000004F06D010F0004F0CBF83488348BDE875
:1041D000F08721462846FCF755F80646FFF7C2F857
:1041E000042808BFFFF7FCF82846FFF7BBF8054690
:1041F0002046FFF7B7F804463046FFF7B3F8042D22
:1042000018BF052D08D1042C18BF052C04D1002897
:1042100004BF0220FFF7AEF93046BDE8F087420048
:10422000B2EB410F25D910F0004F19BF6C4F6D4E06
:104230006D4F6E4E224685F0004415460A4680F0CA
:10424000004110460A1A5200B2F1807F3ED2484027
:104250006749DFF8A0A110F0004F18D04FF03F4899
:104260003846FBF7D7FF074651463046FBF7D2FFEB
:1042700017E011F0004F04BF00263746E2D010F0DF
:10428000004F19BF5C4F5D4E5D4F5E4EDAE74FF059
:104290007C583846FBF76CFF074651463046FBF723
:1042A00067FF064641462846FBF7BAFF2146FBF763
:1042B0005FFF824621464046FBF7B2FF2946FBF7E7
:1042C000ACFF5146FBF7DEFF044604E021462846DA
:1042D000FBF7D8FF04460146FBF7A2FF80464A4998
:1042E000FBF79EFF4949FBF743FF4146FBF798FF69
:1042F0004749FBF73DFF4146FBF792FF4549FBF776
:1043000037FF4146FBF78CFF4349FBF731FF05467A
:1043100041462046FBF784FF2946FBF781FF3146E3
:10432000FBF726FF2146FBF723FF3946BDE8F047A0
:10433000FBF71EBF4FF07F42B2EB400F28BFB2EB3E
:10434000410F03D2BDE8F047FFF73FB840EA010351
:104350005B0008BF44F0FF410AD0B2EB400F08BF3A
:10436000B2EB410F06D125F0804024F08041054694
:104370000C4613E7B2EB400F12BF5FEA410345F072
:10438000FF4004F000413FF409AFB2EB410F12BF10
:104390005FEA400205F0004044F0FF413FF4FEAE0A
:1043A0004A0092EA40033FF5F9AE002AACBF4FF055
:1043B0009F464FF03E563146FBF732FF05463146E9
:1043C0002046FBF72DFF044628462146E6E600007E
:1043D000DB0FC9BFDB0FC93FDB0F4940DB0F49C013
:1043E0000000C9BF22AAFDB90000C93F22AAFD39B9
:1043F0000060ED3EC30ACE37000049C022AA7DBA54
:104400000000494022AA7D3A2DAD65BD8FB8D53D4B
:104410000FB511BE61C84C3EA8AAAABE2DE9F05F37
:1044200004460E461546274631461148FBF7F8FE6E
:10443000814610492046FBF7F3FE82464946FBF7CA
:10444000E9FE80462846FFF735FD83463946FBF7EF
:10445000E7FE81462846FFF793F883464146FBF77F
:10446000DFFE82464946FBF7D5FEBDE8F09F00001F
:104470003ACD933F3ACD13BF2DE9F84F8046FCF774
:1044800065FC8246284801685046FBF7C9FE814614
:10449000FCF762FC009025490098FBF7BBFE06463E
:1044A00004E023493046FBF7B5FE06462149304675
:1044B000FBF77EFFF5D304E01D493046FBF758FEBD
:1044C00006461D493046FBF769FFF5D3494640468D
:1044D000FBF7A0FE8346144801685846FBF7A0FE90
:1044E00082463146FBF744FE0746144C144D2146E4
:1044F0003846FBF75DFF01D2274605E029463846DE
:10450000FBF74CFF00D22F4631463846FBF782FEC0
:104510008346054801685846FBF782FE82464946B5
:10452000FBF726FEBDE8F88F380000207671C74003
:10453000DB0FC940DB0F4940DB0F49C061C3D33EED
:104540002E6EE3BE2DE9F843044602464F48694605
:10455000B0EB420F09D94FF0E640B0EB420F94BFE9
:1045600000204FF0FF30009030E0494B22F0004037
:10457000834271D947492046FBF752FEFBF7DBFF28
:104580008046FBF7CBFE00F0030000904249404616
:10459000FBF746FE054641494046FBF741FE06460D
:1045A0003F494046FBF73CFE07463E494046FBF785
:1045B00037FE2146FBF731FE3946FBF72BFE31462D
:1045C000FBF728FE2946FBF725FE04462546009CFE
:1045D000002C45DB294614F0010F08461CD0FBF7E0
:1045E0001FFE06463049FBF71BFE3049FBF715FE60
:1045F0003146FBF715FE2E49FBF7BAFD3146FBF7B6
:104600000FFE2946FBF70CFE2946FBF7B1FD14F01F
:10461000020F1CD0BDE8F883FBF702FE05462549D2
:10462000FBF7FEFD2449FBF7A3FD2946FBF7F8FD48
:104630002249FBF79DFD2946FBF7F2FD4FF07E5125
:10464000FBF796FD14F0020F08BFBDE8F88380F079
:104650000040BDE8F883FFE71046FEF7C7FEB4E769
:104660006800B0F17F4F3CBF4FF07E50BDE8F8834B
:1046700007D14FF00100FEF77DFFBDE8F843FEF7DC
:10468000A6BE2846BDE8F843FEF79CBEB61F927E44
:10469000490E494683F9223F1A61342C0020A23387
:1046A00000A0FD390000C93F336D4C39DA82083C67
:1046B000A0AA2ABEB93AB2BACA9F2A3DDDFFFFBE00
:1046C00010B5FCF74FFB0149086010BD8C000020BD
:1046D0002DE9F04101F0F0FA6E4AD179907901F0BC
:1046E000B1FA6D4908606B4A517B107B01F0AAFA60
:1046F0006A4908606748C07B6649897B40EA0120B7
:1047000004B22046FBF7FCFD05466549FBF7BAFD00
:1047100064490860FFF79EFC0646FFF7D1FFFCF7EF
:104720001BFB0746604801683846FBF779FD0546E4
:1047300000F036FE044600F029FF16B15B48007811
:1047400058B100205A49087000F016FE00221146A8
:10475000104600F045FDBDE8F0815648006800F0C5
:1047600039FD554988420AD900205149087000F0A6
:1047700003FE00221146104600F032FDEBE700F088
:1047800033FE40B9002000F0F7FD0022114610462C
:1047900000F026FDDFE7FCF7D9FA0546424801683C
:1047A0002846FBF73DFD04464148007868B9434878
:1047B00004604FF07E513B480068FBF731FD4049F3
:1047C000086001203A49087049E04FF07E513548B1
:1047D0000068FBF725FD8046394801684046FBF735
:1047E00019FD05464FF07E512E480068FBF718FD75
:1047F00033490860294631480068FBF7B9FC2F4966
:10480000086000212846FBF7D3FD11D22D49204630
:10481000FBF7AEFC8046294801684046FBF7BEFD29
:104820001CD228492046FBF7A3FC2449086015E068
:1048300000212846FBF7B2FD10D222492046FBF7A3
:10484000E9FC80461D4801684046FBF7B1FD05D2F2
:104850001C492046FBF7DEFC1849086000BF1748DA
:104860000068FFF709FE154908600846006800F077
:1048700029FE0746012000F07FFD10480068FEF782
:1048800075F93A460D480168012000F0A9FC00BF07
:1048900061E700003C0100202C00002028000020DF
:1048A00000007A443000002038000020040000207E
:1048B0007100002034000020A08601007400002058
:1048C000780000208FC2F53D704710B5044603E024
:1048D0004FF47A7000F005F8201EA4F10104F7D11E
:1048E00010BD30B5044600F065FC054600BF284603
:1048F00000F070FCA042FAD330BD000008B500BF44
:104900001548406940F00100134948610846406974
:1049100000F00100009000BF00BF1048104908607F
:10492000002048604FF480610D4841618021C160E2
:1049300049000161002181604FF48051C161202153
:104940008161FCF715FD00BF05480649086208466D
:104950000349486200BF08BD001002400800024041
:10496000840200205402002008B500BF14484069AA
:1049700040F00100124948610846406900F001001A
:10498000009000BF00BF0F480F490860102048602A
:1049900000210D4841618021C160002101618160D9
:1049A0004FF48051C16120218161FCF7E1FC00BF1F
:1049B00005480649886308460349486200BF08BDA8
:1049C0000010024080000240C80200205403002072
:1049D0002DE9F04104464FF019404E49002500EB07
:1049E000440088424AD84C492046FBF719FCFBF7A3
:1049F000A2FD8046FBF792FC064648494046FBF77D
:104A00000FFC074646494046FBF70AFC2146FBF7E8
:104A100004FC3946FBF7FEFB04464249FBF700FC69
:104A20004149FBF7A5FB2146FBF7FAFB6FF041413B
:104A3000FBF79EFB2146FBF7F3FB3C49FBF798FB9A
:104A40002146FBF7EDFB0146394806F003047844A4
:104A500050F82400FBF7E4FB3649794451F8241060
:104A6000FBF786FB3449794451F82410FBF780FBAF
:104A7000B11085BBBDE8F041FBF722BD4FF0FF410F
:104A800031EA040018D04FF0CE41B1EB440F84BF9F
:104A90004FF07E50BDE8F0812849B1EB440F28BFAC
:104AA0000125A0D20220FEF765FD14F0004F0ED0C4
:104AB000BDE8F041FEF794BC204614F5000F04BF9A
:104AC0000020BDE8F081BDE8F041FEF77BBCBDE809
:104AD000F041FEF780BCFBF7F3FC04000BD0B4F10F
:104AE000FF4F0FD0FEF73EFC042808BFFEF778FC0E
:104AF0002046BDE8F0810220FEF73CFDBDE8F04114
:104B0000FEF76EBC0220FEF735FDBDE8F041FEF772
:104B100062BC00000000501E3BAAB840F4FD0537FF
:104B20000070313E12BB2A3D12BB2A3EFFFF7F3F81
:104B300062150000461500002A1500000000A0853F
:104B400004460D4600F006F82946204600F014F809
:104B500000BFFEE70748006820F4004005490860F0
:104B60000020044910390860091D0860091D08600B
:104B700070470000442C01400D4A0E4B1A601A4643
:104B800050600D4A12689A600B4A121D1268DA6072
:104B9000094A0C3212681A61074A103212685A61C7
:104BA0008A699A614A69DA61CA691A6270470000C3
:104BB00031544C460401002028ED00E02DE9F04777
:104BC00007460D4616460E493846FBF7F1FB00D264
:104BD0000B4F0C493846FBF7E1FB00D2094F0A495D
:104BE0003846FBF71DFB814600F0F4FC8046FBF7DE
:104BF00095FB04B2200A28703470BDE8F0870000ED
:104C0000C3D5A3430AD7A3C30000C84270B5054665
:104C100020F00040C0F1FF400C46C00F05D124F049
:104C20000040C0F1FF40C00F17D02846FBF7A1FCA1
:104C30006FEAD05111F0FF0F08BF70BDE917B1EB5B
:104C4000E07F08BF70BD014664F31E01BDE87040FF
:104C50000A4601461046FBF7E0BA4FF07F40B0EB42
:104C6000450F18BF5FEA4400DFD10120FEF782FC48
:104C7000BDE87040FEF7ABBB00BF054A126802F00A
:104C80004002002AF9D0C2B2014B1B1D1A607047C6
:104C90000044004070B505460E462648264909786E
:104CA000455425480078401C142190FBF1F201FB8B
:104CB00012002149087021480078142804DA1F489E
:104CC0000078401C1D4908701C48007814282EDB11
:104CD000194804781748005D552827D104F11300BE
:104CE000142190FBF1F201FB12001249085CFF282D
:104CF0001CD100200AE02118142291FBF2F302FBE0
:104D000013110C4A515C3154411CC8B21428F2DB17
:104D100000200A49087000F04DFA09490860094866
:104D20000068401C07490860012070BD00BF0020DA
:104D3000FBE70000E0010020E1000020E20000208D
:104D400034000020D400002008B505480068009019
:104D500000BF0098411E00910028FAD108BD000054
:104D6000EC00002000B585B000BF1948806940F014
:104D70000800174988610846806900F00800009023
:104D800000BF00BF00BF0846806940F0080088618E
:104D90000846806900F00800009000BF00BF4FF493
:104DA00040600190112002900020039003200490A5
:104DB00001A90848FCF75EFB4FF4806005491031FB
:104DC000086040000860FFF7BFFF05B000BD0000AD
:104DD00000100240000C01402DE9F04106468846D3
:104DE00015461F4605B117B90120BDE8F08100F056
:104DF000D1F87106080E00F0A1F800F035F818B1EE
:104E000000F0E0F80120F0E7404600F097F800F0ED
:104E10002BF818B100F0D6F80120E6E700F0BAF858
:104E2000012101EB4601C8B200F088F800F01CF83F
:104E300018B100F0C7F80120D7E700240DE000F01A
:104E40002FF83855691EA14201D1012100E000214F
:104E5000084600F051F8601CC4B2AC42EFDB00F031
:104E6000B1F80020C1E7000010B54FF400600B4915
:104E70000860FFF769FF4FF4806008490860FFF79A
:104E800063FF064808380068C0F3C0244FF0806014
:104E900002490860FFF758FF204610BD100C014082
:104EA00070B500244FF4006012490860002517E037
:104EB0006006040E4FF080600E490860FFF744FF63
:104EC0004FF480600B490860FFF73EFF094808383F
:104ED0000068C0F3C02008B144F00104681CC5B2EA
:104EE000082DE5DB4FF0806002490860FFF72CFFDA
:104EF000204670BD100C014010B5044624B14FF49B
:104F000000600D49086003E04FF000600A49086046
:104F1000FFF71AFF4FF4806007490860FFF714FF9E
:104F20004FF0806004490860FFF70EFF4FF4006007
:104F30000149086010BD0000100C014070B5044626
:104F400000251DE004F0800020B14FF400601049FE
:104F5000086003E04FF000600D4908606006040E31
:104F6000FFF7F2FE4FF4806009490860FFF7ECFE9E
:104F70004FF0806006490860FFF7E6FE681CC5B286
:104F8000082DDFDB4FF400600149086070BD0000B0
:104F9000100C014010B54FF4006009490860401042
:104FA0000860FFF7D1FE4FF0006005490860FFF789
:104FB000CBFE4FF0806002490860FFF7C5FE10BDD0
:104FC000100C014010B54FF08060094908604000A6
:104FD0000860FFF7B9FE4FF4806005490860FFF7ED
:104FE000B3FE4FF4006002490860FFF7ADFE10BD4C
:104FF000100C014070B504460D461646FFF7CAFF77
:105000006106080EFFF79AFFFFF72EFF18B1FFF7B2
:10501000D9FF012070BD2846FFF790FFFFF724FF5E
:1050200018B1FFF7CFFF0120F4E73046FFF786FF06
:10503000FFF71AFF18B1FFF7C5FF0120EAE7FFF7F6
:10504000C1FF0020E6E7000000B585B000BF0E48B4
:10505000806940F010000C4988610846806900F0C2
:105060001000009000BF00BF4FF4005001900020DE
:105070000290012003900320049001A90348FCF74B
:10508000F9F905B000BD0000001002400010014019
:1050900010B5012211460248FCF77CFB10BD000050
:1050A000000C014000B585B000BF0D48806940F09C
:1050B00008000B4988610846806900F008000090EC
:1050C00000BF00BF01200190029002200390032046
:1050D000049001A90348FCF7CDF905B000BD00001C
:1050E00000100240000C0140FCF76CFB4FF4E01094
:1050F00000F0B2FC00F002FDFFF7D4FFFFF732FE34
:10510000FFF7A2FF4FF4E13000F0AEFD00214FF4B5
:10511000B46000F00DFAFEF773FFFFF725FCFFF710
:10512000B7FF174B174A00211748FDF73FFC174BF5
:10513000002211461648FDF74FFC144B0022114681
:105140004FF07C50FDF728FC124813498861134842
:10515000486113481349486113494861FFF7B4FB9C
:10516000FBF772FDFDF76EFBFDF7B0FB14220F4954
:105170000F48FDF71FFB01E0FFF7AAFAFCE700006C
:105180000000D0406F12033ACDCC4C3E00002040CE
:105190000AD7233CA69B443B500100200000A042BC
:1051A0000000484280010020B001002014000020CF
:1051B0005403002000BF064801684FF08040406A59
:1051C00082B2034800688142F5D188187047000018
:1051D000E400002000B50346FFF7ECFFC01A00BD55
:1051E0002DE9F04706460F46904600250EB145F0E2
:1051F00001053948007808B145F0020537480068D4
:10520000FFF7E8FF3649884201D945F004053548E3
:10521000007808B145F00805FBF798FD8146324853
:1052200001684846FAF7FCFF04463048007830B978
:105230002F488463C46301202C4908700FE02C4878
:10524000816B2046FBF7AAF801D2294884632848DD
:10525000C16B2046FBF7ACF801D22548C463254852
:105260000068FFF7B7FF22498860FFF7A3FF2149D5
:1052700008601F484068401C1D4948601E4800687F
:10528000C8601E4800680861084645611C480068FF
:1052900088610846C7610462C0F82480FBF77CFD82
:1052A0008146114801684846FAF7BAFF10498862FA
:1052B00014480068C862144800680863FBF74CFD96
:1052C0000B494863FEF7BEFE8146FBF740F80849EC
:1052D0000864BDE8F08700000400002034000020CE
:1052E000A08601008500002038000020E00000209A
:1052F00090000020DC000020D40000208800002066
:10530000D80000208C00002030000020044B1B68D7
:105310005863034B1B689963014B1B68DA63704742
:105320000C02002010B500210548FDF7CDF804213E
:105330000348FDF7C9F808210148FDF7C5F810BD7D
:105340000C02002010B500200A4909684863094989
:105350000968886307490968C86300210548FDF7A3
:105360001DF904210348FDF719F908210148FDF74B
:1053700015F910BD0C02002010B50446074800784E
:10538000844200D110BD14B1FDF7DCFA01E0FDF755
:10539000EDFA0248047000BFF4E70000700000203E
:1053A00010B504460D492046FFF730FC04460C4971
:1053B0002046FAF7FDFF05D208492046FAF72AFFF2
:1053C000044609E007492046FAF7E8FF04D20349FA
:1053D0002046FAF7CDFE0446204610BDDB0FC9403B
:1053E000DB0F4940DB0F49C070B50021234800683E
:1053F000FAF7D4FF04D22148006880F0004001E0B1
:105400001E4800680546FFF7D5FE04461C48007894
:1054100068B11C480068FFF7DDFE1B49884201D2D5
:10542000002070BD002016490870184908701849FE
:105430002846FAF7BDFF1BD21448007828B901208E
:10544000124908701348046015E012480068FFF71D
:10545000C1FE114988420ED9012009490870094846
:1054600004600E480068401C0C4908600020D8E722
:105470000020064908700120D3E700008C000020BE
:10548000850000208000002080841E008400002011
:105490009A99993F7C000020400D0300880000206D
:1054A00070B50446204600F00DF806460349FAF7A9
:1054B000B7FE05460249FAF7E5FE70BD0000344329
:1054C000DA0F49402DE9F0410446FBF73FFC07465F
:1054D000134801683846FAF7A3FE06462146FAF754
:1054E0009CFE05460F492846FFF790FB05460E49EE
:1054F0002846FAF75DFF05D20A492846FAF78AFEE0
:10550000054609E009492846FAF748FF04D205494B
:105510002846FAF72DFE05462846BDE8F081000032
:1055200038000020DB0FC940DA0F4940DA0F49C0CC
:1055300030B587B005460C461C216846FAF70DFECB
:1055400010481149086008464460C5602021816008
:10555000FCF74EFF60200090002001900290002296
:1055600069460948FCF7C2FE042269460648FCF772
:10557000BDFE082269460448FCF7B8FEFFF7E2FECC
:1055800007B030BD002C01400C0200207CB5054660
:105590006A4601A92846FFF711FB0B480068C0F1D5
:1055A0001404022C09D9142C07D89DF804000749CB
:1055B00048709DF80000887004E005480068401CB1
:1055C000034908607CBD00008400024014000020F4
:1055D000D800002070B50546FAF7ADFF0446014635
:1055E0002846FAF717FE15F0004F4FF07F410ED016
:1055F000B0F13F4F28BFB1EB400F0ED2B0F17C5F4E
:105600001DDDB1EB400F1AD313E0044617E0B0F1F3
:105610003F4F08D9B1EB400F05D34FF07E512046E4
:10562000FAF7F8FDF1E7B0F17C5F08DBB1EB400F72
:1056300005D34FF07E512046FAF79AFDE5E728465C
:1056400064F31E0070BD00002DE9F74F8AB0834659
:1056500091460B990846FAF7E3FD594605905846DE
:10566000FAF7DEFD04900599FAF782FD069000F046
:10567000DDF90990E5490998FAF79AFE0FD2E34857
:105680000999FAF7FFFD069058460699FAF7C8FD02
:10569000834606990B98FAF7C3FD0B9000BF0021D3
:1056A0000B98FAF77BFE23D059465846FAF7B8FD17
:1056B00004900B990846FAF7B3FD03900499FAF7A2
:1056C00057FD059000F0B2F90690D14801680698A0
:1056D000FAF7D8FD804658460B99FEF74DFD49462E
:1056E0000590FAF745FD0690FEF738F881460DE083
:1056F000C74801685846FAF7C5FD8046C54948467F
:10570000FAF736FD0690FEF729F88146C249404671
:10571000FAF744FE01D2C04807E0C0494046FAF714
:1057200047FE01D2BD4800E040468046BC4948469D
:10573000FAF7A8FD0690FAF70AFE471C062F00D9D3
:1057400006273846FAF7E5FDB5490290FAF768FDF5
:1057500049460390FAF75EFD0490FEF7ABFBB149B2
:105760000590FAF75DFD41460690FAF759FD82462D
:105770003846FAF7CEFD4FF07E510190FAF74AFD18
:10578000A7490290FAF74CFD49460390FAF745FD08
:105790000490FEF78FFBA3490590FAF741FD4146BF
:1057A0000690FAF73DFD079051464FF07E50FAF70C
:1057B00031FD06900799FAF72DFD0890072F7DD24D
:1057C000DFE807F0C60424446486A6004FF0804159
:1057D0000898FAF757FD069050460799FAF7C8FC63
:1057E00005900699FAF7C4FC04464FF080410898EA
:1057F000FAF748FD06900799FAF7BAFC05464FF00C
:1058000080410898FAF73EFD0646A5E04FF080413A
:105810000898FAF737FD51460690FAF7A9FC0446B6
:105820004FF080410898FAF72DFD069050460799F1
:10583000FAF79EFC05900699FAF79AFC05464FF098
:1058400080410898FAF71EFD064685E04FF080413A
:105850000898FAF717FD04464FF080410898FAF7C8
:1058600011FD069050460799FAF782FC05900699BB
:10587000FAF77EFC05464FF080410898FAF702FDE2
:1058800006900799FAF774FC064665E04FF08041F0
:105890000898FAF7F7FC04464FF080410898FAF7A9
:1058A000F1FC51460690FAF763FC05464FF0804143
:1058B0000898FAF7E7FC0690504600E048E00799A0
:1058C000FAF756FC05900699FAF752FC064643E0B3
:1058D0004FF080410898FAF7D5FC06900799FAF73F
:1058E00047FC04464FF080410898FAF7CBFC054688
:1058F0004FF080410898FAF7C5FC0690504607998A
:10590000FAF736FC05900699FAF732FC064623E0D2
:105910004FF080410898FAF7B5FC06905046079979
:10592000FAF726FC05900699FAF722FC04464FF098
:1059300080410898FAF7A6FC05464FF08041089888
:10594000FAF7A0FC51460690FAF712FC064603E06F
:1059500000240025002600BF00BF00212046FAF7E2
:105960001DFD01D2002009E04FF07E512046FAF7DC
:105970001FFD02D24FF07E5000E020460446002179
:105980002846FAF70BFD01D2002009E04FF07E51C6
:105990002846FAF70DFD02D24FF07E5000E028466F
:1059A000054600213046FAF7F9FC01D2002009E053
:1059B0004FF07E513046FAF7FBFC02D24FF07E509A
:1059C00000E03046064618493046FAF729FC0390B5
:1059D000FAF7BDFC80B2144906902846FAF720FC7D
:1059E0000390FAF7B4FC80B20F4905902046FAF70D
:1059F00017FC0390FAF7ABFC80B20490DDE90512C6
:105A0000FFF784FC0DB0BDE8F08F00000000D0402F
:105A100040000020DB0FC93F46B613BF46B6133F18
:105A2000920A863FD7B3DD3F0000B44470B5054607
:105A3000FAF752FD044620F00040C0F1FF40C00FCD
:105A400008D025F00040C0F1FF40C00F04BF012086
:105A5000FDF790FD204670BD30B58FB0054601249E
:105A6000282105A8FAF779FB14216846FAF775FB97
:105A700001200590000406900020079002200C9061
:105A8000C1030D910E9505A8FCF774F904460CB1FD
:105A900000BFFEE70F20009002200190002002903E
:105AA0004FF4806003900020049002216846FCF7C8
:105AB0003DF804460CB100BFFEE70FB030BD00005A
:105AC0002DE9F0410446FFF775FB06462068351ABC
:105AD000266015B10648854202D90648BDE8F08126
