:020000040800F2
:100000000835002061020008993400080F2B000811
:1000100095340008210F0008253D0008000000006D
:10002000000000000000000000000000A101000826
:100030005310000800000000FD0100080539000809
:100040008502000885020008850200088502000874
:100050008502000885020008850200088502000864
:100060008502000885020008850200088502000854
:100070008502000885020008850200088502000844
:100080008502000885020008850200088502000834
:100090008502000885020008850200088502000824
:1000A0008502000885020008850200088502000814
:1000B000850200082D390008850200088502000825
:1000C00085020008850200088502000885020008F4
:1000D00085020008850200088502000885020008E4
:1000E00085020008850200088502000885020008D4
:1000F00085020008850200088502000885020008C4
:1001000085020008850200088502000885020008B3
:1001100085020008850200088502000885020008A3
:100120008502000885020008850200088502000893
:100130008502000885020008850200088502000883
:100140008502000885020008850200088502000873
:100150008502000885020008850200088502000863
:100160008502000885020008850200088502000853
:1001700085020008850200088502000800000000D2
:100180008502000885020008DFF810D000F0EAFBC5
:1001900000480047D95D0008AFF300800835002013
:1001A0002C4B19680868B0E8F04F80F30988BFF35A
:1001B0006F8F4FF0000080F311887047000000003F
:1001C00008480068006880F308884FF0000080F35A
:1001D000148862B661B6BFF34F8FBFF36F8F00DF35
:1001E00000BF00BF08ED00E0DFF80C00016841F43B
:1001F00070010160704700BF88ED00E0EFF30980F7
:10020000BFF36F8F134B1A681EF0100F08BF20ED5D
:10021000108A20E9F04F106009B44FF0500080F3CD
:100220001188BFF34F8FBFF36F8F07F0D3FC4FF0F0
:10023000000080F3118809BC19680868B0E8F04F25
:100240001EF0100F08BFB0EC108A80F30988BFF3CE
:100250006F8F7047BC000020EFF3058070470000EF
:100260000948016841F47001016008488047084866
:100270000047FEE7FEE7FEE7FEE7FEE7FEE7FEE7F4
:10028000FEE7FEE7FEE7000088ED00E01939000810
:10029000890100082DE9F05F0546002092469B4643
:1002A00088460646814640241BE02846414647468C
:1002B000224600F0B7F853465A46C01A914110D36F
:1002C00011461846224600F09EF82D1A67EB0108E9
:1002D0004F4622460120002100F095F817EB000957
:1002E0004E41201EA4F10104DFDC484631462A4677
:1002F0004346BDE8F09F40EA01039B0703D009E0B5
:1003000008C9121F08C0042AFAD203E011F8013B01
:1003100000F8013B521EF9D27047D2B201E000F85A
:10032000012B491EFBD270470022F6E710B5134699
:100330000A4604461946FFF7F0FF204610BD70B587
:10034000C1F30A5201F000450024C1F3130140F249
:10035000FF3341F480119A4201DA002070BD40F26F
:1003600033439A42A2F2334203DC524200F05AF87D
:1003700000E090402C43F1D0404270BD00F00042BC
:1003800030F000400AD0C10D01F56071C0F31600D5
:1003900042EA0151C208400711437047002001465C
:1003A000704701F0004330B421F0004150EA0102EF
:1003B00006D00A0DA2F56072C1F31301002A02DC17
:1003C00030BC00207047440F44EAC104C100E0186B
:1003D00030BC00EBC25000F035B830B50B460146DA
:1003E00000202022012409E021FA02F59D4205D3D4
:1003F00003FA02F5491B04FA02F52844151EA2F17E
:100400000102F1DC30BD202A04DB203A00FA02F1BF
:10041000002070479140C2F1200320FA03F31943F2
:1004200090407047202A04DB203A21FA02F0002194
:10043000704721FA02F3D040C2F1200291400843F4
:10044000194670470029A8BF7047401C490008BFE3
:1004500020F00100704710B4B0FA80FC00FA0CF0F4
:1004600050EA010404BF10BC704749B1CCF120042C
:1004700021FA04F411FA0CF118BF012121430843B9
:10048000A3EB0C01CB1D4FEA00614FEA102042BFE5
:10049000002010BC704700EBC35010440029A4BFDB
:1004A00010BC7047401C490008BF20F0010010BC80
:1004B00070472DE9FE4F804681EA0300C00F0C46CD
:1004C000009021F0004123F00045B8EB0200A94163
:1004D00005D24046214690461C460B46024623F074
:1004E0000040104347D0270DC7F30A00C3F30A5159
:1004F0000290401A019040286BDAC3F3130040F4D5
:10050000801B0098924620B10023D2EB030A63EBD4
:100510000B0B01985946C0F140025046FFF773FF9C
:1005200006460D4650465946019A00F02DFA10EB4A
:1005300008006141002487EA115284EAE7731A43F4
:1005400040D0009A62B3019A012A4FEA075215DCA3
:10055000001B61EB02014FF0004202EA0752CDE9B5
:100560000042001C41F5801132462B4600F02DFA66
:1005700003B0BDE8F08F40462146F9E7001B61EB70
:100580000201001C41F5801300185B412018A2F500
:10059000001747EB030140EAD570B6196D4111E031
:1005A0006D084FEA360645EAC0754FEA0752001B50
:1005B00061EB0201001C41F5801149084FEA30004F
:1005C0000019514132462B4603B0BDE8F04F00F010
:1005D000EDB90098012240000023D0EB020263EB4A
:1005E000E073009821464FEAE074B8EB000061EB3D
:1005F0000401E9E783F000435BE781F0004158E73D
:100600002DE9FE4F81EA030404F0004421F000418B
:1006100000944FF0000B23F0004350EA01045ED039
:1006200052EA03045BD0C3F30A54C1F30A552C44C5
:10063000A4F2F3340194A0FB0254C1F3130141F47A
:100640008011C3F3130343F4801301FB024400FB46
:10065000034E840A970A44EA815447EA8357A4FB6D
:10066000076802958D0A05FB07854FEA932C04FB6A
:100670000C542705029D4FEA065847EA1637B5EB9A
:1006800008056EEB070C870E920E47EA811742EAC7
:100690008312A7FB0201B6EB0B0164EB00042B0DE8
:1006A00043EA0C335E1844EB1C50DA465146E7FB34
:1006B0000201C5F313044FEA0B3343EA14534FEA24
:1006C0000432019C43EA0603A4F10C040294009C4A
:1006D000CDE900B400F079F903B0BDE8F08F002057
:1006E0000146F9E72DE9F04D81EA030404F0004BDF
:1006F00021F0004514464FF0000A23F0004150EA73
:10070000050220D054EA01021DD0C5F30A57024663
:10071000C5F31303C1F31300C1F30A5640F4801567
:1007200043F48013A7EB0608101BD64608F2FD38E9
:1007300073EB050002D308F1010801E092185B4158
:10074000B8F1000F03DA00200146BDE8F08D00206B
:100750004FF48011064684460EE0171B73EB050725
:1007600005D3121B63EB050306434CEA010C490851
:100770004FEA300092185B4150EA0107EDD152EA8E
:10078000030012D082EA040083EA0501084305D081
:10079000101BAB4106D20122002306E000224FF0DD
:1007A000004302E06FF0010253101AEB06004CEB1D
:1007B000085110EB0A0041EB0B01BDE8F04D00F0D1
:1007C000F5B800002DE9F041054621F000400C4647
:1007D000284309D0C4F30A5040F23341884205DD72
:1007E00028462146BDE8F0812846FBE740F2FE316D
:1007F000884210DC0CDB4FEA043040EA155050EA26
:10080000053105D0104804F0004101430020E9E71C
:1008100000200146E6E7A0F233404642C6F140021E
:1008200028462146FFF7EFFD074688462846214621
:100830003246FFF7F7FD43463A4600F0B7F8324636
:10084000BDE8F041FFF7DFBD0000F03F2DE9FE4FAE
:10085000C3F30A5701F000450024C1F30A56C3F35D
:100860001303C1F3130143F4801312EB020AA646EB
:1008700041F48011009543EB030CA7F1010B16E046
:10088000B0EB0A0061EB0C01071E71F1000707DAFB
:100890004FF00008D0EB080085F0004568EB01013F
:1008A000171A73EB0107EBD3761E001849415E451A
:1008B000F6DA50EA010209D0CDE900E5002213463C
:1008C000029600F082F803B0BDE8F08F2046009950
:1008D000F9E7C1F30A52C1F3130140F2FF3341F4C7
:1008E00080119A4202DA00200146704740F23343F9
:1008F0009A42A2F2334202DC5242FFF793BDFFF765
:1009000082BD000030B5041E71F1000404DB4FF01D
:100910000044404264EB0101141E73F1000405DB46
:100920001C464FF00043524263EB04038B4208BF66
:10093000824230BD30B5041E71F1000404DB4FF07B
:100940000044404264EB0101141E73F1000405DB16
:100950001C464FF00043524263EB0403994208BF28
:10096000904230BD064C074D06E0E06840F00103C0
:1009700094E8070098471034AC42F6D3FFF708FC20
:10098000CC8A0008EC8A0008202A06DBCB17203A24
:1009900041FA02F043EAE07306E041FA02F3D04084
:1009A000C2F12002914008431946704710B5141E49
:1009B00073F1000408DA401C41F1000192185B4118
:1009C0001A4301D120F0010010BD2DE9F04D9246EF
:1009D0009B4611B1B1FA81F202E0B0FA80F2203206
:1009E0009046FFF710FD04460F4640EA0A0041EA30
:1009F0000B0153465A46084313D0114653EA0100EF
:100A000019D0C8F140025046FFF70CFD05460E46CE
:100A1000504659464246FFF7F6FC084305D00120F0
:100A200004E020463946BDE8F08D0020054346EA43
:100A3000E0762C4337430A986305E40AA0EB0800EC
:100A40000022FD0A44EA47540A3002D5002001463C
:100A5000E9E7010510196941DDE908450019694117
:100A6000BDE8F04DA2E730B58C1810F8012B12F05C
:100A70000F0301D110F8013B120906D110F8012B28
:100A800003E010F8015B01F8015B5B1EF9D101E0A6
:100A900001F8013B521EFBD1A142E6D3002030BD3C
:100AA000B7EE000A80ED000A9FED060A80ED010A0C
:100AB0009FED040A80ED020A9FED020A80ED030A11
:100AC00070470000000000002DE9F0412DED028B81
:100AD0000646B0EE408A0C4615461F4695ED020AC2
:100AE000B0EE403A95ED010AF0EE402A95ED000A8D
:100AF000B0EE402A94ED020AF0EE401A94ED010A9D
:100B0000B0EE401A94ED000AF0EE400AB0EE480A4A
:100B1000304602F0E3FABDEC028BBDE8F0812DE92E
:100B2000FC5F05460E4617469846DDE90DABDDF83D
:100B30003090002000900190002406236A46022194
:100B4000182004F05BFCC8B99DF800009DF8011066
:100B500040EA012000B228809DF802009DF80310B1
:100B600040EA012000B230809DF804009DF8051095
:100B700040EA012000B2388044F0010406236A46AE
:100B80000221682004F03AFCE0B99DF800009DF8CD
:100B9000011040EA012000B2A8F800009DF8020010
:100BA0009DF8031040EA012000B2A9F800009DF86A
:100BB00004009DF8051040EA012000B2AAF80000E8
:100BC00044F0020401236A460821182004F016FCB0
:100BD00028B99DF80000ABF8000044F0040420465A
:100BE000BDE8FC9F70B50024B6221421182004F043
:100BF00039FC0A2004F018FA0F23052219461820A0
:100C000004F054F804431F230F221021182004F08D
:100C10004DF80443E02300221121182004F046F887
:100C20000443012004F000FAB6221421682004F0E5
:100C300019FC322004F0F8F9072300220F21682064
:100C400004F034F80443072302221021682004F042
:100C50002DF80443E02300221121682004F026F837
:100C60000443642004F0E0F90021682004F0DEFB76
:100C700005460021182004F0D9FB064632462946D5
:100C800007A003F051F80F2D01D1FA2E02D00DA0CC
:100C900003F04AF814B11AA003F046F870BD000042
:100CA000424D49303535206779726F3D30782530B7
:100CB000325820616363656C3D3078253032580DC1
:100CC0000A000000424D493035352057484F5F41FA
:100CD0004D5F4920756E6578706563746564202882
:100CE000657870656374206779726F3D307830463F
:100CF00020616363656C3D30784641290D0A000030
:100D0000424D4930353520636F6E666967207265E4
:100D100067697374657220766572696679206661A9
:100D2000696C65640D0A00002DE9F04F8BB0054633
:100D30000E4617469846DDE915ABDDF850900020C9
:100D40000A9009900890079006900590049004A8D6
:100D500005A906AA07ABCDE90021029008AA09A9B6
:100D60000AA8FFF7DCFE044604F0010048B3BDF911
:100D70002800001100EE100AB8EEC00ADFED4A0AA2
:100D800020EE200A494880ED000ABDF92400001138
:100D900000EE100AB8EEC00ADFED430A20EE200A8A
:100DA000424880ED010ABDF92000001100EE100A52
:100DB000B8EEC00ADFED3C0A20EE200A3B4880ED89
:100DC000020A04F0020030B3BDF91C0000EE100A64
:100DD000B8EEC00ADFED360A20EE200A354880ED75
:100DE000000ABDF9180000EE100AB8EEC00ADFEDE7
:100DF000300A20EE200A2F4880ED010ABDF91400C8
:100E000000EE100AB8EEC00ADFED290A20EE200A33
:100E1000284880ED020A04F0040078B1BDF8100003
:100E200040B200EE100AF8EEC00AB6EE001AB3EEB9
:100E3000070A00EE810A204880ED000A1B4890ED69
:100E4000000A85ED000A90ED010A86ED000A90ED9A
:100E5000020A87ED000A174890ED000A88ED000AA3
:100E600090ED010A89ED000A90ED020A8AED000A70
:100E7000114890ED000A8BED000A04F0010030B932
:100E800004F0020018B903200BB0BDE8F08F04F0A5
:100E9000010008B90120F7E704F0020008B90220B8
:100EA000F2E70020F0E700000000003BA40500206E
:100EB00000007A3DB0050020B800002010B500BF4A
:100EC00000224FF48071144800F090FA00BF052210
:100ED00012492A2005F0E0F80121212005F004F94B
:100EE0000121222005F000F91E21252005F0FCF843
:100EF0002021312005F0F8F80F21262005F0F4F824
:100F00000F21202005F0F0F800BF01221102024855
:100F100000F06CFA00BF10BD000802406C00002019
:100F200000BFFEE708B507F043FA009009E0054866
:100F300005F07EF808B905F003F90221684607F0CC
:100F4000B1F9F4E7E00400200146087810381823CE
:100F5000B0FBF3F20848805CC865032A05D908682D
:100F60006FF30900001D886503E008686FF309004E
:100F70008865886D70470000388A000801460020A7
:100F80008A6A8B69CBB932B1012A0DD0022A03D00B
:100F9000032A10D10EE000BFCB6A03F08073B3F1D7
:100FA000807F00D1012007E0CB6AB3F1C07F00D180
:100FB000012001E000E000BF34E08B69B3F5005F81
:100FC0001AD132B1012A07D0022A03D0032A11D143
:100FD0000AE000BF01200EE0CB6A03F08073B3F19A
:100FE000807F00D1012006E0CB6AB3F1C07F00D141
:100FF000012000E000BF15E032B1012A05D0022A2D
:1010000004D0032A0CD103E000BF00BF012008E098
:10101000CB6A03F08073B3F1807F00D1012000E040
:1010200000BF00BF704730B50468246824F48024F2
:1010300005682C60046863608468402C04D10468EF
:10104000A2600468E16003E00468A1600468E260F3
:1010500030BD70472DE9F0410446002500F0D2F97B
:10106000074614B90120BDE8F081606A00B100BFF5
:1010700000BF002084F8340000BF022084F835004F
:101080002068006820F00100216808600AE000F094
:10109000B9F9C01B052805D920206065032084F814
:1010A0003500E0E72068006800F001000028EED17C
:1010B0002068056821480540D4E901010843E1683A
:1010C00008432169084361690843A1690843E1694C
:1010D0000843216A08430543606A042803D1D4E920
:1010E0000B0108430543206805602068456925F029
:1010F0000705606A0543606A04280DD1A06A0543AC
:10110000E06A48B12046FFF739FF28B1402060650A
:10111000012084F83500A6E7206845612046FFF7E6
:1011200013FF064694F85C103F208840B060002012
:101130006065012084F83500002094E73F8010F0BE
:101140002DE9F04704460D4616461F464FF00008AD
:10115000D4F8589000BF94F83400012802D102203E
:10116000BDE8F087012084F8340000BF94F8350012
:10117000012825D1022084F83500002060653B4617
:10118000324629462046FFF74EFF94F85C103F2078
:101190008840C9F808002068006840F016002168FF
:1011A0000860206C28B12068006840F008002168C1
:1011B00008602068006840F001002168086006E0CF
:1011C00000BF002084F8340000BF4FF00208404602
:1011D000C6E70000F8B502460B46002500240020B3
:1011E0000021DEE0012606FA01F51E6806EA050484
:1011F000AC4275D11E7906F00306012E04D01E798B
:1012000006F00306022E13D190684F000326BE405D
:10121000B0434F00DE68BE40304390605068012606
:101220008E40B0431E79C6F300168E4030435060A6
:101230001E7906F00306032E09D0D0684F0003265E
:10124000BE40B0434F009E68BE403043D0601E7920
:1012500006F00306022E13D1CF0802F1200656F83D
:1012600027004E07F70E0F26BE40B0434F07FF0E74
:101270001E69BE403043CF0802F1200646F8270021
:1012800010684F000326BE40B0431E7906F00306E7
:101290004F00BE40304310605E6806F08056B6F1E5
:1012A000805F7DD100BF00260096404E366846F430
:1012B00080463E4F3E603E46366806F480460096C5
:1012C00000BF00BF3A4E8F0856F827008E07370F31
:1012D0000F26BE40B043374EB24202D1002624E072
:1012E0005EE0354EB24201D101261EE0334EB242DD
:1012F00001D1022619E0324EB24201D1032614E098
:10130000304EB24201D104260FE02F4EB24201D13D
:1013100005260AE02D4EB24201D1062605E02C4EEC
:10132000B24201D1072600E008268F073F0FBE40DA
:1013300030431F4E8F0846F82700264E3068A043E2
:101340005E6806F48036B6F5803F00D12043214E1A
:101350003060361D3068A0435E6806F40036B6F58E
:10136000003F00D120431B4E361D3060361D3068D3
:10137000A0435E6806F48016B6F5801F00D12043B6
:10138000144E08363060361D3068A0435E6806F49F
:101390000016B6F5001F00D120430E4E0C3630600B
:1013A000491C1029FFF41EAFF8BD0000443802406C
:1013B00008380140000002400004024000080240DA
:1013C000000C0240001002400014024000180240CD
:1013D000001C0240003C014010B5426921EA0203B2
:1013E00002EA010443EA0443836110BD0AB181614A
:1013F00001E00B048361704701480068000C7047EE
:10140000002004E001480068704700003C00002014
:1014100070B504460CB9012070BD94F83D0028B9A0
:10142000002084F83C00204600F006FB242084F8CD
:101430003D002068006820F00100216808602068F5
:10144000006840F40040216808602068006820F4CB
:1014500000402168086000F057FC05465C49606860
:10146000884206D85B48854201D2012007E000206F
:1014700005E05948854201D2012000E00020012802
:1014800000D1C9E75548B5FBF0F62068406820F068
:101490003F003043216848604D496068884201D868
:1014A000701C07E04FF4967070434FF47A71B0FBF4
:1014B000F1F0401C2168096A21F03F0108432168CE
:1014C000086243496068884214D8681E6168490010
:1014D000B0FBF1F0401CC0F30B00042801D2042043
:1014E0003DE0681E61684900B0FBF1F0401CC0F3AC
:1014F0000B0034E0A06838B9681E616801EB410157
:10150000B0FBF1F0401C0AE0681E616801EBC1020B
:1015100002EB0111B0FBF1F0401C40F48040C0F33D
:101520000B0008B901201AE0A06848B9681E61687C
:1015300001EB4101B0FBF1F0401CC0F30B000CE0EB
:10154000681E616801EBC10202EB0111B0FBF1F012
:10155000401CC0F30B0040F4804040F40040216880
:10156000C9694CF6FF72914308432168C861D4E908
:10157000070108432168096821F0C0010843216878
:101580000860D4E9031008432168896848F2FF32F3
:101590009143084321688860D4E905010843216824
:1015A000C96821F0FF0108432168C860206800680D
:1015B00040F001002168086000202064202084F8A9
:1015C0003D000020206384F83E0000BF24E70000B7
:1015D000A086010080841E0000093D0040420F00EB
:1015E0002DE9FC5F04460F4690469946DDE90CABB9
:1015F0000E9EFFF707FF054694F83D00202870D1A6
:1016000019230122B0492046009501F0EFFB10B1EB
:101610000220BDE8FC9F00BF94F83C00012801D1E6
:101620000220F6E7012084F83C0000BF2068006833
:1016300000F0010028B92068006840F0010021682E
:1016400008602068006820F400602168086022209B
:1016500084F83D00402084F83E0000202064C4F857
:1016600024A0A4F82AB0608D20859848E0624B46FB
:10167000424639462046CDE9006501F069FA08B1D5
:101680000120C6E7208D88B900BF002001902068A6
:101690004069019020688069019000BF00BF206808
:1016A000006840F400702168086040E0208D012847
:1016B00018D12068006820F480602168086000BFAD
:1016C00000200190206840690190206880690190A5
:1016D00000BF00BF2068006840F400702168086007
:1016E00025E0EFE0208D022816D12068006820F464
:1016F0008060216808602068006840F4006021680C
:10170000086000BF002001902068406901902068B7
:101710008069019000BF0AE000BF002001902068AE
:101720004069019020688069019000BF00BFBAE065
:10173000208D03287ED8208D012815D12A463146D8
:10174000204601F0F8FB08B1012062E7206800693B
:10175000616A0870606A401C6062208D401E2085AE
:10176000608D401E60859EE0208D02282AD1334680
:10177000002257492046009501F038FB08B10120AE
:1017800047E72068006840F400702168086020681E
:101790000069616A0870606A401C6062208D401EAA
:1017A0002085608D401E608520680069616A087030
:1017B000606A401C6062208D401E2085608D401E46
:1017C000608570E03346002241492046009501F0D3
:1017D0000DFB08B101201CE72068006820F4806040
:1017E0002168086020680069616A0870606A401CAE
:1017F0006062208D401E2085608D401E60853346CE
:10180000002233492046009501F0F0FA08B101208A
:10181000FFE62068006840F40070216808602068D6
:101820000069616A0870606A401C6062208D401E19
:10183000208500E010E0608D401E60852068006912
:10184000616A0870606A401C6062208D401E2085BD
:10185000608D401E608526E02A463146204601F014
:101860006AFB08B10120D4E620680069616A08704B
:10187000606A401C6062208D401E2085608D401E85
:10188000608520684069C0F3800060B1206800690D
:10189000616A0870606A401C6062208D401E20856D
:1018A000608D401E6085208D00287FF441AF202090
:1018B00084F83D00002084F83E0000BF84F83C001E
:1018C00000BFA6E60220A4E6020010000000FFFF11
:1018D000040001002DE9FC5F04460F46904699463E
:1018E000DDE90CAB0E9EFFF78DFD054694F83D003B
:1018F00020287DD1192301224D492046009501F071
:1019000075FA10B10220BDE8FC9F00BF94F83C00BE
:10191000012801D10220F6E7012084F83C0000BF35
:101920002068006800F0010028B92068006840F0D5
:101930000100216808602068006820F400602168C8
:101940000860212084F83D00402084F83E000020FB
:101950002064C4F824A0A4F82AB0608D20853548FE
:10196000E0624B46424639462046CDE9006501F02B
:101970009FF908B10120C6E731E02A4631462046EA
:1019800001F019FB50B1206C042805D120680068D3
:1019900040F40070216808600120B4E7606A0078B4
:1019A00021680861606A401C6062208D401E2085AD
:1019B000608D401E608520684069C0F3800070B172
:1019C000208D60B1606A007821680861606A401CFF
:1019D0006062208D401E2085608D401E6085208DB8
:1019E0000028CAD12A463146204601F0D1F900E04C
:1019F0001CE050B1206C042805D12068006840F438
:101A000000702168086001207DE72068006840F4CC
:101A1000007021680860202084F83D00002084F8D0
:101A20003E0000BF84F83C0000BF6CE702206AE77C
:101A3000020010000000FFFF70470000034800682C
:101A40000349097808440149086070473C000020B8
:101A50004400002010B50A48006840F400700849AE
:101A600008600846006840F480600860032000F0C9
:101A70006FF80F2000F006F800F02AF8002010BDE3
:101A8000003C024070B504460E4800784FF47A716D
:101A9000B1FBF0F00C490968B1FBF0F5284600F005
:101AA00046FE08B1012070BD102C07D2002221464D
:101AB000501E00F00EF80548046001E00120F2E736
:101AC0000020F0E74400002000000020400000203B
:101AD00070472DE9F05F80460D461646002702F05C
:101AE00047F9074639462A46334601F00700C0F158
:101AF000070ABAF1040F02D94FF0040A01E0C0F15D
:101B0000070AD14600F1040ABAF1070F02D24FF0DA
:101B1000000A01E0A0F1030AD4464FF0010A0AFAD4
:101B200009FAAAF1010A0AEA020A0AFA0CFA4FF0C3
:101B3000010B0BFA0CFBABF1010B0BEA030B4AEAAE
:101B40000B042146404602F01BF9BDE8F09F00005F
:101B500000BF00F00702064B19684FF6FF0319405B
:101B6000044B0B4343EA0221014B196000BF70474D
:101B70000CED00E00000FA0570B504460D460CB906
:101B8000012070BD5848006800F00700A84209D243
:101B900055490D700846006800F00700A84201D0C2
:101BA0000120EEE7207800F0020002281DD1207805
:101BB00000F00400042805D14C48006840F4E050CF
:101BC0004A490860207800F00800082805D14748F5
:101BD000006840F46040454908604448006820F0CF
:101BE000F000A168084341490860207800F0010036
:101BF000A8B36068012807D13C4808380068C0F3E2
:101C00004040B8B90120BCE76068022802D0606893
:101C1000032807D1354808380068C0F3406048B948
:101C20000120AEE7314808380068C0F3400008B929
:101C30000120A6E72D48006820F0030061680843F2
:101C40002A490860FFF7DEFB064609E0FFF7DAFBEA
:101C5000801B41F28831884202D9032091E707E0D6
:101C60002248006800F00C006168B0EB810FEDD1F4
:101C70001D48006800F00700A84209D91A490D70F4
:101C80000846006800F00700A84201D0012078E76C
:101C9000207800F00400042807D11448006820F4DC
:101CA000E050E168084311490860207800F008001E
:101CB000082808D10D48006820F46040216940EAF6
:101CC000C1000A49086000F03FF808490968C1F3FB
:101CD0000311074A515CC84006490860064800687D
:101CE000FFF7D0FE00204CE7003C024008380240DD
:101CF000208A000800000020400000200148006801
:101D0000704700000000002000B5FFF7F7FF04490E
:101D10000968C1F38221034A515CC84000BD00003C
:101D200008380240308A000800B5FFF7E7FF044991
:101D30000968C1F34231034A515CC84000BD00004C
:101D400008380240308A00082DE9F04700240025B9
:101D50000026A1462548006800F00C0020B10428A8
:101D600005D008283AD105E0DFF8849039E0DFF8A3
:101D7000849036E01D48001F006800F03F041B48B7
:101D8000001F006800F4800078B11A481749091F45
:101D90000968C1F38811A0FB0170014622460023A7
:101DA0003846FEF777FA05460EE011480F49091F3D
:101DB0000968C1F38811A0FB017001462246002387
:101DC0003846FEF767FA05460848001F0068C0F36A
:101DD0000140401C4600B5FBF6F902E0DFF8109028
:101DE00000BF00BF4846BDE8F08700000838024049
:101DF0000024F40000127A00F8B504460CB9012062
:101E0000F8BD207800F00100002874D0F94800687F
:101E100000F00C0004280DD0F648006800F00C001B
:101E2000082813D1F348001F006800F48000B0F5C3
:101E3000800F0BD1EF4808380068C0F340400028FD
:101E400059D06068002856D10120D9E700BF6068EA
:101E5000B0F5803F08D1E7480838006840F480308A
:101E6000E449083908601EE06068B0F5A02F0DD184
:101E7000E0480838006840F48020DE4908390860EE
:101E80000846006840F4803008600CE0D948083803
:101E9000006820F48030D749083908600846006897
:101EA00020F48020086000BF606890B1FFF7AAFAB4
:101EB000054606E0FFF7A6FA401B642801D9032077
:101EC0009EE7CC4808380068C0F340400028F1D0B5
:101ED00011E0FFF797FA054606E0FFF793FA401B7B
:101EE000642801D903208BE7C24808380068C0F392
:101EF00040400028F1D1207800F0020002285FD194
:101F0000BC48006800F00C0058B1BA48006800F006
:101F10000C0008281CD1B748001F006800F480009E
:101F2000B0B9B44808380068C0F3400020B1E06898
:101F3000012801D0012063E7AE480838006820F08E
:101F4000F800216940EAC100AA490839086037E071
:101F5000E06800B30120A8490860FFF753FA05467E
:101F600006E0FFF74FFA401B022801D9032047E79C
:101F7000A04808380068C0F340000028F1D09D4810
:101F80000838006820F0F800216940EAC10099494A
:101F90000839086014E0002097490860FFF732FA1A
:101FA000054606E0FFF72EFA401B022801D9032060
:101FB00026E7904808380068C0F340000028F1D1B7
:101FC000207800F0080008282CD16069A8B1012011
:101FD0008A490860FFF716FA054606E0FFF712FA8D
:101FE000401B022801D903200AE782486C300068B0
:101FF000C0F340000028F1D014E000207F490860C1
:10200000FFF700FA054606E0FFF7FCF9401B02283F
:1020100001D90320F4E677486C300068C0F3400033
:102020000028F1D1207800F00400042870D10027A6
:1020300070483830006800F0805090B900BF002030
:1020400000906C483830006840F080506949383161
:1020500008600846006800F08050009000BF00BF94
:1020600001276748006800F48070B0B964480068D0
:1020700040F4807062490860FFF7C4F9054606E045
:10208000FFF7C0F9401B022801D90320B8E65C48DD
:10209000006800F480700028F2D000BFA06801281A
:1020A00008D154486830006840F001005149683157
:1020B00008601DE0A06805280DD14E486830006812
:1020C00040F004004B49683108600846006840F061
:1020D000010008600CE047486830006820F001000B
:1020E0004449683108600846006820F00400086030
:1020F00000BFA068A8B1FFF785F9054609E0FFF722
:1021000081F9401B41F28831884202D9032077E6E9
:1021100026E0384868300068C0F340000028EED060
:1021200013E0FFF76FF9054608E0FFF76BF9401B76
:1021300041F28831884201D9032061E62D48683098
:102140000068C0F340000028EFD1012F07D12948D3
:102150003830006820F0805026493831086000BFD0
:10216000A069002845D02348006800F00C0008282A
:102170005DD0A069022845D100201F490866FFF7FD
:1021800041F9054606E0FFF73DF9401B022801D959
:10219000032035E6174808380068C0F3406000287F
:1021A000F1D1D4E907010843616A40EA81110122B3
:1021B000A06AC2EB500041EA00412C20005D41EAD8
:1021C00000600C49091F086001200B490866FFF7F1
:1021D00019F9054606E0FFF715F9401B022801D959
:1021E00003200DE6034808380068C0F3406000286B
:1021F000F1D049E00838024000004742800E4742D3
:1022000000700040002021490866FFF7FBF80546F2
:1022100006E0FFF7F7F8401B022801D90320EFE59D
:102220001B480068C0F340600028F2D12CE0A06990
:10223000012800D1E4E51648001D0668A0690128C0
:1022400020D006F48001E06981421BD106F03F01F5
:10225000206A814216D147F6C0703040616AB0EB07
:10226000811F0FD106F440310122A06AC2EB500059
:10227000B1EB004F06D106F070612C20005DB1EB90
:10228000006F01D00120BBE50020B9E50000474206
:102290000038024010B504460CB9012010BD606A38
:1022A00038B96068B0F5827F00D105E00021E161B6
:1022B00002E0002121616161A06AB0F5005F00D1F8
:1022C00000BF94F8510028B9002084F8500020463F
:1022D00000F050F8022084F851002068006820F0D7
:1022E000400021680860A08800F48270218901F410
:1022F00004410843A18901F400610843217C01F0F5
:1023000002010843217D01F001010843218B01F402
:1023100000710843217F01F0380108432021095D45
:1023200001F080010843218D01F400510843216828
:1023300008600421A06901EA104094F8241001F01B
:102340001001084321684860A06AB0F5005F03D11E
:10235000A08D80B2216808612068C06920F4006007
:102360002168C86100206065012084F851000020C8
:1023700094E7000010B586B004462B4920688842D7
:1023800050D100BF00BF002000902848006840F0F6
:102390000200264908600846006800F0020000902C
:1023A00000BF00BF00BF00BF00BF00200090084674
:1023B000006840F0020008600846006800F0020073
:1023C000009000BF00BF00BF00BF00BF0020009012
:1023D0000846006840F0020008600846006800F007
:1023E0000200009000BF00BF00BF4FF400500190FA
:1023F0000220029001200390022004900520059005
:1024000001A90B48FEF7E6FE4FF48040019001A9B8
:102410000748FEF7DFFE4FF40040019001A9044891
:10242000FEF7D8FE06B010BD00380040303802403C
:10243000000402402DE9F04F85B0044688469146DD
:102440001D460E9E00200490012002900020019065
:1024500000BF94F85000012803D1022005B0BDE868
:10246000F08F012084F8500000BFFEF7CBFF074635
:1024700094F851B060680390AA46BBF1010F0BD0ED
:102480000398B0F5827F04D1A06810B9BBF1040FA6
:1024900002D0022001902CE1B8F1000F03D0B9F175
:1024A000000F00D015B90120019022E194F85100ED
:1024B000042802D0052084F8510000206065C4F88B
:1024C0003890E587A587C4F83080E586A586206426
:1024D0006064A06AB0F5005F0DD100BF206800689D
:1024E00020F40050216808602068006840F4005023
:1024F0002168086000BF2068006800F040004028A4
:1025000005D02068006840F0400021680860E0685D
:10251000B0F5006F56D1606810B1BAF1010F09D162
:10252000206B00882168C860206B801C2063E08ECF
:10253000401EE0863FE02068806800F0020002282C
:102540001CD1E08ED0B10298012817D1206B0088F1
:102550002168C860206B801C2063E08E401EE086EE
:1025600000200290E08E48B9A06AB0F5005F05D166
:102570002068006840F48050216808602068806806
:1025800000F0010068B1E08F58B12068C068A16B0D
:102590000880A06B801CA063E08F401EE0870120B4
:1025A0000290FEF72FFFC01BB04204D3701C10B185
:1025B000032001909DE0E08E0028BCD1E08F002830
:1025C000B9D156E0606810B1BAF1010F09D1206BA2
:1025D000007821680873206B401C2063E08E401E49
:1025E000E08640E02068806800F0020002281CD1EC
:1025F000E08ED0B10298012817D1206B00782168B5
:102600000873206B401C2063E08E401EE086002093
:102610000290E08E48B9A06AB0F5005F05D120684D
:10262000006840F48050216808602068806800F0ED
:10263000010068B1E08F58B12068C068A16B0870D4
:10264000A06B401CA063E08F401EE0870120029039
:10265000FEF7D8FEC01BB04201D3701C00B916B9FA
:102660000320019045E0E08E0028BBD1E08F0028D8
:10267000B8D1A06AB0F5005F12D1334601221146ED
:102680002046009701F0D2F830B1606D40F00200B2
:102690006065032001902CE02068C068049000BFB2
:1026A0002068806800F01000102809D1606D40F0AB
:1026B000020060654FF6EF7021688860012001908C
:1026C0003A463146204601F07BF820B101200190C6
:1026D000202060650DE0A06850B900BF0020009088
:1026E0002068C068009020688068009000BF00BF2C
:1026F00000BF012084F8510000BF002084F8500082
:1027000000BF0198AAE6042808D14FF0E02109692A
:1027100041F004014FF0E022116107E04FF0E021A9
:10272000096921F004014FF0E0221161704770B592
:1027300004462546681EB0F1807F01D301200FE0DA
:10274000681E4FF0E02148610F214FF0FF3001F08B
:1027500017FB00204FF0E02188610720086100206E
:1027600070BD70477047704710B504462068006917
:10277000C0F34000D8B12068C068C0F34000B0B1D9
:102780006FF00200216808610120207720688069CD
:1027900000F0030018B12046FFF7E5FF05E02046F2
:1027A00000F0ADF8204600F0ABF80020207720685C
:1027B0000069C0F38000D8B12068C068C0F3800011
:1027C000B0B16FF004002168086102202077206812
:1027D000806900F4407018B12046FFF7C4FF05E09F
:1027E000204600F08CF8204600F08AF80020207780
:1027F00020680069C0F3C000D8B12068C068C0F389
:10280000C000B0B16FF00800216808610420207793
:102810002068C06900F0030018B12046FFF7A3FF4D
:1028200005E0204600F06BF8204600F069F8002033
:10283000207720680069C0F30010D8B12068C06814
:10284000C0F30010B0B16FF01000216808610820DB
:1028500020772068C06900F4407018B12046FFF767
:1028600082FF05E0204600F04AF8204600F048F8D4
:10287000002020772068006900F0010058B120682E
:10288000C06800F0010030B16FF0010021680861FC
:10289000204600F037F820680069C0F3C01058B136
:1028A0002068C068C0F3C01030B16FF080002168AC
:1028B00008612046FFF755FF20680069C0F38010CB
:1028C00058B12068C068C0F3801030B16FF040008C
:1028D00021680861204600F025F820680069C0F3EF
:1028E000401058B12068C068C0F3401030B16FF09C
:1028F0002000216808612046FFF734FF10BD7047B3
:102900007047000010B504460448844205D100BF5A
:1029100020210348FEF760FD00BF10BD1004002019
:102920000000024070477047704710B504460CB96C
:10293000012010BDA06900B100E000BF94F83D0087
:1029400028B9002084F83C00204600F027F8242015
:1029500084F83D002068C06820F400502168C860F9
:10296000204601F07DF82068006920F4904021683D
:1029700008612068406920F02A00216848612068C9
:10298000C06840F400502168C86000202064202006
:1029900084F83D0084F83E000020CAE710B58CB0F2
:1029A000044644492068884231D100BF002001908C
:1029B0004148006840F001003F490860084600684F
:1029C00000F00100019000BF00BF00BF0020019097
:1029D00039481030006840F4003037491031086041
:1029E0000846006800F40030019000BF00BF0C20D2
:1029F00002900220039001200490022005900720FD
:102A0000069002A92D48FEF7E5FB0CB010BD2C493D
:102A1000206888424CD100BF0020069026480068FC
:102A200040F00400244908600846006800F00400F3
:102A3000069000BF00BF00BF002006901E48103067
:102A4000006840F480201C49103108600846006886
:102A500000F48020069000BF00BF00BF0020069059
:102A60001548006840F400101349086008460068E3
:102A700000F40010069000BF00BFC81407900220A9
:102A800008900120099002200A9007200B9007A9C6
:102A90000C48FEF79FFB4FF48060079002200890DF
:102AA0000020099007200B9007A90648FEF792FB2B
:102AB00000BFAAE700440040303802400000024056
:102AC000004800400008024070B504460D46164616
:102AD00094F83E00202816D105B10EB9012070BD32
:102AE00000BF94F83C00012801D10220F7E7012043
:102AF00084F83C0000BF002020633246294620466F
:102B000001F0C4F8EBE70220E9E77047704700BF27
:102B1000FEE7014608684069C0F38020B0B16FF459
:102B200080600A68506100200863202081F83D0021
:102B3000002081F83E00086C40F00400086400BFEB
:102B4000002081F83C0000BF012070470020FCE716
:102B50002DE9F84304460F4615469946DDE90886F7
:102B60002068006840F48060216808602068006880
:102B700040F4807021680860434600224FF0011144
:102B80002046009600F032F960B12068006800F439
:102B90008070B0F5807F02D14FF400702064032074
:102BA000BDE8F88307F0FE0021680861334642461D
:102BB0003E49204600F05DF908B10120F0E700BF72
:102BC0000020009020684069009020688069009093
:102BD00000BF00BF32464146204600F0ECF950B13C
:102BE000206C042805D12068006840F4007021683A
:102BF00008600120D4E7B9F1010F03D1E8B22168E0
:102C0000086117E0C5F30720216808613246414694
:102C1000204600F0D0F950B1206C042805D120687E
:102C2000006840F40070216808600120B8E7E8B24D
:102C30002168086132464146204600F0BCF950B197
:102C4000206C042805D12068006840F400702168D9
:102C500008600120A4E72068006840F480702168C3
:102C60000860434600224FF001112046009600F014
:102C7000BDF858B12068006800F48070B0F5807F1E
:102C800002D14FF400702064032089E7F8B240F0CD
:102C9000010021680861334642460449204600F09D
:102CA000E8F808B101207BE7002079E70200010085
:102CB0002DE9F8430446884615469946DDE908673C
:102CC0002068006840F48070216808603346002264
:102CD0004FF001112046009700F088F860B120689D
:102CE000006800F48070B0F5807F02D14FF400706E
:102CF00020640320BDE8F88308F0FE002168086125
:102D00003B4632462149204600F0B3F808B1012085
:102D1000F0E700BF00200090206840690090206824
:102D20008069009000BF00BF3A463146204600F05F
:102D300042F950B1206C042805D12068006840F4A5
:102D40000070216808600120D4E7B9F1010F03D1B8
:102D5000E8B22168086117E0C5F30720216808611F
:102D60003A463146204600F026F950B1206C04283E
:102D700005D12068006840F40070216808600120D7
:102D8000B8E7E8B2216808610020B3E7020001005B
:102D900070B504460D46164620E02046FFF7B9FE02
:102DA00008B1012070BD681CC0B1FEF72BFB801B71
:102DB000A84200D895B900202063202084F83D0067
:102DC000002084F83E00206C40F02000206400BF0A
:102DD000002084F83C0000BF0120E3E72068406940
:102DE000C0F380000028D8D00020DBE72DE9F041B7
:102DF00004460D4617461E46DDF818801CE0701C80
:102E0000D0B1FEF7FFFAA0EB0800B04200D89EB99F
:102E100000202063202084F83D00002084F83E003C
:102E2000206C40F02000206400BF002084F83C00AB
:102E300000BF0120BDE8F081C5F3074001280AD199
:102E400020684069A9B20840A9B2884201D1012096
:102E50000BE0002009E020688069A9B20840A9B20F
:102E6000884201D1012000E00020B842C7D00020F4
:102E7000E0E72DE9F04104460D4616461F463DE0C9
:102E800020684069C0F38020E8B12068006840F401
:102E90000070216808606FF480602168486100203C
:102EA0002063202084F83D00002084F83E00206C40
:102EB00040F00400206400BF002084F83C0000BF04
:102EC0000120BDE8F081701CC0B1FEF79BFAC01B69
:102ED000B04200D896B900202063202084F83D003D
:102EE000002084F83E00206C40F02000206400BFE9
:102EF000002084F83C0000BF0120E2E7C5F3074052
:102F000001280AD120684069A9B20840A9B28842C4
:102F100001D101200BE0002009E020688069A9B2FE
:102F20000840A9B2884201D1012000E00020002819
:102F3000A6D00020C5E770B504460D46164632E01F
:102F400020684069C0F30010A0B16FF01000216844
:102F5000486100202063202084F83D00002084F890
:102F60003E00206C206400BF002084F83C0000BFBD
:102F7000012070BDFEF746FA801BA84200D895B923
:102F800000202063202084F83D00002084F83E00CB
:102F9000206C40F02000206400BF002084F83C003A
:102FA00000BF0120E5E720684069C0F380100028D9
:102FB000C6D00020DDE770B504460D46164620E079
:102FC0002046FFF7A6FD08B1012070BD681CC0B106
:102FD000FEF718FA801BA84200D895B9002020639C
:102FE000202084F83D00002084F83E00206C40F052
:102FF0002000206400BF002084F83C0000BF0120B6
:10300000E3E720684069C0F3C0100028D8D0002052
:10301000DBE7000000B587B0142102A8FDF784F9B2
:1030200000BF002001901348006840F002001149E1
:1030300008600846006800F00200019000BF00BF71
:10304000081502901220039001200490032005909F
:103050000420069002A90848FEF7BCF84FF400606F
:1030600002900420069002A90348FEF7B3F807B0C7
:1030700000BD0000303802400004024008B500BF27
:10308000002000901148006840F480000F4908605B
:103090000846006800F48000009000BF00BF0C48A4
:1030A0000C4908600C48486000210A488160C160F2
:1030B0004FF480410161002141618161C161016280
:1030C000FEF7A6F908B100BFFEE708BD4038024090
:1030D00000580040BC030020801A060010B52DEDFA
:1030E000108B84B00446B0EE408AB0EE609AF0EEE9
:1030F000419AB0EE61AAF0EE42BAF0EE62AAB0EEEA
:1031000043BA9FEDD90AB4EEC08AF1EE10FA04D2A8
:103110009FEDD50AB0EE408A0AE09FEDD40AB4EEE6
:10312000C08AF1EE10FA03DD9FEDD00AB0EE408ABE
:103130002BEEAB0A0AEEAA0AF0EE40DA4BEE0BDAFF
:103140009FEDCB0AF4EEC0DAF1EE10FA7EDD9FEDD2
:10315000C90AF4EEC0DAF1EE10FA77D2B0EE6D0AD9
:1031600002F0C6FCF0EE408AB0EE680A2BEE800A50
:10317000F0EE40BAB0EE680A2AEE800AF0EE40AAFD
:10318000B0EE680A2BEE000AB0EE40BA94ED010AE8
:10319000D4ED030A20EE200AD4ED000A94ED021AC1
:1031A000B0EE40EA00EEC1EA94ED000AD4ED010A67
:1031B00020EE200AD4ED020A94ED031AF0EE40EA64
:1031C00040EE81EAD4ED000A94ED001AB6EE000A52
:1031D00010EE810AD4ED030A94ED031AB0EE40FA22
:1031E00000EE81FA2AEE8F0AF0EE40FA4BEE6EFA0C
:1031F0002BEE0E0A0BEECF0A8DED030A2BEEAE0A74
:103200000AEECE0A8DED020A9B4890ED000AB5EE5B
:10321000C00AF1EE10FA40DD90ED000A60EE2F0AD0
:10322000964890ED000A00EE880A80ED000A924868
:10323000D0ED000A9DED030A60EE800A904890ED03
:10324000000A00EE880A80ED000A00E051E08A489A
:10325000D0ED000A9DED020A60EE800A894890EDEB
:10326000000A00EE880A80ED000A02F02BFD834878
:1032700090ED000A39EE000AB0EE409A804890EDD9
:10328000000A39EE800AF0EE409A7E4890ED000A7E
:103290003AEE000AB0EE40AA0EE09FED7B0A7748B6
:1032A00080ED000A9FED780A754880ED000A9FEDD9
:1032B000760A744880ED000A7448D0ED000AB0EE3A
:1032C000490A00EEAF0AB0EE409A90ED001A9DED6B
:1032D000030AF0EE690A41EE000AF0EE609A90ED02
:1032E000001A9DED020AF0EE4A0A41EE000AB0EE25
:1032F00060AAB6EE000A28EE000A20EE090AB0EE37
:10330000409AB6EE000A28EE000A20EE290AF0EEF6
:10331000409AB6EE000A28EE000A20EE0A0AB0EE45
:1033200040AA94ED00CAD4ED01CA94ED02DAB1EEE0
:103330006C0A20EE090A0DEE690AD4ED030A00EECC
:10334000CA0AD4ED000A30EE200A84ED000A2CEE01
:10335000090A0DEE0A0AD4ED030A00EEE90AD4EDDB
:10336000010A30EE200A84ED010A2CEE290A0CEE47
:10337000CA0AD4ED030A00EE890AD4ED020A30EE3F
:10338000200A84ED020A2CEE0A0A0CEEA90A0DEEC0
:10339000490AD4ED030A30EE200A84ED030A94EDC5
:1033A000000A20EE000AD4ED010A94ED011A00EEA5
:1033B000810AD4ED020A94ED021A00EE810AD4EDDE
:1033C000030A94ED031A00EE810A8DED010A9DEDCA
:1033D000010ADFED2F0AB4EEE00AF1EE10FA1BD37A
:1033E000D4ED000AB0EE600A02F060FCA0B1D4EDAA
:1033F000010AB0EE600A02F059FC68B1D4ED020A8D
:10340000B0EE600A02F052FC30B1D4ED030AB0EE27
:10341000600A02F04BFC30B9204602F0B5FC04B063
:10342000BDEC108B10BD9DED010A02F061FBF0EECA
:10343000408A94ED000A20EE280A84ED000A94EDFB
:10344000010A20EE280A84ED010A94ED020A20EE1A
:10345000280A84ED020A94ED030A20EE280A84ED7E
:10346000030A00BFDBE700006F12033A0AD7A33B51
:1034700048E1FA3EEC51D83F5C000020600000209B
:1034800064000020680000200000000058000020B8
:10349000CCBC8C2B00BFFEE77047000070B5002548
:1034A000002408E002F0E8FC08B9012505E00A2044
:1034B00001F0BAFD641C642CF4D300BF1DB108A058
:1034C00000F032FC02E00BA000F02EFCFDF7F6FC51
:1034D00000BF012220211248FDF788FF00BF70BD08
:1034E0004E524632344C3031206F6E6C696E650D31
:1034F0000A0000004E524632344C3031206F66666E
:103500006C696E653B20636F6E74696E75652077BC
:103510006974686F75742072656D6F74650D0A004B
:1035200000000240B0EE401A10B99FED790A7047D2
:1035300090ED100A80ED110A90ED0F0A80ED100A4F
:10354000C0ED060A80ED071A30EEC10A80ED0F0AC1
:103550000178002975D190ED010AD0ED0F1A20EE07
:10356000210A80ED090A90ED0A0AD0ED021A90EDC9
:103570000F2A01EE820A80ED0A0A90ED0D0A80ED15
:103580000E0A90ED0C0A80ED0D0A90ED0F0AD0EDB9
:10359000101A30EE610A80ED0C0A90ED030AD0EDAE
:1035A0000C1A20EE210A80ED0B0A90ED0A0AD0EDEC
:1035B000051AB4EEE10AF1EE10FA04DD90ED050A09
:1035C00080ED0A0A10E090ED0A0AD0ED051AF1EE3E
:1035D000611AB4EEE10AF1EE10FA05D290ED050A97
:1035E000B1EE400A80ED0A0A90ED090AD0ED0A1A00
:1035F00030EE210AD0ED0B1A30EE210A80ED080AD8
:1036000090ED080AD0ED041AB4EEE10AF1EE10FADA
:1036100004DD90ED040A80ED080A76E090ED080ADA
:10362000D0ED041AF1EE611AB4EEE10AF1EE10FAEF
:103630006BD290ED040AB1EE400A80ED080A64E016
:10364000FFE70178012960D190ED0F0AD0ED101A43
:1036500030EE610AD0ED011A20EE210A80ED090A50
:1036600090ED020AD0ED0F1A20EE210A80ED0A0A31
:1036700090ED0D0A80ED0E0A90ED0C0A80ED0D0A1A
:1036800090ED0F0AD0ED101AB0EE002A02EE610A9A
:10369000D0ED111A30EE210A80ED0C0A90ED030AEC
:1036A000D0ED0C1A20EE210A80ED0B0A90ED090AEC
:1036B000D0ED0A1A30EE210AD0ED0B1A30EE210AB5
:1036C000D0ED081A30EE210A80ED080A90ED080AC4
:1036D000D0ED041AB4EEE10AF1EE10FA04DD90ED3B
:1036E000040A80ED080A10E090ED080AD0ED041AF3
:1036F000F1EE611AB4EEE10AF1EE10FA05D290EDA6
:10370000040AB1EE400A80ED080A90ED080A0EE7BF
:103710000000000000B970479FED100A80ED110A0B
:1037200080ED100A80ED0F0A9FED0C0A80ED0E0A65
:1037300080ED0D0A80ED0C0A9FED080A80ED0B0A62
:1037400080ED0A0A80ED090A80ED080A9FED030A60
:1037500080ED060A80ED070A00BFDCE700000000EC
:1037600000B102B97047017092ED001A80ED011AA4
:1037700092ED011A80ED021A92ED021A80ED031A01
:1037800080ED040AC0ED050A9FED0C1A80ED0E1ABB
:1037900080ED0D1A80ED0C1A9FED081A80ED081AC5
:1037A00080ED0B1A80ED0A1A80ED091A80ED111ACE
:1037B00080ED101A80ED0F1A00BFD3E70000000063
:1037C0007CB504460D461646164800681821B0FB25
:1037D000F1F01549B0FBF1F04FF47A7148430190D4
:1037E0006068B0F5827F0DD12B46002280212046F3
:1037F000009600F01BF898B1606D40F02000606505
:1038000003207CBD00BF019800B908E00198401E6C
:10381000019020688068C0F3C0100028F3D100BF79
:103820000020EEE70000002040420F002DE9F84F95
:1038300004460D4690461E46DDF82890FDF7E2FD51
:10384000A0EB0900371AFDF7DDFD82462C48006821
:10385000C0F3CB307843009045E0701C002842D084
:10386000FDF7D0FDA0EB0A00B84200D2A7BB20684C
:10387000406820F0E000216848606068B0F5827F11
:103880000DD1A068B0F5004F03D0A068B0F5806FEF
:1038900005D12068006820F0400021680860A06A17
:1038A000B0F5005F0DD100BF2068006820F4005023
:1038B000216808602068006840F4005021680860B2
:1038C00000BF012084F8510000BF002084F85000A0
:1038D00000BF0320BDE8F88FFFE7009800B900277C
:1038E0000098401E0090206880682840A84201D1BE
:1038F000012000E000204045AFD10020EAE70000B1
:103900000000002010B5FEF799F804F041FD0128F1
:1039100001D004F091FA10BD0348006840F4700033
:10392000014908607047000088ED00E010B50248CA
:10393000FEF71AFF10BD00001004002070B5064607
:103940000025B46B20684069C0F3C01594F83D00B1
:10395000212805D125B10020E084204600F075F82B
:1039600020684069C0F3801594F83E00222805D1F4
:1039700025B10020E085204600F04CF8206C40F096
:10398000100020642046FEF7CFFF70BD70B50546DD
:10399000AC6B2868006800F48070F8B90020E085FE
:1039A0002068C06820F480702168C8602068406981
:1039B00020F00100216848612068406920F0400043
:1039C00021684861202084F83E00206B012805D141
:1039D0002068C06820F010002168C860206B0128B2
:1039E00004D1A18D2046FEF79EFF02E02046FFF79E
:1039F0008CF870BD70B50546AC6B206B012805D105
:103A0000A08D41082046FEF78EFF02E02046FFF71A
:103A10007DF870BD0168C96821F490710268D160B9
:103A20000168496921F0010102685161016B0129B6
:103A300005D10168C96821F010010268D160202118
:103A400080F83E100021016370470168C96821F0C9
:103A5000C0010268D160202180F83D10704700004D
:103A60002DE9F84F04462068006920F44050E168D1
:103A70000843216808612169A06808436169084317
:103A8000E169084300902068C06849F20C618843EE
:103A9000009908432168C8602068406920F440709C
:103AA000A16908432168486176492068884203D0AB
:103AB00075492068884203D1FEF736F9814602E055
:103AC000FEF722F98146E069B0F5004F6CD1022083
:103AD0006168A0FB015003461920A9FB0070014654
:103AE0002A463846FCF7D6FB6421B0FBF1F04FEADA
:103AF000001A02206168A0FB01510B461920A9FBA6
:103B000000712A463846FCF7C5FB834602206168EF
:103B1000A0FB015003461920A9FB00712A46384634
:103B2000FCF7B8FB6421B0FBF1F000EBC00101EB46
:103B30000010ABEB8000322101EBC0006421B0FB30
:103B4000F1F000F0F8000AEB400A02206168A0FBE7
:103B5000015003461920A9FB007001462A46384649
:103B6000FCF798FB834602206168A0FB01500346E6
:103B70001920A9FB00712A463846FCF78BFB64210B
:103B8000B0FBF1F000EBC00101EB0010ABEB8000EB
:103B9000322101EBC0006421B0FBF1F000F007001E
:103BA0005044216888606AE004206168A0FB0150ED
:103BB00003461920A9FB007001462A463846FCF747
:103BC00069FB824604206168A0FB0150034619206E
:103BD000A9FB007001462A463846FCF75BFB6421CE
:103BE000B0FBF1F000EBC00101EB0010AAEB80008C
:103BF000322101EB00106421B0FBF1F000F0F00A7B
:103C000004206168A0FB017003461920A9FB005144
:103C10003A462846FCF73EFB6421B0FBF1F00AEB84
:103C2000001A04206168A0FB01510B461920A9FB72
:103C300000712A463846FCF72DFB83460420616854
:103C4000A0FB015003461920A9FB007001462A463B
:103C50003846FCF71FFB6421B0FBF1F000EBC0011C
:103C600001EB0010ABEB8000322101EB001064216E
:103C7000B0FBF1F000F00F00504421688860BDE80F
:103C8000F88F0000001001400014014077B581B0AA
:103C9000044615460298A062A585002020642220D3
:103CA00084F83E001C48A16BC8631C48A16B0864E3
:103CB0001B48A16BC8640020A16B086502AE326886
:103CC0002368191D2B46A06BFDF73AFA00BF0020B0
:103CD000009020680068009020684068009000BF55
:103CE00000BF00BF002084F83C0000BF2068C0680F
:103CF00040F480702168C8602068406940F001008D
:103D0000216848612068406940F0400021684861AE
:103D1000002004B070BD00008D390008F53900089E
:103D20003D39000800BFFEE70FB4054B10B503A9ED
:103D3000044A029800F036FC10BC5DF814FB000049
:103D400011510008080000204100080218BF04209B
:103D50000A0E18BF40F001004FF07F4232EA010125
:103D600008BF40F00200012808BF0520704700008E
:103D700002480068C0F30220704700000CED00E02C
:103D800010B5002804DB0A07130E054A135406E099
:103D90000A07140E034A00F00F031B1FD45410BD72
:103DA00000E400E018ED00E010B54FF00E402DEDFE
:103DB000028BB0EE408A18EE104A00EB4400B0F1DE
:103DC000506F4AD84FF0FC40B0EB440F22D2B0EE17
:103DD000C80AF7EE000A30EEC00AF6EE000A60EEFE
:103DE000208A18EE900A03F0A3F901EE100A14F0ED
:103DF000004F1DBFDFED2D0A9FED2D0AB1EE411AD8
:103E0000DFED2C0A08BF9FED2C0AF8EE001A21EE18
:103E1000218A05E0DFED290A68EE088AB0EE600A23
:103E20009FED271ADFED271A30EE080A48EE811AB7
:103E30009FED251A08EEA11ADFED241A48EE811A2B
:103E40009FED231A08EEA11A68EE281ABDEC028B2A
:103E500001EE810A30EE200A10BD4FF0E440B0EBD5
:103E6000440F0CD918EE100AFFF76EFF042808BFA4
:103E700000F0B8FAB0EE480ABDEC028B10BD4FF06E
:103E80007F40B0EB440F07D2B0EE480ABDEC028B86
:103E9000BDE8104000F098BA012000F0BBFABDEC7C
:103EA000028BBDE8104000F095BA00000000C9BFC9
:103EB00022AAFDB90000C93F22AAFD390000000076
:103EC00024FE1C3DC78AD83C1E67383D1B93993D94
:103ED000AFAA2A3E70B54FF068422DED048BF0EE8C
:103EE000408A18EE900AB0EE608A18EE101A02EBC3
:103EF0004003B3F1654F3CBF02EB4102B2F1654FA5
:103F00007DD200BFC0F3C753C1F3C7529A1A1B2A10
:103F100009DD10F0004F14BF9FED830A9FED830A67
:103F2000BDEC048B70BD12F11A0F36DA11F0004FA0
:103F300009D010F0004F0CBF9FED7D0A9FED7D0A68
:103F4000BDEC048B70BD88EE889A19EE100AFFF75D
:103F5000FBFE042808BF00F045FA18EE900AFFF7B0
:103F6000F3FE054618EE100AFFF7EEFE044619EEC2
:103F7000100AFFF7E9FE042D18BF052D08D1042C07
:103F800018BF052C04D1002804BF022000F042FA1B
:103F9000B0EE490ABDEC048B70BD4200B2EB410F9C
:103FA0003AD910F0004F19BFDFED630A9FED630AA5
:103FB000DFED630A9FED630AB0EE481A0A46B1EEE0
:103FC000688A80F00041F0EE418A10460A1A5200D9
:103FD000B2F1807F34D2484010F0004FDFED5A1A22
:103FE0009FED5A2A1DBFBEEE001A70EEE10A30EEB8
:103FF000420AB6EE001A08BF70EEA10A00E040E0E7
:1040000008BF30EE020AB0EE682A01EE482A08EE38
:10401000818AC2EE081A15E011F0004F04BF9FED2F
:104020004C0AF0EE400AD1D010F0004F19BFDFED7E
:10403000490A9FED490ADFED490A9FED490AC5E7A4
:10404000C8EE881A21EEA11A9FED462ADFED462A16
:1040500041EE022A9FED452A01EE222ADFED442A95
:1040600041EE022A9FED432ABDEC048B01EE222A89
:1040700021EE811A01EE020A30EE210A30EE200A0A
:1040800070BD4FF07F42B2EB400F28BFB2EB410F43
:1040900009D2F0EE480AB0EE680ABDEC048BBDE828
:1040A000704000F094B940EA01035B0008BF41F0A2
:1040B000FF410BD0B2EB400F08BFB2EB410F08D16C
:1040C00020F0804008EE900A21F0804108EE101A9E
:1040D00018E7B2EB400F12BF5FEA410340F0FF4028
:1040E00001F000413FF40EAFB2EB410F12BF5FEAA7
:1040F000400200F0004041F0FF413FF403AF4A00AE
:1041000092EA40033FF5FEAE002AACBF9FED1A0ACB
:104110009FED1A0A68EE808A28EE008A18EE900A4F
:1041200018EE101AEEE60000DB0FC9BFDB0FC93F27
:10413000DB0F4940DB0F49C00000C9BF22AAFDB90F
:104140000000C93F22AAFD390060ED3EC30ACE3708
:1041500000000000000049C022AA7DBA00004940CA
:1041600022AA7D3A2DAD65BD8FB8D53D0FB511BEE4
:1041700061C84C3EA8AAAABE0000804F0000802F54
:1041800010B52DED040B86B09DED060B10EE100A58
:1041900010EE901A8DED000B002818BF0120084387
:1041A00020F00040C0F17F6000F1E040C00F21D15D
:1041B0009DED080B10EE101A10EE900A8DED000B1D
:1041C000002918BF0121084320F00040C0F17F60A2
:1041D00000F1E040C00F0DD129490798B1EB400F25
:1041E00004BF0698002842D00998400004BF0898F0
:1041F00000283CD09DED080B53EC102B9DED060BD9
:1042000051EC100BFCF722FBCDE902019DED020BF6
:1042100040F2FF7110EE900A8DED000B31EA105064
:1042200021D00798039900F0004001F00041884236
:1042300019D09DED080B8DED040B9DED020B8DED5E
:10424000000B10EE900A059961F31E0005909DED9C
:10425000041B9DED020B51EC110B53EC102BFCF7E2
:10426000CCF9CDE902019DED020B0AB010BD012091
:1042700000F0D0F80AB0BDE8104000F095B800009A
:104280000000E0FF0000000010B52DED020B2DED49
:10429000088B84B09DED0C0B51EC100BFCF792FADF
:1042A00041EC180B9DED0C0B53EC182B51EC100B43
:1042B000FCF7A0F941EC190B0D989FED290B10F0BC
:1042C000004F53EC102B51EC190B9FED21AB9FEDE0
:1042D00022BB0ED0FCF716FB0ED953EC1B2B51EC76
:1042E000190BFCF727FB1CD214E000BF41EC180BA4
:1042F00017E0FCF707FB06D253EC1A2B51EC180B16
:10430000FCF778F9F2E753EC1B2B51EC190BFCF797
:1043100011FB06D853EC1A2B51EC180BFCF7C9F81B
:10432000E4E78DED028B9DED0C0B18EE901A10EE6C
:10433000900A8DED000B61F31E0003909DED020BC2
:1043400004B0BDEC088B02B010BD000000000000FE
:10435000000000000000F03F000000000000E03F0F
:10436000000000000000E0BF10B52DED028BB1EEA3
:10437000C08A18EE100A20F00040C0F1FF40C00FC4
:104380000AD010EE100A20F00040C0F1FF40C00F2C
:1043900004BF012000F03EF8B0EE480ABDEC028BED
:1043A00010BD0000000000009FED050B10B553ECA0
:1043B000102B51EC100BFCF795F941EC100B10BDD4
:1043C000000000000000000030EE000A704730EEF0
:1043D000200A7047DFED020A80EEA00A7047000055
:1043E000000000009FED020A20EE000A7047000066
:1043F0000000001002E008C8121F08C1002AFAD10C
:1044000070477047002001E001C1121F002AFBD154
:104410007047000001490860704700003C0100201F
:104420002DE9FF5F82B00021DDE90430020DDDF8E7
:1044300040B0034318D044F61050A2F2FF3242437A
:104440001514119801281FD0A5EB0B00401C5FEA42
:10445000000A4FF000064E4FDFF83891B046504644
:1044600015D5CAF1000413E0119801244AA30128CC
:1044700001D16FEA0B010298119AC0E90031C0E93D
:10448000024206B0BDE8F09FCBF10000DFE7044632
:104490000021404A491842EB0450CDE9001012E0D7
:1044A000E00707D032463B4640464946FCF7A8F8AD
:1044B0008046894632463B4610461946FCF7A0F82E
:1044C00006460F466410002CEAD1DDE90401DDE95F
:1044D0000023BAF1000F06DAFCF792F842464B4689
:1044E000FCF78EF805E0FCF7FDF842464B46FCF77A
:1044F000F9F804460E460022284BFCF71BFA03D8B5
:104500004FF0FF30014607E00022254B20463146A0
:10451000FBF7CFFFFCF7DDF9102409E0002C0ADBE4
:104520000A220023FBF7B6FE039B30321A55641EA5
:1045300050EA0102F2D1641C039AC4F1110314443D
:10454000119A012A03D0012208430DD10AE0084341
:1045500004D000204FF0110B119072E7A3EB0B0574
:104560006D1E0DE05B4504DD4FF0000205F1010515
:1045700004E003DA4FF00002A5F10105002AECD0B7
:1045800002981199C0E90231C0E9004579E70000BD
:10459000000014400000F03F300000000000F04335
:1045A0000000E03F2DE9FF4F95B09A468846064649
:1045B0000025EEE1252877D100242746F94A01217C
:1045C000039400E0044316F8013F203B01FA03F096
:1045D0001042F7D130782A2811D06FF02F033078AD
:1045E000A0F13002092A16D8039A44F0020402EB23
:1045F000820203EB42021044761C0390EFE758F866
:10460000042B0392002A03DA504244F4005403902E
:1046100044F00204761C30782E2816D116F8010FCB
:1046200044F004042A280DD06FF02F023078A0F156
:104630003003092B09D807EB870302EB4303C718A4
:10464000761CF3E758F8047B761C30786C280FD082
:1046500006DC4C2817D068280DD06A2814D104E055
:10466000742810D07A280FD10DE044F400140AE029
:1046700044F4801401E044F440147278824202D180
:1046800004F58014761C761C307866280BD013DC79
:10469000582877D009DC002875D04528F6D0462860
:1046A000F4D047281AD193E118E0632835D0642864
:1046B00079D0652812D18BE1702873D008DC672887
:1046C000F1D069286FD06E280DD06F2806D1ACE0EC
:1046D00073282CD0752874D0782853D05246179957
:1046E00090476D1C54E1C4F30250022809D00328FE
:1046F0000DD0D8F8001004280DD00D6008F1040882
:1047000046E1D8F80010EA17C1E90052F6E7D8F8F8
:1047100000100D80F2E70D70F0E718F8041B8DF81B
:10472000001000208DF80100EB46012003E058F84E
:1047300004BB4FF0FF3061074FF0000102D40DE0E1
:1047400009F101018946B9420FDA8145F8DB1BF80E
:1047500009100029F4D108E009F1010189468142DC
:10476000FADB1BF809100029F6D103985346A0EB99
:10477000090721463846179A00F080FA284400EBD2
:10478000090507E044E008E10DE01BF8010B524683
:1047900017999047B9F10109F7D253462146384697
:1047A000179AF2E039E00A21C4F302524FF0000BED
:1047B0000091022A06D058F8040BC117032A09D029
:1047C0000AE023E008F1070020F00702F2E8020106
:1047D000904605E000B2C117042A01D140B2C117CA
:1047E000002906DA0A460021404261EB02012D222F
:1047F00002E0220504D52B228DF80420012203E0DB
:10480000E20701D02022F7E7914657E00A2100E0B5
:1048100010214FF0000B00910BE010214FF0000B26
:1048200044F004040827009103E008204FF0000B37
:104830000090C4F30252022A05D058F8040B00215C
:10484000032A08D008E008F1070020F00702F2E888
:104850000201904603E080B2042A00D1C0B24FF0BA
:10486000000922072AD53278702A07D0DDF800C067
:104870008CF0100C5CEA0B0C05D00EE040228DF899
:104880000420012208E050EA010306D030238DF80D
:1048900004308DF8052002229146009B83F0080326
:1048A00053EA0B030AD150EA010201D1620705D590
:1048B00030228DF804204FF001097F1E3278582AEB
:1048C00004D039A20C920CAA02920BE03BA2F9E7A9
:1048D0005B46009AFBF7DEFC0C9B9B5C029A521E27
:1048E0000292137050EA0102F2D1029804A9081A48
:1048F00000F1200B600702D524F4803400E001278A
:104900005F4502DDA7EB0B0000E0002000EB0B0190
:10491000009003984944401A0390E00306D453469C
:104920002146179A039800F0A9F90544002706E0EC
:1049300001A85246C05D179990476D1C7F1C4F45DA
:10494000F6DBE0030CD553462146179A039800F096
:1049500095F9054404E030205246179990476D1CA4
:104960000099481E00900029F5DC08E002980299A1
:1049700052460078491C0291179990476D1CBBF173
:104980000001ABF1010BF1DC5BE100F065F90544DE
:10499000761C307800287FF40DAE19B02846BDE8AB
:1049A000F08F0000092801003031323334353637BA
:1049B000383961626364656600000000303132336B
:1049C000343536373839414243444546000000000B
:1049D000600700D4062708F1070020F00700F0E880
:1049E0000223804603F0004C5FEA0C0001D097A040
:1049F00009E0200501D596A005E0E00701D095A0CB
:104A000001E0AFF24C001390307823F000436528AA
:104A10000CD006DC452809D046281DD047287FD178
:104A20003BE0662818D067287AD136E00021112FA4
:104A300001DB112000E0781CCDE9000104A90CA8DD
:104A4000FFF7EEFCDDE90D010C9A4FF0000B07F1CA
:104A50000109109200914EE04FF000400097CDE91F
:104A6000011004A90CA8FFF7DBFCDDE90D020C9B8B
:104A70000F994FF0000B91461093009211B9791CD9
:104A800000EB0109B7EB090003D4C0F1FF3B07F1CC
:104A90000109A9EB0700019042E0012F00DA01278C
:104AA0000021112F01DD112000E03846CDE9000181
:104AB00004A90CA8FFF7B4FCDDE90D010C9A0091E4
:104AC0004FF0000BB946109221070FD4009A4A45C7
:104AD00003DA914601E0A9F10109B9F1010F05DD01
:104AE000109AA9F10101515C3029F4D0B84202DAE0
:104AF00010F1040F03DA0121CDE9011010E00028C4
:104B000003DC8344A9EB000102E0411C494500DDC0
:104B10008946A0EB0B00401C01904FF00040029032
:104B2000200705D40198484502DB4FF0FF30019083
:104B300000208DF84B0002980DF14B07B0F1004FAB
:104B400025D002200C902B200D90029800280CDA22
:104B5000404202902D200D9007E00A210298FBF7B9
:104B60003CFC3031029007F8011D0C99481E0C9056
:104B70000029F2DC02980028EFD1791E0D98087008
:104B8000307800F0200040F0450007F8020D11A831
:104B9000C01BC01D02901398007800B1012000EBEB
:104BA0000901019801EBE071029801440398401A51
:104BB000401E0390E00306D453462146179A0398FB
:104BC00000F05CF805441398007818B15246179924
:104BD00090476D1CE00323D553462146179A03984E
:104BE00000F04CF805441BE0BBF1000F07DB009818
:104BF000584504DD1098179910F80B0001E017993B
:104C000030205246904701980BF1010B401E05F1F0
:104C10000105019004D12E205246179990476D1C32
:104C2000B9F10001A9F10109DEDC05E017F8010B7B
:104C30005246179990476D1C0299481E0290002910
:104C4000F4DC53462146179A03989EE62D00000097
:104C50002B000000200000002DE9F0410446002553
:104C60001E461746880404D405E039462020B04784
:104C70006D1C641EF9D52846BDE8F0812DE9F04190
:104C8000044600251E469046C80301D5302700E0A3
:104C90002027880404D505E041463846B0476D1CFE
:104CA000641EF9D52846BDE8F08100002DE9F843DF
:104CB0000746884615461E464FF000091CE02A4666
:104CC0004146384600F0CEFB022000F0ADF94146E7
:104CD000384600F0ABFB044604EA060005EA06018C
:104CE000884202D10020BDE8F883022000F09CF940
:104CF00009F1010000F0FF09B9F1030FDFD32B46E2
:104D00004246394602480094FFF70EF80120EAE7D0
:104D1000888A00081CB505480A2100238022CDE9B5
:104D2000001003A1054803F08DFA1CBD7800002097
:104D300073746172745F7461736B00007171000849
:104D400010B52DED048B02F0AFFB552042490870E1
:104D500001F0E8F9C8282AD8404840783E49487010
:104D60003E48807888703D48C078C8703B480079DC
:104D700008713A48407948713848807988713748D5
:104D8000C079C8713548007A08723448407A487250
:104D90003248807A88723148C07AC8722F4AD179F5
:104DA000907902F0A1FA2E4880ED000A11E000206F
:104DB000294948708870C870087148718871C87135
:104DC000087248728872C8729FED260A244880EDE6
:104DD000000A2548D0ED010AB0EE600A1E490D31E7
:104DE000481E00F051F91D4880791B4988731B4803
:104DF000C079C8730020087448748874FF20C87490
:104E00000846407840B2194908701348807840B28B
:104E100048701148C07840B28870154A917850782F
:104E200002F062FA10EE104A2046FBF7A7FA41ECB6
:104E3000190BB0EE490AF0EE690A01F001F8B0EE84
:104E4000408AF0EE608A51EC180BFBF7AAFA04498D
:104E50008860BDEC048B10BD00050020E00400203C
:104E60007005002000000000700400209800002061
:104E70001405002008B503F09BFA009007E0FFF747
:104E80005FFF02F03FFA0121684603F00BFAF6E7F4
:104E900008B503F08DFA009000240FE000F03EFD0D
:104EA00001F056F9601C80B20446642802D3002445
:104EB00000F020F80121684603F0F4F9EEE7000065
:104EC00010B5DFED070A9FED070A074A00210748E2
:104ED000FEF746FC552006490870FF20C87410BD37
:104EE000CDCCCC3E9A99993FA00000202805002007
:104EF0000005002030B52DED0A8B8BB001F012F9C2
:104F0000044627480068FBF739FA41EC180B00F01B
:104F1000A9FC0546234890ED020A10EE101A084637
:104F2000FBF72CFA41EC190B1E4890ED010A10EE2C
:104F3000101A0846FBF722FA41EC1A0B194890EDBB
:104F4000000AB1EE400ADFED180A20EE200A10EE4A
:104F5000101A0846FBF712FA41EC1B0B134890EDB0
:104F6000010ADFED110A20EE200A10EE101A0846A1
:104F7000FBF704FA41EC1C0B8DED088BCDE90645DF
:104F80008DED049B8DED02AB8DED00BB53EC1C2B26
:104F900007A0FEF7C9FE0BB0BDEC0A8B30BD0000C8
:104FA0004800002070050020E12E654270040020BA
:104FB0004D4F544F5220703D252E32662074677439
:104FC0003D252E3266207069643D252E33662065AE
:104FD0006E633D252E3366206E72663D256C75200E
:104FE000683D25752064743D252E34660D0A000049
:104FF00070B504460420FDF786FB0A480460254688
:105000004FF47A7045434FF0E020006940F0020011
:105010004FF0E021086108464561006940F0010059
:10502000086170BD0400002030B50446002504E08E
:105030004FF47A7000F004F86D1CA542F8D330BD2F
:1050400070B5034600224FF0E02675690D4E3668B4
:1050500003FB06F44FF0E026B16910E04FF0E026C4
:10506000B06988420BD0884202D20E1A324402E064
:105070002E1A0E4432440146A24200D300E0EDE76E
:1050800000BF70BD0400002070B52DED068BB0EEA2
:10509000408A05460E469FED1B0AB4EEC08AF1EE2B
:1050A00010FA03DD9FED170AB0EE408A9FED160A55
:1050B000B4EEC08AF1EE10FA03D29FED130AB0EEFF
:1050C000408A9FED120A28EE000A10EE101A0846D8
:1050D000FBF754F941EC1A0BB0EE4A0AF0EE6A0AFB
:1050E000FFF7D2F8B0EE409AF0EE609A51EC190B4F
:1050F000FBF725F904B2200A28703470BDEC068B4A
:1051000070BD0000C3D5A3430AD7A3C30000C842A3
:1051100000BF054A126802F04002002AF9D0C2B26C
:10512000014B1B1D1A6070470044004070B50246D9
:105130000B46214821490978425420480078401CF8
:10514000142190FBF1F401FB14001C4908701C4869
:105150000078142804DA1A480078401C18490870AE
:1051600017480078142825DB144801781248405C61
:1051700055281ED101F11300142490FBF4F504FB13
:1051800015000D4C205CFF2813D100200AE00C18FC
:10519000142594FBF5F605FB1644074D2C5D1C54B5
:1051A000441CE0B21428F2DB0020054C20700120E2
:1051B00070BD00BF0020FBE790050020B400002078
:1051C000B50000202DE9F0412DED028B04460D467F
:1051D00016461F4694ED001A21EE011AD4ED011A6D
:1051E00094ED012A01EE821AF7EE001AB0EE002AC1
:1051F00052EE011AF0EE610A94ED001AD4ED031A92
:1052000021EE211AD4ED011A94ED022A01EE821A40
:10521000F0EE001A21EE211AB0EE410AFEF75AFE16
:1052200085ED000A94ED010AD4ED030A20EE200A70
:10523000D4ED000A94ED021A00EEC10AF8EE000A5D
:1052400020EE200AB0EE408AB7EE000AB4EEC08A23
:10525000F1EE10FA04DDB7EE000AB0EE408A0AE083
:10526000BFEE000AB4EEC08AF1EE10FA03D2BFEE30
:10527000000AB0EE408AB0EE480AFEF795FD86EDD2
:10528000000A94ED001A21EE011AD4ED031A94EDF0
:10529000032A01EE821AF7EE001AB0EE002A52EE4F
:1052A000011AF0EE610A94ED001AD4ED011A21EE14
:1052B000211AD4ED021A94ED032A01EE821AF0EEBF
:1052C000001A21EE211AB0EE410AFEF703FE87ED27
:1052D000000ABDEC028BBDE8F081000002480068C6
:1052E000012121EA500070471858004010B586B0DF
:1052F000142101A8FBF718F8FFF7F0FF08B106B07A
:1053000010BDFCF77FF835490968401A142800D20F
:10531000F5E7FCF777F83149086031480068006824
:1053200020F001002E49096808602E48006840F40A
:1053300000402C49086008460068C0F30E00086071
:105340004FF4406001901120029001200390022050
:10535000049001A92448FBF73DFF0122D102224815
:10536000FCF744F8002412E0012291021E48FCF7E9
:105370003DF80520FFF764FE00224FF480611A48D3
:10538000FCF734F80520FFF75BFE601CC4B2092C63
:10539000EADB00224FF400611348FCF727F80520F0
:1053A000FFF74EFE012291020F48FCF71FF805207F
:1053B000FFF746FE0122D1020B48FCF717F8052043
:1053C000FFF73EFEFDF726FEFDF758FE05481430B8
:1053D000006804481830006800BF90E738000020DB
:1053E000BC030020005800400004024010B5FDF747
:1053F00011FEFDF743FEFFF779FF10BDFEB5044631
:105400000D4616461F46FFF771FF05206100012378
:105410002A46CDE9006702900348FCF7E1F808B995
:105420000020FEBD0120FCE7BC0300207FB5044640
:105430000D46FF200390FFF759FF0520012103AA25
:10544000CDE900210290610001232A460448FCF7BF
:10545000C7F808B1FF2003909DF80C0004B070BDA0
:10546000BC03002037B584B004460D46FFF73EFF6D
:105470000520012106AACDE9002102906100012347
:105480002A460248FCF726FA07B030BDBC030020CC
:105490000948006840F0807007490860002007490B
:1054A00048600846006840F001000860084640680F
:1054B0000349086070470000FCED00E0001000E0C8
:1054C0005000002002484068024908607047000010
:1054D000001000E05000002070B52DED0A8B8EB05A
:1054E00000200B900C900D9000240025ABA0FEF73F
:1054F0001BFC00BF10E0B14AB148011F0B1FCDE9F2
:1055000001020091AF4A111F081FFBF70DFC01209B
:10551000FFF78AFD681C85B2962DECD3002578E054
:10552000681C85B2A54AA648011F0B1FCDE90102E0
:105530000091A44A111F081FFBF7F6FB06461EB197
:105540000120FFF771FD64E09E480838D0ED000AA5
:1055500060EEA00A90ED011AD0ED011A41EE210A89
:1055600090ED021AD0ED021A41EE210AB0EE600A67
:10557000FEF7FAFEB0EE408A91480838D0ED000AF6
:1055800060EEA00A90ED011AD0ED011A41EE210A59
:1055900090ED021AD0ED021A41EE210AB0EE600A37
:1055A000FEF7E2FEF0EE408A9FED870AB4EEC08A75
:1055B000F1EE10FA29DB9FED850AB4EEC08AF1EE18
:1055C00010FA22D8B2EE000AF4EEC08AF1EE10FA18
:1055D0001BD89DED0B0A7A480838D0ED000A30EE52
:1055E000200A8DED0B0A9DED0C0AD0ED010A30EE7C
:1055F000200A8DED0C0A9DED0D0AD0ED020A30EE69
:10560000200A8DED0D0A601C84B20120FFF70CFD0D
:1056100000BFB4F5487F02D2B5F5C86F80D3B4F5AA
:10562000487F79D26648083890ED020A10EE101AC9
:105630000846FAF7A3FE41EC180B6148083890EDD4
:10564000010A10EE101A0846FAF798FE41EC190B01
:105650005B48083890ED000A10EE101A0846FAF779
:105660008DFE41EC1A0B56480838D0ED000A60EE6A
:10567000A00A90ED011AD0ED011A41EE210A90ED39
:10568000021AD0ED021A41EE210AB0EE600AFEF7CE
:105690006BFE10EE106A3046FAF770FE41EC1B0B01
:1056A00048480838D0ED000A60EEA00A90ED011AD3
:1056B000D0ED011A41EE210A90ED021AD0ED021A46
:1056C00041EE210AB0EE600AFEF74EFE10EE106ABF
:1056D0003046FAF753FE41EC1C0B8DED088B8DED37
:1056E000069B8DED04AB8DED02BB8DED00CB4FF431
:1056F000487221463648FEF717FB9FED360A3648BA
:1057000080ED020A80ED010A80ED000A00200EB053
:10571000BDEC0A8B70BDFFE79DED0B0ADFED2F0A94
:1057200080EE201A2C4880ED001A9DED0C0ADFED6A
:105730002B0A80EE201A80ED011A9DED0D0ADFED97
:10574000270A80EE201A80ED021A90ED020A10EE70
:10575000101A0846FAF712FE41EC180B1E4890ED9D
:10576000010A10EE101A0846FAF708FE41EC190B70
:10577000194890ED000A10EE101A0846FAF7FEFDDF
:1057800041EC1A0B8DED028B8DED009B53EC1A2B27
:1057900013A0FEF7C9FA0120B9E70000494D5520D2
:1057A0006779726F2063616C69623A206B6565701E
:1057B000207374696C6C0D0A0000000090000020DA
:1057C000A8040020B40400209A99593F3333933F32
:1057D000408A0008000000005804002000004844EF
:1057E000494D55206779726F5F626961733A202570
:1057F0002E346620252E346620252E3466206470D3
:10580000730D0A0010B5FFF743FE0A4A0A490B4818
:10581000FBF746F9FFF760FE10B909A0FEF784FA1E
:1058200000200F490880012000F060F8FFF74AFED1
:1058300010BD0000B8040020A0040020C404002013
:10584000494D552072756E6E696E67207769746870
:105850006F7574206779726F20626961730D0A0039
:105860005400002001480078704700004C000020E0
:105870001849486818490968411A01EE101A164972
:1058800008601649096811B99FED150A7047F8EECE
:10589000411A124991ED000AB8EE400AC1EE800AA1
:1058A0009FED100AF4EEC00AF1EE10FA04D29FED5B
:1058B0000D0AF0EE400A0AE09FED0B0AF4EEC00A72
:1058C000F1EE10FA03DD9FED080AF0EE400AB0EEAB
:1058D000600ADBE7001000E050000020000000201C
:1058E0006F12833A6F12033A0AD7A33B10B50446EE
:1058F0000848047034B100BF012210210648FBF7AC
:1059000075FD06E000BF002210210348FBF76EFD85
:1059100000BF10BD4C0000200000024010B586B052
:10592000FFF7A6FF644880ED000A644A6448011F3F
:105930000B1FCDE901020091624A111F081FFBF7FE
:10594000F3F904464CB900205F4908805F480078AD
:10595000A8B90120FFF7CAFF11E05B4800884FF6A5
:10596000FF71884204D258480088401C564908807C
:1059700055480088142802D30020FFF7B7FF50488D
:10598000083890ED000A5248D0ED000A30EE600A67
:105990004B48083880ED000A90ED010A4C48D0EDE4
:1059A000010A30EE600A4648083880ED010A90EDA1
:1059B000020A4748D0ED020A30EE600A4048083833
:1059C00080ED020A90ED000ADFED420A20EE200A87
:1059D0008DED030A90ED010ADFED3E0A20EE200A6C
:1059E0008DED040A90ED020ADFED3A0A20EE200A5E
:1059F0008DED050A384B334A083A03A92E4890ED3D
:105A0000000A3648FBF760F8354B1A1F111F334860
:105A1000FFF7D8FB32480838D0ED000AB0EE600A34
:105A2000002000F015FC2F4880ED000A2C480838B3
:105A3000D0ED010AB0EE600A012000F009FC29480F
:105A400080ED010A26480838D0ED020AB0EE600A5F
:105A5000022000F0FDFB234880ED020AD0ED000A91
:105A6000B0EE600A1448D0ED000A1F4800F0F8F8C4
:105A70001E4880ED000A1B48D0ED010AB0EE600A16
:105A80000D48D0ED000A1848001D00F0E9F817484D
:105A900080ED010A1348D0ED020AB0EE600A064814
:105AA000D0ED000A1048083000F0DAF80F4880ED19
:105AB000020A06B010BD000048000020900000203F
:105AC000A8040020B4040020540000204C00002052
:105AD0005804002035FA8E3CB8040020C40400208D
