:020000040800F2
:10000000F007002029010008A122000817010008BC
:100010001B0100081F010008230100080000000068
:10002000000000000000000000000000C9250008DA
:10003000EB0C00080000000033240008CB2500086A
:100040004301000843010008430100084301000880
:100050004301000843010008430100084301000870
:100060004301000843010008430100084301000860
:100070004301000843010008430100084301000850
:100080004301000843010008430100084301000840
:100090004301000843010008430100084301000830
:1000A0004301000843010008430100084301000820
:1000B000D12500084301000843010008430100085E
:1000C0004301000843010008430100084301000800
:1000D00043010008430100084301000843010008F0
:1000E000430100084301000843010008DFF810D075
:1000F00000F020FC00480047AD420008AFF300804C
:10010000F00700201EF0040F0CBFEFF30881EFF39F
:10011000098103F071BE0120F4E70220F2E7032019
:10012000F0E70420EEE70000064880470648004755
:10013000FEE7FEE7FEE7FEE7FEE7FEE7FEE7FEE797
:10014000FEE7FEE7CF250008ED000008D2B201E08F
:1001500000F8012B491EFBD270470022F6E710B5CC
:1001600013460A4604461946FFF7F0FF204610BD25
:10017000F0B480EA0102D40F4200B2EB410F02D288
:100180000246084611464A0042D0C30DDDB2C1F313
:10019000C752AD1A202D35DAC1F3160141F4000221
:1001A00004B15242C5F1200602FA06F12A41104478
:1001B000B3EBD05F23D0C4B1012DA0EBC35009DC59
:1001C000F0BC4FF0004202EAC352DBB200F500007F
:1001D00000F054B9400000F1807000EBC350A0F172
:1001E000807040EAD170490009E0490841EAC071D5
:1001F000A0EBC35000F50000400800EBC350F0BC7A
:1002000000F033B96142012202EB4101001BF6E725
:10021000F0BC704781F00041AAE780F00040A7E7FA
:1002200080EA010210B502F00043400022D04A00EB
:100230001FD0010E01EB1261C0F35600C2F356024B
:1002400040F4000042F40002A0FB022000047F39C9
:10025000140400D0401C50EA124001D44000491E52
:10026000C2B20C0604EBD010401C4008802A02D019
:1002700003E0002010BD20F00100002900DA00207A
:10028000184310BD30B480EA010202F0004530F09E
:10029000004221F0004013D090B1C30DD40DC2F341
:1002A0001601C0F31600E41A41F4000140F4000204
:1002B0007D34914201D3641C00E04900002C02DA35
:1002C00030BC002070474FF400000023914201D35E
:1002D000891A034340084FEA4101F7D151B19142D5
:1002E00002D14FF0004105E002D24FF0010101E0E0
:1002F0006FF0010103EBC450284430BC00F0B5B8E6
:10030000420005D0C0F3C7525242914201DC0020A6
:10031000704700EBC1507047C10F80EAE07008449D
:10032000CA079623002100F0A9B89623002211469F
:1003300000F0A4B800F0004220F00040C10DC0F36E
:10034000160040F400007F2901DA0020704796294A
:1003500003DCC1F19601C84001E096398840002ACB
:10036000F4D04042704720F00040C10DC0F31600A9
:1003700040F400007F2901DA00207047962903DC51
:10038000C1F19601C840704796398840704700F027
:10039000004230F000400AD0C10D01F56071C0F399
:1003A000160042EA0151C20840071143704700207D
:1003B00001467047002801DBC0F10040002901DB45
:1003C000C1F1004181427047002801DBC0F10040CB
:1003D000002901DBC1F100418842704730B50B466E
:1003E000014600202022012409E021FA02F59D4265
:1003F00005D303FA02F5491B04FA02F52844151E39
:10040000A2F10102F1DC30BD2DE9F05F05460020CC
:1004100092469B4688460646814640241BE0284675
:1004200041464746224600F0A6FA53465A46C01AAD
:10043000914110D311461846224600F08DFA2D1A2C
:1004400067EB01084F4622460120002100F084FAA4
:1004500017EB00094E41201EA4F10104DFDC4846E1
:1004600031462A464346BDE8F09F0029A8BF7047A1
:10047000401C490008BF20F00100704710B4B0FADA
:1004800080FC00FA0CF050EA010404BF10BC704775
:1004900049B1CCF1200421FA04F411FA0CF118BF8F
:1004A000012121430843A3EB0C01CB1D4FEA00615E
:1004B0004FEA102042BF002010BC704700EBC35031
:1004C00010440029A4BF10BC7047401C490008BF5D
:1004D00020F0010010BC7047F0B4002802DCF0BC32
:1004E00000207047C0F3C751C0F3160040F400006D
:1004F000CA0701D14000491E3F2202EB61050022DC
:1005000011464FF4000626FA01F31344D41884422E
:1005100001D8001B1A464000491C1729F3DD510081
:10052000814202D24FF0FF3100E0002102EBC550C2
:10053000F0BCFFF79ABF10B541000CD0C0F3C75113
:10054000962908DC7E2909DC06DB410204D000F094
:10055000004040F07E5010BD002010BDC1F1960457
:10056000C4F1200100FA01F1E040FFF77EFFA04056
:1005700010BDF0B400F0004221F0004120F0004036
:10058000CE0DC30DC1F3160141F40001C0F31600F6
:100590004C42154640F40000761E09E010EB440082
:1005A00002D582F0004240428842F7D840005B1EEC
:1005B000B342F9DA18B1F0BC0021FFF75FBF28465B
:1005C000F0BC70472DE9FE4F804681EA0300C00F62
:1005D0000C46009021F0004123F00045B8EB0200EA
:1005E000A94105D24046214690461C460B4602468C
:1005F00023F00040104347D0270DC7F30A00C3F390
:100600000A510290401A019040286BDAC3F313009C
:1006100040F4801B0098924620B10023D2EB030ADD
:1006200063EB0B0B01985946C0F14002504600F0B5
:1006300093F906460D4650465946019A00F0ABF92B
:1006400010EB08006141002487EA115284EAE77345
:100650001A4340D0009A62B3019A012A4FEA075226
:1006600015DC001B61EB02014FF0004202EA075269
:10067000CDE90042001C41F5801132462B4600F0C6
:10068000ABF903B0BDE8F08F40462146F9E7001B07
:1006900061EB0201001C41F5801300185B4120183A
:1006A000A2F5001747EB030140EAD570B6196D417A
:1006B00011E06D084FEA360645EAC0754FEA075269
:1006C000001B61EB0201001C41F5801149084FEA53
:1006D00030000019514132462B4603B0BDE8F04FBF
:1006E00000F06BB90098012240000023D0EB020219
:1006F00063EBE073009821464FEAE074B8EB00002A
:1007000061EB0401E9E783F000435BE781F000411E
:1007100058E72DE9FE4F81EA030404F0004421F07C
:10072000004100944FF0000B23F0004350EA010415
:100730005ED052EA03045BD0C3F30A54C1F30A55F6
:100740002C44A4F2F3340194A0FB0254C1F313012E
:1007500041F48011C3F3130343F4801301FB0244FB
:1007600000FB034E840A970A44EA815447EA835700
:10077000A4FB076802958D0A05FB07854FEA932CB9
:1007800004FB0C542705029D4FEA065847EA16372A
:10079000B5EB08056EEB070C870E920E47EA811742
:1007A00042EA8312A7FB0201B6EB0B0164EB0004E3
:1007B0002B0D43EA0C335E1844EB1C50DA465146CD
:1007C000E7FB0201C5F313044FEA0B3343EA14536A
:1007D0004FEA0432019C43EA0603A4F10C0402949C
:1007E000009CCDE900B400F0F7F803B0BDE8F08F4D
:1007F00000200146F9E72DE9F04D81EA030404F0F9
:10080000004B21F0004514464FF0000A23F0004150
:1008100050EA050220D054EA01021DD0C5F30A5760
:100820000246C5F31303C1F31300C1F30A5640F4A3
:10083000801543F48013A7EB0608101BD64608F278
:10084000FD3873EB050002D308F1010801E09218AE
:100850005B41B8F1000F03DA00200146BDE8F08DDE
:1008600000204FF48011064684460EE0171B73EB00
:10087000050705D3121B63EB050306434CEA010C85
:1008800049084FEA300092185B4150EA0107EDD168
:1008900052EA030012D082EA040083EA0501084309
:1008A00005D0101BAB4106D20122002306E0002236
:1008B0004FF0004302E06FF0010253101AEB060004
:1008C0004CEB085110EB0A0041EB0B01BDE8F04D79
:1008D00000F073B8C1F30A52C1F3130140F2FF33C1
:1008E00041F480119A4202DA00200146704740F23A
:1008F00033439A42A2F2334202DC524200F03BB848
:1009000000F02AB830B5041E71F1000404DB4FF08A
:100910000044404264EB0101141E73F1000405DB46
:100920001C464FF00043524263EB0403994208BF58
:10093000904230BD064C074D06E0E06840F00103F0
:1009400094E8070098471034AC42F6D3FFF7D2FB87
:10095000E44D0008044E0008202A04DB203A00FA87
:1009600002F1002070479140C2F1200320FA03F306
:10097000194390407047202A04DB203A21FA02F004
:100980000021704721FA02F3D040C2F120029140C9
:10099000084319467047202A06DBCB17203A41FA54
:1009A00002F043EAE07306E041FA02F3D040C2F1FC
:1009B0002002914008431946704710B5141E73F188
:1009C000000408DA401C41F1000192185B411A430F
:1009D00001D120F0010010BD2DE9F04D92469B465B
:1009E00011B1B1FA81F202E0B0FA80F22032904601
:1009F000FFF7B2FF04460F4640EA0A0041EA0B0146
:100A000053465A46084313D0114653EA010019D001
:100A1000C8F140025046FFF7AEFF05460E4650466D
:100A200059464246FFF798FF084305D0012004E0ED
:100A300020463946BDE8F08D0020054346EAE076C1
:100A40002C4337430A986305E40AA0EB0800002210
:100A5000FD0A44EA47540A3002D500200146E9E77E
:100A6000010510196941DDE9084500196941BDE832
:100A7000F04DA2E770B5044600688168C943C90714
:100A800016D1816821F00101816000F0E1FC05468A
:100A900009E000F0DDFC401B022804D920688068D2
:100AA000C043C00706D020688068C043C007F0D0AC
:100AB000002070BDA06A40F01000A062E06A40F023
:100AC0000100E062012070BD10B50146406A826AF3
:100AD00012F0500F05D0006A026BBDE810400846C6
:100AE0001047816A41F40071816201688968C1F32D
:100AF000424107290CD1017B51B9816A21F48071EF
:100B00008162816AC90403D4816A41F00101816272
:100B100000F000FA10BD10B5406A816A41F0400152
:100B20008162C16A41F00401C16200F0F5F910BDB3
:100B300010B5406A00F0EFF910BD0000F8B50026CE
:100B40000446009600688168C943C9072CD08168B3
:100B500041F001018160154815490068B0FBF1F0D2
:100B600000E0401E00900028FBD100F071FC05461B
:100B700015E000F06DFC401B022810D92068806849
:100B8000C043C0070BD0A06A40F01000A062E06A2A
:100B900040F00100E06284F824600120F8BD206884
:100BA0008068C043C007E4D10020F8BD00000020E9
:100BB00040420F0010B50E4C208802F057FC0D4942
:100BC0000968FFF727FB0C490968FFF729FB0B4968
:100BD0000860608802F04AFC09490968FFF71AFBBF
:100BE00008490968FFF71CFB0749086010BD0000B1
:100BF000A8000020BC000020B4000020C800002095
:100C0000C0000020B8000020CC0000200C4810B527
:100C100001684FF07E50FFF735FB0A490968FFF77E
:100C200031FB0949086009490860094980F0004022
:100C30000860084802F090FCBDE8104000F00CB8D5
:100C4000AC000020B0000020C4000020B400002050
:100C5000B8000020A80000202DE9F041144D00202C
:100C6000144F2860144E04464FF47A783860308868
:100C700002F0FCFB2968FFF77BFA2860708802F01D
:100C8000F5FB3968FFF774FA3860012002F093FF32
:100C9000641C4445EBDB094C28682146FFF7F2FA57
:100CA000286021463868FFF7EDFA3860BDE8F0812A
:100CB000BC000020C0000020A800002000007A44F2
:100CC00030B590F840500124AC40C56B6C600468AE
:100CD00063604368102B036803D099600068C260AA
:100CE00030BD9A600068C16030BD704701484068FF
:100CF0007047000004000020014880687047000031
:100D00000400002010B5FFF755FF01F03DFF02463B
:100D1000054801680548006802F05AFE0146BDE832
:100D20001040034801F0EEB9CC000020C8000020BC
:100D3000F00100200148C068704700000400002056
:100D4000F8B500260446009690F8240001280BD040
:100D5000012084F824002046FFF78CFE2046FFF790
:100D6000EDFE070002D050E00220F8BDA06A20F49A
:100D7000885040F00200A062022000F0E9FB254903
:100D80000968B1FBF0F0400000E0401E0090002830
:100D9000FBD12068816841F00801816000F058FBB8
:100DA000054608E000F054FB401B0A2803D92068E0
:100DB0008068000715D4206880680007F2D4206896
:100DC000816841F00401816000F042FB054612E0B9
:100DD00000F03EFB401B0A280DD9206880684007C0
:100DE00009D5A06A20F0020040F01000A06284F84B
:100DF00024600120F8BD206880684007E8D4A06A1C
:100E000020F0020040F00100A06284F8246038461F
:100E1000F8BD000000000020F8B50023009390F812
:100E200024201C46012A12D0012280F824204A687E
:100E30001F26072A0DD205686F6B521E02EB820235
:100E40009640B7430E68964037436F6319E002201F
:100E5000F8BD05680D2A0AD22F6BD21F02EB820261
:100E60009640B7430E68964037432F6309E0EF6A18
:100E70000D3A02EB82029640B7430E689640374324
:100E8000EF620A68072605680A2A0AD3EF680A3A59
:100E900002EB42029640B7438E6896403743EF60BC
:100EA00008E02F6902EB42029640B7438E689640F5
:100EB00037432F610A68102A01D0112A20D1124D20
:100EC0000268AA4217D195682D0219D4956845F495
:100ED000000595600968102912D10C490C4A09686F
:100EE000B1FBF2F101EB8101490000E0491E0091E4
:100EF0000029FBD104E0816A41F0200181620123D5
:100F000080F824401846F8BD00240140000000206D
:100F100040420F0070477047704700002DE9F041D4
:100F20004FF00006040035467DD0A06A002728B99E
:100F3000E76284F82470204600F07EF82046FFF730
:100F400099FDA16AC90600D420B1A06A40F0100042
:100F5000A06268E0A16A21F4885141F00201A16217
:100F60006268E169237B0A4346EA43010A43A168B8
:100F70004FF48076B14208D0012906D0002194F8C0
:100F800014C0BCF1010F02D00AE03146F7E7F3B11B
:100F9000A36A43F02003A362E36A43F00103E36220
:100FA0002368D3F804C02CF4694C4CEA010CC3F854
:100FB00004C021688B68DFF874C003EA0C03134394
:100FC0008B60A168B1420BD0012909D00CE0DFF899
:100FD00060C0A3690CEB43330B4343F40061DFE7CC
:100FE000218A0D05A5F580152168CB6A23F47003CD
:100FF0002B43CB62216889680E4B1940914208D17E
:10100000E762A16A21F0020141F00101A162BDE89D
:10101000F081A06A20F0020040F01000A062E06AB7
:1010200040F00100E0620120F1E70000FDF7E1FF80
:1010300000E0FFFFFE0E1FFF00B50068154989B0F4
:10104000884225D1002001900290009003900690E4
:1010500007901148816941F400718161816901F44F
:1010600000710891816941F004018161806904A9DE
:1010700000F004000890032004900590074800F059
:10108000FBF80220009080030290684600F0B2FA5C
:1010900009B000BD002401400010024000080140DA
:1010A0002DE9F047894604463B4900683B4F0E1D39
:1010B0009046884201D0B84207D1306810F4702FB2
:1010C00003D001252846BDE8F08794F824000128C4
:1010D0000CD0012084F824002046FFF72FFD0500E6
:1010E0004FF0000104D084F82410EBE70220EAE777
:1010F000A06A40F60162904340F48070A0622068CC
:10110000B84218D1326812F4702F14D0A06A40F49B
:101110008010A0623068400505D5A06A20F4005018
:1011200040F48050A062A06AC0040AD5E06A20F0B2
:101130000600E06206E0A26A22F48012A262406821
:10114000E9E7E16284F82410216A15488862216A7F
:101150001448C862216A1448086321686FF00200CD
:1011600008602068816841F480718160216843468D
:101170004A464C31206A00F047F820688168C1F384
:1011800042410729816803D041F48011816099E7C9
:1011900041F4A001FAE700000024014000280140CA
:1011A000C90A0008310B0008170B000830B528B336
:1011B00002C8134A14230A44B2FBF3F29200C2633A
:1011C000104A8263022242770B6843F6F07293431F
:1011D000D0E900242243D0E902452C43224304698C
:1011E000224344692243846922431A430A6000214E
:1011F0004163012242770177084630BD012030BDAE
:10120000F8FFFDBF0000024070B5044690F82000D2
:10121000002501280CD0012084F8200094F82160DA
:101220000020012E06D084F820000225284670BD3B
:10123000022070BD022684F82160A0632068066841
:1012400026F0010606602046FFF73AFDE06A002816
:101250002068016802D041F00E0106E021F004018F
:1012600001602068016841F00A010160206801689E
:1012700041F001010160D9E72DE9F84FDFF8A491B1
:101280000024A9F1040B23464FF00F0809F1040ACA
:10129000ABF1040EBEE00127A7403A40BA4272D13A
:1012A000DFF884C14D68A5EB0C0665452BD00DDC3D
:1012B000032D34D005DC35B3012D19D0022D2FD1EB
:1012C0001BE0112D16D0122D2AD119E0B6F5881F7A
:1012D00019D006DCB6F5803F15D0B6F5801F1FD1BA
:1012E00011E0B6F5001F0ED0B6F5041F18D10AE0C4
:1012F000CB6815E0CB681B1D12E0CB6808330FE00C
:10130000CB680C330CE08B682BB1012B4FF008033A
:1013100003D0476104E0042302E0076100E00023FA
:10132000FF2A01D8064601E000F104064FEA8405D1
:1013300001D9A5F12005376808FA05FC27EA0C0752
:1013400003FA05F547EA050737604D68ED0060D5FB
:10135000364DAE6946F00106AE61AD6924F0030674
:1013600005F001050095324D7719BE68A5072D0FD0
:1013700008FA05FC26EA0C06DFF8B8C0604503D180
:101380004FF0000C17E044E0DFF8ACC0604502D13C
:101390004FF0010C0FE0DFF8A4C0604502D14FF020
:1013A000020C08E0DFF898C0604502D14FF0030C52
:1013B00001E04FF0040C0CFA05FC4CEA060CC7F8EF
:1013C00008C04D68D9F80060ED024D4601D51643BE
:1013D00000E096432E604D68DAF80060AD02554695
:1013E00001D5164300E096432E604D68DBF800609F
:1013F000AD035D4601D5164300E096432E604D686F
:10140000DEF80060ED03754601D5164300E0964313
:101410002E60641C0A6832FA04F57FF43CAFBDE824
:10142000F88F000008040140000011100010024075
:101430000000014000080140000C01400010014084
:10144000001401400AB1016170470904FBE7000084
:101450000148806870470000EC0000200248816865
:101460000278114481607047EC000020074810B5F5
:10147000016841F010010160032000F057F80F20CF
:1014800000F006F800F024F8002010BD0020024013
:1014900070B50D4D04464FF47A712878B1FBF0F029
:1014A0000A490968B1FBF0F000F086FB48B9102C3E
:1014B00007D200222146501E00F018F800206C6070
:1014C00070BD012070BD0000EC0000200000002075
:1014D0007047002809DB00F01F02012191404009FC
:1014E000800000F1E020C0F800117047F0B40E4B0E
:1014F0001B68C3F30223C3F10704042C00D904249E
:101500001D1D072D01D2002300E0DB1E012606FA77
:1015100004F56D1E0D409D409E40761E164045EA26
:101520000601F0BC01F0EDBA0CED00E0064A00F057
:10153000070110684FF6FF03184040EA01200349F5
:1015400008431060704700000CED00E00000FA0551
:1015500010B501460020234C012922D0022939D0A0
:1015600010291DD161682268D20119D51E48C1F326
:101570008342C903805C0AD561681B4AC1F34041BC
:10158000921E515C194AB2FBF1F1484301E018493F
:1015900048436168490203D440000321B0FBF1F0E5
:1015A00010BD226AC2F30121012903D1920701D59E
:1015B000C80310BD022905D1626A920702D549F617
:1015C000404010BD0329FCD121688903F9D54FF2B1
:1015D000244010BD00F02EF96168C1F38131491C2F
:1015E0004900DBE700100240A44D000800127A0019
:1015F00000093D002DE9F84304460078344FC00748
:1016000052D0F8690025C00008D4F86940F0805035
:10161000F861F869012500F0805000902D480168BC
:10162000C90511D40168804641F480710160FFF75B
:101630000FFF064604E0FFF70BFF801B642822D84B
:10164000D8F80000C005F6D5386A10F4407020D0F4
:10165000A18801F4407181421BD0386A1E490122E1
:1016600020F440700A6000220A603862C00710D07F
:10167000FFF7EEFE064641F2883807E0FFF7E8FE86
:10168000811B414502D90320BDE8F883386A8007F1
:10169000F4D5386A616820F44070084338621DB19F
:1016A000F86920F08050F8612078800705D57868C7
:1016B000A16820F44040084378602078C00605D532
:1016C0007868E16820F48000084378600020DBE758
:1016D0000010024000700040400442422DE9F047F3
:1016E0000D46040067D0DFF81881D8F8000000F03C
:1016F0000700A8420CD2D8F8001021F007012943B6
:10170000C8F80010D8F8000000F00700A84252D135
:1017100020683C4E810712D5400703D5706840F41D
:10172000E06070602078000703D5706840F4605076
:1017300070607068A16820F0F00008437060207845
:10174000C00727D06068012810D03168022810D067
:10175000890700292FDA716821F0030101437160C4
:10176000FFF776FE074641F288390CE031688903BD
:10177000EFE78901EDE7FFF76BFEC11B494502D991
:101780000320BDE8F0877068616800F00C00B0EBE2
:10179000810FF0D1D8F80010404601F00701A942AE
:1017A0000BD9016821F0070129430160006800F0AE
:1017B0000700A84201D00120E3E72078400705D5C3
:1017C0007068E16820F4E0600843706020780007EA
:1017D00006D57068216920F4605040EAC10070604D
:1017E00000F038F87168084AC1F30311515CC84031
:1017F0000649086006480068FFF74AFE0020C0E777
:101800000020024000100240744B0008000000203D
:10181000F00000200448054900684968044AC1F303
:101820000221515CC84070470000002000100240B7
:10183000844B00080448054900684968044AC1F31C
:10184000C221515CC84070470000002000100240D7
:10185000844B00080E4B59680E4801F00C02042A14
:1018600011D0082A0FD10C48C1F38342C903805C10
:101870000AD55968084AC1F34041921E515C054A95
:101880005043B0FBF1F070470449484370470000F3
:101890000010024000127A00924D000800093D003D
:1018A0002DE9F84F04006FD02078BE4DC00747D017
:1018B0006868C0F38100012807D06868C0F3810020
:1018C000022809D16868C00306D52868800337D587
:1018D00060680028E7D033E06068B0F5803F0BD047
:1018E00010B1B0F5A02F11D0286820F48030286006
:1018F000286820F4802002E0286840F480302860C6
:10190000606888B1FFF7A4FD064609E0286840F446
:1019100080202860F0E7FFF79BFD801B642873D8C8
:1019200028688003F7D50BE0FFF792FD064604E038
:10193000FFF78EFD801B6428F1D828688003F7D458
:101940002078DFF8648280074FF0010A4FF0000929
:1019500039D5686810F00C0F07D06868C0F38100B3
:10196000022809D16868C00306D42868800714D506
:101970002069012808D110E02069B0B1C8F800A0A2
:10198000FFF766FD064605E007E1FFF761FD801BF6
:101990000228C4D828688007F7D52868616920F034
:1019A000F80040EAC10028600DE0C8F80090FFF799
:1019B0004FFD064604E0FFF74BFD801B022823D8AD
:1019C00028688007F7D4207800072CD57748A169CC
:1019D000D9B1C0F800A0FFF73BFD064604E0FFF7D1
:1019E00037FD801B02280FD8686A8007F7D570483A
:1019F0004FF4FA510068B0FBF1F0009000BF00987E
:101A0000411E0091FAD20EE07CE0C0F80090FFF792
:101A10001FFD064604E0FFF71BFD801B022871D85E
:101A2000686A8007F7D4207840075BD5E86900270B
:101A3000C00008D4E86940F08050E861E8690127F7
:101A400000F0805000905B480168C90511D401681E
:101A5000834641F480710160FFF7FAFC064604E01A
:101A6000FFF7F6FC801B64284CD8DBF80000C005AB
:101A7000F6D5E06801280AD008B1052813D0286AF5
:101A800020F001002862286A20F0040002E0286AA1
:101A900040F001002862E06841F2883B88B1FFF71E
:101AA000D7FC064609E0286A40F004002862EEE709
:101AB000FFF7CEFC811B59455BD8286A8007F7D514
:101AC0000BE0FFF7C5FC064604E0FFF7C1FC811BF5
:101AD00059454ED8286A8007F7D41FB1E86920F02D
:101AE0008050E861E069A8B36968C1F38101022907
:101AF00046D00228484606D0C8F86000FFF7A8FC88
:101B0000044639E035E04746C8F86000FFF7A0FC1E
:101B1000064604E0FFF79CFC801B022829D82868B1
:101B20008001F7D4206AB0F5803F05D16868A168CC
:101B300020F4003008436860D4E90801084369686C
:101B400021F4741108436860C7F860A0FFF780FCB7
:101B5000044605E023E0FFF77BFC001B022808D8C1
:101B600028688001F7D51AE0FFF772FC001B0228F5
:101B700002D90320BDE8F88F28688001F4D40EE074
:101B80000128F7D06868226A00F48031914204D1BC
:101B9000616A00F47010884201D00120EAE7002059
:101BA000E8E7000000100240000042428004424288
:101BB000000000200070004010B5401EB0F1807F92
:101BC00001D3012010BD4FF0E02460610F216017A8
:101BD00000F097FF0020A06107202061002010BDC9
:101BE00010B5040003D094F83D0010B107E00120C7
:101BF00010BD002084F83C00204600F01EF80220B2
:101C000084F83D00211D206800F0F4FC012084F8D8
:101C1000460084F83E0084F83F0084F8400084F8D1
:101C2000410084F8420084F8430084F8440084F8BA
:101C3000450084F83D00002010BD704790F83D102D
:101C4000012901D001207047022180F83D10016870
:101C5000CA6842F00102CA6000680B49884208D095
:101C6000B0F1804F05D00949884202D00849884226
:101C700004D1816801F00701062903D0016841F011
:101C80000101016000207047002C01400004004069
:101C90000008004070B5044690F83C0000260D4650
:101CA00001280FD0012084F83C006AB1042A1DD01D
:101CB000082A2FD00C2A3FD00126002084F83C00AF
:101CC000304670BD022070BD206800F0D7FC20684F
:101CD000816941F0080181612068816921F0040176
:101CE0008161206881692A69114311E0206800F050
:101CF000F1FC2068816941F400618161206881699B
:101D000021F480618161206881692A6941EA0221A8
:101D10008161D2E7206800F00BFD2068C16941F0C5
:101D20000801C1612068C16921F00401C161206816
:101D3000C1692A69114311E0206800F025FD20687F
:101D4000C16941F40061C1612068C16921F4806109
:101D5000C1612068C1692A6941EA0221C161ACE719
:101D600010B5040003D094F83D0010B107E0012045
:101D700010BD002084F83C00204600F01FF802202F
:101D800084F83D00211D206800F034FC012084F817
:101D9000460084F83E0084F83F0084F8400084F850
:101DA000410084F8420084F8430084F8440084F839
:101DB000450084F83D00002010BD000000B500681B
:101DC000114985B088421DD11048816941F40061F4
:101DD0008161816901F400610491816941F004012C
:101DE00081618069694600F0040004904FF4E0606E
:101DF00000900220019000200290032003900448EC
:101E0000FFF73AFA05B000BD002C01400010024077
:101E10000008014010B5044649B104290AD0082938
:101E20000BD094F8410001280AD0012010BD94F88D
:101E30003E00F8E794F83F00F5E794F84000F2E739
:101E4000022041B3042929D008292AD084F841006E
:101E50000122206800F004FC13492068884203D165
:101E6000426C42F4004242642068884208D0B0F1DB
:101E7000804F05D00D49884202D00D49884204D1D7
:101E8000816801F00701062903D0016841F00101D2
:101E90000160002010BD84F83E00D9E784F83F00BF
:101EA000D6E784F84000D3E7002C0140000400404E
:101EB0000008004030B504460D460068002200F0DE
:101EC000CFFB174A41F2111120688B10904209D1C3
:101ED000026A0A4206D1026A1A4203D1426C22F413
:101EE000004242642068026A0A4206D1016A19422D
:101EF00003D1016821F00101016001203DB1042DF1
:101F000008D0082D09D084F84100002030BD84F8A5
:101F10003E00FAE784F83F00F7E784F84000F4E772
:101F2000002C01407047704770B5040004D094F84D
:101F30004100002510B106E0012070BD84F840503A
:101F4000204600F023F8242084F841002068C1686E
:101F500021F40051C160204600F00AFD20680169AB
:101F600021F4904101612068416921F02A01416119
:101F70002068C16841F40051C1606564202084F884
:101F8000410084F842006563002070BD70B50646CC
:101F90000068234986B0884240D12249886940F0D0
:101FA00004008861886900F004000490C86940F466
:101FB0000030C861C86900F400300490486940F0FE
:101FC000010048614869184C00F0010004900420A9
:101FD00000900220019001200290032003906946A6
:101FE0002046FFF749F900250820CDE9000569469C
:101FF00020460295FFF740F90D4C0C48C4E9000556
:102000008020C4E9025020202561C4E90550000267
:10201000E0612046FFF7CAF8F463666206B070BD5F
:102020000044004000100240000801406C000240E3
:102030009803002090F84230202B01D002207047F6
:1020400021B11AB10023036300F0EEBC01207047F8
:102050007047704737B5044690F84100202801D0FA
:1020600002203EBD019951B34AB32162A284E284A9
:1020700000206064212384F84130A56B114BAB62D2
:10208000A56B114BEB62A56B104B2B63A36B5863D5
:1020900020681346A56B021D2846FFF7B5F8216896
:1020A0006FF0400008602068143050E8001F41F0D5
:1020B000800140E80012002AF5D100203EBD012039
:1020C0003EBD0000BB280008FD280008CD27000801
:1020D0007047704710B502F04FF907490024C1E975
:1020E00001400648086002F047F903490C31C1E994
:1020F00001400348086010BDF0010020CDCC4C3DEC
:102100000AD7233C70B504460D46083002F008FC9F
:10211000266801463046FEF72BF801463046FEF7AA
:10212000B1F8064601464FF07E50FEF773F8294697
:10213000FEF776F8054630466168FEF771F82946E5
:10214000FEF716F8606070BD2DE9F04702F07CF9EB
:10215000314E324F324D00244FF4FA794FF080481F
:102160002046FEF7D9F83146FEF75AF83946FEF711
:1021700089F82946FDF7FCFF02460021404602F09F
:1021800077FA022001F017FD641C4C45E8DD4C464F
:10219000B246B94646462046FEF7BEF85146FEF71F
:1021A0003FF84946FEF76EF82946FDF7E1FF07467E
:1021B00002460021304602F05BFA022001F0FBFCEF
:1021C000641EE8D500213A46084602F051FA642020
:1021D00001F0F1FC2A460021304602F049FA4FF4A2
:1021E000967001F0E8FC01F031FA0E4C00202060FE
:1021F00000F0CAFC002120602A46084602F038FAA6
:1022000000F034F82068FEF7C2F8BDE8F047024657
:102210000B4605A000F052BCDB0FC9400000FA439A
:10222000E4CB9640340000207A65726F5F656C6580
:1022300063747269635F616E676C65203D2025661B
:102240000D0A000010B5064800F03CF8054800F003
:1022500039F8054800F036F8BDE8104002F0F4B84F
:102260006001002090010020C001002010B502F0A4
:10227000FDF8074800218160C160064800F022F89F
:10228000054800F01FF8BDE81040044800F01AB8F7
:10229000D00000206001002090010020C00100203B
:1022A0007047000010B5024C236184E8070010BDA0
:1022B000C001002010B5024C236184E8070010BD66
:1022C0006001002010B504460020E0616062A06259
:1022D000206202F051F8E06210BD000010B5024C1F
:1022E000236184E8070010BD900100202DE9F05F14
:1022F00004468A462C3002F013FB83465146206880
:10230000FDF78EFF80465046E169FDF731FF054637
:1023100059466068FDF784FF4FF0FF31FDF7F0FF8D
:102320002946FDF77DFFA16AFDF722FF07462069D8
:10233000394680F00040FEF747F803D2206980F06C
:10234000004705E038462169FEF73EF800D22769CC
:102350005046E169FDF75EFFA168FDF761FF594650
:10236000FDF790FFA5694FF4000906464D4519DBBE
:1023700059462846FDF7FCFE01462846FDF782FF38
:10238000054601464FF07E50FDF744FF3146FDF70C
:1023900047FF06462846216AFDF742FF3146FDF712
:1023A000E7FE064639464046FDF7E2FE3146FDF7B8
:1023B000DFFE05462069294680F00040FEF704F85C
:1023C00003D2206980F0004505E028462169FDF729
:1023D000FBFF00D2256960698046484521DB28461D
:1023E000616AFDF717FF5946FDF74CFF81464146EC
:1023F000FDF7EAFF606906D25946FDF711FF616AF1
:10240000FDF7B6FE0CE080F000404946FDF7DCFF2A
:1024100007D259466069FDF703FF616AFDF7FDFECB
:102420000546C4F81CA0A762C4E908652846BDE8B3
:10243000F09F70472DE9F04702F07AF80446014614
:102440005548FFF753FF544E824621463068FDF74A
:10245000E7FE524F8146BC4202D384F0004000E0C8
:1024600020464FF07C51FDF7D5FE4FF07F51FDF730
:1024700009FF02F0A1FAB8460546404500D3002501
:1024800047494846FDF7FEFE02F096FA07464549E1
:102490002846FDF7C5FE3946FDF7C2FE5146FDF759
:1024A00067FE8146444502D384F0004000E02046A8
:1024B0003E493D4D002788421CDDFDF7ABFE294615
:1024C000FDF7E0FE05464FF07E504FF400018542D7
:1024D00001DD054601E08D420CDB8C4200DA344818
:1024E0003169FDF79DFE4946FDF794FE2946FDF74B
:1024F00097FE07462F4DE86801F04CFFFDF715FFEA
:102500002D49FDF78DFE044601F036FFE8602B49AA
:10251000A4F50000884200D3294C2A492046FDF743
:102520007FFE04460146A868FDF722FE3946FDF706
:1025300041FFA868214602D2FDF71AFE09E0FDF727
:1025400069FE3946FDF740FF05D22146A868FDF730
:1025500061FEA86000E0AF604846A968FDF708FE8C
:1025600004463069214680F00040FDF72DFF03D27C
:10257000306980F0004405E020463169FDF724FF12
:1025800000D2346900F000FB02462046BDE8F04767
:10259000002102F06DB80000600100200000808082
:1025A000CDCC4C3ECDCC4C3FCCCC4C400000A040E0
:1025B000000080BFD0000020BD378635CECCCC3C9B
:1025C0006F12833A0000A0427047FEF747BF704782
:1025D000064800680169C943C90706D1891E01611F
:1025E0000348016801F5803101607047080300204D
:1025F000E0000020F0B50268164C174D174E4FF062
:102600008047A04205D0B84203D0A84201D0B042D2
:1026100003D122F070034A681A43A04205D0B842A1
:1026200003D0A84201D0B04203D122F44073CA685B
:102630001A434B6922F080021A4302608A68C26220
:102640000A688262A04201D10969016301214161E6
:10265000F0BD0000002C01400004004000080040D4
:1026600010B501F01F010123046A8B409C430462F2
:10267000036A8A401343036210BD000030B5026A4A
:10268000036A23F0010303624368846924F073053D
:102690000C682C4322F002058A682A430C4DA8429C
:1026A00006D122F00805CA6842EA050222F00402B7
:1026B00007D14D6923F4407345EA03058B6943EA6A
:1026C00005034360846149684163026230BD0000D4
:1026D000002C014030B5036A026A22F01002026247
:1026E000426884690D6824F4E64444EA05248D6850
:1026F00023F0200343EA05130C4DA84206D1CD6810
:1027000023F0800343EA051323F0400307D14D690A
:1027100022F4406242EA85028D6942EA8502426003
:10272000846149688163036230BD0000002C014070
:1027300030B5026A036A23F4807303624368C46994
:1027400022F4007224F073050C682C438D6842EA71
:1027500005220C4DA84206D1CD6822F4006242EA5F
:10276000052222F4806207D14D6923F4405343EAE5
:1027700005138D6943EA05134360C4614968C16369
:10278000026230BD002C014030B5046A026A22F4B6
:10279000805202624268C3690D6823F4E64343EA4B
:1027A00005238D6824F4005444EA0534064DA842FC
:1027B00004D14D6922F4804242EA85124260C3612D
:1027C00049680164046230BD002C014070B5446A60
:1027D0002068406994F84110C0F3C01000252129F9
:1027E00004D118B1E584204600F0B4F820684069AF
:1027F00094F84210C0F38010222904D118B1E58565
:10280000204600F080F8606C40F0100060642046C4
:10281000FFF789FB70BD10B50146406A0968096879
:102820004FF0000389062ED4C38501680C3151E8AE
:10283000002F22F4807241E80024002CF5D10168B9
:10284000143151E8002F22F0010241E80024002C4D
:10285000F5D10168143151E8002F22F0400241E81F
:102860000024002CF5D1202180F84210016B0129B1
:1028700009D101680C3151E8002F22F0100241E823
:102880000024002CF5D14363016B012902D0FFF72E
:10289000DFFB10BD818DFFF745FB10BD10B5406A11
:1028A00001214163016B012902D0FFF7D2FB10BD6A
:1028B000818D4908FFF736FB10BD10B50146406A0F
:1028C00009680968890616D40021C1840168143199
:1028D00051E8002F22F0800241E80023002BF5D1BF
:1028E00001680C3151E8002F42F0400241E800231A
:1028F000002BF5D110BDFFF7EBFB10BD10B5406A02
:10290000FFF7E7FB10BD01680C3151E8002F22F4FE
:10291000907241E80023002BF5D10168143151E891
:10292000002F22F0010241E80023002BF5D1016BBA
:10293000012909D101680C3151E8002F22F0100261
:1029400041E80023002BF5D1202180F8421000211E
:102950000163704701680C3151E8002F22F0C0027A
:1029600041E80023002BF5D1202180F84110704769
:1029700070B5044600680169E26821F440511143D2
:102980000161A16820690143606901432068C26850
:1029900041F20C639A430A43C26020684169A2690C
:1029A00021F44071114341611E492068884202D1DF
:1029B000FEF740FF01E0FEF72DFF00EBC00101EB49
:1029C0000011606864228000B1FBF0F3B3FBF2F306
:1029D0006FF018067343B1FBF0F5B1FBF0F605EBB1
:1029E0008305322303EB0515B5FBF2F5B6FBF2F6D2
:1029F00005F0F00505EB0615B1FBF0F6B1FBF0F0C4
:102A0000B0FBF2F06FF01801484306EB800003EBD7
:102A10000010B0FBF2F0216800F00F00284488603D
:102A200070BD00000038014037B582B01346039AEC
:102A300082620446838500206064222184F842106B
:102A4000E56B1B49A962E56B1A49E962E56B1A4916
:102A50002963E16B48632168E06B091DFEF7D4FB35
:102A60002068016840680090206948B120680C30F7
:102A700050E8001F41F4807140E80012002AF5D1AF
:102A80002068143050E8001F41F0010140E80012B6
:102A9000002AF5D12068143050E8001F41F04001B1
:102AA00040E80012002AF5D105B0002030BD00003A
:102AB000172800089D280008CD2700080FB4054BF3
:102AC00010B503A9044A029800F04CF910BC5DF857
:102AD00014FB0000FD3E0008F80000204100080241
:102AE00018BF04200A0E18BF40F001004FF07F42CB
:102AF00032EA010108BF40F00200012808BF0520AA
:102B000070470907090E002804DB00F1E02080F877
:102B10000014704700F00F0000F1E02080F8141D51
:102B200070470121FDF7ECBBFDF722BB00210846F1
:102B3000FDF7A8BB61214FF0E040FDF7E1BB6FF06E
:102B40005E010807FDF7DCBB02E008C8121F08C1E0
:102B5000002AFAD170477047002001E001C1121F1E
:102B6000002AFBD17047000001490860704700004F
:102B7000FC00002010B50349FDF7FAFABDE810404B
:102B800000F082BCDB0FC93F10B5FEF7B5F8044674
:102B90000848016808480068FDF742FB2146FDF738
:102BA0003FFB06490968FDF735FBBDE8104000F022
:102BB000C9B80000300000202C00002034000020A4
:102BC0002DE9FF5F82B00021DDE90430020DDDF860
:102BD00040B0034318D044F61050A2F2FF324243F3
:102BE0001514119801281FD0A5EB0B00401C5FEABB
:102BF000000A4FF000064E4FDFF83891B0465046BD
:102C000015D5CAF1000413E0119801244AA3012844
:102C100001D16FEA0B010298119AC0E90031C0E9B5
:102C2000024206B0BDE8F09FCBF10000DFE70446AA
:102C30000021404A491842EB0450CDE9001012E04F
:102C4000E00707D032463B4640464946FDF761FD66
:102C50008046894632463B4610461946FDF759FDE7
:102C600006460F466410002CEAD1DDE90401DDE9D7
:102C70000023BAF1000F06DAFDF74BFD42464B4642
:102C8000FDF747FD05E0FDF7B6FD42464B46FDF773
:102C9000B2FD04460E460022284BFDF733FE03D852
:102CA0004FF0FF30014607E00022254B2046314619
:102CB000FDF788FCFDF70EFE102409E0002C0ADB6E
:102CC0000A220023FDF7A0FB039B30321A55641E35
:102CD00050EA0102F2D1641C039AC4F111031444B6
:102CE000119A012A03D0012208430DD10AE00843BA
:102CF00004D000204FF0110B119072E7A3EB0B05ED
:102D00006D1E0DE05B4504DD4FF0000205F101058D
:102D100004E003DA4FF00002A5F10105002AECD02F
:102D200002981199C0E90231C0E9004579E7000035
:102D3000000014400000F03F300000000000F043AD
:102D40000000E03F10B5064C214601F0A1F810F15B
:102D5000FF4F04D32146BDE81040FDF709BA10BD6E
:102D6000DB0FC9402DE9FF4F95B09A4688460646CD
:102D70000025EEE1252877D100242746F94A0121D4
:102D8000039400E0044316F8013F203B01FA03F0EE
:102D90001042F7D130782A2811D06FF02F03307805
:102DA000A0F13002092A16D8039A44F0020402EB7B
:102DB000820203EB42021044761C0390EFE758F8BE
:102DC000042B0392002A03DA504244F40054039087
:102DD00044F00204761C30782E2816D116F8010F24
:102DE00044F004042A280DD06FF02F023078A0F1AF
:102DF0003003092B09D807EB870302EB4303C718FD
:102E0000761CF3E758F8047B761C30786C280FD0DA
:102E100006DC4C2817D068280DD06A2814D104E0AD
:102E2000742810D07A280FD10DE044F400140AE081
:102E300044F4801401E044F440147278824202D1D8
:102E400004F58014761C761C307866280BD013DCD1
:102E5000582877D009DC002875D04528F6D04628B8
:102E6000F4D047281AD193E118E0632835D06428BC
:102E700079D0652812D18BE1702873D008DC6728DF
:102E8000F1D069286FD06E280DD06F2806D1ACE044
:102E900073282CD0752874D0782853D052461799AF
:102EA00090476D1C54E1C4F30250022809D0032856
:102EB0000DD0D8F8001004280DD00D6008F10408DA
:102EC00046E1D8F80010EA17C1E90052F6E7D8F851
:102ED00000100D80F2E70D70F0E718F8041B8DF874
:102EE000001000208DF80100EB46012003E058F8A7
:102EF00004BB4FF0FF3061074FF0000102D40DE03A
:102F000009F101018946B9420FDA8145F8DB1BF866
:102F100009100029F4D108E009F101018946814234
:102F2000FADB1BF809100029F6D103985346A0EBF1
:102F3000090721463846179A00F080FA284400EB2A
:102F4000090507E044E008E10DE01BF8010B5246DB
:102F500017999047B9F10109F7D2534621463846EF
:102F6000179AF2E039E00A21C4F302524FF0000B45
:102F70000091022A06D058F8040BC117032A09D081
:102F80000AE023E008F1070020F00702F2E802015E
:102F9000904605E000B2C117042A01D140B2C11722
:102FA000002906DA0A460021404261EB02012D2287
:102FB00002E0220504D52B228DF80420012203E033
:102FC000E20701D02022F7E7914657E00A2100E00E
:102FD00010214FF0000B00910BE010214FF0000B7F
:102FE00044F004040827009103E008204FF0000B90
:102FF0000090C4F30252022A05D058F8040B0021B5
:10300000032A08D008E008F1070020F00702F2E8E0
:103010000201904603E080B2042A00D1C0B24FF012
:10302000000922072AD53278702A07D0DDF800C0BF
:103030008CF0100C5CEA0B0C05D00EE040228DF8F1
:103040000420012208E050EA010306D030238DF865
:1030500004308DF8052002229146009B83F008037E
:1030600053EA0B030AD150EA010201D1620705D5E8
:1030700030228DF804204FF001097F1E3278582A43
:1030800004D039A20C920CAA02920BE03BA2F9E701
:103090005B46009AFDF7B8F90C9B9B5C029A521EA6
:1030A0000292137050EA0102F2D1029804A9081AA0
:1030B00000F1200B600702D524F4803400E00127E2
:1030C0005F4502DDA7EB0B0000E0002000EB0B01E9
:1030D000009003984944401A0390E00306D45346F5
:1030E0002146179A039800F0A9F90544002706E045
:1030F00001A85246C05D179990476D1C7F1C4F4533
:10310000F6DBE0030CD553462146179A039800F0EE
:1031100095F9054404E030205246179990476D1CFC
:103120000099481E00900029F5DC08E002980299F9
:1031300052460078491C0291179990476D1CBBF1CB
:103140000001ABF1010BF1DC5BE100F065F9054436
:10315000761C307800287FF40DAE19B02846BDE803
:10316000F08F000009280100303132333435363712
:1031700038396162636465660000000030313233C3
:103180003435363738394142434445460000000063
:10319000600700D4062708F1070020F00700F0E8D8
:1031A0000223804603F0004C5FEA0C0001D097A098
:1031B00009E0200501D596A005E0E00701D095A023
:1031C00001E0AFF24C001390307823F00043652803
:1031D0000CD006DC452809D046281DD047287FD1D1
:1031E0003BE0662818D067287AD136E00021112FFD
:1031F00001DB112000E0781CCDE9000104A90CA836
:10320000FFF7DEFCDDE90D010C9A4FF0000B07F132
:103210000109109200914EE04FF000400097CDE977
:10322000011004A90CA8FFF7CBFCDDE90D020C9BF3
:103230000F994FF0000B91461093009211B9791C31
:1032400000EB0109B7EB090003D4C0F1FF3B07F124
:103250000109A9EB0700019042E0012F00DA0127E4
:103260000021112F01DD112000E03846CDE90001D9
:1032700004A90CA8FFF7A4FCDDE90D010C9A00914C
:103280004FF0000BB946109221070FD4009A4A451F
:1032900003DA914601E0A9F10109B9F1010F05DD59
:1032A000109AA9F10101515C3029F4D0B84202DA38
:1032B00010F1040F03DA0121CDE9011010E000281C
:1032C00003DC8344A9EB000102E0411C494500DD19
:1032D0008946A0EB0B00401C01904FF0004002908B
:1032E000200705D40198484502DB4FF0FF300190DC
:1032F00000208DF84B0002980DF14B07B0F1004F04
:1033000025D002200C902B200D90029800280CDA7A
:10331000404202902D200D9007E00A210298FDF70F
:103320005DF83031029007F8011D0C99481E0C9091
:103330000029F2DC02980028EFD1791E0D98087060
:10334000307800F0200040F0450007F8020D11A889
:10335000C01BC01D02901398007800B1012000EB43
:103360000901019801EBE071029801440398401AA9
:10337000401E0390E00306D453462146179A039853
:1033800000F05CF805441398007818B1524617997C
:1033900090476D1CE00323D553462146179A0398A6
:1033A00000F04CF805441BE0BBF1000F07DB009870
:1033B000584504DD1098179910F80B0001E0179993
:1033C00030205246904701980BF1010B401E05F149
:1033D0000105019004D12E205246179990476D1C8B
:1033E000B9F10001A9F10109DEDC05E017F8010BD4
:1033F0005246179990476D1C0299481E0290002969
:10340000F4DC53462146179A03989EE62D000000EF
:103410002B000000200000002DE9F04104460025AB
:103420001E461746880404D405E039462020B047DC
:103430006D1C641EF9D52846BDE8F0812DE9F041E8
:10344000044600251E469046C80301D5302700E0FB
:103450002027880404D505E041463846B0476D1C56
:10346000641EF9D52846BDE8F081000010B5FCF7D0
:103470005CFF0449FCF7D4FEBDE810406FF00B017F
:10348000FCF73EBF333353402DE9F0410026FFF7F0
:1034900059FC1A4CA04203DB2146FCF7BBFE012677
:1034A0001749884202DD2146FCF7B7FE1549FCF7B3
:1034B000B7FE0546FCF757FF0446802802D37F2459
:1034C000E50505E0FCF731FF2946FCF7A6FE0546B9
:1034D0000D4850F8247000EB840039464068FCF732
:1034E00099FE2946FCF79CFE3946FCF741FE002E6A
:1034F00001D080F00040BDE8F0810000DB0F4940C2
:10350000DB0FC93F83F9A2428C4B00080EB58DE852
:103510000E006946FDF780FC0EBD00000D4810B599
:103520000B49016000214FF48072C0E901120122B1
:10353000027302220261017581614FF46021C16151
:10354000FDF7ECFCBDE810400248FDF7F9BB0000B8
:10355000002401405002002010B50446FFF7DEFFB2
:103560000723012200210948FFF7D0FF0723022289
:1035700001210648FFF7CAFF00F034FB2146BDE8F1
:10358000104002220148FDF78BBD000050020020D0
:1035900010B500220721362000F024FE28B90022B1
:1035A0000821362000F01EFE10B1094901200870E4
:1035B000084C4FF48050206000206060A060E06004
:1035C00000F0DAFE2061BDE8104000F005B8000010
:1035D0000400002024010020F8B56B4602220C21D3
:1035E000362000F011FD154D18B101202870002083
:1035F000F8BD9DF800109DF8010001F00F0140EAB0
:1036000001246C802046FCF790FE6FF00B01FCF764
:1036100077FE0B49FCF704FEA8600026EE606860A8
:10362000084DEE60C5E9014000F0A6FE064C286199
:10363000666000F0A1FEA0600120F8BD040000203B
:10364000DB0FC94024010020FC0100202DE9F843D4
:103650006B4602220C21362000F0D6FC2D4FDFF8FD
:10366000B8802E4E20B1012038700020BDE8F883CC
:103670009DF800109DF8010001F00F0140EA0125BE
:103680007D807068FCF748FE04462846FCF74DFE36
:1036900081462146FCF7BEFD04463068FCF73CFE3F
:1036A0001F49FCF7BDFD014624F00040FCF78CFEED
:1036B00009D2B4F5000F01DB1A4900E04146F06879
:1036C000FCF756FDF06048466FF00B017560FCF7A3
:1036D00017FE4146FCF7A4FDB860F26801461046AB
:1036E000FCF746FD78600D48103001F019F90546E9
:1036F0007868B1680446FCF78DFD2946FCF7C2FDE9
:1037000001460948B460FEF7FDFCF86000203870FF
:103710000120ABE704000020DB0FC940240100209A
:10372000CDCC4C3FDB0FC9C0FC0100202DE9F04798
:103730004FF0684202EB40030C460546B3F1654F7B
:103740003CBF02EB4102B2F1654F80F0CD8000BF7B
:10375000C0F3C752C1F3C753D21A1B2A06DD10F0BB
:10376000004F14BF87488848BDE8F08712F11A0F50
:103770002FDA11F0004F06D010F0004F0CBF834835
:103780008348BDE8F08721462846FCF77BFD0646C6
:10379000FFF7A4F9042808BFFFF7D1F92846FFF77F
:1037A0009DF905462046FFF799F904463046FFF794
:1037B00095F9042D18BF052D08D1042C18BF052C30
:1037C00004D1002804BF0220FFF7CEF93046BDE83F
:1037D000F0874200B2EB410F25D910F0004F19BF1E
:1037E0006C4F6D4E6D4F6E4E224685F0004415466F
:1037F0000A4680F0004110460A1A5200B2F1807F5A
:103800003ED248406749DFF8A0A110F0004F18D021
:103810004FF03F483846FCF7FDFC0746514630461E
:10382000FCF7F8FC17E011F0004F04BF0026374604
:10383000E2D010F0004F19BF5C4F5D4E5D4F5E4E01
:10384000DAE74FF07C583846FCF792FC07465146C1
:103850003046FCF78DFC064641462846FCF7E0FC66
:103860002146FCF785FC824621464046FCF7D8FC01
:103870002946FCF7D2FC5146FCF704FD044604E05F
:1038800021462846FCF7FEFC04460146FCF7C8FC2E
:1038900080464A49FCF7C4FC4949FCF769FC4146AB
:1038A000FCF7BEFC4749FCF763FC4146FCF7B8FC5B
:1038B0004549FCF75DFC4146FCF7B2FC4349FCF787
:1038C00057FC054641462046FCF7AAFC2946FCF772
:1038D000A7FC3146FCF74CFC2146FCF749FC394675
:1038E000BDE8F047FCF744BC4FF07F42B2EB400F1D
:1038F00028BFB2EB410F03D2BDE8F047FFF714B980
:1039000040EA01035B0008BF44F0FF410AD0B2EB7C
:10391000400F08BFB2EB410F06D125F0804024F0E4
:10392000804105460C4613E7B2EB400F12BF5FEA39
:10393000410345F0FF4004F000413FF409AFB2EB12
:10394000410F12BF5FEA400205F0004044F0FF4122
:103950003FF4FEAE4A0092EA40033FF5F9AE002A7A
:10396000ACBF4FF09F464FF03E563146FCF758FC37
:10397000054631462046FCF753FC044628462146BE
:10398000E6E60000DB0FC9BFDB0FC93FDB0F494094
:10399000DB0F49C00000C9BF22AAFDB90000C93F22
:1039A00022AAFD390060ED3EC30ACE37000049C0AF
:1039B00022AA7DBA0000494022AA7D3A2DAD65BDFC
:1039C0008FB8D53D0FB511BE61C84C3EA8AAAABE9E
:1039D00070B516460A4604460F491046FCF720FC0F
:1039E00005460E492046FCF71BFC2946FCF712FC55
:1039F00005463046FFF748FD2146FCF711FC04461A
:103A00003046FFF7B7F82946FCF70AFC2146BDE827
:103A10007040FCF7FFBB00003ACD933F3ACD13BF97
:103A200010B5FDF76FF90149886310BD140000203F
:103A30002DE9FC4101F062F8534CE179A07901F0E5
:103A40002BF8524DE860617B207B01F025F8A860DF
:103A5000E17BA07B01F020F82861FFF7F7FD044629
:103A6000FFF7DEFFFDF748F9A969FCF7D9FB484EDF
:103A7000314600F00DFA4749884203DD3146FCF734
:103A8000C9FB05E04449884202D93146FCF770FB86
:103A900001AA694600F0E0F94048D0F88400C0F17E
:103AA0001100112808D839489DF80010483041709D
:103AB0009DF80410817002E0286C401C28640026E8
:103AC00014B13748007838B16E70002000F0E6FC81
:103AD00000221146104652E0686900F05BFC314953
:103AE0008842F1D800F0EAFC0028EDD0FDF7FEF89E
:103AF000A969FCF795FB0746687858B12869A96A57
:103B00000646FCF787FB28490446AE62884207DD7B
:103B10000C4609E06F622869A8620120687022E003
:103B20002248844200D904462146686AFCF720FBFB
:103B30001F4906466862B4F5000F09DB3846FCF7FA
:103B400017FB04463146FCF735FC0CD26C620AE0E8
:103B500014F1FF4F07D33846FCF75CFB04463146AF
:103B6000FCF732FCF2D3012000F098FC686AFEF703
:103B700061FC686A00F0ECFC0246696A012002B050
:103B8000BDE8F04100F00CBC38010020140000201A
:103B9000DB0FC940DB0F4940DB0F49C0000002408A
:103BA00004000020A0860100CDCC4C3DCDCC4CBD06
:103BB0009A99193E704770B504464FF47A7502E041
:103BC000284600F003F8641EFAD270BD70B50446B2
:103BD00000F0D2FB0546284600F0DCFBA042FAD3F9
:103BE00070BD000038B51148416941F001014161E3
:103BF0004069104C00F0010000900D4820604FF427
:103C000080616161002060608021E1604900216184
:103C1000A0600801E0612020A0612046FDF7C6FAFF
:103C2000A4F130000462606238BD00000010024060
:103C3000080002408002002038B50F48416941F079
:103C40000101416140690E4C00F0010000900B48F9
:103C5000206010206060002080216061C4E90310B2
:103C6000A0604801E0612020A0612046FDF79EFA97
:103C700004488463606238BD001002408000024046
:103C8000C4020020500300202DE9F04104464FF00B
:103C900019404E49002500EB440088424AD84C495F
:103CA0002046FCF7BDFAFCF746FC8046FCF742FBD9
:103CB000064648494046FCF7B3FA0746464940469F
:103CC000FCF7AEFA2146FCF7A8FA3946FCF7A2FA4F
:103CD00004464249FCF7A4FA4149FCF749FA214657
:103CE000FCF79EFA6FF04141FCF742FA2146FCF7DF
:103CF00097FA3C49FCF73CFA2146FCF791FA014659
:103D0000394806F00304784450F82400FCF788FA98
:103D10003649794451F82410FCF72AFA3449794499
:103D200051F82410FCF724FAB11085BBBDE8F0412E
:103D3000FCF7E6BA4FF0FF4131EA040018D04FF02B
:103D4000CE41B1EB440F84BF4FF07E50BDE8F0810F
:103D50002849B1EB440F28BF0125A0D20220FEF76D
:103D600003FF14F0004F0ED0BDE8F041FEF7E7BEB0
:103D7000204614F5000F04BF0020BDE8F081BDE827
:103D8000F041FEF7CEBEBDE8F041FEF7D3BEFCF732
:103D9000B7FA04000BD0B4F1FF4F0FD0FEF79EFE30
:103DA000042808BFFEF7CBFE2046BDE8F0810220C4
:103DB000FEF7DAFEBDE8F041FEF7C1BE0220FEF7D5
:103DC000D3FEBDE8F041FEF7B5BE00000000501E76
:103DD0003BAAB840F4FD05370070313E12BB2A3DC6
:103DE00012BB2A3EFFFF7F3FCA100000AE1000004A
:103DF000921000000000A085134A136823F40043CA
:103E00001360114B0022103B1A601B1D1A601B1D12
:103E10001A600F4A0D4B136050600E4800689060A6
:103E20000C48001D0068D0600A480C300068106122
:103E30000848103000685061886990614869D06115
:103E4000C8691062FEE70000442C014031544C4622
:103E50000001002028ED00E070B50D460949144628
:103E6000884202DC0849884200D908460749FCF725
:103E7000D7F900F0C3FBFCF75DFA010A2970207046
:103E800070BD0000C3D5A3430AD7A3C30000C84236
:103E900070B5054620F00040C0F1FF400C46C00F51
:103EA00005D124F00040C0F1FF40C00F17D02846D4
:103EB000FCF75FFB6FEAD05111F0FF0F08BF70BD38
:103EC000E917B1EBE07F08BF70BD014664F31E0146
:103ED000BDE870400A4601461046FCF79EB94FF017
:103EE0007F40B0EB450F18BF5FEA4400DFD10120EF
:103EF000FEF73AFEBDE87040FEF718BE04490A68B6
:103F00005206FCD5024AC1B2121D11607047000072
:103F1000004400402DE9F0411C4C1B4E1422237933
:103F2000F0545B1CB3FBF2F002FB10352571607995
:103F3000142804D2401CC0B2607114280BD3705DE9
:103F4000552808D105F11300B0FBF2F302FB130072
:103F5000305CFF2802D00020BDE8F08100202B1843
:103F6000B3FBF2F702FB1733F35C0B54401CC0B2F7
:103F70001428F4D30020607100F0FEF96061E06B5A
:103F8000401CE0630120E7E74C0100201400002002
:103F9000044808B500680090411E009101D308460E
:103FA000FAE708BDE8000020154800B5816985B032
:103FB00041F008018161816901F008010491816982
:103FC00041F0080181618069694600F008000490B1
:103FD0004FF44060009011200190002002900320D7
:103FE00003900848FDF748F906484FF48061103007
:103FF0000160C1140160FFF7CBFF05B000BD0000F8
:1040000000100240000C01402DE9F0411F46150050
:104010000E4604460AD04FB100F0B8F86006000E14
:1040200000F08CF800F02EF8A0B902E00120BDE805
:10403000F081304600F082F800F024F850B900F02A
:10404000A5F8012000EB4400C0B200F077F800F0C2
:1040500019F810B100F0B0F8E8E700246E1E0BE08C
:1040600000F028F83855B44201D1012000E00020CA
:1040700000F04AF8641CE4B2AC42F1D300F09CF8C2
:104080000020D4E770B50A4C4FF400602060FFF7C1
:104090007FFF20152060FFF77BFF05480838006888
:1040A000C0F3C025A0052060FFF772FF284670BD51
:1040B000100C01402DE9F047124E4FF4006000242F
:1040C0003060DFF840902546C7034FF48068A9F1BF
:1040D00008096006040E3760FFF75AFFC6F8008033
:1040E000FFF756FFD9F80000000501D544F00104A0
:1040F0006D1CEDB2082DECD33760FFF749FF204669
:10410000BDE8F087100C014070B50B4C4FF4006512
:1041100008B1256002E04FF000602060FFF738FF33
:104120004FF480602060FFF733FF4FF08060206025
:10413000FFF72EFF256070BD100C01402DE9F04700
:10414000114E054600244FF400674FF000684FF40D
:1041500080694FF0806A280601D5376001E0C6F813
:1041600000806806050EFFF713FFC6F80090FFF702
:104170000FFFC6F800A0FFF70BFF641CE4B2082C89
:10418000E9D33760BDE8F087100C014010B5094C49
:104190004FF40060206040102060FFF7F9FEE0055A
:1041A0002060FFF7F5FEA0052060BDE81040FFF796
:1041B000EFBE0000100C014010B5094C4FF08060BC
:1041C000206040002060FFF7E3FE20152060FFF72D
:1041D000DFFEE0142060BDE81040FFF7D9BE00000C
:1041E000100C014070B515460E460446FFF7CEFF91
:1041F0006006000EFFF7A2FFFFF744FF58B93046F4
:10420000FFF79CFFFFF73EFF28B92846FFF796FF10
:10421000FFF738FF18B1FFF7CFFF012070BDFFF7A0
:10422000CBFF002070BD00000C4800B5816985B04F
:1042300041F0100181618069694600F0100004902E
:104240004FF40050009000200190012002900320C4
:1042500003900348FDF710F805B000BD00100240C0
:1042600000100140012211460148FDF7EBB80000A3
:10427000000C01400B4800B5816985B041F0080190
:1042800081618069694600F0080004900120009077
:10429000019002200290032003900348FCF7ECFFFA
:1042A00005B000BD00100240000C0140FDF7DEF833
:1042B0004FF4E01000F00AFB00F04EFBFFF7DAFFCE
:1042C000FFF772FEFFF7B0FF4FF4E13000F0F2FBB2
:1042D00000214FF4B46000F063F9FFF759F9FFF7DC
:1042E000ABFCFFF7BFFF174B174A00211748FDF73C
:1042F000E1FF174C0022234611461648FDF7EEFF5A
:104300000022234611464FF07C50FDF7CBFF1348A7
:1043100011498161124941611349124848611349A9
:104320004861FFF747FCFCF771FCFDF7D3FEFDF792
:104330000BFF14220E490F48FDF78CFEFFF778FBA8
:10434000FCE700000000B04052499D3AEC51383E75
:10435000000020400AD7233C6F12833B60010020FD
:104360000000A0420000484290010020C00100204F
:104370005C0000205003002010B505494FF0804339
:1043800008685A6A0C6892B2A042F9D1104410BD74
:10439000E000002010B50446FFF7EEFF001B10BD43
:1043A0002DE9F04190460F46002400B101241D483C
:1043B000007808B144F002041B4E7069FFF7EAFF71
:1043C0001A49884201D944F00404F07808B144F055
:1043D0000804706CFFF7DEFF134D5C35A860FFF733
:1043E000CBFF70646868401C6860F06BE860706BBD
:1043F00028616C61306CA861EF61FCF777FCB169F2
:10440000FBF70EFF2862C5F82480FCF793FCB16926
:10441000FBF706FFA862B06BE86230692863BDE86D
:10442000F08100000400002014000020A08601009C
:10443000044B10B51C686063186881631868C26318
:1044400010BD00000802002010B500210648FDF74D
:10445000E1FC04210448FDF7DDFCBDE81040082123
:104460000148FDF7D7BC0000080200200A4810B53B
:10447000026800215163026891630068C1630648C5
:10448000FDF718FD04210448FDF714FDBDE81040B8
:1044900008210148FDF70EBD0802002070B5064D49
:1044A00004462878844206D014B1FDF7CBFE01E023
:1044B000FDF7DCFE2C7070BD140000202DE9F041EA
:1044C000174EB56B15F1FF4F01D385F00045FFF78F
:1044D00053FF0446F078002750B1306BFFF75AFFC6
:1044E0001049884202D20020BDE8F081F770B77011
:1044F0000D48854211DDB078012558B1F06AFFF70B
:1045000049FF0A49884209D9F5703463706B401C31
:104510007063E8E7B570F46200E0B7700120E3E78C
:104520001400002080841E009A99993F400D0300DA
:1045300010B500F00DF80449FBF772FEBDE810401D
:104540000249FBF79FBE000000003443DA0F4940E8
:1045500010B50446FCF7CAFB0D490968FBF760FE7D
:104560002146FBF75AFE0B4C2146FFF791FC0A4906
:10457000884204DD2146BDE81040FBF74BBE0749E9
:10458000884204D92146BDE81040FBF7F1BD10BDBB
:104590002C000020DB0FC940DA0F4940DA0F49C078
:1045A00030B587B00C4605461C216846FBF7D5FDA3
:1045B000114A1048C2E900042020C2E90205104651
:1045C000FDF7CEFB60200090002001900246029093
:1045D00069460948FDF75EFB042269460648FDF777
:1045E00059FB082269460448FDF754FBFFF73EFFDC
:1045F00007B030BD002C01400802002070B5054610
:10460000FBF799FF044601462846FBF703FE15F029
:10461000004F4FF07F410ED0B0F13F4F28BFB1EBBC
:10462000400F0ED2B0F17C5F1DDDB1EB400F1AD30D
:1046300013E0044617E0B0F13F4F08D9B1EB400F4B
:1046400005D34FF07E512046FBF7E4FDF1E7B0F1D2
:104650007C5F08DBB1EB400F05D34FF07E51204665
:10466000FBF786FDE5E7284664F31E0070BD0000F9
:104670002DE9F047824C90460D46064611F0FF4F5B
:1046800017D031460846FBF7CBFD074629460846BA
:10469000FBF7C6FD3946FBF76BFD00F001F9216819
:1046A000FBF7F0FD044629463046FFF73FF8414648
:1046B00006E030462168FBF7E5FD044671494046B7
:1046C000FBF756FDFEF73EFB05466F48844202D8D5
:1046D0006E48844200DD04466D4FA14639462846A7
:1046E000FBF7D0FDFBF73FFE441C062C00D9062447
:1046F0002046FBF71AFE06463946FBF791FD294690
:10470000FBF788FDFEF7C0FEDFF888814146FBF726
:1047100087FD4946FBF784FD824630464FF07E56C2
:104720003146FBF777FD3946FBF77AFD2946FBF763
:1047300074FDFEF7A9FE4146FBF772FD4946FBF703
:104740006FFD814651463046FBF764FD4946FBF755
:1047500061FD514F4FF0FF31072C61D2DFE804F0CB
:104760006004132533455200FBF7CAFD80464446DA
:1047700049465046FBF7FCFC2146FBF7F9FC044692
:10478000404649460CE0FBF7BBFD80465146FBF72F
:10479000EFFC0446454649465046FBF7E9FC2946EE
:1047A000FBF7E6FC054640461BE0FBF7A9FD044687
:1047B00049465046FBF7DCFC2146FBF7D9FC054691
:1047C000204649460BE0FBF79BFD04465146FBF7AC
:1047D000CFFC054649465046FBF7CAFC2146FBF78D
:1047E000C7FCBC4220D3002421E0FBF789FD05462D
:1047F0004946FBF7BDFC044649465046FBF7B8FC6A
:104800002946ECE7FBF77CFD054649465046FBF799
:10481000AFFC2946FBF7ACFC044628465146DEE7D0
:1048200000242546204602E0B44200DD3446BD4265
:1048300001D3002502E0B54200DD3546B84201D380
:10484000002002E0B04200DD3046144E3146FBF756
:10485000E7FCFBF788FD87B231462846FBF7E0FC12
:10486000FBF781FD85B231462046FBF7D9FCFBF70B
:104870007AFD3A462946BDE8F04780B2FFF7D8BD39
:10488000A4000020DB0FC93F46B613BF46B6133F56
:10489000920A863FD7B3DD3F000080800000B44419
:1048A00070B50546FBF718FE044620F00040C0F145
:1048B000FF40C00F08D025F00040C0F1FF40C00FFE
:1048C00004BF0120FEF750F9204670BD70B590B0CE
:1048D000064628216846FBF740FC14210AA8FBF78E
:1048E0003CFC0120010400248DE8130002250996F8
:1048F000CDE907516846FCF7D3FF00B1FEE70F2072
:10490000CDE90A054FF48060CDE90C4002210AA8E8
:104910000E94FCF7E3FE002800D0FEE710B070BD57
:1049200010B50446FFF728FD014620682160081AEB
:1049300002D00649884201D9054810BDFBF7F5FCB5
:10494000BDE810400349FBF76BBC0000A0860100E6
:104950006F12833ABD37863538B51548C16941F0C5
:104960000101C161C069134C00F0010000904FF0DB
:1049700080402060472060604FF6FF70E0600020BC
:10498000A0602061A0612046FDF72AF900220F21D6
:104990001C20FCF7ABFD1C20FCF79BFD21686FF091
:1049A000010008612046BDE83840FDF747B9000026
:1049B00000100240080300202DE9F047314A324B35
:1049C00005464FF07F4120F00044B1EB450F54D332
:1049D0009C421BDDB1EB440F18D39442C8BF4FF08B
:1049E0007E5044DC01212046FBF78AFCFFF74CF99E
:1049F0004FF07E51FBF7BCFB01464FF08040FBF7C8
:104A000041FC4FF07E51FBF708FC30E0B4F1665FEB
:104A10000BDAB1EB440F08D32046FEF75FF8042809
:104A200008BFFEF78CF8204621E02146174EDFF83C
:104A300060A0184F0846FBF7F3FB80465146FBF792
:104A4000EFFB3146FBF794FB4146FBF7E9FB0646DB
:104A500039464046FBF78CFB01463046FBF712FC1B
:104A600001462046FBF7DCFB2146FBF781FB002DCE
:104A7000B8BF80F00040BDE8F087BDE8F047FEF722
:104A800050B80000B32C1041549F0C3FC6E252BFF7
:104A9000B2117BBB1A2A1E4010B541EA002000B2B9
:104AA000FBF73AFCBDE810400149FBF7EBBB000007
:104AB0000000C8420F4910B50D4AC1E9002000208E
:104AC0008860C860086188610C2048610846FDF76D
:104AD0002BFA084914228C310648FDF7ABFA054839
:104AE0004830006840680449C0F11400088010BDD7
:104AF0000044004050030020E40000202DE9F8436A
:104B0000194800684068194FC0F1140085B2388810
:104B1000854201D3281A02E0C0F114002844DFF8CE
:104B2000489086B200244FF0140809F144090CE0C3
:104B300038880119B1FBF8F208FB12100C4919F87A
:104B40000000FFF7E7F9641CA4B2B442F0D30648B2
:104B50003D80483800680168C943090702D40168EC
:104B600040680090BDE8F88398030020E40000202E
:104B700038010020000000000000000001020304D2
:104B800006070809000000000102030400000000FD
:104B90008010493C350AC93CF0C2163D87FB483DB0
:104BA000BB2B7B3D3FA9963D56B6AF3D23BDC83DCF
:104BB00012BCE13D9EB2FA3D9ACF093E6440163EDA
:104BC000ACAB223EAA102F3ED66E3B3EACC5473E54
:104BD000E814543E035C603E789A6C3EC0CF783E49
:104BE000CC7D823E9B8E883E2C9A8E3E3CA0943E8D
:104BF00088A09A3EED9AA03E088FA63ED97CAC3E96
:104C0000FA63B23E2844B83E431DBE3E07EFC33EA2
:104C100052B9C93EC07BCF3E5036D53E7DE8DA3E24
:104C20004792E03E6A33E63EC5CBEB3EF35AF13E97
:104C3000D2E0F63E205DFC3EDEE7003F419C033FB4
:104C4000884B063FA1F5083F6B9A0B3FD6390E3FC4
:104C5000D0D3103F2768133FDCF6153FBB7F183FCA
:104C6000C5021B3FD87F1D3FD3F61F3F9467223FED
:104C70002DD2243F5936273F1894293F4AEB2B3F2A
:104C8000DE3B2E3FC285303FC5C8323FF704353F7B
:104C9000263A373F4068393F368F3B3FF7AE3D3FBE
:104CA00060C73F3F73D8413FFCE1433FFCE3453FD2
:104CB00061DE473F0BD1493FF9BB4B3F0A9F4D3F58
:104CC0001C7A4F3F404D513F4418533F38DB543F0F
:104CD000EA95563F5A48583F67F2593F21945B3F47
:104CE000562D5D3F06BE5E3F2046603F93C5613F47
:104CF000603C633F54AA643F800F663FD36B673FBD
:104D00003CBF683FAB096A3F0E4B6B3F66836C3F0D
:104D100092B26D3FA1D86E3F73F56F3F0709713FA7
:104D20004D13723F4414733FDD0B743F05FA743F1B
:104D3000CEDE753F06BA763FBD8B773FF453783FA2
:104D40009912793F9BC7793FFC727A3FBA147B3F37
:104D5000C5AC7B3F2E3B7C3FC2BF7C3FB43A7D3F1E
:104D6000D2AB7D3F2B137E3FB0707E3F72C47E3F3F
:104D70005E0E7F3F664E7F3FA9847F3F07B17F3F36
:104D800091D37F3F46EC7F3F16FB7F3F0000803F83
:104D9000010202030405060708090A0B0C0D0E0F99
:104DA0001010010202030405060708090A0B0C0D86
:104DB0000E0F10100000803F0030983F0000B53FFC
:104DC0000040D73F00000000320A7E397F661E395E
:104DD0005B991F390000803FF037983FF304B53FDF
:104DE000FD44D73F044E00080000002000010000F1
:104DF000482B0008044F000800010020F0060000C6
:104E0000582B00080024F4000000000000000000FF
:104E10000000000000000000000000000000000092
:104E20000000000000000000000000000000000082
:104E3000000080BF00006041000000000000000092
:104E40000000000000000000000000000000000062
:104E50000000000000000000000000000000000052
:104E600055000000000000000000000000000000ED
:104E7000000000FF31574159000000000000000011
:104E80000000000000000000000000000000000022
:104E90000000000000000000000000000000000012
:104EA000000000000000000033333B410000000020
:104EB0000AD7233C00004842000000000000000028
:104EC00000000000000000000000000000000000E2
:104ED00000000000000000000000000000000000D2
:104EE0000000000000000000000000000A000000B8
:104EF00001000000100000000000000000000000A1
:044F000000000000AD
:04000005080000ED02
:00000001FF
